{
	"src/KipuBankV2.sol": {
		"KipuBank": {
			"abi": [
				{
					"inputs": [
						{
							"internalType": "uint256",
							"name": "_maxWithdrawal",
							"type": "uint256"
						},
						{
							"internalType": "uint256",
							"name": "_totalCapacity",
							"type": "uint256"
						}
					],
					"stateMutability": "nonpayable",
					"type": "constructor"
				},
				{
					"inputs": [],
					"name": "AccessControlBadConfirmation",
					"type": "error"
				},
				{
					"inputs": [
						{
							"internalType": "address",
							"name": "account",
							"type": "address"
						},
						{
							"internalType": "bytes32",
							"name": "neededRole",
							"type": "bytes32"
						}
					],
					"name": "AccessControlUnauthorizedAccount",
					"type": "error"
				},
				{
					"inputs": [],
					"name": "DirectTransferNotAllowed",
					"type": "error"
				},
				{
					"inputs": [],
					"name": "InsufficientBalance",
					"type": "error"
				},
				{
					"inputs": [],
					"name": "InvalidBankCapacity",
					"type": "error"
				},
				{
					"inputs": [],
					"name": "MaxDepositExceeded",
					"type": "error"
				},
				{
					"inputs": [],
					"name": "MaxWithdrawalExceeded",
					"type": "error"
				},
				{
					"inputs": [],
					"name": "MaximumWithdrawalInvalid",
					"type": "error"
				},
				{
					"inputs": [],
					"name": "ZeroDepositNotAllowed",
					"type": "error"
				},
				{
					"anonymous": false,
					"inputs": [
						{
							"indexed": true,
							"internalType": "address",
							"name": "user",
							"type": "address"
						},
						{
							"indexed": false,
							"internalType": "uint256",
							"name": "amount",
							"type": "uint256"
						}
					],
					"name": "DepositMade",
					"type": "event"
				},
				{
					"anonymous": false,
					"inputs": [
						{
							"indexed": true,
							"internalType": "bytes32",
							"name": "role",
							"type": "bytes32"
						},
						{
							"indexed": true,
							"internalType": "bytes32",
							"name": "previousAdminRole",
							"type": "bytes32"
						},
						{
							"indexed": true,
							"internalType": "bytes32",
							"name": "newAdminRole",
							"type": "bytes32"
						}
					],
					"name": "RoleAdminChanged",
					"type": "event"
				},
				{
					"anonymous": false,
					"inputs": [
						{
							"indexed": true,
							"internalType": "bytes32",
							"name": "role",
							"type": "bytes32"
						},
						{
							"indexed": true,
							"internalType": "address",
							"name": "account",
							"type": "address"
						},
						{
							"indexed": true,
							"internalType": "address",
							"name": "sender",
							"type": "address"
						}
					],
					"name": "RoleGranted",
					"type": "event"
				},
				{
					"anonymous": false,
					"inputs": [
						{
							"indexed": true,
							"internalType": "bytes32",
							"name": "role",
							"type": "bytes32"
						},
						{
							"indexed": true,
							"internalType": "address",
							"name": "account",
							"type": "address"
						},
						{
							"indexed": true,
							"internalType": "address",
							"name": "sender",
							"type": "address"
						}
					],
					"name": "RoleRevoked",
					"type": "event"
				},
				{
					"anonymous": false,
					"inputs": [
						{
							"indexed": true,
							"internalType": "address",
							"name": "user",
							"type": "address"
						},
						{
							"indexed": false,
							"internalType": "uint256",
							"name": "amount",
							"type": "uint256"
						}
					],
					"name": "WithdrawalMade",
					"type": "event"
				},
				{
					"inputs": [],
					"name": "BANK_MANAGER_ROLE",
					"outputs": [
						{
							"internalType": "bytes32",
							"name": "",
							"type": "bytes32"
						}
					],
					"stateMutability": "view",
					"type": "function"
				},
				{
					"inputs": [],
					"name": "DEFAULT_ADMIN_ROLE",
					"outputs": [
						{
							"internalType": "bytes32",
							"name": "",
							"type": "bytes32"
						}
					],
					"stateMutability": "view",
					"type": "function"
				},
				{
					"inputs": [],
					"name": "deposit",
					"outputs": [],
					"stateMutability": "payable",
					"type": "function"
				},
				{
					"inputs": [
						{
							"internalType": "address",
							"name": "",
							"type": "address"
						}
					],
					"name": "depositCount",
					"outputs": [
						{
							"internalType": "uint256",
							"name": "",
							"type": "uint256"
						}
					],
					"stateMutability": "view",
					"type": "function"
				},
				{
					"inputs": [
						{
							"internalType": "address",
							"name": "user",
							"type": "address"
						}
					],
					"name": "getBalance",
					"outputs": [
						{
							"internalType": "uint256",
							"name": "",
							"type": "uint256"
						}
					],
					"stateMutability": "view",
					"type": "function"
				},
				{
					"inputs": [
						{
							"internalType": "bytes32",
							"name": "role",
							"type": "bytes32"
						}
					],
					"name": "getRoleAdmin",
					"outputs": [
						{
							"internalType": "bytes32",
							"name": "",
							"type": "bytes32"
						}
					],
					"stateMutability": "view",
					"type": "function"
				},
				{
					"inputs": [
						{
							"internalType": "bytes32",
							"name": "role",
							"type": "bytes32"
						},
						{
							"internalType": "address",
							"name": "account",
							"type": "address"
						}
					],
					"name": "grantRole",
					"outputs": [],
					"stateMutability": "nonpayable",
					"type": "function"
				},
				{
					"inputs": [
						{
							"internalType": "bytes32",
							"name": "role",
							"type": "bytes32"
						},
						{
							"internalType": "address",
							"name": "account",
							"type": "address"
						}
					],
					"name": "hasRole",
					"outputs": [
						{
							"internalType": "bool",
							"name": "",
							"type": "bool"
						}
					],
					"stateMutability": "view",
					"type": "function"
				},
				{
					"inputs": [],
					"name": "maxWithdrawal",
					"outputs": [
						{
							"internalType": "uint256",
							"name": "",
							"type": "uint256"
						}
					],
					"stateMutability": "view",
					"type": "function"
				},
				{
					"inputs": [
						{
							"internalType": "bytes32",
							"name": "role",
							"type": "bytes32"
						},
						{
							"internalType": "address",
							"name": "callerConfirmation",
							"type": "address"
						}
					],
					"name": "renounceRole",
					"outputs": [],
					"stateMutability": "nonpayable",
					"type": "function"
				},
				{
					"inputs": [
						{
							"internalType": "bytes32",
							"name": "role",
							"type": "bytes32"
						},
						{
							"internalType": "address",
							"name": "account",
							"type": "address"
						}
					],
					"name": "revokeRole",
					"outputs": [],
					"stateMutability": "nonpayable",
					"type": "function"
				},
				{
					"inputs": [
						{
							"internalType": "bytes4",
							"name": "interfaceId",
							"type": "bytes4"
						}
					],
					"name": "supportsInterface",
					"outputs": [
						{
							"internalType": "bool",
							"name": "",
							"type": "bool"
						}
					],
					"stateMutability": "view",
					"type": "function"
				},
				{
					"inputs": [],
					"name": "totalBankCapacity",
					"outputs": [
						{
							"internalType": "uint256",
							"name": "",
							"type": "uint256"
						}
					],
					"stateMutability": "view",
					"type": "function"
				},
				{
					"inputs": [],
					"name": "totalDeposits",
					"outputs": [
						{
							"internalType": "uint256",
							"name": "",
							"type": "uint256"
						}
					],
					"stateMutability": "view",
					"type": "function"
				},
				{
					"inputs": [
						{
							"internalType": "uint256",
							"name": "amount",
							"type": "uint256"
						}
					],
					"name": "withdraw",
					"outputs": [],
					"stateMutability": "nonpayable",
					"type": "function"
				},
				{
					"inputs": [
						{
							"internalType": "address",
							"name": "",
							"type": "address"
						}
					],
					"name": "withdrawalCount",
					"outputs": [
						{
							"internalType": "uint256",
							"name": "",
							"type": "uint256"
						}
					],
					"stateMutability": "view",
					"type": "function"
				},
				{
					"stateMutability": "payable",
					"type": "receive"
				}
			],
			"devdoc": {
				"errors": {
					"AccessControlBadConfirmation()": [
						{
							"details": "The caller of a function is not the expected one. NOTE: Don't confuse with {AccessControlUnauthorizedAccount}."
						}
					],
					"AccessControlUnauthorizedAccount(address,bytes32)": [
						{
							"details": "The `account` is missing a role."
						}
					]
				},
				"events": {
					"DepositMade(address,uint256)": {
						"params": {
							"amount": "Amount of ETH deposited.",
							"user": "is the user's address "
						}
					},
					"RoleAdminChanged(bytes32,bytes32,bytes32)": {
						"details": "Emitted when `newAdminRole` is set as ``role``'s admin role, replacing `previousAdminRole` `DEFAULT_ADMIN_ROLE` is the starting admin for all roles, despite {RoleAdminChanged} not being emitted to signal this."
					},
					"RoleGranted(bytes32,address,address)": {
						"details": "Emitted when `account` is granted `role`. `sender` is the account that originated the contract call. This account bears the admin role (for the granted role). Expected in cases where the role was granted using the internal {AccessControl-_grantRole}."
					},
					"RoleRevoked(bytes32,address,address)": {
						"details": "Emitted when `account` is revoked `role`. `sender` is the account that originated the contract call:   - if using `revokeRole`, it is the admin role bearer   - if using `renounceRole`, it is the role bearer (i.e. `account`)"
					},
					"WithdrawalMade(address,uint256)": {
						"params": {
							"amount": "Amount of ETH withdrawn.",
							"user": "the user's address "
						}
					}
				},
				"kind": "dev",
				"methods": {
					"constructor": {
						"params": {
							"_maxWithdrawal": "Maximum withdrawal limit per transaction.",
							"_totalCapacity": "Total ETH capacity of the bank."
						}
					},
					"deposit()": {
						"details": "Check global limit and record deposit."
					},
					"getBalance(address)": {
						"params": {
							"user": "Address of the user to query."
						},
						"returns": {
							"_0": "The ETH balance of the user in the vault."
						}
					},
					"getRoleAdmin(bytes32)": {
						"details": "Returns the admin role that controls `role`. See {grantRole} and {revokeRole}. To change a role's admin, use {_setRoleAdmin}."
					},
					"grantRole(bytes32,address)": {
						"details": "Grants `role` to `account`. If `account` had not been already granted `role`, emits a {RoleGranted} event. Requirements: - the caller must have ``role``'s admin role. May emit a {RoleGranted} event."
					},
					"hasRole(bytes32,address)": {
						"details": "Returns `true` if `account` has been granted `role`."
					},
					"renounceRole(bytes32,address)": {
						"details": "Revokes `role` from the calling account. Roles are often managed via {grantRole} and {revokeRole}: this function's purpose is to provide a mechanism for accounts to lose their privileges if they are compromised (such as when a trusted device is misplaced). If the calling account had been revoked `role`, emits a {RoleRevoked} event. Requirements: - the caller must be `callerConfirmation`. May emit a {RoleRevoked} event."
					},
					"revokeRole(bytes32,address)": {
						"details": "Revokes `role` from `account`. If `account` had been granted `role`, emits a {RoleRevoked} event. Requirements: - the caller must have ``role``'s admin role. May emit a {RoleRevoked} event."
					},
					"supportsInterface(bytes4)": {
						"details": "Returns true if this contract implements the interface defined by `interfaceId`. See the corresponding https://eips.ethereum.org/EIPS/eip-165#how-interfaces-are-identified[ERC section] to learn more about how these ids are created. This function call must use less than 30 000 gas."
					},
					"withdraw(uint256)": {
						"params": {
							"amount": "The amount of ETH to withdraw and uses secure transfers and custom errors."
						}
					}
				},
				"version": 1
			},
			"evm": {
				"assembly": "    /* \"src/KipuBankV2.sol\":737:6782  contract KipuBank is AccessControl, ReentrancyGuard{... */\n  mstore(0x40, 0xc0)\n    /* \"src/KipuBankV2.sol\":3631:3920  constructor(uint256 _maxWithdrawal, uint256 _totalCapacity) {... */\n  callvalue\n  dup1\n  iszero\n  tag_1\n  jumpi\n  revert(0x00, 0x00)\ntag_1:\n  pop\n  mload(0x40)\n  sub(codesize, bytecodeSize)\n  dup1\n  bytecodeSize\n  dup4\n  codecopy\n  dup2\n  dup2\n  add\n  0x40\n  mstore\n  dup2\n  add\n  swap1\n  tag_2\n  swap2\n  swap1\n  tag_3\n  jump\t// in\ntag_2:\n    /* \"@openzeppelin/contracts/security/ReentrancyGuard.sol\":1716:1717  1 */\n  0x01\n    /* \"@openzeppelin/contracts/security/ReentrancyGuard.sol\":1821:1828  _status */\n  dup1\n    /* \"@openzeppelin/contracts/security/ReentrancyGuard.sol\":1821:1843  _status = _NOT_ENTERED */\n  dup2\n  swap1\n  sstore\n  pop\n    /* \"src/KipuBankV2.sol\":3724:3725  0 */\n  0x00\n    /* \"src/KipuBankV2.sol\":3706:3720  _maxWithdrawal */\n  dup3\n    /* \"src/KipuBankV2.sol\":3706:3725  _maxWithdrawal == 0 */\n  sub\n    /* \"src/KipuBankV2.sol\":3702:3760  if (_maxWithdrawal == 0) revert MaximumWithdrawalInvalid() */\n  tag_8\n  jumpi\n    /* \"src/KipuBankV2.sol\":3734:3760  MaximumWithdrawalInvalid() */\n  mload(0x40)\n  0xf1f13a3800000000000000000000000000000000000000000000000000000000\n  dup2\n  mstore\n  0x04\n  add\n  mload(0x40)\n  dup1\n  swap2\n  sub\n  swap1\n  revert\n    /* \"src/KipuBankV2.sol\":3702:3760  if (_maxWithdrawal == 0) revert MaximumWithdrawalInvalid() */\ntag_8:\n    /* \"src/KipuBankV2.sol\":3793:3794  0 */\n  0x00\n    /* \"src/KipuBankV2.sol\":3775:3789  _totalCapacity */\n  dup2\n    /* \"src/KipuBankV2.sol\":3775:3794  _totalCapacity == 0 */\n  sub\n    /* \"src/KipuBankV2.sol\":3771:3824  if (_totalCapacity == 0) revert InvalidBankCapacity() */\n  tag_9\n  jumpi\n    /* \"src/KipuBankV2.sol\":3803:3824  InvalidBankCapacity() */\n  mload(0x40)\n  0xafea1c5700000000000000000000000000000000000000000000000000000000\n  dup2\n  mstore\n  0x04\n  add\n  mload(0x40)\n  dup1\n  swap2\n  sub\n  swap1\n  revert\n    /* \"src/KipuBankV2.sol\":3771:3824  if (_totalCapacity == 0) revert InvalidBankCapacity() */\ntag_9:\n    /* \"src/KipuBankV2.sol\":3853:3867  _maxWithdrawal */\n  dup2\n    /* \"src/KipuBankV2.sol\":3837:3867  maxWithdrawal = _maxWithdrawal */\n  0x80\n  dup2\n  dup2\n  mstore\n  pop\n  pop\n    /* \"src/KipuBankV2.sol\":3898:3912  _totalCapacity */\n  dup1\n    /* \"src/KipuBankV2.sol\":3878:3912  totalBankCapacity = _totalCapacity */\n  0xa0\n  dup2\n  dup2\n  mstore\n  pop\n  pop\n    /* \"src/KipuBankV2.sol\":3631:3920  constructor(uint256 _maxWithdrawal, uint256 _totalCapacity) {... */\n  pop\n  pop\n    /* \"src/KipuBankV2.sol\":737:6782  contract KipuBank is AccessControl, ReentrancyGuard{... */\n  jump(tag_10)\n    /* \"#utility.yul\":88:205   */\ntag_12:\n    /* \"#utility.yul\":197:198   */\n  0x00\n    /* \"#utility.yul\":194:195   */\n  0x00\n    /* \"#utility.yul\":187:199   */\n  revert\n    /* \"#utility.yul\":334:411   */\ntag_14:\n    /* \"#utility.yul\":371:378   */\n  0x00\n    /* \"#utility.yul\":400:405   */\n  dup2\n    /* \"#utility.yul\":389:405   */\n  swap1\n  pop\n    /* \"#utility.yul\":334:411   */\n  swap2\n  swap1\n  pop\n  jump\t// out\n    /* \"#utility.yul\":417:539   */\ntag_15:\n    /* \"#utility.yul\":490:514   */\n  tag_23\n    /* \"#utility.yul\":508:513   */\n  dup2\n    /* \"#utility.yul\":490:514   */\n  tag_14\n  jump\t// in\ntag_23:\n    /* \"#utility.yul\":483:488   */\n  dup2\n    /* \"#utility.yul\":480:515   */\n  eq\n    /* \"#utility.yul\":470:533   */\n  tag_24\n  jumpi\n    /* \"#utility.yul\":529:530   */\n  0x00\n    /* \"#utility.yul\":526:527   */\n  0x00\n    /* \"#utility.yul\":519:531   */\n  revert\n    /* \"#utility.yul\":470:533   */\ntag_24:\n    /* \"#utility.yul\":417:539   */\n  pop\n  jump\t// out\n    /* \"#utility.yul\":545:688   */\ntag_16:\n    /* \"#utility.yul\":602:607   */\n  0x00\n    /* \"#utility.yul\":633:639   */\n  dup2\n    /* \"#utility.yul\":627:640   */\n  mload\n    /* \"#utility.yul\":618:640   */\n  swap1\n  pop\n    /* \"#utility.yul\":649:682   */\n  tag_26\n    /* \"#utility.yul\":676:681   */\n  dup2\n    /* \"#utility.yul\":649:682   */\n  tag_15\n  jump\t// in\ntag_26:\n    /* \"#utility.yul\":545:688   */\n  swap3\n  swap2\n  pop\n  pop\n  jump\t// out\n    /* \"#utility.yul\":694:1201   */\ntag_3:\n    /* \"#utility.yul\":773:779   */\n  0x00\n    /* \"#utility.yul\":781:787   */\n  0x00\n    /* \"#utility.yul\":830:832   */\n  0x40\n    /* \"#utility.yul\":818:827   */\n  dup4\n    /* \"#utility.yul\":809:816   */\n  dup6\n    /* \"#utility.yul\":805:828   */\n  sub\n    /* \"#utility.yul\":801:833   */\n  slt\n    /* \"#utility.yul\":798:917   */\n  iszero\n  tag_28\n  jumpi\n    /* \"#utility.yul\":836:915   */\n  tag_29\n  tag_12\n  jump\t// in\ntag_29:\n    /* \"#utility.yul\":798:917   */\ntag_28:\n    /* \"#utility.yul\":956:957   */\n  0x00\n    /* \"#utility.yul\":981:1045   */\n  tag_30\n    /* \"#utility.yul\":1037:1044   */\n  dup6\n    /* \"#utility.yul\":1028:1034   */\n  dup3\n    /* \"#utility.yul\":1017:1026   */\n  dup7\n    /* \"#utility.yul\":1013:1035   */\n  add\n    /* \"#utility.yul\":981:1045   */\n  tag_16\n  jump\t// in\ntag_30:\n    /* \"#utility.yul\":971:1045   */\n  swap3\n  pop\n    /* \"#utility.yul\":927:1055   */\n  pop\n    /* \"#utility.yul\":1094:1096   */\n  0x20\n    /* \"#utility.yul\":1120:1184   */\n  tag_31\n    /* \"#utility.yul\":1176:1183   */\n  dup6\n    /* \"#utility.yul\":1167:1173   */\n  dup3\n    /* \"#utility.yul\":1156:1165   */\n  dup7\n    /* \"#utility.yul\":1152:1174   */\n  add\n    /* \"#utility.yul\":1120:1184   */\n  tag_16\n  jump\t// in\ntag_31:\n    /* \"#utility.yul\":1110:1184   */\n  swap2\n  pop\n    /* \"#utility.yul\":1065:1194   */\n  pop\n    /* \"#utility.yul\":694:1201   */\n  swap3\n  pop\n  swap3\n  swap1\n  pop\n  jump\t// out\n    /* \"src/KipuBankV2.sol\":737:6782  contract KipuBank is AccessControl, ReentrancyGuard{... */\ntag_10:\n  mload(0x80)\n  mload(0xa0)\n  codecopy(0x00, dataOffset(sub_0), dataSize(sub_0))\n  0x00\n  assignImmutable(\"0x33cc19d79febe2413fb9e204aeb684d47982ef5754538b90a83e403603eda384\")\n  0x00\n  assignImmutable(\"0x665815f06199f799aa9c8465bf48731e4a71da710cd1bae12047781b4c666aed\")\n  return(0x00, dataSize(sub_0))\nstop\n\nsub_0: assembly {\n        /* \"src/KipuBankV2.sol\":737:6782  contract KipuBank is AccessControl, ReentrancyGuard{... */\n      mstore(0x40, 0x80)\n      jumpi(tag_1, lt(calldatasize, 0x04))\n      shr(0xe0, calldataload(0x00))\n      dup1\n      0xa217fddf\n      gt\n      tag_19\n      jumpi\n      dup1\n      0xd547741f\n      gt\n      tag_20\n      jumpi\n      dup1\n      0xd547741f\n      eq\n      tag_15\n      jumpi\n      dup1\n      0xf2157052\n      eq\n      tag_16\n      jumpi\n      dup1\n      0xf4443d9a\n      eq\n      tag_17\n      jumpi\n      dup1\n      0xf8b2cb4f\n      eq\n      tag_18\n      jumpi\n      jump(tag_2)\n    tag_20:\n      dup1\n      0xa217fddf\n      eq\n      tag_11\n      jumpi\n      dup1\n      0xb3d8bcdc\n      eq\n      tag_12\n      jumpi\n      dup1\n      0xc16ec037\n      eq\n      tag_13\n      jumpi\n      dup1\n      0xd0e30db0\n      eq\n      tag_14\n      jumpi\n      jump(tag_2)\n    tag_19:\n      dup1\n      0x36568abe\n      gt\n      tag_21\n      jumpi\n      dup1\n      0x36568abe\n      eq\n      tag_7\n      jumpi\n      dup1\n      0x7d882097\n      eq\n      tag_8\n      jumpi\n      dup1\n      0x8c0ff5b7\n      eq\n      tag_9\n      jumpi\n      dup1\n      0x91d14854\n      eq\n      tag_10\n      jumpi\n      jump(tag_2)\n    tag_21:\n      dup1\n      0x01ffc9a7\n      eq\n      tag_3\n      jumpi\n      dup1\n      0x248a9ca3\n      eq\n      tag_4\n      jumpi\n      dup1\n      0x2e1a7d4d\n      eq\n      tag_5\n      jumpi\n      dup1\n      0x2f2ff15d\n      eq\n      tag_6\n      jumpi\n      jump(tag_2)\n    tag_1:\n      jumpi(tag_2, calldatasize)\n        /* \"src/KipuBankV2.sol\":6745:6771  DirectTransferNotAllowed() */\n      mload(0x40)\n      0x3ee6509d00000000000000000000000000000000000000000000000000000000\n      dup2\n      mstore\n      0x04\n      add\n      mload(0x40)\n      dup1\n      swap2\n      sub\n      swap1\n      revert\n        /* \"src/KipuBankV2.sol\":737:6782  contract KipuBank is AccessControl, ReentrancyGuard{... */\n    tag_2:\n      revert(0x00, 0x00)\n        /* \"@openzeppelin/contracts/access/AccessControl.sol\":2541:2743  function supportsInterface(bytes4 interfaceId) public view virtual override returns (bool) {... */\n    tag_3:\n      callvalue\n      dup1\n      iszero\n      tag_24\n      jumpi\n      revert(0x00, 0x00)\n    tag_24:\n      pop\n      tag_25\n      0x04\n      dup1\n      calldatasize\n      sub\n      dup2\n      add\n      swap1\n      tag_26\n      swap2\n      swap1\n      tag_27\n      jump\t// in\n    tag_26:\n      tag_28\n      jump\t// in\n    tag_25:\n      mload(0x40)\n      tag_29\n      swap2\n      swap1\n      tag_30\n      jump\t// in\n    tag_29:\n      mload(0x40)\n      dup1\n      swap2\n      sub\n      swap1\n      return\n        /* \"@openzeppelin/contracts/access/AccessControl.sol\":3786:3906  function getRoleAdmin(bytes32 role) public view virtual returns (bytes32) {... */\n    tag_4:\n      callvalue\n      dup1\n      iszero\n      tag_31\n      jumpi\n      revert(0x00, 0x00)\n    tag_31:\n      pop\n      tag_32\n      0x04\n      dup1\n      calldatasize\n      sub\n      dup2\n      add\n      swap1\n      tag_33\n      swap2\n      swap1\n      tag_34\n      jump\t// in\n    tag_33:\n      tag_35\n      jump\t// in\n    tag_32:\n      mload(0x40)\n      tag_36\n      swap2\n      swap1\n      tag_37\n      jump\t// in\n    tag_36:\n      mload(0x40)\n      dup1\n      swap2\n      sub\n      swap1\n      return\n        /* \"src/KipuBankV2.sol\":5259:5722  function withdraw(uint256 amount) external withinWithdrawalLimit(amount) {... */\n    tag_5:\n      callvalue\n      dup1\n      iszero\n      tag_38\n      jumpi\n      revert(0x00, 0x00)\n    tag_38:\n      pop\n      tag_39\n      0x04\n      dup1\n      calldatasize\n      sub\n      dup2\n      add\n      swap1\n      tag_40\n      swap2\n      swap1\n      tag_41\n      jump\t// in\n    tag_40:\n      tag_42\n      jump\t// in\n    tag_39:\n      stop\n        /* \"@openzeppelin/contracts/access/AccessControl.sol\":4202:4338  function grantRole(bytes32 role, address account) public virtual onlyRole(getRoleAdmin(role)) {... */\n    tag_6:\n      callvalue\n      dup1\n      iszero\n      tag_43\n      jumpi\n      revert(0x00, 0x00)\n    tag_43:\n      pop\n      tag_44\n      0x04\n      dup1\n      calldatasize\n      sub\n      dup2\n      add\n      swap1\n      tag_45\n      swap2\n      swap1\n      tag_46\n      jump\t// in\n    tag_45:\n      tag_47\n      jump\t// in\n    tag_44:\n      stop\n        /* \"@openzeppelin/contracts/access/AccessControl.sol\":5304:5549  function renounceRole(bytes32 role, address callerConfirmation) public virtual {... */\n    tag_7:\n      callvalue\n      dup1\n      iszero\n      tag_48\n      jumpi\n      revert(0x00, 0x00)\n    tag_48:\n      pop\n      tag_49\n      0x04\n      dup1\n      calldatasize\n      sub\n      dup2\n      add\n      swap1\n      tag_50\n      swap2\n      swap1\n      tag_46\n      jump\t// in\n    tag_50:\n      tag_51\n      jump\t// in\n    tag_49:\n      stop\n        /* \"src/KipuBankV2.sol\":1449:1477  uint256 public totalDeposits */\n    tag_8:\n      callvalue\n      dup1\n      iszero\n      tag_52\n      jumpi\n      revert(0x00, 0x00)\n    tag_52:\n      pop\n      tag_53\n      tag_54\n      jump\t// in\n    tag_53:\n      mload(0x40)\n      tag_55\n      swap2\n      swap1\n      tag_56\n      jump\t// in\n    tag_55:\n      mload(0x40)\n      dup1\n      swap2\n      sub\n      swap1\n      return\n        /* \"src/KipuBankV2.sol\":1142:1180  uint256 public immutable maxWithdrawal */\n    tag_9:\n      callvalue\n      dup1\n      iszero\n      tag_57\n      jumpi\n      revert(0x00, 0x00)\n    tag_57:\n      pop\n      tag_58\n      tag_59\n      jump\t// in\n    tag_58:\n      mload(0x40)\n      tag_60\n      swap2\n      swap1\n      tag_56\n      jump\t// in\n    tag_60:\n      mload(0x40)\n      dup1\n      swap2\n      sub\n      swap1\n      return\n        /* \"@openzeppelin/contracts/access/AccessControl.sol\":2830:2966  function hasRole(bytes32 role, address account) public view virtual returns (bool) {... */\n    tag_10:\n      callvalue\n      dup1\n      iszero\n      tag_61\n      jumpi\n      revert(0x00, 0x00)\n    tag_61:\n      pop\n      tag_62\n      0x04\n      dup1\n      calldatasize\n      sub\n      dup2\n      add\n      swap1\n      tag_63\n      swap2\n      swap1\n      tag_46\n      jump\t// in\n    tag_63:\n      tag_64\n      jump\t// in\n    tag_62:\n      mload(0x40)\n      tag_65\n      swap2\n      swap1\n      tag_30\n      jump\t// in\n    tag_65:\n      mload(0x40)\n      dup1\n      swap2\n      sub\n      swap1\n      return\n        /* \"@openzeppelin/contracts/access/AccessControl.sol\":2196:2245  bytes32 public constant DEFAULT_ADMIN_ROLE = 0x00 */\n    tag_11:\n      callvalue\n      dup1\n      iszero\n      tag_66\n      jumpi\n      revert(0x00, 0x00)\n    tag_66:\n      pop\n      tag_67\n      tag_68\n      jump\t// in\n    tag_67:\n      mload(0x40)\n      tag_69\n      swap2\n      swap1\n      tag_37\n      jump\t// in\n    tag_69:\n      mload(0x40)\n      dup1\n      swap2\n      sub\n      swap1\n      return\n        /* \"src/KipuBankV2.sol\":1868:1918  mapping(address => uint256) public withdrawalCount */\n    tag_12:\n      callvalue\n      dup1\n      iszero\n      tag_70\n      jumpi\n      revert(0x00, 0x00)\n    tag_70:\n      pop\n      tag_71\n      0x04\n      dup1\n      calldatasize\n      sub\n      dup2\n      add\n      swap1\n      tag_72\n      swap2\n      swap1\n      tag_73\n      jump\t// in\n    tag_72:\n      tag_74\n      jump\t// in\n    tag_71:\n      mload(0x40)\n      tag_75\n      swap2\n      swap1\n      tag_56\n      jump\t// in\n    tag_75:\n      mload(0x40)\n      dup1\n      swap2\n      sub\n      swap1\n      return\n        /* \"src/KipuBankV2.sol\":1240:1282  uint256 public immutable totalBankCapacity */\n    tag_13:\n      callvalue\n      dup1\n      iszero\n      tag_76\n      jumpi\n      revert(0x00, 0x00)\n    tag_76:\n      pop\n      tag_77\n      tag_78\n      jump\t// in\n    tag_77:\n      mload(0x40)\n      tag_79\n      swap2\n      swap1\n      tag_56\n      jump\t// in\n    tag_79:\n      mload(0x40)\n      dup1\n      swap2\n      sub\n      swap1\n      return\n        /* \"src/KipuBankV2.sol\":4723:5073  function deposit() external payable nonZeroDeposit {... */\n    tag_14:\n      tag_80\n      tag_81\n      jump\t// in\n    tag_80:\n      stop\n        /* \"@openzeppelin/contracts/access/AccessControl.sol\":4618:4756  function revokeRole(bytes32 role, address account) public virtual onlyRole(getRoleAdmin(role)) {... */\n    tag_15:\n      callvalue\n      dup1\n      iszero\n      tag_82\n      jumpi\n      revert(0x00, 0x00)\n    tag_82:\n      pop\n      tag_83\n      0x04\n      dup1\n      calldatasize\n      sub\n      dup2\n      add\n      swap1\n      tag_84\n      swap2\n      swap1\n      tag_46\n      jump\t// in\n    tag_84:\n      tag_85\n      jump\t// in\n    tag_83:\n      stop\n        /* \"src/KipuBankV2.sol\":898:972  bytes32 public constant BANK_MANAGER_ROLE = keccak256(\"BANK_MANAGER_ROLE\") */\n    tag_16:\n      callvalue\n      dup1\n      iszero\n      tag_86\n      jumpi\n      revert(0x00, 0x00)\n    tag_86:\n      pop\n      tag_87\n      tag_88\n      jump\t// in\n    tag_87:\n      mload(0x40)\n      tag_89\n      swap2\n      swap1\n      tag_37\n      jump\t// in\n    tag_89:\n      mload(0x40)\n      dup1\n      swap2\n      sub\n      swap1\n      return\n        /* \"src/KipuBankV2.sol\":1754:1801  mapping(address => uint256) public depositCount */\n    tag_17:\n      callvalue\n      dup1\n      iszero\n      tag_90\n      jumpi\n      revert(0x00, 0x00)\n    tag_90:\n      pop\n      tag_91\n      0x04\n      dup1\n      calldatasize\n      sub\n      dup2\n      add\n      swap1\n      tag_92\n      swap2\n      swap1\n      tag_73\n      jump\t// in\n    tag_92:\n      tag_93\n      jump\t// in\n    tag_91:\n      mload(0x40)\n      tag_94\n      swap2\n      swap1\n      tag_56\n      jump\t// in\n    tag_94:\n      mload(0x40)\n      dup1\n      swap2\n      sub\n      swap1\n      return\n        /* \"src/KipuBankV2.sol\":6027:6137  function getBalance(address user) external view returns (uint256) {... */\n    tag_18:\n      callvalue\n      dup1\n      iszero\n      tag_95\n      jumpi\n      revert(0x00, 0x00)\n    tag_95:\n      pop\n      tag_96\n      0x04\n      dup1\n      calldatasize\n      sub\n      dup2\n      add\n      swap1\n      tag_97\n      swap2\n      swap1\n      tag_73\n      jump\t// in\n    tag_97:\n      tag_98\n      jump\t// in\n    tag_96:\n      mload(0x40)\n      tag_99\n      swap2\n      swap1\n      tag_56\n      jump\t// in\n    tag_99:\n      mload(0x40)\n      dup1\n      swap2\n      sub\n      swap1\n      return\n        /* \"@openzeppelin/contracts/access/AccessControl.sol\":2541:2743  function supportsInterface(bytes4 interfaceId) public view virtual override returns (bool) {... */\n    tag_28:\n        /* \"@openzeppelin/contracts/access/AccessControl.sol\":2626:2630  bool */\n      0x00\n        /* \"@openzeppelin/contracts/access/AccessControl.sol\":2664:2696  type(IAccessControl).interfaceId */\n      0x7965db0b00000000000000000000000000000000000000000000000000000000\n        /* \"@openzeppelin/contracts/access/AccessControl.sol\":2649:2696  interfaceId == type(IAccessControl).interfaceId */\n      not(0xffffffffffffffffffffffffffffffffffffffffffffffffffffffff)\n      and\n        /* \"@openzeppelin/contracts/access/AccessControl.sol\":2649:2660  interfaceId */\n      dup3\n        /* \"@openzeppelin/contracts/access/AccessControl.sol\":2649:2696  interfaceId == type(IAccessControl).interfaceId */\n      not(0xffffffffffffffffffffffffffffffffffffffffffffffffffffffff)\n      and\n      eq\n        /* \"@openzeppelin/contracts/access/AccessControl.sol\":2649:2736  interfaceId == type(IAccessControl).interfaceId || super.supportsInterface(interfaceId) */\n      dup1\n      tag_101\n      jumpi\n      pop\n        /* \"@openzeppelin/contracts/access/AccessControl.sol\":2700:2736  super.supportsInterface(interfaceId) */\n      tag_102\n        /* \"@openzeppelin/contracts/access/AccessControl.sol\":2724:2735  interfaceId */\n      dup3\n        /* \"@openzeppelin/contracts/access/AccessControl.sol\":2700:2723  super.supportsInterface */\n      tag_103\n        /* \"@openzeppelin/contracts/access/AccessControl.sol\":2700:2736  super.supportsInterface(interfaceId) */\n      jump\t// in\n    tag_102:\n        /* \"@openzeppelin/contracts/access/AccessControl.sol\":2649:2736  interfaceId == type(IAccessControl).interfaceId || super.supportsInterface(interfaceId) */\n    tag_101:\n        /* \"@openzeppelin/contracts/access/AccessControl.sol\":2642:2736  return interfaceId == type(IAccessControl).interfaceId || super.supportsInterface(interfaceId) */\n      swap1\n      pop\n        /* \"@openzeppelin/contracts/access/AccessControl.sol\":2541:2743  function supportsInterface(bytes4 interfaceId) public view virtual override returns (bool) {... */\n      swap2\n      swap1\n      pop\n      jump\t// out\n        /* \"@openzeppelin/contracts/access/AccessControl.sol\":3786:3906  function getRoleAdmin(bytes32 role) public view virtual returns (bytes32) {... */\n    tag_35:\n        /* \"@openzeppelin/contracts/access/AccessControl.sol\":3851:3858  bytes32 */\n      0x00\n        /* \"@openzeppelin/contracts/access/AccessControl.sol\":3877:3883  _roles */\n      0x00\n        /* \"@openzeppelin/contracts/access/AccessControl.sol\":3877:3889  _roles[role] */\n      0x00\n        /* \"@openzeppelin/contracts/access/AccessControl.sol\":3884:3888  role */\n      dup4\n        /* \"@openzeppelin/contracts/access/AccessControl.sol\":3877:3889  _roles[role] */\n      dup2\n      mstore\n      0x20\n      add\n      swap1\n      dup2\n      mstore\n      0x20\n      add\n      0x00\n      keccak256\n        /* \"@openzeppelin/contracts/access/AccessControl.sol\":3877:3899  _roles[role].adminRole */\n      0x01\n      add\n      sload\n        /* \"@openzeppelin/contracts/access/AccessControl.sol\":3870:3899  return _roles[role].adminRole */\n      swap1\n      pop\n        /* \"@openzeppelin/contracts/access/AccessControl.sol\":3786:3906  function getRoleAdmin(bytes32 role) public view virtual returns (bytes32) {... */\n      swap2\n      swap1\n      pop\n      jump\t// out\n        /* \"src/KipuBankV2.sol\":5259:5722  function withdraw(uint256 amount) external withinWithdrawalLimit(amount) {... */\n    tag_42:\n        /* \"src/KipuBankV2.sol\":5324:5330  amount */\n      dup1\n        /* \"src/KipuBankV2.sol\":4413:4426  maxWithdrawal */\n      immutable(\"0x665815f06199f799aa9c8465bf48731e4a71da710cd1bae12047781b4c666aed\")\n        /* \"src/KipuBankV2.sol\":4404:4410  amount */\n      dup2\n        /* \"src/KipuBankV2.sol\":4404:4426  amount > maxWithdrawal */\n      gt\n        /* \"src/KipuBankV2.sol\":4400:4458  if (amount > maxWithdrawal) revert MaxWithdrawalExceeded() */\n      iszero\n      tag_106\n      jumpi\n        /* \"src/KipuBankV2.sol\":4435:4458  MaxWithdrawalExceeded() */\n      mload(0x40)\n      0x73a7c91000000000000000000000000000000000000000000000000000000000\n      dup2\n      mstore\n      0x04\n      add\n      mload(0x40)\n      dup1\n      swap2\n      sub\n      swap1\n      revert\n        /* \"src/KipuBankV2.sol\":4400:4458  if (amount > maxWithdrawal) revert MaxWithdrawalExceeded() */\n    tag_106:\n        /* \"src/KipuBankV2.sol\":5343:5358  uint256 balance */\n      0x00\n        /* \"src/KipuBankV2.sol\":5361:5373  vaultBalance */\n      0x03\n        /* \"src/KipuBankV2.sol\":5361:5385  vaultBalance[msg.sender] */\n      0x00\n        /* \"src/KipuBankV2.sol\":5374:5384  msg.sender */\n      caller\n        /* \"src/KipuBankV2.sol\":5361:5385  vaultBalance[msg.sender] */\n      0xffffffffffffffffffffffffffffffffffffffff\n      and\n      0xffffffffffffffffffffffffffffffffffffffff\n      and\n      dup2\n      mstore\n      0x20\n      add\n      swap1\n      dup2\n      mstore\n      0x20\n      add\n      0x00\n      keccak256\n      sload\n        /* \"src/KipuBankV2.sol\":5343:5385  uint256 balance = vaultBalance[msg.sender] */\n      swap1\n      pop\n        /* \"src/KipuBankV2.sol\":5410:5416  amount */\n      dup3\n        /* \"src/KipuBankV2.sol\":5400:5407  balance */\n      dup2\n        /* \"src/KipuBankV2.sol\":5400:5416  balance < amount */\n      lt\n        /* \"src/KipuBankV2.sol\":5396:5446  if (balance < amount) revert InsufficientBalance() */\n      iszero\n      tag_108\n      jumpi\n        /* \"src/KipuBankV2.sol\":5425:5446  InsufficientBalance() */\n      mload(0x40)\n      0xf4d678b800000000000000000000000000000000000000000000000000000000\n      dup2\n      mstore\n      0x04\n      add\n      mload(0x40)\n      dup1\n      swap2\n      sub\n      swap1\n      revert\n        /* \"src/KipuBankV2.sol\":5396:5446  if (balance < amount) revert InsufficientBalance() */\n    tag_108:\n        /* \"src/KipuBankV2.sol\":5521:5527  amount */\n      dup3\n        /* \"src/KipuBankV2.sol\":5511:5518  balance */\n      dup2\n        /* \"src/KipuBankV2.sol\":5511:5527  balance - amount */\n      sub\n        /* \"src/KipuBankV2.sol\":5484:5496  vaultBalance */\n      0x03\n        /* \"src/KipuBankV2.sol\":5484:5508  vaultBalance[msg.sender] */\n      0x00\n        /* \"src/KipuBankV2.sol\":5497:5507  msg.sender */\n      caller\n        /* \"src/KipuBankV2.sol\":5484:5508  vaultBalance[msg.sender] */\n      0xffffffffffffffffffffffffffffffffffffffff\n      and\n      0xffffffffffffffffffffffffffffffffffffffff\n      and\n      dup2\n      mstore\n      0x20\n      add\n      swap1\n      dup2\n      mstore\n      0x20\n      add\n      0x00\n      keccak256\n        /* \"src/KipuBankV2.sol\":5484:5527  vaultBalance[msg.sender] = balance - amount */\n      dup2\n      swap1\n      sstore\n      pop\n        /* \"src/KipuBankV2.sol\":5559:5565  amount */\n      dup3\n        /* \"src/KipuBankV2.sol\":5542:5555  totalDeposits */\n      0x02\n      0x00\n        /* \"src/KipuBankV2.sol\":5542:5565  totalDeposits -= amount */\n      dup3\n      dup3\n      sload\n      sub\n      swap3\n      pop\n      pop\n      dup2\n      swap1\n      sstore\n      pop\n        /* \"src/KipuBankV2.sol\":5589:5604  withdrawalCount */\n      0x05\n        /* \"src/KipuBankV2.sol\":5589:5616  withdrawalCount[msg.sender] */\n      0x00\n        /* \"src/KipuBankV2.sol\":5605:5615  msg.sender */\n      caller\n        /* \"src/KipuBankV2.sol\":5589:5616  withdrawalCount[msg.sender] */\n      0xffffffffffffffffffffffffffffffffffffffff\n      and\n      0xffffffffffffffffffffffffffffffffffffffff\n      and\n      dup2\n      mstore\n      0x20\n      add\n      swap1\n      dup2\n      mstore\n      0x20\n      add\n      0x00\n      keccak256\n      0x00\n        /* \"src/KipuBankV2.sol\":5589:5618  withdrawalCount[msg.sender]++ */\n      dup2\n      sload\n      dup1\n      swap3\n      swap2\n      swap1\n      tag_109\n      swap1\n      tag_110\n      jump\t// in\n    tag_109:\n      swap2\n      swap1\n      pop\n      sstore\n      pop\n        /* \"src/KipuBankV2.sol\":5629:5662  _safeTransfer(msg.sender, amount) */\n      tag_111\n        /* \"src/KipuBankV2.sol\":5643:5653  msg.sender */\n      caller\n        /* \"src/KipuBankV2.sol\":5655:5661  amount */\n      dup5\n        /* \"src/KipuBankV2.sol\":5629:5642  _safeTransfer */\n      tag_112\n        /* \"src/KipuBankV2.sol\":5629:5662  _safeTransfer(msg.sender, amount) */\n      jump\t// in\n    tag_111:\n        /* \"src/KipuBankV2.sol\":5695:5705  msg.sender */\n      caller\n        /* \"src/KipuBankV2.sol\":5680:5714  WithdrawalMade(msg.sender, amount) */\n      0xffffffffffffffffffffffffffffffffffffffff\n      and\n      0xbc158bb64f05d6383aea69bbb0b20c1bbf4b7a18f63359c5649b7c39e29d3884\n        /* \"src/KipuBankV2.sol\":5707:5713  amount */\n      dup5\n        /* \"src/KipuBankV2.sol\":5680:5714  WithdrawalMade(msg.sender, amount) */\n      mload(0x40)\n      tag_113\n      swap2\n      swap1\n      tag_56\n      jump\t// in\n    tag_113:\n      mload(0x40)\n      dup1\n      swap2\n      sub\n      swap1\n      log2\n        /* \"src/KipuBankV2.sol\":5332:5722  {... */\n      pop\n        /* \"src/KipuBankV2.sol\":5259:5722  function withdraw(uint256 amount) external withinWithdrawalLimit(amount) {... */\n      pop\n      pop\n      jump\t// out\n        /* \"@openzeppelin/contracts/access/AccessControl.sol\":4202:4338  function grantRole(bytes32 role, address account) public virtual onlyRole(getRoleAdmin(role)) {... */\n    tag_47:\n        /* \"@openzeppelin/contracts/access/AccessControl.sol\":4276:4294  getRoleAdmin(role) */\n      tag_114\n        /* \"@openzeppelin/contracts/access/AccessControl.sol\":4289:4293  role */\n      dup3\n        /* \"@openzeppelin/contracts/access/AccessControl.sol\":4276:4288  getRoleAdmin */\n      tag_35\n        /* \"@openzeppelin/contracts/access/AccessControl.sol\":4276:4294  getRoleAdmin(role) */\n      jump\t// in\n    tag_114:\n        /* \"@openzeppelin/contracts/access/AccessControl.sol\":2473:2489  _checkRole(role) */\n      tag_116\n        /* \"@openzeppelin/contracts/access/AccessControl.sol\":2484:2488  role */\n      dup2\n        /* \"@openzeppelin/contracts/access/AccessControl.sol\":2473:2483  _checkRole */\n      tag_117\n        /* \"@openzeppelin/contracts/access/AccessControl.sol\":2473:2489  _checkRole(role) */\n      jump\t// in\n    tag_116:\n        /* \"@openzeppelin/contracts/access/AccessControl.sol\":4306:4331  _grantRole(role, account) */\n      tag_119\n        /* \"@openzeppelin/contracts/access/AccessControl.sol\":4317:4321  role */\n      dup4\n        /* \"@openzeppelin/contracts/access/AccessControl.sol\":4323:4330  account */\n      dup4\n        /* \"@openzeppelin/contracts/access/AccessControl.sol\":4306:4316  _grantRole */\n      tag_120\n        /* \"@openzeppelin/contracts/access/AccessControl.sol\":4306:4331  _grantRole(role, account) */\n      jump\t// in\n    tag_119:\n      pop\n        /* \"@openzeppelin/contracts/access/AccessControl.sol\":4202:4338  function grantRole(bytes32 role, address account) public virtual onlyRole(getRoleAdmin(role)) {... */\n      pop\n      pop\n      pop\n      jump\t// out\n        /* \"@openzeppelin/contracts/access/AccessControl.sol\":5304:5549  function renounceRole(bytes32 role, address callerConfirmation) public virtual {... */\n    tag_51:\n        /* \"@openzeppelin/contracts/access/AccessControl.sol\":5419:5431  _msgSender() */\n      tag_122\n        /* \"@openzeppelin/contracts/access/AccessControl.sol\":5419:5429  _msgSender */\n      tag_123\n        /* \"@openzeppelin/contracts/access/AccessControl.sol\":5419:5431  _msgSender() */\n      jump\t// in\n    tag_122:\n        /* \"@openzeppelin/contracts/access/AccessControl.sol\":5397:5431  callerConfirmation != _msgSender() */\n      0xffffffffffffffffffffffffffffffffffffffff\n      and\n        /* \"@openzeppelin/contracts/access/AccessControl.sol\":5397:5415  callerConfirmation */\n      dup2\n        /* \"@openzeppelin/contracts/access/AccessControl.sol\":5397:5431  callerConfirmation != _msgSender() */\n      0xffffffffffffffffffffffffffffffffffffffff\n      and\n      eq\n        /* \"@openzeppelin/contracts/access/AccessControl.sol\":5393:5495  if (callerConfirmation != _msgSender()) {... */\n      tag_124\n      jumpi\n        /* \"@openzeppelin/contracts/access/AccessControl.sol\":5454:5484  AccessControlBadConfirmation() */\n      mload(0x40)\n      0x6697b23200000000000000000000000000000000000000000000000000000000\n      dup2\n      mstore\n      0x04\n      add\n      mload(0x40)\n      dup1\n      swap2\n      sub\n      swap1\n      revert\n        /* \"@openzeppelin/contracts/access/AccessControl.sol\":5393:5495  if (callerConfirmation != _msgSender()) {... */\n    tag_124:\n        /* \"@openzeppelin/contracts/access/AccessControl.sol\":5505:5542  _revokeRole(role, callerConfirmation) */\n      tag_125\n        /* \"@openzeppelin/contracts/access/AccessControl.sol\":5517:5521  role */\n      dup3\n        /* \"@openzeppelin/contracts/access/AccessControl.sol\":5523:5541  callerConfirmation */\n      dup3\n        /* \"@openzeppelin/contracts/access/AccessControl.sol\":5505:5516  _revokeRole */\n      tag_126\n        /* \"@openzeppelin/contracts/access/AccessControl.sol\":5505:5542  _revokeRole(role, callerConfirmation) */\n      jump\t// in\n    tag_125:\n      pop\n        /* \"@openzeppelin/contracts/access/AccessControl.sol\":5304:5549  function renounceRole(bytes32 role, address callerConfirmation) public virtual {... */\n      pop\n      pop\n      jump\t// out\n        /* \"src/KipuBankV2.sol\":1449:1477  uint256 public totalDeposits */\n    tag_54:\n      sload(0x02)\n      dup2\n      jump\t// out\n        /* \"src/KipuBankV2.sol\":1142:1180  uint256 public immutable maxWithdrawal */\n    tag_59:\n      immutable(\"0x665815f06199f799aa9c8465bf48731e4a71da710cd1bae12047781b4c666aed\")\n      dup2\n      jump\t// out\n        /* \"@openzeppelin/contracts/access/AccessControl.sol\":2830:2966  function hasRole(bytes32 role, address account) public view virtual returns (bool) {... */\n    tag_64:\n        /* \"@openzeppelin/contracts/access/AccessControl.sol\":2907:2911  bool */\n      0x00\n        /* \"@openzeppelin/contracts/access/AccessControl.sol\":2930:2936  _roles */\n      0x00\n        /* \"@openzeppelin/contracts/access/AccessControl.sol\":2930:2942  _roles[role] */\n      0x00\n        /* \"@openzeppelin/contracts/access/AccessControl.sol\":2937:2941  role */\n      dup5\n        /* \"@openzeppelin/contracts/access/AccessControl.sol\":2930:2942  _roles[role] */\n      dup2\n      mstore\n      0x20\n      add\n      swap1\n      dup2\n      mstore\n      0x20\n      add\n      0x00\n      keccak256\n        /* \"@openzeppelin/contracts/access/AccessControl.sol\":2930:2950  _roles[role].hasRole */\n      0x00\n      add\n        /* \"@openzeppelin/contracts/access/AccessControl.sol\":2930:2959  _roles[role].hasRole[account] */\n      0x00\n        /* \"@openzeppelin/contracts/access/AccessControl.sol\":2951:2958  account */\n      dup4\n        /* \"@openzeppelin/contracts/access/AccessControl.sol\":2930:2959  _roles[role].hasRole[account] */\n      0xffffffffffffffffffffffffffffffffffffffff\n      and\n      0xffffffffffffffffffffffffffffffffffffffff\n      and\n      dup2\n      mstore\n      0x20\n      add\n      swap1\n      dup2\n      mstore\n      0x20\n      add\n      0x00\n      keccak256\n      0x00\n      swap1\n      sload\n      swap1\n      0x0100\n      exp\n      swap1\n      div\n      0xff\n      and\n        /* \"@openzeppelin/contracts/access/AccessControl.sol\":2923:2959  return _roles[role].hasRole[account] */\n      swap1\n      pop\n        /* \"@openzeppelin/contracts/access/AccessControl.sol\":2830:2966  function hasRole(bytes32 role, address account) public view virtual returns (bool) {... */\n      swap3\n      swap2\n      pop\n      pop\n      jump\t// out\n        /* \"@openzeppelin/contracts/access/AccessControl.sol\":2196:2245  bytes32 public constant DEFAULT_ADMIN_ROLE = 0x00 */\n    tag_68:\n        /* \"@openzeppelin/contracts/access/AccessControl.sol\":2241:2245  0x00 */\n      0x00\n        /* \"@openzeppelin/contracts/access/AccessControl.sol\":2196:2245  bytes32 public constant DEFAULT_ADMIN_ROLE = 0x00 */\n      0x00\n      shl\n      dup2\n      jump\t// out\n        /* \"src/KipuBankV2.sol\":1868:1918  mapping(address => uint256) public withdrawalCount */\n    tag_74:\n      mstore(0x20, 0x05)\n      dup1\n      0x00\n      mstore\n      keccak256(0x00, 0x40)\n      0x00\n      swap2\n      pop\n      swap1\n      pop\n      sload\n      dup2\n      jump\t// out\n        /* \"src/KipuBankV2.sol\":1240:1282  uint256 public immutable totalBankCapacity */\n    tag_78:\n      immutable(\"0x33cc19d79febe2413fb9e204aeb684d47982ef5754538b90a83e403603eda384\")\n      dup2\n      jump\t// out\n        /* \"src/KipuBankV2.sol\":4723:5073  function deposit() external payable nonZeroDeposit {... */\n    tag_81:\n        /* \"src/KipuBankV2.sol\":4154:4155  0 */\n      0x00\n        /* \"src/KipuBankV2.sol\":4141:4150  msg.value */\n      callvalue\n        /* \"src/KipuBankV2.sol\":4141:4155  msg.value == 0 */\n      sub\n        /* \"src/KipuBankV2.sol\":4137:4187  if (msg.value == 0) revert ZeroDepositNotAllowed() */\n      tag_129\n      jumpi\n        /* \"src/KipuBankV2.sol\":4164:4187  ZeroDepositNotAllowed() */\n      mload(0x40)\n      0x8615019900000000000000000000000000000000000000000000000000000000\n      dup2\n      mstore\n      0x04\n      add\n      mload(0x40)\n      dup1\n      swap2\n      sub\n      swap1\n      revert\n        /* \"src/KipuBankV2.sol\":4137:4187  if (msg.value == 0) revert ZeroDepositNotAllowed() */\n    tag_129:\n        /* \"src/KipuBankV2.sol\":4817:4834  totalBankCapacity */\n      immutable(\"0x33cc19d79febe2413fb9e204aeb684d47982ef5754538b90a83e403603eda384\")\n        /* \"src/KipuBankV2.sol\":4805:4814  msg.value */\n      callvalue\n        /* \"src/KipuBankV2.sol\":4789:4802  totalDeposits */\n      sload(0x02)\n        /* \"src/KipuBankV2.sol\":4789:4814  totalDeposits + msg.value */\n      tag_131\n      swap2\n      swap1\n      tag_132\n      jump\t// in\n    tag_131:\n        /* \"src/KipuBankV2.sol\":4789:4834  totalDeposits + msg.value > totalBankCapacity */\n      gt\n        /* \"src/KipuBankV2.sol\":4785:4890  if (totalDeposits + msg.value > totalBankCapacity) {... */\n      iszero\n      tag_133\n      jumpi\n        /* \"src/KipuBankV2.sol\":4858:4878  MaxDepositExceeded() */\n      mload(0x40)\n      0xdef6daf200000000000000000000000000000000000000000000000000000000\n      dup2\n      mstore\n      0x04\n      add\n      mload(0x40)\n      dup1\n      swap2\n      sub\n      swap1\n      revert\n        /* \"src/KipuBankV2.sol\":4785:4890  if (totalDeposits + msg.value > totalBankCapacity) {... */\n    tag_133:\n        /* \"src/KipuBankV2.sol\":4930:4939  msg.value */\n      callvalue\n        /* \"src/KipuBankV2.sol\":4902:4914  vaultBalance */\n      0x03\n        /* \"src/KipuBankV2.sol\":4902:4926  vaultBalance[msg.sender] */\n      0x00\n        /* \"src/KipuBankV2.sol\":4915:4925  msg.sender */\n      caller\n        /* \"src/KipuBankV2.sol\":4902:4926  vaultBalance[msg.sender] */\n      0xffffffffffffffffffffffffffffffffffffffff\n      and\n      0xffffffffffffffffffffffffffffffffffffffff\n      and\n      dup2\n      mstore\n      0x20\n      add\n      swap1\n      dup2\n      mstore\n      0x20\n      add\n      0x00\n      keccak256\n      0x00\n        /* \"src/KipuBankV2.sol\":4902:4939  vaultBalance[msg.sender] += msg.value */\n      dup3\n      dup3\n      sload\n      tag_134\n      swap2\n      swap1\n      tag_132\n      jump\t// in\n    tag_134:\n      swap3\n      pop\n      pop\n      dup2\n      swap1\n      sstore\n      pop\n        /* \"src/KipuBankV2.sol\":4967:4976  msg.value */\n      callvalue\n        /* \"src/KipuBankV2.sol\":4950:4963  totalDeposits */\n      0x02\n      0x00\n        /* \"src/KipuBankV2.sol\":4950:4976  totalDeposits += msg.value */\n      dup3\n      dup3\n      sload\n      tag_135\n      swap2\n      swap1\n      tag_132\n      jump\t// in\n    tag_135:\n      swap3\n      pop\n      pop\n      dup2\n      swap1\n      sstore\n      pop\n        /* \"src/KipuBankV2.sol\":4987:4999  depositCount */\n      0x04\n        /* \"src/KipuBankV2.sol\":4987:5011  depositCount[msg.sender] */\n      0x00\n        /* \"src/KipuBankV2.sol\":5000:5010  msg.sender */\n      caller\n        /* \"src/KipuBankV2.sol\":4987:5011  depositCount[msg.sender] */\n      0xffffffffffffffffffffffffffffffffffffffff\n      and\n      0xffffffffffffffffffffffffffffffffffffffff\n      and\n      dup2\n      mstore\n      0x20\n      add\n      swap1\n      dup2\n      mstore\n      0x20\n      add\n      0x00\n      keccak256\n      0x00\n        /* \"src/KipuBankV2.sol\":4987:5013  depositCount[msg.sender]++ */\n      dup2\n      sload\n      dup1\n      swap3\n      swap2\n      swap1\n      tag_136\n      swap1\n      tag_110\n      jump\t// in\n    tag_136:\n      swap2\n      swap1\n      pop\n      sstore\n      pop\n        /* \"src/KipuBankV2.sol\":5043:5053  msg.sender */\n      caller\n        /* \"src/KipuBankV2.sol\":5031:5065  DepositMade(msg.sender, msg.value) */\n      0xffffffffffffffffffffffffffffffffffffffff\n      and\n      0xd15c9547ea5c06670c0010ce19bc32d54682a4b3801ece7f3ab0c3f17106b4bb\n        /* \"src/KipuBankV2.sol\":5055:5064  msg.value */\n      callvalue\n        /* \"src/KipuBankV2.sol\":5031:5065  DepositMade(msg.sender, msg.value) */\n      mload(0x40)\n      tag_137\n      swap2\n      swap1\n      tag_56\n      jump\t// in\n    tag_137:\n      mload(0x40)\n      dup1\n      swap2\n      sub\n      swap1\n      log2\n        /* \"src/KipuBankV2.sol\":4723:5073  function deposit() external payable nonZeroDeposit {... */\n      jump\t// out\n        /* \"@openzeppelin/contracts/access/AccessControl.sol\":4618:4756  function revokeRole(bytes32 role, address account) public virtual onlyRole(getRoleAdmin(role)) {... */\n    tag_85:\n        /* \"@openzeppelin/contracts/access/AccessControl.sol\":4693:4711  getRoleAdmin(role) */\n      tag_138\n        /* \"@openzeppelin/contracts/access/AccessControl.sol\":4706:4710  role */\n      dup3\n        /* \"@openzeppelin/contracts/access/AccessControl.sol\":4693:4705  getRoleAdmin */\n      tag_35\n        /* \"@openzeppelin/contracts/access/AccessControl.sol\":4693:4711  getRoleAdmin(role) */\n      jump\t// in\n    tag_138:\n        /* \"@openzeppelin/contracts/access/AccessControl.sol\":2473:2489  _checkRole(role) */\n      tag_140\n        /* \"@openzeppelin/contracts/access/AccessControl.sol\":2484:2488  role */\n      dup2\n        /* \"@openzeppelin/contracts/access/AccessControl.sol\":2473:2483  _checkRole */\n      tag_117\n        /* \"@openzeppelin/contracts/access/AccessControl.sol\":2473:2489  _checkRole(role) */\n      jump\t// in\n    tag_140:\n        /* \"@openzeppelin/contracts/access/AccessControl.sol\":4723:4749  _revokeRole(role, account) */\n      tag_142\n        /* \"@openzeppelin/contracts/access/AccessControl.sol\":4735:4739  role */\n      dup4\n        /* \"@openzeppelin/contracts/access/AccessControl.sol\":4741:4748  account */\n      dup4\n        /* \"@openzeppelin/contracts/access/AccessControl.sol\":4723:4734  _revokeRole */\n      tag_126\n        /* \"@openzeppelin/contracts/access/AccessControl.sol\":4723:4749  _revokeRole(role, account) */\n      jump\t// in\n    tag_142:\n      pop\n        /* \"@openzeppelin/contracts/access/AccessControl.sol\":4618:4756  function revokeRole(bytes32 role, address account) public virtual onlyRole(getRoleAdmin(role)) {... */\n      pop\n      pop\n      pop\n      jump\t// out\n        /* \"src/KipuBankV2.sol\":898:972  bytes32 public constant BANK_MANAGER_ROLE = keccak256(\"BANK_MANAGER_ROLE\") */\n    tag_88:\n        /* \"src/KipuBankV2.sol\":942:972  keccak256(\"BANK_MANAGER_ROLE\") */\n      0x2d95a8186db49da8bd2356c70cf02038f7de0d6ed39f6766fe2d93d5e7785616\n        /* \"src/KipuBankV2.sol\":898:972  bytes32 public constant BANK_MANAGER_ROLE = keccak256(\"BANK_MANAGER_ROLE\") */\n      dup2\n      jump\t// out\n        /* \"src/KipuBankV2.sol\":1754:1801  mapping(address => uint256) public depositCount */\n    tag_93:\n      mstore(0x20, 0x04)\n      dup1\n      0x00\n      mstore\n      keccak256(0x00, 0x40)\n      0x00\n      swap2\n      pop\n      swap1\n      pop\n      sload\n      dup2\n      jump\t// out\n        /* \"src/KipuBankV2.sol\":6027:6137  function getBalance(address user) external view returns (uint256) {... */\n    tag_98:\n        /* \"src/KipuBankV2.sol\":6084:6091  uint256 */\n      0x00\n        /* \"src/KipuBankV2.sol\":6111:6123  vaultBalance */\n      0x03\n        /* \"src/KipuBankV2.sol\":6111:6129  vaultBalance[user] */\n      0x00\n        /* \"src/KipuBankV2.sol\":6124:6128  user */\n      dup4\n        /* \"src/KipuBankV2.sol\":6111:6129  vaultBalance[user] */\n      0xffffffffffffffffffffffffffffffffffffffff\n      and\n      0xffffffffffffffffffffffffffffffffffffffff\n      and\n      dup2\n      mstore\n      0x20\n      add\n      swap1\n      dup2\n      mstore\n      0x20\n      add\n      0x00\n      keccak256\n      sload\n        /* \"src/KipuBankV2.sol\":6104:6129  return vaultBalance[user] */\n      swap1\n      pop\n        /* \"src/KipuBankV2.sol\":6027:6137  function getBalance(address user) external view returns (uint256) {... */\n      swap2\n      swap1\n      pop\n      jump\t// out\n        /* \"@openzeppelin/contracts/utils/introspection/ERC165.sol\":730:876  function supportsInterface(bytes4 interfaceId) public view virtual returns (bool) {... */\n    tag_103:\n        /* \"@openzeppelin/contracts/utils/introspection/ERC165.sol\":806:810  bool */\n      0x00\n        /* \"@openzeppelin/contracts/utils/introspection/ERC165.sol\":844:869  type(IERC165).interfaceId */\n      0x01ffc9a700000000000000000000000000000000000000000000000000000000\n        /* \"@openzeppelin/contracts/utils/introspection/ERC165.sol\":829:869  interfaceId == type(IERC165).interfaceId */\n      not(0xffffffffffffffffffffffffffffffffffffffffffffffffffffffff)\n      and\n        /* \"@openzeppelin/contracts/utils/introspection/ERC165.sol\":829:840  interfaceId */\n      dup3\n        /* \"@openzeppelin/contracts/utils/introspection/ERC165.sol\":829:869  interfaceId == type(IERC165).interfaceId */\n      not(0xffffffffffffffffffffffffffffffffffffffffffffffffffffffff)\n      and\n      eq\n        /* \"@openzeppelin/contracts/utils/introspection/ERC165.sol\":822:869  return interfaceId == type(IERC165).interfaceId */\n      swap1\n      pop\n        /* \"@openzeppelin/contracts/utils/introspection/ERC165.sol\":730:876  function supportsInterface(bytes4 interfaceId) public view virtual returns (bool) {... */\n      swap2\n      swap1\n      pop\n      jump\t// out\n        /* \"src/KipuBankV2.sol\":6394:6564  function _safeTransfer(address recipient, uint256 amount) private {... */\n    tag_112:\n        /* \"src/KipuBankV2.sol\":6472:6484  bool success */\n      0x00\n        /* \"src/KipuBankV2.sol\":6490:6499  recipient */\n      dup3\n        /* \"src/KipuBankV2.sol\":6490:6504  recipient.call */\n      0xffffffffffffffffffffffffffffffffffffffff\n      and\n        /* \"src/KipuBankV2.sol\":6512:6518  amount */\n      dup3\n        /* \"src/KipuBankV2.sol\":6490:6523  recipient.call{value: amount}(\"\") */\n      mload(0x40)\n      tag_146\n      swap1\n      tag_147\n      jump\t// in\n    tag_146:\n      0x00\n      mload(0x40)\n      dup1\n      dup4\n      sub\n      dup2\n      dup6\n      dup8\n      gas\n      call\n      swap3\n      pop\n      pop\n      pop\n      returndatasize\n      dup1\n      0x00\n      dup2\n      eq\n      tag_150\n      jumpi\n      mload(0x40)\n      swap2\n      pop\n      and(add(returndatasize, 0x3f), not(0x1f))\n      dup3\n      add\n      0x40\n      mstore\n      returndatasize\n      dup3\n      mstore\n      returndatasize\n      0x00\n      0x20\n      dup5\n      add\n      returndatacopy\n      jump(tag_149)\n    tag_150:\n      0x60\n      swap2\n      pop\n    tag_149:\n      pop\n        /* \"src/KipuBankV2.sol\":6471:6523  (bool success, ) = recipient.call{value: amount}(\"\") */\n      pop\n      swap1\n      pop\n        /* \"src/KipuBankV2.sol\":6539:6546  success */\n      dup1\n        /* \"src/KipuBankV2.sol\":6534:6556  if (!success) revert() */\n      tag_151\n      jumpi\n        /* \"src/KipuBankV2.sol\":6548:6556  revert() */\n      revert(0x00, 0x00)\n        /* \"src/KipuBankV2.sol\":6534:6556  if (!success) revert() */\n    tag_151:\n        /* \"src/KipuBankV2.sol\":6460:6564  {... */\n      pop\n        /* \"src/KipuBankV2.sol\":6394:6564  function _safeTransfer(address recipient, uint256 amount) private {... */\n      pop\n      pop\n      jump\t// out\n        /* \"@openzeppelin/contracts/access/AccessControl.sol\":3175:3278  function _checkRole(bytes32 role) internal view virtual {... */\n    tag_117:\n        /* \"@openzeppelin/contracts/access/AccessControl.sol\":3241:3271  _checkRole(role, _msgSender()) */\n      tag_153\n        /* \"@openzeppelin/contracts/access/AccessControl.sol\":3252:3256  role */\n      dup2\n        /* \"@openzeppelin/contracts/access/AccessControl.sol\":3258:3270  _msgSender() */\n      tag_154\n        /* \"@openzeppelin/contracts/access/AccessControl.sol\":3258:3268  _msgSender */\n      tag_123\n        /* \"@openzeppelin/contracts/access/AccessControl.sol\":3258:3270  _msgSender() */\n      jump\t// in\n    tag_154:\n        /* \"@openzeppelin/contracts/access/AccessControl.sol\":3241:3251  _checkRole */\n      tag_155\n        /* \"@openzeppelin/contracts/access/AccessControl.sol\":3241:3271  _checkRole(role, _msgSender()) */\n      jump\t// in\n    tag_153:\n        /* \"@openzeppelin/contracts/access/AccessControl.sol\":3175:3278  function _checkRole(bytes32 role) internal view virtual {... */\n      pop\n      jump\t// out\n        /* \"@openzeppelin/contracts/access/AccessControl.sol\":6155:6471  function _grantRole(bytes32 role, address account) internal virtual returns (bool) {... */\n    tag_120:\n        /* \"@openzeppelin/contracts/access/AccessControl.sol\":6232:6236  bool */\n      0x00\n        /* \"@openzeppelin/contracts/access/AccessControl.sol\":6253:6275  hasRole(role, account) */\n      tag_157\n        /* \"@openzeppelin/contracts/access/AccessControl.sol\":6261:6265  role */\n      dup4\n        /* \"@openzeppelin/contracts/access/AccessControl.sol\":6267:6274  account */\n      dup4\n        /* \"@openzeppelin/contracts/access/AccessControl.sol\":6253:6260  hasRole */\n      tag_64\n        /* \"@openzeppelin/contracts/access/AccessControl.sol\":6253:6275  hasRole(role, account) */\n      jump\t// in\n    tag_157:\n        /* \"@openzeppelin/contracts/access/AccessControl.sol\":6248:6465  if (!hasRole(role, account)) {... */\n      tag_158\n      jumpi\n        /* \"@openzeppelin/contracts/access/AccessControl.sol\":6323:6327  true */\n      0x01\n        /* \"@openzeppelin/contracts/access/AccessControl.sol\":6291:6297  _roles */\n      0x00\n        /* \"@openzeppelin/contracts/access/AccessControl.sol\":6291:6303  _roles[role] */\n      0x00\n        /* \"@openzeppelin/contracts/access/AccessControl.sol\":6298:6302  role */\n      dup6\n        /* \"@openzeppelin/contracts/access/AccessControl.sol\":6291:6303  _roles[role] */\n      dup2\n      mstore\n      0x20\n      add\n      swap1\n      dup2\n      mstore\n      0x20\n      add\n      0x00\n      keccak256\n        /* \"@openzeppelin/contracts/access/AccessControl.sol\":6291:6311  _roles[role].hasRole */\n      0x00\n      add\n        /* \"@openzeppelin/contracts/access/AccessControl.sol\":6291:6320  _roles[role].hasRole[account] */\n      0x00\n        /* \"@openzeppelin/contracts/access/AccessControl.sol\":6312:6319  account */\n      dup5\n        /* \"@openzeppelin/contracts/access/AccessControl.sol\":6291:6320  _roles[role].hasRole[account] */\n      0xffffffffffffffffffffffffffffffffffffffff\n      and\n      0xffffffffffffffffffffffffffffffffffffffff\n      and\n      dup2\n      mstore\n      0x20\n      add\n      swap1\n      dup2\n      mstore\n      0x20\n      add\n      0x00\n      keccak256\n      0x00\n        /* \"@openzeppelin/contracts/access/AccessControl.sol\":6291:6327  _roles[role].hasRole[account] = true */\n      0x0100\n      exp\n      dup2\n      sload\n      dup2\n      0xff\n      mul\n      not\n      and\n      swap1\n      dup4\n      iszero\n      iszero\n      mul\n      or\n      swap1\n      sstore\n      pop\n        /* \"@openzeppelin/contracts/access/AccessControl.sol\":6373:6385  _msgSender() */\n      tag_159\n        /* \"@openzeppelin/contracts/access/AccessControl.sol\":6373:6383  _msgSender */\n      tag_123\n        /* \"@openzeppelin/contracts/access/AccessControl.sol\":6373:6385  _msgSender() */\n      jump\t// in\n    tag_159:\n        /* \"@openzeppelin/contracts/access/AccessControl.sol\":6346:6386  RoleGranted(role, account, _msgSender()) */\n      0xffffffffffffffffffffffffffffffffffffffff\n      and\n        /* \"@openzeppelin/contracts/access/AccessControl.sol\":6364:6371  account */\n      dup3\n        /* \"@openzeppelin/contracts/access/AccessControl.sol\":6346:6386  RoleGranted(role, account, _msgSender()) */\n      0xffffffffffffffffffffffffffffffffffffffff\n      and\n        /* \"@openzeppelin/contracts/access/AccessControl.sol\":6358:6362  role */\n      dup5\n        /* \"@openzeppelin/contracts/access/AccessControl.sol\":6346:6386  RoleGranted(role, account, _msgSender()) */\n      0x2f8788117e7eff1d82e926ec794901d17c78024a50270940304540a733656f0d\n      mload(0x40)\n      mload(0x40)\n      dup1\n      swap2\n      sub\n      swap1\n      log4\n        /* \"@openzeppelin/contracts/access/AccessControl.sol\":6407:6411  true */\n      0x01\n        /* \"@openzeppelin/contracts/access/AccessControl.sol\":6400:6411  return true */\n      swap1\n      pop\n      jump(tag_156)\n        /* \"@openzeppelin/contracts/access/AccessControl.sol\":6248:6465  if (!hasRole(role, account)) {... */\n    tag_158:\n        /* \"@openzeppelin/contracts/access/AccessControl.sol\":6449:6454  false */\n      0x00\n        /* \"@openzeppelin/contracts/access/AccessControl.sol\":6442:6454  return false */\n      swap1\n      pop\n        /* \"@openzeppelin/contracts/access/AccessControl.sol\":6155:6471  function _grantRole(bytes32 role, address account) internal virtual returns (bool) {... */\n    tag_156:\n      swap3\n      swap2\n      pop\n      pop\n      jump\t// out\n        /* \"@openzeppelin/contracts/utils/Context.sol\":656:752  function _msgSender() internal view virtual returns (address) {... */\n    tag_123:\n        /* \"@openzeppelin/contracts/utils/Context.sol\":709:716  address */\n      0x00\n        /* \"@openzeppelin/contracts/utils/Context.sol\":735:745  msg.sender */\n      caller\n        /* \"@openzeppelin/contracts/utils/Context.sol\":728:745  return msg.sender */\n      swap1\n      pop\n        /* \"@openzeppelin/contracts/utils/Context.sol\":656:752  function _msgSender() internal view virtual returns (address) {... */\n      swap1\n      jump\t// out\n        /* \"@openzeppelin/contracts/access/AccessControl.sol\":6708:7025  function _revokeRole(bytes32 role, address account) internal virtual returns (bool) {... */\n    tag_126:\n        /* \"@openzeppelin/contracts/access/AccessControl.sol\":6786:6790  bool */\n      0x00\n        /* \"@openzeppelin/contracts/access/AccessControl.sol\":6806:6828  hasRole(role, account) */\n      tag_163\n        /* \"@openzeppelin/contracts/access/AccessControl.sol\":6814:6818  role */\n      dup4\n        /* \"@openzeppelin/contracts/access/AccessControl.sol\":6820:6827  account */\n      dup4\n        /* \"@openzeppelin/contracts/access/AccessControl.sol\":6806:6813  hasRole */\n      tag_64\n        /* \"@openzeppelin/contracts/access/AccessControl.sol\":6806:6828  hasRole(role, account) */\n      jump\t// in\n    tag_163:\n        /* \"@openzeppelin/contracts/access/AccessControl.sol\":6802:7019  if (hasRole(role, account)) {... */\n      iszero\n      tag_164\n      jumpi\n        /* \"@openzeppelin/contracts/access/AccessControl.sol\":6876:6881  false */\n      0x00\n        /* \"@openzeppelin/contracts/access/AccessControl.sol\":6844:6850  _roles */\n      0x00\n        /* \"@openzeppelin/contracts/access/AccessControl.sol\":6844:6856  _roles[role] */\n      0x00\n        /* \"@openzeppelin/contracts/access/AccessControl.sol\":6851:6855  role */\n      dup6\n        /* \"@openzeppelin/contracts/access/AccessControl.sol\":6844:6856  _roles[role] */\n      dup2\n      mstore\n      0x20\n      add\n      swap1\n      dup2\n      mstore\n      0x20\n      add\n      0x00\n      keccak256\n        /* \"@openzeppelin/contracts/access/AccessControl.sol\":6844:6864  _roles[role].hasRole */\n      0x00\n      add\n        /* \"@openzeppelin/contracts/access/AccessControl.sol\":6844:6873  _roles[role].hasRole[account] */\n      0x00\n        /* \"@openzeppelin/contracts/access/AccessControl.sol\":6865:6872  account */\n      dup5\n        /* \"@openzeppelin/contracts/access/AccessControl.sol\":6844:6873  _roles[role].hasRole[account] */\n      0xffffffffffffffffffffffffffffffffffffffff\n      and\n      0xffffffffffffffffffffffffffffffffffffffff\n      and\n      dup2\n      mstore\n      0x20\n      add\n      swap1\n      dup2\n      mstore\n      0x20\n      add\n      0x00\n      keccak256\n      0x00\n        /* \"@openzeppelin/contracts/access/AccessControl.sol\":6844:6881  _roles[role].hasRole[account] = false */\n      0x0100\n      exp\n      dup2\n      sload\n      dup2\n      0xff\n      mul\n      not\n      and\n      swap1\n      dup4\n      iszero\n      iszero\n      mul\n      or\n      swap1\n      sstore\n      pop\n        /* \"@openzeppelin/contracts/access/AccessControl.sol\":6927:6939  _msgSender() */\n      tag_165\n        /* \"@openzeppelin/contracts/access/AccessControl.sol\":6927:6937  _msgSender */\n      tag_123\n        /* \"@openzeppelin/contracts/access/AccessControl.sol\":6927:6939  _msgSender() */\n      jump\t// in\n    tag_165:\n        /* \"@openzeppelin/contracts/access/AccessControl.sol\":6900:6940  RoleRevoked(role, account, _msgSender()) */\n      0xffffffffffffffffffffffffffffffffffffffff\n      and\n        /* \"@openzeppelin/contracts/access/AccessControl.sol\":6918:6925  account */\n      dup3\n        /* \"@openzeppelin/contracts/access/AccessControl.sol\":6900:6940  RoleRevoked(role, account, _msgSender()) */\n      0xffffffffffffffffffffffffffffffffffffffff\n      and\n        /* \"@openzeppelin/contracts/access/AccessControl.sol\":6912:6916  role */\n      dup5\n        /* \"@openzeppelin/contracts/access/AccessControl.sol\":6900:6940  RoleRevoked(role, account, _msgSender()) */\n      0xf6391f5c32d9c69d2a47ea670b442974b53935d1edc7fd64eb21e047a839171b\n      mload(0x40)\n      mload(0x40)\n      dup1\n      swap2\n      sub\n      swap1\n      log4\n        /* \"@openzeppelin/contracts/access/AccessControl.sol\":6961:6965  true */\n      0x01\n        /* \"@openzeppelin/contracts/access/AccessControl.sol\":6954:6965  return true */\n      swap1\n      pop\n      jump(tag_162)\n        /* \"@openzeppelin/contracts/access/AccessControl.sol\":6802:7019  if (hasRole(role, account)) {... */\n    tag_164:\n        /* \"@openzeppelin/contracts/access/AccessControl.sol\":7003:7008  false */\n      0x00\n        /* \"@openzeppelin/contracts/access/AccessControl.sol\":6996:7008  return false */\n      swap1\n      pop\n        /* \"@openzeppelin/contracts/access/AccessControl.sol\":6708:7025  function _revokeRole(bytes32 role, address account) internal virtual returns (bool) {... */\n    tag_162:\n      swap3\n      swap2\n      pop\n      pop\n      jump\t// out\n        /* \"@openzeppelin/contracts/access/AccessControl.sol\":3408:3605  function _checkRole(bytes32 role, address account) internal view virtual {... */\n    tag_155:\n        /* \"@openzeppelin/contracts/access/AccessControl.sol\":3496:3518  hasRole(role, account) */\n      tag_168\n        /* \"@openzeppelin/contracts/access/AccessControl.sol\":3504:3508  role */\n      dup3\n        /* \"@openzeppelin/contracts/access/AccessControl.sol\":3510:3517  account */\n      dup3\n        /* \"@openzeppelin/contracts/access/AccessControl.sol\":3496:3503  hasRole */\n      tag_64\n        /* \"@openzeppelin/contracts/access/AccessControl.sol\":3496:3518  hasRole(role, account) */\n      jump\t// in\n    tag_168:\n        /* \"@openzeppelin/contracts/access/AccessControl.sol\":3491:3599  if (!hasRole(role, account)) {... */\n      tag_169\n      jumpi\n        /* \"@openzeppelin/contracts/access/AccessControl.sol\":3574:3581  account */\n      dup1\n        /* \"@openzeppelin/contracts/access/AccessControl.sol\":3583:3587  role */\n      dup3\n        /* \"@openzeppelin/contracts/access/AccessControl.sol\":3541:3588  AccessControlUnauthorizedAccount(account, role) */\n      mload(0x40)\n      0xe2517d3f00000000000000000000000000000000000000000000000000000000\n      dup2\n      mstore\n      0x04\n      add\n      tag_170\n      swap3\n      swap2\n      swap1\n      tag_171\n      jump\t// in\n    tag_170:\n      mload(0x40)\n      dup1\n      swap2\n      sub\n      swap1\n      revert\n        /* \"@openzeppelin/contracts/access/AccessControl.sol\":3491:3599  if (!hasRole(role, account)) {... */\n    tag_169:\n        /* \"@openzeppelin/contracts/access/AccessControl.sol\":3408:3605  function _checkRole(bytes32 role, address account) internal view virtual {... */\n      pop\n      pop\n      jump\t// out\n        /* \"#utility.yul\":88:205   */\n    tag_173:\n        /* \"#utility.yul\":197:198   */\n      0x00\n        /* \"#utility.yul\":194:195   */\n      0x00\n        /* \"#utility.yul\":187:199   */\n      revert\n        /* \"#utility.yul\":334:483   */\n    tag_175:\n        /* \"#utility.yul\":370:377   */\n      0x00\n        /* \"#utility.yul\":410:476   */\n      0xffffffff00000000000000000000000000000000000000000000000000000000\n        /* \"#utility.yul\":403:408   */\n      dup3\n        /* \"#utility.yul\":399:477   */\n      and\n        /* \"#utility.yul\":388:477   */\n      swap1\n      pop\n        /* \"#utility.yul\":334:483   */\n      swap2\n      swap1\n      pop\n      jump\t// out\n        /* \"#utility.yul\":489:609   */\n    tag_176:\n        /* \"#utility.yul\":561:584   */\n      tag_203\n        /* \"#utility.yul\":578:583   */\n      dup2\n        /* \"#utility.yul\":561:584   */\n      tag_175\n      jump\t// in\n    tag_203:\n        /* \"#utility.yul\":554:559   */\n      dup2\n        /* \"#utility.yul\":551:585   */\n      eq\n        /* \"#utility.yul\":541:603   */\n      tag_204\n      jumpi\n        /* \"#utility.yul\":599:600   */\n      0x00\n        /* \"#utility.yul\":596:597   */\n      0x00\n        /* \"#utility.yul\":589:601   */\n      revert\n        /* \"#utility.yul\":541:603   */\n    tag_204:\n        /* \"#utility.yul\":489:609   */\n      pop\n      jump\t// out\n        /* \"#utility.yul\":615:752   */\n    tag_177:\n        /* \"#utility.yul\":660:665   */\n      0x00\n        /* \"#utility.yul\":698:704   */\n      dup2\n        /* \"#utility.yul\":685:705   */\n      calldataload\n        /* \"#utility.yul\":676:705   */\n      swap1\n      pop\n        /* \"#utility.yul\":714:746   */\n      tag_206\n        /* \"#utility.yul\":740:745   */\n      dup2\n        /* \"#utility.yul\":714:746   */\n      tag_176\n      jump\t// in\n    tag_206:\n        /* \"#utility.yul\":615:752   */\n      swap3\n      swap2\n      pop\n      pop\n      jump\t// out\n        /* \"#utility.yul\":758:1085   */\n    tag_27:\n        /* \"#utility.yul\":816:822   */\n      0x00\n        /* \"#utility.yul\":865:867   */\n      0x20\n        /* \"#utility.yul\":853:862   */\n      dup3\n        /* \"#utility.yul\":844:851   */\n      dup5\n        /* \"#utility.yul\":840:863   */\n      sub\n        /* \"#utility.yul\":836:868   */\n      slt\n        /* \"#utility.yul\":833:952   */\n      iszero\n      tag_208\n      jumpi\n        /* \"#utility.yul\":871:950   */\n      tag_209\n      tag_173\n      jump\t// in\n    tag_209:\n        /* \"#utility.yul\":833:952   */\n    tag_208:\n        /* \"#utility.yul\":991:992   */\n      0x00\n        /* \"#utility.yul\":1016:1068   */\n      tag_210\n        /* \"#utility.yul\":1060:1067   */\n      dup5\n        /* \"#utility.yul\":1051:1057   */\n      dup3\n        /* \"#utility.yul\":1040:1049   */\n      dup6\n        /* \"#utility.yul\":1036:1058   */\n      add\n        /* \"#utility.yul\":1016:1068   */\n      tag_177\n      jump\t// in\n    tag_210:\n        /* \"#utility.yul\":1006:1068   */\n      swap2\n      pop\n        /* \"#utility.yul\":962:1078   */\n      pop\n        /* \"#utility.yul\":758:1085   */\n      swap3\n      swap2\n      pop\n      pop\n      jump\t// out\n        /* \"#utility.yul\":1091:1181   */\n    tag_178:\n        /* \"#utility.yul\":1125:1132   */\n      0x00\n        /* \"#utility.yul\":1168:1173   */\n      dup2\n        /* \"#utility.yul\":1161:1174   */\n      iszero\n        /* \"#utility.yul\":1154:1175   */\n      iszero\n        /* \"#utility.yul\":1143:1175   */\n      swap1\n      pop\n        /* \"#utility.yul\":1091:1181   */\n      swap2\n      swap1\n      pop\n      jump\t// out\n        /* \"#utility.yul\":1187:1296   */\n    tag_179:\n        /* \"#utility.yul\":1268:1289   */\n      tag_213\n        /* \"#utility.yul\":1283:1288   */\n      dup2\n        /* \"#utility.yul\":1268:1289   */\n      tag_178\n      jump\t// in\n    tag_213:\n        /* \"#utility.yul\":1263:1266   */\n      dup3\n        /* \"#utility.yul\":1256:1290   */\n      mstore\n        /* \"#utility.yul\":1187:1296   */\n      pop\n      pop\n      jump\t// out\n        /* \"#utility.yul\":1302:1512   */\n    tag_30:\n        /* \"#utility.yul\":1389:1393   */\n      0x00\n        /* \"#utility.yul\":1427:1429   */\n      0x20\n        /* \"#utility.yul\":1416:1425   */\n      dup3\n        /* \"#utility.yul\":1412:1430   */\n      add\n        /* \"#utility.yul\":1404:1430   */\n      swap1\n      pop\n        /* \"#utility.yul\":1440:1505   */\n      tag_215\n        /* \"#utility.yul\":1502:1503   */\n      0x00\n        /* \"#utility.yul\":1491:1500   */\n      dup4\n        /* \"#utility.yul\":1487:1504   */\n      add\n        /* \"#utility.yul\":1478:1484   */\n      dup5\n        /* \"#utility.yul\":1440:1505   */\n      tag_179\n      jump\t// in\n    tag_215:\n        /* \"#utility.yul\":1302:1512   */\n      swap3\n      swap2\n      pop\n      pop\n      jump\t// out\n        /* \"#utility.yul\":1518:1595   */\n    tag_180:\n        /* \"#utility.yul\":1555:1562   */\n      0x00\n        /* \"#utility.yul\":1584:1589   */\n      dup2\n        /* \"#utility.yul\":1573:1589   */\n      swap1\n      pop\n        /* \"#utility.yul\":1518:1595   */\n      swap2\n      swap1\n      pop\n      jump\t// out\n        /* \"#utility.yul\":1601:1723   */\n    tag_181:\n        /* \"#utility.yul\":1674:1698   */\n      tag_218\n        /* \"#utility.yul\":1692:1697   */\n      dup2\n        /* \"#utility.yul\":1674:1698   */\n      tag_180\n      jump\t// in\n    tag_218:\n        /* \"#utility.yul\":1667:1672   */\n      dup2\n        /* \"#utility.yul\":1664:1699   */\n      eq\n        /* \"#utility.yul\":1654:1717   */\n      tag_219\n      jumpi\n        /* \"#utility.yul\":1713:1714   */\n      0x00\n        /* \"#utility.yul\":1710:1711   */\n      0x00\n        /* \"#utility.yul\":1703:1715   */\n      revert\n        /* \"#utility.yul\":1654:1717   */\n    tag_219:\n        /* \"#utility.yul\":1601:1723   */\n      pop\n      jump\t// out\n        /* \"#utility.yul\":1729:1868   */\n    tag_182:\n        /* \"#utility.yul\":1775:1780   */\n      0x00\n        /* \"#utility.yul\":1813:1819   */\n      dup2\n        /* \"#utility.yul\":1800:1820   */\n      calldataload\n        /* \"#utility.yul\":1791:1820   */\n      swap1\n      pop\n        /* \"#utility.yul\":1829:1862   */\n      tag_221\n        /* \"#utility.yul\":1856:1861   */\n      dup2\n        /* \"#utility.yul\":1829:1862   */\n      tag_181\n      jump\t// in\n    tag_221:\n        /* \"#utility.yul\":1729:1868   */\n      swap3\n      swap2\n      pop\n      pop\n      jump\t// out\n        /* \"#utility.yul\":1874:2203   */\n    tag_34:\n        /* \"#utility.yul\":1933:1939   */\n      0x00\n        /* \"#utility.yul\":1982:1984   */\n      0x20\n        /* \"#utility.yul\":1970:1979   */\n      dup3\n        /* \"#utility.yul\":1961:1968   */\n      dup5\n        /* \"#utility.yul\":1957:1980   */\n      sub\n        /* \"#utility.yul\":1953:1985   */\n      slt\n        /* \"#utility.yul\":1950:2069   */\n      iszero\n      tag_223\n      jumpi\n        /* \"#utility.yul\":1988:2067   */\n      tag_224\n      tag_173\n      jump\t// in\n    tag_224:\n        /* \"#utility.yul\":1950:2069   */\n    tag_223:\n        /* \"#utility.yul\":2108:2109   */\n      0x00\n        /* \"#utility.yul\":2133:2186   */\n      tag_225\n        /* \"#utility.yul\":2178:2185   */\n      dup5\n        /* \"#utility.yul\":2169:2175   */\n      dup3\n        /* \"#utility.yul\":2158:2167   */\n      dup6\n        /* \"#utility.yul\":2154:2176   */\n      add\n        /* \"#utility.yul\":2133:2186   */\n      tag_182\n      jump\t// in\n    tag_225:\n        /* \"#utility.yul\":2123:2186   */\n      swap2\n      pop\n        /* \"#utility.yul\":2079:2196   */\n      pop\n        /* \"#utility.yul\":1874:2203   */\n      swap3\n      swap2\n      pop\n      pop\n      jump\t// out\n        /* \"#utility.yul\":2209:2327   */\n    tag_183:\n        /* \"#utility.yul\":2296:2320   */\n      tag_227\n        /* \"#utility.yul\":2314:2319   */\n      dup2\n        /* \"#utility.yul\":2296:2320   */\n      tag_180\n      jump\t// in\n    tag_227:\n        /* \"#utility.yul\":2291:2294   */\n      dup3\n        /* \"#utility.yul\":2284:2321   */\n      mstore\n        /* \"#utility.yul\":2209:2327   */\n      pop\n      pop\n      jump\t// out\n        /* \"#utility.yul\":2333:2555   */\n    tag_37:\n        /* \"#utility.yul\":2426:2430   */\n      0x00\n        /* \"#utility.yul\":2464:2466   */\n      0x20\n        /* \"#utility.yul\":2453:2462   */\n      dup3\n        /* \"#utility.yul\":2449:2467   */\n      add\n        /* \"#utility.yul\":2441:2467   */\n      swap1\n      pop\n        /* \"#utility.yul\":2477:2548   */\n      tag_229\n        /* \"#utility.yul\":2545:2546   */\n      0x00\n        /* \"#utility.yul\":2534:2543   */\n      dup4\n        /* \"#utility.yul\":2530:2547   */\n      add\n        /* \"#utility.yul\":2521:2527   */\n      dup5\n        /* \"#utility.yul\":2477:2548   */\n      tag_183\n      jump\t// in\n    tag_229:\n        /* \"#utility.yul\":2333:2555   */\n      swap3\n      swap2\n      pop\n      pop\n      jump\t// out\n        /* \"#utility.yul\":2561:2638   */\n    tag_184:\n        /* \"#utility.yul\":2598:2605   */\n      0x00\n        /* \"#utility.yul\":2627:2632   */\n      dup2\n        /* \"#utility.yul\":2616:2632   */\n      swap1\n      pop\n        /* \"#utility.yul\":2561:2638   */\n      swap2\n      swap1\n      pop\n      jump\t// out\n        /* \"#utility.yul\":2644:2766   */\n    tag_185:\n        /* \"#utility.yul\":2717:2741   */\n      tag_232\n        /* \"#utility.yul\":2735:2740   */\n      dup2\n        /* \"#utility.yul\":2717:2741   */\n      tag_184\n      jump\t// in\n    tag_232:\n        /* \"#utility.yul\":2710:2715   */\n      dup2\n        /* \"#utility.yul\":2707:2742   */\n      eq\n        /* \"#utility.yul\":2697:2760   */\n      tag_233\n      jumpi\n        /* \"#utility.yul\":2756:2757   */\n      0x00\n        /* \"#utility.yul\":2753:2754   */\n      0x00\n        /* \"#utility.yul\":2746:2758   */\n      revert\n        /* \"#utility.yul\":2697:2760   */\n    tag_233:\n        /* \"#utility.yul\":2644:2766   */\n      pop\n      jump\t// out\n        /* \"#utility.yul\":2772:2911   */\n    tag_186:\n        /* \"#utility.yul\":2818:2823   */\n      0x00\n        /* \"#utility.yul\":2856:2862   */\n      dup2\n        /* \"#utility.yul\":2843:2863   */\n      calldataload\n        /* \"#utility.yul\":2834:2863   */\n      swap1\n      pop\n        /* \"#utility.yul\":2872:2905   */\n      tag_235\n        /* \"#utility.yul\":2899:2904   */\n      dup2\n        /* \"#utility.yul\":2872:2905   */\n      tag_185\n      jump\t// in\n    tag_235:\n        /* \"#utility.yul\":2772:2911   */\n      swap3\n      swap2\n      pop\n      pop\n      jump\t// out\n        /* \"#utility.yul\":2917:3246   */\n    tag_41:\n        /* \"#utility.yul\":2976:2982   */\n      0x00\n        /* \"#utility.yul\":3025:3027   */\n      0x20\n        /* \"#utility.yul\":3013:3022   */\n      dup3\n        /* \"#utility.yul\":3004:3011   */\n      dup5\n        /* \"#utility.yul\":3000:3023   */\n      sub\n        /* \"#utility.yul\":2996:3028   */\n      slt\n        /* \"#utility.yul\":2993:3112   */\n      iszero\n      tag_237\n      jumpi\n        /* \"#utility.yul\":3031:3110   */\n      tag_238\n      tag_173\n      jump\t// in\n    tag_238:\n        /* \"#utility.yul\":2993:3112   */\n    tag_237:\n        /* \"#utility.yul\":3151:3152   */\n      0x00\n        /* \"#utility.yul\":3176:3229   */\n      tag_239\n        /* \"#utility.yul\":3221:3228   */\n      dup5\n        /* \"#utility.yul\":3212:3218   */\n      dup3\n        /* \"#utility.yul\":3201:3210   */\n      dup6\n        /* \"#utility.yul\":3197:3219   */\n      add\n        /* \"#utility.yul\":3176:3229   */\n      tag_186\n      jump\t// in\n    tag_239:\n        /* \"#utility.yul\":3166:3229   */\n      swap2\n      pop\n        /* \"#utility.yul\":3122:3239   */\n      pop\n        /* \"#utility.yul\":2917:3246   */\n      swap3\n      swap2\n      pop\n      pop\n      jump\t// out\n        /* \"#utility.yul\":3252:3378   */\n    tag_187:\n        /* \"#utility.yul\":3289:3296   */\n      0x00\n        /* \"#utility.yul\":3329:3371   */\n      0xffffffffffffffffffffffffffffffffffffffff\n        /* \"#utility.yul\":3322:3327   */\n      dup3\n        /* \"#utility.yul\":3318:3372   */\n      and\n        /* \"#utility.yul\":3307:3372   */\n      swap1\n      pop\n        /* \"#utility.yul\":3252:3378   */\n      swap2\n      swap1\n      pop\n      jump\t// out\n        /* \"#utility.yul\":3384:3480   */\n    tag_188:\n        /* \"#utility.yul\":3421:3428   */\n      0x00\n        /* \"#utility.yul\":3450:3474   */\n      tag_242\n        /* \"#utility.yul\":3468:3473   */\n      dup3\n        /* \"#utility.yul\":3450:3474   */\n      tag_187\n      jump\t// in\n    tag_242:\n        /* \"#utility.yul\":3439:3474   */\n      swap1\n      pop\n        /* \"#utility.yul\":3384:3480   */\n      swap2\n      swap1\n      pop\n      jump\t// out\n        /* \"#utility.yul\":3486:3608   */\n    tag_189:\n        /* \"#utility.yul\":3559:3583   */\n      tag_244\n        /* \"#utility.yul\":3577:3582   */\n      dup2\n        /* \"#utility.yul\":3559:3583   */\n      tag_188\n      jump\t// in\n    tag_244:\n        /* \"#utility.yul\":3552:3557   */\n      dup2\n        /* \"#utility.yul\":3549:3584   */\n      eq\n        /* \"#utility.yul\":3539:3602   */\n      tag_245\n      jumpi\n        /* \"#utility.yul\":3598:3599   */\n      0x00\n        /* \"#utility.yul\":3595:3596   */\n      0x00\n        /* \"#utility.yul\":3588:3600   */\n      revert\n        /* \"#utility.yul\":3539:3602   */\n    tag_245:\n        /* \"#utility.yul\":3486:3608   */\n      pop\n      jump\t// out\n        /* \"#utility.yul\":3614:3753   */\n    tag_190:\n        /* \"#utility.yul\":3660:3665   */\n      0x00\n        /* \"#utility.yul\":3698:3704   */\n      dup2\n        /* \"#utility.yul\":3685:3705   */\n      calldataload\n        /* \"#utility.yul\":3676:3705   */\n      swap1\n      pop\n        /* \"#utility.yul\":3714:3747   */\n      tag_247\n        /* \"#utility.yul\":3741:3746   */\n      dup2\n        /* \"#utility.yul\":3714:3747   */\n      tag_189\n      jump\t// in\n    tag_247:\n        /* \"#utility.yul\":3614:3753   */\n      swap3\n      swap2\n      pop\n      pop\n      jump\t// out\n        /* \"#utility.yul\":3759:4233   */\n    tag_46:\n        /* \"#utility.yul\":3827:3833   */\n      0x00\n        /* \"#utility.yul\":3835:3841   */\n      0x00\n        /* \"#utility.yul\":3884:3886   */\n      0x40\n        /* \"#utility.yul\":3872:3881   */\n      dup4\n        /* \"#utility.yul\":3863:3870   */\n      dup6\n        /* \"#utility.yul\":3859:3882   */\n      sub\n        /* \"#utility.yul\":3855:3887   */\n      slt\n        /* \"#utility.yul\":3852:3971   */\n      iszero\n      tag_249\n      jumpi\n        /* \"#utility.yul\":3890:3969   */\n      tag_250\n      tag_173\n      jump\t// in\n    tag_250:\n        /* \"#utility.yul\":3852:3971   */\n    tag_249:\n        /* \"#utility.yul\":4010:4011   */\n      0x00\n        /* \"#utility.yul\":4035:4088   */\n      tag_251\n        /* \"#utility.yul\":4080:4087   */\n      dup6\n        /* \"#utility.yul\":4071:4077   */\n      dup3\n        /* \"#utility.yul\":4060:4069   */\n      dup7\n        /* \"#utility.yul\":4056:4078   */\n      add\n        /* \"#utility.yul\":4035:4088   */\n      tag_182\n      jump\t// in\n    tag_251:\n        /* \"#utility.yul\":4025:4088   */\n      swap3\n      pop\n        /* \"#utility.yul\":3981:4098   */\n      pop\n        /* \"#utility.yul\":4137:4139   */\n      0x20\n        /* \"#utility.yul\":4163:4216   */\n      tag_252\n        /* \"#utility.yul\":4208:4215   */\n      dup6\n        /* \"#utility.yul\":4199:4205   */\n      dup3\n        /* \"#utility.yul\":4188:4197   */\n      dup7\n        /* \"#utility.yul\":4184:4206   */\n      add\n        /* \"#utility.yul\":4163:4216   */\n      tag_190\n      jump\t// in\n    tag_252:\n        /* \"#utility.yul\":4153:4216   */\n      swap2\n      pop\n        /* \"#utility.yul\":4108:4226   */\n      pop\n        /* \"#utility.yul\":3759:4233   */\n      swap3\n      pop\n      swap3\n      swap1\n      pop\n      jump\t// out\n        /* \"#utility.yul\":4239:4357   */\n    tag_191:\n        /* \"#utility.yul\":4326:4350   */\n      tag_254\n        /* \"#utility.yul\":4344:4349   */\n      dup2\n        /* \"#utility.yul\":4326:4350   */\n      tag_184\n      jump\t// in\n    tag_254:\n        /* \"#utility.yul\":4321:4324   */\n      dup3\n        /* \"#utility.yul\":4314:4351   */\n      mstore\n        /* \"#utility.yul\":4239:4357   */\n      pop\n      pop\n      jump\t// out\n        /* \"#utility.yul\":4363:4585   */\n    tag_56:\n        /* \"#utility.yul\":4456:4460   */\n      0x00\n        /* \"#utility.yul\":4494:4496   */\n      0x20\n        /* \"#utility.yul\":4483:4492   */\n      dup3\n        /* \"#utility.yul\":4479:4497   */\n      add\n        /* \"#utility.yul\":4471:4497   */\n      swap1\n      pop\n        /* \"#utility.yul\":4507:4578   */\n      tag_256\n        /* \"#utility.yul\":4575:4576   */\n      0x00\n        /* \"#utility.yul\":4564:4573   */\n      dup4\n        /* \"#utility.yul\":4560:4577   */\n      add\n        /* \"#utility.yul\":4551:4557   */\n      dup5\n        /* \"#utility.yul\":4507:4578   */\n      tag_191\n      jump\t// in\n    tag_256:\n        /* \"#utility.yul\":4363:4585   */\n      swap3\n      swap2\n      pop\n      pop\n      jump\t// out\n        /* \"#utility.yul\":4591:4920   */\n    tag_73:\n        /* \"#utility.yul\":4650:4656   */\n      0x00\n        /* \"#utility.yul\":4699:4701   */\n      0x20\n        /* \"#utility.yul\":4687:4696   */\n      dup3\n        /* \"#utility.yul\":4678:4685   */\n      dup5\n        /* \"#utility.yul\":4674:4697   */\n      sub\n        /* \"#utility.yul\":4670:4702   */\n      slt\n        /* \"#utility.yul\":4667:4786   */\n      iszero\n      tag_258\n      jumpi\n        /* \"#utility.yul\":4705:4784   */\n      tag_259\n      tag_173\n      jump\t// in\n    tag_259:\n        /* \"#utility.yul\":4667:4786   */\n    tag_258:\n        /* \"#utility.yul\":4825:4826   */\n      0x00\n        /* \"#utility.yul\":4850:4903   */\n      tag_260\n        /* \"#utility.yul\":4895:4902   */\n      dup5\n        /* \"#utility.yul\":4886:4892   */\n      dup3\n        /* \"#utility.yul\":4875:4884   */\n      dup6\n        /* \"#utility.yul\":4871:4893   */\n      add\n        /* \"#utility.yul\":4850:4903   */\n      tag_190\n      jump\t// in\n    tag_260:\n        /* \"#utility.yul\":4840:4903   */\n      swap2\n      pop\n        /* \"#utility.yul\":4796:4913   */\n      pop\n        /* \"#utility.yul\":4591:4920   */\n      swap3\n      swap2\n      pop\n      pop\n      jump\t// out\n        /* \"#utility.yul\":4926:5106   */\n    tag_192:\n        /* \"#utility.yul\":4974:5051   */\n      0x4e487b7100000000000000000000000000000000000000000000000000000000\n        /* \"#utility.yul\":4971:4972   */\n      0x00\n        /* \"#utility.yul\":4964:5052   */\n      mstore\n        /* \"#utility.yul\":5071:5075   */\n      0x11\n        /* \"#utility.yul\":5068:5069   */\n      0x04\n        /* \"#utility.yul\":5061:5076   */\n      mstore\n        /* \"#utility.yul\":5095:5099   */\n      0x24\n        /* \"#utility.yul\":5092:5093   */\n      0x00\n        /* \"#utility.yul\":5085:5100   */\n      revert\n        /* \"#utility.yul\":5112:5345   */\n    tag_110:\n        /* \"#utility.yul\":5151:5154   */\n      0x00\n        /* \"#utility.yul\":5174:5198   */\n      tag_263\n        /* \"#utility.yul\":5192:5197   */\n      dup3\n        /* \"#utility.yul\":5174:5198   */\n      tag_184\n      jump\t// in\n    tag_263:\n        /* \"#utility.yul\":5165:5198   */\n      swap2\n      pop\n        /* \"#utility.yul\":5220:5286   */\n      0xffffffffffffffffffffffffffffffffffffffffffffffffffffffffffffffff\n        /* \"#utility.yul\":5213:5218   */\n      dup3\n        /* \"#utility.yul\":5210:5287   */\n      sub\n        /* \"#utility.yul\":5207:5310   */\n      tag_264\n      jumpi\n        /* \"#utility.yul\":5290:5308   */\n      tag_265\n      tag_192\n      jump\t// in\n    tag_265:\n        /* \"#utility.yul\":5207:5310   */\n    tag_264:\n        /* \"#utility.yul\":5337:5338   */\n      0x01\n        /* \"#utility.yul\":5330:5335   */\n      dup3\n        /* \"#utility.yul\":5326:5339   */\n      add\n        /* \"#utility.yul\":5319:5339   */\n      swap1\n      pop\n        /* \"#utility.yul\":5112:5345   */\n      swap2\n      swap1\n      pop\n      jump\t// out\n        /* \"#utility.yul\":5351:5542   */\n    tag_132:\n        /* \"#utility.yul\":5391:5394   */\n      0x00\n        /* \"#utility.yul\":5410:5430   */\n      tag_267\n        /* \"#utility.yul\":5428:5429   */\n      dup3\n        /* \"#utility.yul\":5410:5430   */\n      tag_184\n      jump\t// in\n    tag_267:\n        /* \"#utility.yul\":5405:5430   */\n      swap2\n      pop\n        /* \"#utility.yul\":5444:5464   */\n      tag_268\n        /* \"#utility.yul\":5462:5463   */\n      dup4\n        /* \"#utility.yul\":5444:5464   */\n      tag_184\n      jump\t// in\n    tag_268:\n        /* \"#utility.yul\":5439:5464   */\n      swap3\n      pop\n        /* \"#utility.yul\":5487:5488   */\n      dup3\n        /* \"#utility.yul\":5484:5485   */\n      dup3\n        /* \"#utility.yul\":5480:5489   */\n      add\n        /* \"#utility.yul\":5473:5489   */\n      swap1\n      pop\n        /* \"#utility.yul\":5508:5511   */\n      dup1\n        /* \"#utility.yul\":5505:5506   */\n      dup3\n        /* \"#utility.yul\":5502:5512   */\n      gt\n        /* \"#utility.yul\":5499:5535   */\n      iszero\n      tag_269\n      jumpi\n        /* \"#utility.yul\":5515:5533   */\n      tag_270\n      tag_192\n      jump\t// in\n    tag_270:\n        /* \"#utility.yul\":5499:5535   */\n    tag_269:\n        /* \"#utility.yul\":5351:5542   */\n      swap3\n      swap2\n      pop\n      pop\n      jump\t// out\n        /* \"#utility.yul\":5548:5695   */\n    tag_193:\n        /* \"#utility.yul\":5649:5660   */\n      0x00\n        /* \"#utility.yul\":5686:5689   */\n      dup2\n        /* \"#utility.yul\":5671:5689   */\n      swap1\n      pop\n        /* \"#utility.yul\":5548:5695   */\n      swap3\n      swap2\n      pop\n      pop\n      jump\t// out\n        /* \"#utility.yul\":5701:5815   */\n    tag_194:\n      pop\n      jump\t// out\n        /* \"#utility.yul\":5821:6219   */\n    tag_195:\n        /* \"#utility.yul\":5980:5983   */\n      0x00\n        /* \"#utility.yul\":6001:6084   */\n      tag_274\n        /* \"#utility.yul\":6082:6083   */\n      0x00\n        /* \"#utility.yul\":6077:6080   */\n      dup4\n        /* \"#utility.yul\":6001:6084   */\n      tag_193\n      jump\t// in\n    tag_274:\n        /* \"#utility.yul\":5994:6084   */\n      swap2\n      pop\n        /* \"#utility.yul\":6093:6186   */\n      tag_275\n        /* \"#utility.yul\":6182:6185   */\n      dup3\n        /* \"#utility.yul\":6093:6186   */\n      tag_194\n      jump\t// in\n    tag_275:\n        /* \"#utility.yul\":6211:6212   */\n      0x00\n        /* \"#utility.yul\":6206:6209   */\n      dup3\n        /* \"#utility.yul\":6202:6213   */\n      add\n        /* \"#utility.yul\":6195:6213   */\n      swap1\n      pop\n        /* \"#utility.yul\":5821:6219   */\n      swap2\n      swap1\n      pop\n      jump\t// out\n        /* \"#utility.yul\":6225:6604   */\n    tag_147:\n        /* \"#utility.yul\":6409:6412   */\n      0x00\n        /* \"#utility.yul\":6431:6578   */\n      tag_277\n        /* \"#utility.yul\":6574:6577   */\n      dup3\n        /* \"#utility.yul\":6431:6578   */\n      tag_195\n      jump\t// in\n    tag_277:\n        /* \"#utility.yul\":6424:6578   */\n      swap2\n      pop\n        /* \"#utility.yul\":6595:6598   */\n      dup2\n        /* \"#utility.yul\":6588:6598   */\n      swap1\n      pop\n        /* \"#utility.yul\":6225:6604   */\n      swap2\n      swap1\n      pop\n      jump\t// out\n        /* \"#utility.yul\":6610:6728   */\n    tag_196:\n        /* \"#utility.yul\":6697:6721   */\n      tag_279\n        /* \"#utility.yul\":6715:6720   */\n      dup2\n        /* \"#utility.yul\":6697:6721   */\n      tag_188\n      jump\t// in\n    tag_279:\n        /* \"#utility.yul\":6692:6695   */\n      dup3\n        /* \"#utility.yul\":6685:6722   */\n      mstore\n        /* \"#utility.yul\":6610:6728   */\n      pop\n      pop\n      jump\t// out\n        /* \"#utility.yul\":6734:7066   */\n    tag_171:\n        /* \"#utility.yul\":6855:6859   */\n      0x00\n        /* \"#utility.yul\":6893:6895   */\n      0x40\n        /* \"#utility.yul\":6882:6891   */\n      dup3\n        /* \"#utility.yul\":6878:6896   */\n      add\n        /* \"#utility.yul\":6870:6896   */\n      swap1\n      pop\n        /* \"#utility.yul\":6906:6977   */\n      tag_281\n        /* \"#utility.yul\":6974:6975   */\n      0x00\n        /* \"#utility.yul\":6963:6972   */\n      dup4\n        /* \"#utility.yul\":6959:6976   */\n      add\n        /* \"#utility.yul\":6950:6956   */\n      dup6\n        /* \"#utility.yul\":6906:6977   */\n      tag_196\n      jump\t// in\n    tag_281:\n        /* \"#utility.yul\":6987:7059   */\n      tag_282\n        /* \"#utility.yul\":7055:7057   */\n      0x20\n        /* \"#utility.yul\":7044:7053   */\n      dup4\n        /* \"#utility.yul\":7040:7058   */\n      add\n        /* \"#utility.yul\":7031:7037   */\n      dup5\n        /* \"#utility.yul\":6987:7059   */\n      tag_183\n      jump\t// in\n    tag_282:\n        /* \"#utility.yul\":6734:7066   */\n      swap4\n      swap3\n      pop\n      pop\n      pop\n      jump\t// out\n\n    auxdata: 0xa2646970667358221220cb7763def440d4f939c1661e6ba44988145bfb3eb5690cb16fa605d11adedc7164736f6c634300081e0033\n}\n",
				"bytecode": {
					"linkReferences": {},
					"object": "60c060405234801561000f575f5ffd5b50604051611295380380611295833981810160405281019061003191906100f8565b600180819055505f8203610071576040517ff1f13a3800000000000000000000000000000000000000000000000000000000815260040160405180910390fd5b5f81036100aa576040517fafea1c5700000000000000000000000000000000000000000000000000000000815260040160405180910390fd5b81608081815250508060a081815250505050610136565b5f5ffd5b5f819050919050565b6100d7816100c5565b81146100e1575f5ffd5b50565b5f815190506100f2816100ce565b92915050565b5f5f6040838503121561010e5761010d6100c1565b5b5f61011b858286016100e4565b925050602061012c858286016100e4565b9150509250929050565b60805160a0516111306101655f395f81816107c9015261082601525f81816104ad015261072701526111305ff3fe6080604052600436106100f6575f3560e01c8063a217fddf11610089578063d547741f11610058578063d547741f1461034b578063f215705214610373578063f4443d9a1461039d578063f8b2cb4f146103d95761012d565b8063a217fddf146102b1578063b3d8bcdc146102db578063c16ec03714610317578063d0e30db0146103415761012d565b806336568abe116100c557806336568abe146101f95780637d882097146102215780638c0ff5b71461024b57806391d14854146102755761012d565b806301ffc9a714610131578063248a9ca31461016d5780632e1a7d4d146101a95780632f2ff15d146101d15761012d565b3661012d576040517f3ee6509d00000000000000000000000000000000000000000000000000000000815260040160405180910390fd5b5f5ffd5b34801561013c575f5ffd5b5061015760048036038101906101529190610daf565b610415565b6040516101649190610df4565b60405180910390f35b348015610178575f5ffd5b50610193600480360381019061018e9190610e40565b61048e565b6040516101a09190610e7a565b60405180910390f35b3480156101b4575f5ffd5b506101cf60048036038101906101ca9190610ec6565b6104aa565b005b3480156101dc575f5ffd5b506101f760048036038101906101f29190610f4b565b610682565b005b348015610204575f5ffd5b5061021f600480360381019061021a9190610f4b565b6106a4565b005b34801561022c575f5ffd5b5061023561071f565b6040516102429190610f98565b60405180910390f35b348015610256575f5ffd5b5061025f610725565b60405161026c9190610f98565b60405180910390f35b348015610280575f5ffd5b5061029b60048036038101906102969190610f4b565b610749565b6040516102a89190610df4565b60405180910390f35b3480156102bc575f5ffd5b506102c56107ac565b6040516102d29190610e7a565b60405180910390f35b3480156102e6575f5ffd5b5061030160048036038101906102fc9190610fb1565b6107b2565b60405161030e9190610f98565b60405180910390f35b348015610322575f5ffd5b5061032b6107c7565b6040516103389190610f98565b60405180910390f35b6103496107eb565b005b348015610356575f5ffd5b50610371600480360381019061036c9190610f4b565b610998565b005b34801561037e575f5ffd5b506103876109ba565b6040516103949190610e7a565b60405180910390f35b3480156103a8575f5ffd5b506103c360048036038101906103be9190610fb1565b6109de565b6040516103d09190610f98565b60405180910390f35b3480156103e4575f5ffd5b506103ff60048036038101906103fa9190610fb1565b6109f3565b60405161040c9190610f98565b60405180910390f35b5f7f7965db0b000000000000000000000000000000000000000000000000000000007bffffffffffffffffffffffffffffffffffffffffffffffffffffffff1916827bffffffffffffffffffffffffffffffffffffffffffffffffffffffff19161480610487575061048682610a39565b5b9050919050565b5f5f5f8381526020019081526020015f20600101549050919050565b807f0000000000000000000000000000000000000000000000000000000000000000811115610505576040517f73a7c91000000000000000000000000000000000000000000000000000000000815260040160405180910390fd5b5f60035f3373ffffffffffffffffffffffffffffffffffffffff1673ffffffffffffffffffffffffffffffffffffffff1681526020019081526020015f2054905082811015610580576040517ff4d678b800000000000000000000000000000000000000000000000000000000815260040160405180910390fd5b82810360035f3373ffffffffffffffffffffffffffffffffffffffff1673ffffffffffffffffffffffffffffffffffffffff1681526020019081526020015f20819055508260025f828254039250508190555060055f3373ffffffffffffffffffffffffffffffffffffffff1673ffffffffffffffffffffffffffffffffffffffff1681526020019081526020015f205f81548092919061062090611009565b919050555061062f3384610aa2565b3373ffffffffffffffffffffffffffffffffffffffff167fbc158bb64f05d6383aea69bbb0b20c1bbf4b7a18f63359c5649b7c39e29d3884846040516106759190610f98565b60405180910390a2505050565b61068b8261048e565b61069481610b18565b61069e8383610b2c565b50505050565b6106ac610c15565b73ffffffffffffffffffffffffffffffffffffffff168173ffffffffffffffffffffffffffffffffffffffff1614610710576040517f6697b23200000000000000000000000000000000000000000000000000000000815260040160405180910390fd5b61071a8282610c1c565b505050565b60025481565b7f000000000000000000000000000000000000000000000000000000000000000081565b5f5f5f8481526020019081526020015f205f015f8373ffffffffffffffffffffffffffffffffffffffff1673ffffffffffffffffffffffffffffffffffffffff1681526020019081526020015f205f9054906101000a900460ff16905092915050565b5f5f1b81565b6005602052805f5260405f205f915090505481565b7f000000000000000000000000000000000000000000000000000000000000000081565b5f3403610824576040517f8615019900000000000000000000000000000000000000000000000000000000815260040160405180910390fd5b7f0000000000000000000000000000000000000000000000000000000000000000346002546108539190611050565b111561088b576040517fdef6daf200000000000000000000000000000000000000000000000000000000815260040160405180910390fd5b3460035f3373ffffffffffffffffffffffffffffffffffffffff1673ffffffffffffffffffffffffffffffffffffffff1681526020019081526020015f205f8282546108d79190611050565b925050819055503460025f8282546108ef9190611050565b9250508190555060045f3373ffffffffffffffffffffffffffffffffffffffff1673ffffffffffffffffffffffffffffffffffffffff1681526020019081526020015f205f81548092919061094390611009565b91905055503373ffffffffffffffffffffffffffffffffffffffff167fd15c9547ea5c06670c0010ce19bc32d54682a4b3801ece7f3ab0c3f17106b4bb3460405161098e9190610f98565b60405180910390a2565b6109a18261048e565b6109aa81610b18565b6109b48383610c1c565b50505050565b7f2d95a8186db49da8bd2356c70cf02038f7de0d6ed39f6766fe2d93d5e778561681565b6004602052805f5260405f205f915090505481565b5f60035f8373ffffffffffffffffffffffffffffffffffffffff1673ffffffffffffffffffffffffffffffffffffffff1681526020019081526020015f20549050919050565b5f7f01ffc9a7000000000000000000000000000000000000000000000000000000007bffffffffffffffffffffffffffffffffffffffffffffffffffffffff1916827bffffffffffffffffffffffffffffffffffffffffffffffffffffffff1916149050919050565b5f8273ffffffffffffffffffffffffffffffffffffffff1682604051610ac7906110b0565b5f6040518083038185875af1925050503d805f8114610b01576040519150601f19603f3d011682016040523d82523d5f602084013e610b06565b606091505b5050905080610b13575f5ffd5b505050565b610b2981610b24610c15565b610d05565b50565b5f610b378383610749565b610c0b5760015f5f8581526020019081526020015f205f015f8473ffffffffffffffffffffffffffffffffffffffff1673ffffffffffffffffffffffffffffffffffffffff1681526020019081526020015f205f6101000a81548160ff021916908315150217905550610ba8610c15565b73ffffffffffffffffffffffffffffffffffffffff168273ffffffffffffffffffffffffffffffffffffffff16847f2f8788117e7eff1d82e926ec794901d17c78024a50270940304540a733656f0d60405160405180910390a460019050610c0f565b5f90505b92915050565b5f33905090565b5f610c278383610749565b15610cfb575f5f5f8581526020019081526020015f205f015f8473ffffffffffffffffffffffffffffffffffffffff1673ffffffffffffffffffffffffffffffffffffffff1681526020019081526020015f205f6101000a81548160ff021916908315150217905550610c98610c15565b73ffffffffffffffffffffffffffffffffffffffff168273ffffffffffffffffffffffffffffffffffffffff16847ff6391f5c32d9c69d2a47ea670b442974b53935d1edc7fd64eb21e047a839171b60405160405180910390a460019050610cff565b5f90505b92915050565b610d0f8282610749565b610d525780826040517fe2517d3f000000000000000000000000000000000000000000000000000000008152600401610d499291906110d3565b60405180910390fd5b5050565b5f5ffd5b5f7fffffffff0000000000000000000000000000000000000000000000000000000082169050919050565b610d8e81610d5a565b8114610d98575f5ffd5b50565b5f81359050610da981610d85565b92915050565b5f60208284031215610dc457610dc3610d56565b5b5f610dd184828501610d9b565b91505092915050565b5f8115159050919050565b610dee81610dda565b82525050565b5f602082019050610e075f830184610de5565b92915050565b5f819050919050565b610e1f81610e0d565b8114610e29575f5ffd5b50565b5f81359050610e3a81610e16565b92915050565b5f60208284031215610e5557610e54610d56565b5b5f610e6284828501610e2c565b91505092915050565b610e7481610e0d565b82525050565b5f602082019050610e8d5f830184610e6b565b92915050565b5f819050919050565b610ea581610e93565b8114610eaf575f5ffd5b50565b5f81359050610ec081610e9c565b92915050565b5f60208284031215610edb57610eda610d56565b5b5f610ee884828501610eb2565b91505092915050565b5f73ffffffffffffffffffffffffffffffffffffffff82169050919050565b5f610f1a82610ef1565b9050919050565b610f2a81610f10565b8114610f34575f5ffd5b50565b5f81359050610f4581610f21565b92915050565b5f5f60408385031215610f6157610f60610d56565b5b5f610f6e85828601610e2c565b9250506020610f7f85828601610f37565b9150509250929050565b610f9281610e93565b82525050565b5f602082019050610fab5f830184610f89565b92915050565b5f60208284031215610fc657610fc5610d56565b5b5f610fd384828501610f37565b91505092915050565b7f4e487b71000000000000000000000000000000000000000000000000000000005f52601160045260245ffd5b5f61101382610e93565b91507fffffffffffffffffffffffffffffffffffffffffffffffffffffffffffffffff820361104557611044610fdc565b5b600182019050919050565b5f61105a82610e93565b915061106583610e93565b925082820190508082111561107d5761107c610fdc565b5b92915050565b5f81905092915050565b50565b5f61109b5f83611083565b91506110a68261108d565b5f82019050919050565b5f6110ba82611090565b9150819050919050565b6110cd81610f10565b82525050565b5f6040820190506110e65f8301856110c4565b6110f36020830184610e6b565b939250505056fea2646970667358221220cb7763def440d4f939c1661e6ba44988145bfb3eb5690cb16fa605d11adedc7164736f6c634300081e0033",
					"opcodes": "PUSH1 0xC0 PUSH1 0x40 MSTORE CALLVALUE DUP1 ISZERO PUSH2 0xF JUMPI PUSH0 PUSH0 REVERT JUMPDEST POP PUSH1 0x40 MLOAD PUSH2 0x1295 CODESIZE SUB DUP1 PUSH2 0x1295 DUP4 CODECOPY DUP2 DUP2 ADD PUSH1 0x40 MSTORE DUP2 ADD SWAP1 PUSH2 0x31 SWAP2 SWAP1 PUSH2 0xF8 JUMP JUMPDEST PUSH1 0x1 DUP1 DUP2 SWAP1 SSTORE POP PUSH0 DUP3 SUB PUSH2 0x71 JUMPI PUSH1 0x40 MLOAD PUSH32 0xF1F13A3800000000000000000000000000000000000000000000000000000000 DUP2 MSTORE PUSH1 0x4 ADD PUSH1 0x40 MLOAD DUP1 SWAP2 SUB SWAP1 REVERT JUMPDEST PUSH0 DUP2 SUB PUSH2 0xAA JUMPI PUSH1 0x40 MLOAD PUSH32 0xAFEA1C5700000000000000000000000000000000000000000000000000000000 DUP2 MSTORE PUSH1 0x4 ADD PUSH1 0x40 MLOAD DUP1 SWAP2 SUB SWAP1 REVERT JUMPDEST DUP2 PUSH1 0x80 DUP2 DUP2 MSTORE POP POP DUP1 PUSH1 0xA0 DUP2 DUP2 MSTORE POP POP POP POP PUSH2 0x136 JUMP JUMPDEST PUSH0 PUSH0 REVERT JUMPDEST PUSH0 DUP2 SWAP1 POP SWAP2 SWAP1 POP JUMP JUMPDEST PUSH2 0xD7 DUP2 PUSH2 0xC5 JUMP JUMPDEST DUP2 EQ PUSH2 0xE1 JUMPI PUSH0 PUSH0 REVERT JUMPDEST POP JUMP JUMPDEST PUSH0 DUP2 MLOAD SWAP1 POP PUSH2 0xF2 DUP2 PUSH2 0xCE JUMP JUMPDEST SWAP3 SWAP2 POP POP JUMP JUMPDEST PUSH0 PUSH0 PUSH1 0x40 DUP4 DUP6 SUB SLT ISZERO PUSH2 0x10E JUMPI PUSH2 0x10D PUSH2 0xC1 JUMP JUMPDEST JUMPDEST PUSH0 PUSH2 0x11B DUP6 DUP3 DUP7 ADD PUSH2 0xE4 JUMP JUMPDEST SWAP3 POP POP PUSH1 0x20 PUSH2 0x12C DUP6 DUP3 DUP7 ADD PUSH2 0xE4 JUMP JUMPDEST SWAP2 POP POP SWAP3 POP SWAP3 SWAP1 POP JUMP JUMPDEST PUSH1 0x80 MLOAD PUSH1 0xA0 MLOAD PUSH2 0x1130 PUSH2 0x165 PUSH0 CODECOPY PUSH0 DUP2 DUP2 PUSH2 0x7C9 ADD MSTORE PUSH2 0x826 ADD MSTORE PUSH0 DUP2 DUP2 PUSH2 0x4AD ADD MSTORE PUSH2 0x727 ADD MSTORE PUSH2 0x1130 PUSH0 RETURN INVALID PUSH1 0x80 PUSH1 0x40 MSTORE PUSH1 0x4 CALLDATASIZE LT PUSH2 0xF6 JUMPI PUSH0 CALLDATALOAD PUSH1 0xE0 SHR DUP1 PUSH4 0xA217FDDF GT PUSH2 0x89 JUMPI DUP1 PUSH4 0xD547741F GT PUSH2 0x58 JUMPI DUP1 PUSH4 0xD547741F EQ PUSH2 0x34B JUMPI DUP1 PUSH4 0xF2157052 EQ PUSH2 0x373 JUMPI DUP1 PUSH4 0xF4443D9A EQ PUSH2 0x39D JUMPI DUP1 PUSH4 0xF8B2CB4F EQ PUSH2 0x3D9 JUMPI PUSH2 0x12D JUMP JUMPDEST DUP1 PUSH4 0xA217FDDF EQ PUSH2 0x2B1 JUMPI DUP1 PUSH4 0xB3D8BCDC EQ PUSH2 0x2DB JUMPI DUP1 PUSH4 0xC16EC037 EQ PUSH2 0x317 JUMPI DUP1 PUSH4 0xD0E30DB0 EQ PUSH2 0x341 JUMPI PUSH2 0x12D JUMP JUMPDEST DUP1 PUSH4 0x36568ABE GT PUSH2 0xC5 JUMPI DUP1 PUSH4 0x36568ABE EQ PUSH2 0x1F9 JUMPI DUP1 PUSH4 0x7D882097 EQ PUSH2 0x221 JUMPI DUP1 PUSH4 0x8C0FF5B7 EQ PUSH2 0x24B JUMPI DUP1 PUSH4 0x91D14854 EQ PUSH2 0x275 JUMPI PUSH2 0x12D JUMP JUMPDEST DUP1 PUSH4 0x1FFC9A7 EQ PUSH2 0x131 JUMPI DUP1 PUSH4 0x248A9CA3 EQ PUSH2 0x16D JUMPI DUP1 PUSH4 0x2E1A7D4D EQ PUSH2 0x1A9 JUMPI DUP1 PUSH4 0x2F2FF15D EQ PUSH2 0x1D1 JUMPI PUSH2 0x12D JUMP JUMPDEST CALLDATASIZE PUSH2 0x12D JUMPI PUSH1 0x40 MLOAD PUSH32 0x3EE6509D00000000000000000000000000000000000000000000000000000000 DUP2 MSTORE PUSH1 0x4 ADD PUSH1 0x40 MLOAD DUP1 SWAP2 SUB SWAP1 REVERT JUMPDEST PUSH0 PUSH0 REVERT JUMPDEST CALLVALUE DUP1 ISZERO PUSH2 0x13C JUMPI PUSH0 PUSH0 REVERT JUMPDEST POP PUSH2 0x157 PUSH1 0x4 DUP1 CALLDATASIZE SUB DUP2 ADD SWAP1 PUSH2 0x152 SWAP2 SWAP1 PUSH2 0xDAF JUMP JUMPDEST PUSH2 0x415 JUMP JUMPDEST PUSH1 0x40 MLOAD PUSH2 0x164 SWAP2 SWAP1 PUSH2 0xDF4 JUMP JUMPDEST PUSH1 0x40 MLOAD DUP1 SWAP2 SUB SWAP1 RETURN JUMPDEST CALLVALUE DUP1 ISZERO PUSH2 0x178 JUMPI PUSH0 PUSH0 REVERT JUMPDEST POP PUSH2 0x193 PUSH1 0x4 DUP1 CALLDATASIZE SUB DUP2 ADD SWAP1 PUSH2 0x18E SWAP2 SWAP1 PUSH2 0xE40 JUMP JUMPDEST PUSH2 0x48E JUMP JUMPDEST PUSH1 0x40 MLOAD PUSH2 0x1A0 SWAP2 SWAP1 PUSH2 0xE7A JUMP JUMPDEST PUSH1 0x40 MLOAD DUP1 SWAP2 SUB SWAP1 RETURN JUMPDEST CALLVALUE DUP1 ISZERO PUSH2 0x1B4 JUMPI PUSH0 PUSH0 REVERT JUMPDEST POP PUSH2 0x1CF PUSH1 0x4 DUP1 CALLDATASIZE SUB DUP2 ADD SWAP1 PUSH2 0x1CA SWAP2 SWAP1 PUSH2 0xEC6 JUMP JUMPDEST PUSH2 0x4AA JUMP JUMPDEST STOP JUMPDEST CALLVALUE DUP1 ISZERO PUSH2 0x1DC JUMPI PUSH0 PUSH0 REVERT JUMPDEST POP PUSH2 0x1F7 PUSH1 0x4 DUP1 CALLDATASIZE SUB DUP2 ADD SWAP1 PUSH2 0x1F2 SWAP2 SWAP1 PUSH2 0xF4B JUMP JUMPDEST PUSH2 0x682 JUMP JUMPDEST STOP JUMPDEST CALLVALUE DUP1 ISZERO PUSH2 0x204 JUMPI PUSH0 PUSH0 REVERT JUMPDEST POP PUSH2 0x21F PUSH1 0x4 DUP1 CALLDATASIZE SUB DUP2 ADD SWAP1 PUSH2 0x21A SWAP2 SWAP1 PUSH2 0xF4B JUMP JUMPDEST PUSH2 0x6A4 JUMP JUMPDEST STOP JUMPDEST CALLVALUE DUP1 ISZERO PUSH2 0x22C JUMPI PUSH0 PUSH0 REVERT JUMPDEST POP PUSH2 0x235 PUSH2 0x71F JUMP JUMPDEST PUSH1 0x40 MLOAD PUSH2 0x242 SWAP2 SWAP1 PUSH2 0xF98 JUMP JUMPDEST PUSH1 0x40 MLOAD DUP1 SWAP2 SUB SWAP1 RETURN JUMPDEST CALLVALUE DUP1 ISZERO PUSH2 0x256 JUMPI PUSH0 PUSH0 REVERT JUMPDEST POP PUSH2 0x25F PUSH2 0x725 JUMP JUMPDEST PUSH1 0x40 MLOAD PUSH2 0x26C SWAP2 SWAP1 PUSH2 0xF98 JUMP JUMPDEST PUSH1 0x40 MLOAD DUP1 SWAP2 SUB SWAP1 RETURN JUMPDEST CALLVALUE DUP1 ISZERO PUSH2 0x280 JUMPI PUSH0 PUSH0 REVERT JUMPDEST POP PUSH2 0x29B PUSH1 0x4 DUP1 CALLDATASIZE SUB DUP2 ADD SWAP1 PUSH2 0x296 SWAP2 SWAP1 PUSH2 0xF4B JUMP JUMPDEST PUSH2 0x749 JUMP JUMPDEST PUSH1 0x40 MLOAD PUSH2 0x2A8 SWAP2 SWAP1 PUSH2 0xDF4 JUMP JUMPDEST PUSH1 0x40 MLOAD DUP1 SWAP2 SUB SWAP1 RETURN JUMPDEST CALLVALUE DUP1 ISZERO PUSH2 0x2BC JUMPI PUSH0 PUSH0 REVERT JUMPDEST POP PUSH2 0x2C5 PUSH2 0x7AC JUMP JUMPDEST PUSH1 0x40 MLOAD PUSH2 0x2D2 SWAP2 SWAP1 PUSH2 0xE7A JUMP JUMPDEST PUSH1 0x40 MLOAD DUP1 SWAP2 SUB SWAP1 RETURN JUMPDEST CALLVALUE DUP1 ISZERO PUSH2 0x2E6 JUMPI PUSH0 PUSH0 REVERT JUMPDEST POP PUSH2 0x301 PUSH1 0x4 DUP1 CALLDATASIZE SUB DUP2 ADD SWAP1 PUSH2 0x2FC SWAP2 SWAP1 PUSH2 0xFB1 JUMP JUMPDEST PUSH2 0x7B2 JUMP JUMPDEST PUSH1 0x40 MLOAD PUSH2 0x30E SWAP2 SWAP1 PUSH2 0xF98 JUMP JUMPDEST PUSH1 0x40 MLOAD DUP1 SWAP2 SUB SWAP1 RETURN JUMPDEST CALLVALUE DUP1 ISZERO PUSH2 0x322 JUMPI PUSH0 PUSH0 REVERT JUMPDEST POP PUSH2 0x32B PUSH2 0x7C7 JUMP JUMPDEST PUSH1 0x40 MLOAD PUSH2 0x338 SWAP2 SWAP1 PUSH2 0xF98 JUMP JUMPDEST PUSH1 0x40 MLOAD DUP1 SWAP2 SUB SWAP1 RETURN JUMPDEST PUSH2 0x349 PUSH2 0x7EB JUMP JUMPDEST STOP JUMPDEST CALLVALUE DUP1 ISZERO PUSH2 0x356 JUMPI PUSH0 PUSH0 REVERT JUMPDEST POP PUSH2 0x371 PUSH1 0x4 DUP1 CALLDATASIZE SUB DUP2 ADD SWAP1 PUSH2 0x36C SWAP2 SWAP1 PUSH2 0xF4B JUMP JUMPDEST PUSH2 0x998 JUMP JUMPDEST STOP JUMPDEST CALLVALUE DUP1 ISZERO PUSH2 0x37E JUMPI PUSH0 PUSH0 REVERT JUMPDEST POP PUSH2 0x387 PUSH2 0x9BA JUMP JUMPDEST PUSH1 0x40 MLOAD PUSH2 0x394 SWAP2 SWAP1 PUSH2 0xE7A JUMP JUMPDEST PUSH1 0x40 MLOAD DUP1 SWAP2 SUB SWAP1 RETURN JUMPDEST CALLVALUE DUP1 ISZERO PUSH2 0x3A8 JUMPI PUSH0 PUSH0 REVERT JUMPDEST POP PUSH2 0x3C3 PUSH1 0x4 DUP1 CALLDATASIZE SUB DUP2 ADD SWAP1 PUSH2 0x3BE SWAP2 SWAP1 PUSH2 0xFB1 JUMP JUMPDEST PUSH2 0x9DE JUMP JUMPDEST PUSH1 0x40 MLOAD PUSH2 0x3D0 SWAP2 SWAP1 PUSH2 0xF98 JUMP JUMPDEST PUSH1 0x40 MLOAD DUP1 SWAP2 SUB SWAP1 RETURN JUMPDEST CALLVALUE DUP1 ISZERO PUSH2 0x3E4 JUMPI PUSH0 PUSH0 REVERT JUMPDEST POP PUSH2 0x3FF PUSH1 0x4 DUP1 CALLDATASIZE SUB DUP2 ADD SWAP1 PUSH2 0x3FA SWAP2 SWAP1 PUSH2 0xFB1 JUMP JUMPDEST PUSH2 0x9F3 JUMP JUMPDEST PUSH1 0x40 MLOAD PUSH2 0x40C SWAP2 SWAP1 PUSH2 0xF98 JUMP JUMPDEST PUSH1 0x40 MLOAD DUP1 SWAP2 SUB SWAP1 RETURN JUMPDEST PUSH0 PUSH32 0x7965DB0B00000000000000000000000000000000000000000000000000000000 PUSH28 0xFFFFFFFFFFFFFFFFFFFFFFFFFFFFFFFFFFFFFFFFFFFFFFFFFFFFFFFF NOT AND DUP3 PUSH28 0xFFFFFFFFFFFFFFFFFFFFFFFFFFFFFFFFFFFFFFFFFFFFFFFFFFFFFFFF NOT AND EQ DUP1 PUSH2 0x487 JUMPI POP PUSH2 0x486 DUP3 PUSH2 0xA39 JUMP JUMPDEST JUMPDEST SWAP1 POP SWAP2 SWAP1 POP JUMP JUMPDEST PUSH0 PUSH0 PUSH0 DUP4 DUP2 MSTORE PUSH1 0x20 ADD SWAP1 DUP2 MSTORE PUSH1 0x20 ADD PUSH0 KECCAK256 PUSH1 0x1 ADD SLOAD SWAP1 POP SWAP2 SWAP1 POP JUMP JUMPDEST DUP1 PUSH32 0x0 DUP2 GT ISZERO PUSH2 0x505 JUMPI PUSH1 0x40 MLOAD PUSH32 0x73A7C91000000000000000000000000000000000000000000000000000000000 DUP2 MSTORE PUSH1 0x4 ADD PUSH1 0x40 MLOAD DUP1 SWAP2 SUB SWAP1 REVERT JUMPDEST PUSH0 PUSH1 0x3 PUSH0 CALLER PUSH20 0xFFFFFFFFFFFFFFFFFFFFFFFFFFFFFFFFFFFFFFFF AND PUSH20 0xFFFFFFFFFFFFFFFFFFFFFFFFFFFFFFFFFFFFFFFF AND DUP2 MSTORE PUSH1 0x20 ADD SWAP1 DUP2 MSTORE PUSH1 0x20 ADD PUSH0 KECCAK256 SLOAD SWAP1 POP DUP3 DUP2 LT ISZERO PUSH2 0x580 JUMPI PUSH1 0x40 MLOAD PUSH32 0xF4D678B800000000000000000000000000000000000000000000000000000000 DUP2 MSTORE PUSH1 0x4 ADD PUSH1 0x40 MLOAD DUP1 SWAP2 SUB SWAP1 REVERT JUMPDEST DUP3 DUP2 SUB PUSH1 0x3 PUSH0 CALLER PUSH20 0xFFFFFFFFFFFFFFFFFFFFFFFFFFFFFFFFFFFFFFFF AND PUSH20 0xFFFFFFFFFFFFFFFFFFFFFFFFFFFFFFFFFFFFFFFF AND DUP2 MSTORE PUSH1 0x20 ADD SWAP1 DUP2 MSTORE PUSH1 0x20 ADD PUSH0 KECCAK256 DUP2 SWAP1 SSTORE POP DUP3 PUSH1 0x2 PUSH0 DUP3 DUP3 SLOAD SUB SWAP3 POP POP DUP2 SWAP1 SSTORE POP PUSH1 0x5 PUSH0 CALLER PUSH20 0xFFFFFFFFFFFFFFFFFFFFFFFFFFFFFFFFFFFFFFFF AND PUSH20 0xFFFFFFFFFFFFFFFFFFFFFFFFFFFFFFFFFFFFFFFF AND DUP2 MSTORE PUSH1 0x20 ADD SWAP1 DUP2 MSTORE PUSH1 0x20 ADD PUSH0 KECCAK256 PUSH0 DUP2 SLOAD DUP1 SWAP3 SWAP2 SWAP1 PUSH2 0x620 SWAP1 PUSH2 0x1009 JUMP JUMPDEST SWAP2 SWAP1 POP SSTORE POP PUSH2 0x62F CALLER DUP5 PUSH2 0xAA2 JUMP JUMPDEST CALLER PUSH20 0xFFFFFFFFFFFFFFFFFFFFFFFFFFFFFFFFFFFFFFFF AND PUSH32 0xBC158BB64F05D6383AEA69BBB0B20C1BBF4B7A18F63359C5649B7C39E29D3884 DUP5 PUSH1 0x40 MLOAD PUSH2 0x675 SWAP2 SWAP1 PUSH2 0xF98 JUMP JUMPDEST PUSH1 0x40 MLOAD DUP1 SWAP2 SUB SWAP1 LOG2 POP POP POP JUMP JUMPDEST PUSH2 0x68B DUP3 PUSH2 0x48E JUMP JUMPDEST PUSH2 0x694 DUP2 PUSH2 0xB18 JUMP JUMPDEST PUSH2 0x69E DUP4 DUP4 PUSH2 0xB2C JUMP JUMPDEST POP POP POP POP JUMP JUMPDEST PUSH2 0x6AC PUSH2 0xC15 JUMP JUMPDEST PUSH20 0xFFFFFFFFFFFFFFFFFFFFFFFFFFFFFFFFFFFFFFFF AND DUP2 PUSH20 0xFFFFFFFFFFFFFFFFFFFFFFFFFFFFFFFFFFFFFFFF AND EQ PUSH2 0x710 JUMPI PUSH1 0x40 MLOAD PUSH32 0x6697B23200000000000000000000000000000000000000000000000000000000 DUP2 MSTORE PUSH1 0x4 ADD PUSH1 0x40 MLOAD DUP1 SWAP2 SUB SWAP1 REVERT JUMPDEST PUSH2 0x71A DUP3 DUP3 PUSH2 0xC1C JUMP JUMPDEST POP POP POP JUMP JUMPDEST PUSH1 0x2 SLOAD DUP2 JUMP JUMPDEST PUSH32 0x0 DUP2 JUMP JUMPDEST PUSH0 PUSH0 PUSH0 DUP5 DUP2 MSTORE PUSH1 0x20 ADD SWAP1 DUP2 MSTORE PUSH1 0x20 ADD PUSH0 KECCAK256 PUSH0 ADD PUSH0 DUP4 PUSH20 0xFFFFFFFFFFFFFFFFFFFFFFFFFFFFFFFFFFFFFFFF AND PUSH20 0xFFFFFFFFFFFFFFFFFFFFFFFFFFFFFFFFFFFFFFFF AND DUP2 MSTORE PUSH1 0x20 ADD SWAP1 DUP2 MSTORE PUSH1 0x20 ADD PUSH0 KECCAK256 PUSH0 SWAP1 SLOAD SWAP1 PUSH2 0x100 EXP SWAP1 DIV PUSH1 0xFF AND SWAP1 POP SWAP3 SWAP2 POP POP JUMP JUMPDEST PUSH0 PUSH0 SHL DUP2 JUMP JUMPDEST PUSH1 0x5 PUSH1 0x20 MSTORE DUP1 PUSH0 MSTORE PUSH1 0x40 PUSH0 KECCAK256 PUSH0 SWAP2 POP SWAP1 POP SLOAD DUP2 JUMP JUMPDEST PUSH32 0x0 DUP2 JUMP JUMPDEST PUSH0 CALLVALUE SUB PUSH2 0x824 JUMPI PUSH1 0x40 MLOAD PUSH32 0x8615019900000000000000000000000000000000000000000000000000000000 DUP2 MSTORE PUSH1 0x4 ADD PUSH1 0x40 MLOAD DUP1 SWAP2 SUB SWAP1 REVERT JUMPDEST PUSH32 0x0 CALLVALUE PUSH1 0x2 SLOAD PUSH2 0x853 SWAP2 SWAP1 PUSH2 0x1050 JUMP JUMPDEST GT ISZERO PUSH2 0x88B JUMPI PUSH1 0x40 MLOAD PUSH32 0xDEF6DAF200000000000000000000000000000000000000000000000000000000 DUP2 MSTORE PUSH1 0x4 ADD PUSH1 0x40 MLOAD DUP1 SWAP2 SUB SWAP1 REVERT JUMPDEST CALLVALUE PUSH1 0x3 PUSH0 CALLER PUSH20 0xFFFFFFFFFFFFFFFFFFFFFFFFFFFFFFFFFFFFFFFF AND PUSH20 0xFFFFFFFFFFFFFFFFFFFFFFFFFFFFFFFFFFFFFFFF AND DUP2 MSTORE PUSH1 0x20 ADD SWAP1 DUP2 MSTORE PUSH1 0x20 ADD PUSH0 KECCAK256 PUSH0 DUP3 DUP3 SLOAD PUSH2 0x8D7 SWAP2 SWAP1 PUSH2 0x1050 JUMP JUMPDEST SWAP3 POP POP DUP2 SWAP1 SSTORE POP CALLVALUE PUSH1 0x2 PUSH0 DUP3 DUP3 SLOAD PUSH2 0x8EF SWAP2 SWAP1 PUSH2 0x1050 JUMP JUMPDEST SWAP3 POP POP DUP2 SWAP1 SSTORE POP PUSH1 0x4 PUSH0 CALLER PUSH20 0xFFFFFFFFFFFFFFFFFFFFFFFFFFFFFFFFFFFFFFFF AND PUSH20 0xFFFFFFFFFFFFFFFFFFFFFFFFFFFFFFFFFFFFFFFF AND DUP2 MSTORE PUSH1 0x20 ADD SWAP1 DUP2 MSTORE PUSH1 0x20 ADD PUSH0 KECCAK256 PUSH0 DUP2 SLOAD DUP1 SWAP3 SWAP2 SWAP1 PUSH2 0x943 SWAP1 PUSH2 0x1009 JUMP JUMPDEST SWAP2 SWAP1 POP SSTORE POP CALLER PUSH20 0xFFFFFFFFFFFFFFFFFFFFFFFFFFFFFFFFFFFFFFFF AND PUSH32 0xD15C9547EA5C06670C0010CE19BC32D54682A4B3801ECE7F3AB0C3F17106B4BB CALLVALUE PUSH1 0x40 MLOAD PUSH2 0x98E SWAP2 SWAP1 PUSH2 0xF98 JUMP JUMPDEST PUSH1 0x40 MLOAD DUP1 SWAP2 SUB SWAP1 LOG2 JUMP JUMPDEST PUSH2 0x9A1 DUP3 PUSH2 0x48E JUMP JUMPDEST PUSH2 0x9AA DUP2 PUSH2 0xB18 JUMP JUMPDEST PUSH2 0x9B4 DUP4 DUP4 PUSH2 0xC1C JUMP JUMPDEST POP POP POP POP JUMP JUMPDEST PUSH32 0x2D95A8186DB49DA8BD2356C70CF02038F7DE0D6ED39F6766FE2D93D5E7785616 DUP2 JUMP JUMPDEST PUSH1 0x4 PUSH1 0x20 MSTORE DUP1 PUSH0 MSTORE PUSH1 0x40 PUSH0 KECCAK256 PUSH0 SWAP2 POP SWAP1 POP SLOAD DUP2 JUMP JUMPDEST PUSH0 PUSH1 0x3 PUSH0 DUP4 PUSH20 0xFFFFFFFFFFFFFFFFFFFFFFFFFFFFFFFFFFFFFFFF AND PUSH20 0xFFFFFFFFFFFFFFFFFFFFFFFFFFFFFFFFFFFFFFFF AND DUP2 MSTORE PUSH1 0x20 ADD SWAP1 DUP2 MSTORE PUSH1 0x20 ADD PUSH0 KECCAK256 SLOAD SWAP1 POP SWAP2 SWAP1 POP JUMP JUMPDEST PUSH0 PUSH32 0x1FFC9A700000000000000000000000000000000000000000000000000000000 PUSH28 0xFFFFFFFFFFFFFFFFFFFFFFFFFFFFFFFFFFFFFFFFFFFFFFFFFFFFFFFF NOT AND DUP3 PUSH28 0xFFFFFFFFFFFFFFFFFFFFFFFFFFFFFFFFFFFFFFFFFFFFFFFFFFFFFFFF NOT AND EQ SWAP1 POP SWAP2 SWAP1 POP JUMP JUMPDEST PUSH0 DUP3 PUSH20 0xFFFFFFFFFFFFFFFFFFFFFFFFFFFFFFFFFFFFFFFF AND DUP3 PUSH1 0x40 MLOAD PUSH2 0xAC7 SWAP1 PUSH2 0x10B0 JUMP JUMPDEST PUSH0 PUSH1 0x40 MLOAD DUP1 DUP4 SUB DUP2 DUP6 DUP8 GAS CALL SWAP3 POP POP POP RETURNDATASIZE DUP1 PUSH0 DUP2 EQ PUSH2 0xB01 JUMPI PUSH1 0x40 MLOAD SWAP2 POP PUSH1 0x1F NOT PUSH1 0x3F RETURNDATASIZE ADD AND DUP3 ADD PUSH1 0x40 MSTORE RETURNDATASIZE DUP3 MSTORE RETURNDATASIZE PUSH0 PUSH1 0x20 DUP5 ADD RETURNDATACOPY PUSH2 0xB06 JUMP JUMPDEST PUSH1 0x60 SWAP2 POP JUMPDEST POP POP SWAP1 POP DUP1 PUSH2 0xB13 JUMPI PUSH0 PUSH0 REVERT JUMPDEST POP POP POP JUMP JUMPDEST PUSH2 0xB29 DUP2 PUSH2 0xB24 PUSH2 0xC15 JUMP JUMPDEST PUSH2 0xD05 JUMP JUMPDEST POP JUMP JUMPDEST PUSH0 PUSH2 0xB37 DUP4 DUP4 PUSH2 0x749 JUMP JUMPDEST PUSH2 0xC0B JUMPI PUSH1 0x1 PUSH0 PUSH0 DUP6 DUP2 MSTORE PUSH1 0x20 ADD SWAP1 DUP2 MSTORE PUSH1 0x20 ADD PUSH0 KECCAK256 PUSH0 ADD PUSH0 DUP5 PUSH20 0xFFFFFFFFFFFFFFFFFFFFFFFFFFFFFFFFFFFFFFFF AND PUSH20 0xFFFFFFFFFFFFFFFFFFFFFFFFFFFFFFFFFFFFFFFF AND DUP2 MSTORE PUSH1 0x20 ADD SWAP1 DUP2 MSTORE PUSH1 0x20 ADD PUSH0 KECCAK256 PUSH0 PUSH2 0x100 EXP DUP2 SLOAD DUP2 PUSH1 0xFF MUL NOT AND SWAP1 DUP4 ISZERO ISZERO MUL OR SWAP1 SSTORE POP PUSH2 0xBA8 PUSH2 0xC15 JUMP JUMPDEST PUSH20 0xFFFFFFFFFFFFFFFFFFFFFFFFFFFFFFFFFFFFFFFF AND DUP3 PUSH20 0xFFFFFFFFFFFFFFFFFFFFFFFFFFFFFFFFFFFFFFFF AND DUP5 PUSH32 0x2F8788117E7EFF1D82E926EC794901D17C78024A50270940304540A733656F0D PUSH1 0x40 MLOAD PUSH1 0x40 MLOAD DUP1 SWAP2 SUB SWAP1 LOG4 PUSH1 0x1 SWAP1 POP PUSH2 0xC0F JUMP JUMPDEST PUSH0 SWAP1 POP JUMPDEST SWAP3 SWAP2 POP POP JUMP JUMPDEST PUSH0 CALLER SWAP1 POP SWAP1 JUMP JUMPDEST PUSH0 PUSH2 0xC27 DUP4 DUP4 PUSH2 0x749 JUMP JUMPDEST ISZERO PUSH2 0xCFB JUMPI PUSH0 PUSH0 PUSH0 DUP6 DUP2 MSTORE PUSH1 0x20 ADD SWAP1 DUP2 MSTORE PUSH1 0x20 ADD PUSH0 KECCAK256 PUSH0 ADD PUSH0 DUP5 PUSH20 0xFFFFFFFFFFFFFFFFFFFFFFFFFFFFFFFFFFFFFFFF AND PUSH20 0xFFFFFFFFFFFFFFFFFFFFFFFFFFFFFFFFFFFFFFFF AND DUP2 MSTORE PUSH1 0x20 ADD SWAP1 DUP2 MSTORE PUSH1 0x20 ADD PUSH0 KECCAK256 PUSH0 PUSH2 0x100 EXP DUP2 SLOAD DUP2 PUSH1 0xFF MUL NOT AND SWAP1 DUP4 ISZERO ISZERO MUL OR SWAP1 SSTORE POP PUSH2 0xC98 PUSH2 0xC15 JUMP JUMPDEST PUSH20 0xFFFFFFFFFFFFFFFFFFFFFFFFFFFFFFFFFFFFFFFF AND DUP3 PUSH20 0xFFFFFFFFFFFFFFFFFFFFFFFFFFFFFFFFFFFFFFFF AND DUP5 PUSH32 0xF6391F5C32D9C69D2A47EA670B442974B53935D1EDC7FD64EB21E047A839171B PUSH1 0x40 MLOAD PUSH1 0x40 MLOAD DUP1 SWAP2 SUB SWAP1 LOG4 PUSH1 0x1 SWAP1 POP PUSH2 0xCFF JUMP JUMPDEST PUSH0 SWAP1 POP JUMPDEST SWAP3 SWAP2 POP POP JUMP JUMPDEST PUSH2 0xD0F DUP3 DUP3 PUSH2 0x749 JUMP JUMPDEST PUSH2 0xD52 JUMPI DUP1 DUP3 PUSH1 0x40 MLOAD PUSH32 0xE2517D3F00000000000000000000000000000000000000000000000000000000 DUP2 MSTORE PUSH1 0x4 ADD PUSH2 0xD49 SWAP3 SWAP2 SWAP1 PUSH2 0x10D3 JUMP JUMPDEST PUSH1 0x40 MLOAD DUP1 SWAP2 SUB SWAP1 REVERT JUMPDEST POP POP JUMP JUMPDEST PUSH0 PUSH0 REVERT JUMPDEST PUSH0 PUSH32 0xFFFFFFFF00000000000000000000000000000000000000000000000000000000 DUP3 AND SWAP1 POP SWAP2 SWAP1 POP JUMP JUMPDEST PUSH2 0xD8E DUP2 PUSH2 0xD5A JUMP JUMPDEST DUP2 EQ PUSH2 0xD98 JUMPI PUSH0 PUSH0 REVERT JUMPDEST POP JUMP JUMPDEST PUSH0 DUP2 CALLDATALOAD SWAP1 POP PUSH2 0xDA9 DUP2 PUSH2 0xD85 JUMP JUMPDEST SWAP3 SWAP2 POP POP JUMP JUMPDEST PUSH0 PUSH1 0x20 DUP3 DUP5 SUB SLT ISZERO PUSH2 0xDC4 JUMPI PUSH2 0xDC3 PUSH2 0xD56 JUMP JUMPDEST JUMPDEST PUSH0 PUSH2 0xDD1 DUP5 DUP3 DUP6 ADD PUSH2 0xD9B JUMP JUMPDEST SWAP2 POP POP SWAP3 SWAP2 POP POP JUMP JUMPDEST PUSH0 DUP2 ISZERO ISZERO SWAP1 POP SWAP2 SWAP1 POP JUMP JUMPDEST PUSH2 0xDEE DUP2 PUSH2 0xDDA JUMP JUMPDEST DUP3 MSTORE POP POP JUMP JUMPDEST PUSH0 PUSH1 0x20 DUP3 ADD SWAP1 POP PUSH2 0xE07 PUSH0 DUP4 ADD DUP5 PUSH2 0xDE5 JUMP JUMPDEST SWAP3 SWAP2 POP POP JUMP JUMPDEST PUSH0 DUP2 SWAP1 POP SWAP2 SWAP1 POP JUMP JUMPDEST PUSH2 0xE1F DUP2 PUSH2 0xE0D JUMP JUMPDEST DUP2 EQ PUSH2 0xE29 JUMPI PUSH0 PUSH0 REVERT JUMPDEST POP JUMP JUMPDEST PUSH0 DUP2 CALLDATALOAD SWAP1 POP PUSH2 0xE3A DUP2 PUSH2 0xE16 JUMP JUMPDEST SWAP3 SWAP2 POP POP JUMP JUMPDEST PUSH0 PUSH1 0x20 DUP3 DUP5 SUB SLT ISZERO PUSH2 0xE55 JUMPI PUSH2 0xE54 PUSH2 0xD56 JUMP JUMPDEST JUMPDEST PUSH0 PUSH2 0xE62 DUP5 DUP3 DUP6 ADD PUSH2 0xE2C JUMP JUMPDEST SWAP2 POP POP SWAP3 SWAP2 POP POP JUMP JUMPDEST PUSH2 0xE74 DUP2 PUSH2 0xE0D JUMP JUMPDEST DUP3 MSTORE POP POP JUMP JUMPDEST PUSH0 PUSH1 0x20 DUP3 ADD SWAP1 POP PUSH2 0xE8D PUSH0 DUP4 ADD DUP5 PUSH2 0xE6B JUMP JUMPDEST SWAP3 SWAP2 POP POP JUMP JUMPDEST PUSH0 DUP2 SWAP1 POP SWAP2 SWAP1 POP JUMP JUMPDEST PUSH2 0xEA5 DUP2 PUSH2 0xE93 JUMP JUMPDEST DUP2 EQ PUSH2 0xEAF JUMPI PUSH0 PUSH0 REVERT JUMPDEST POP JUMP JUMPDEST PUSH0 DUP2 CALLDATALOAD SWAP1 POP PUSH2 0xEC0 DUP2 PUSH2 0xE9C JUMP JUMPDEST SWAP3 SWAP2 POP POP JUMP JUMPDEST PUSH0 PUSH1 0x20 DUP3 DUP5 SUB SLT ISZERO PUSH2 0xEDB JUMPI PUSH2 0xEDA PUSH2 0xD56 JUMP JUMPDEST JUMPDEST PUSH0 PUSH2 0xEE8 DUP5 DUP3 DUP6 ADD PUSH2 0xEB2 JUMP JUMPDEST SWAP2 POP POP SWAP3 SWAP2 POP POP JUMP JUMPDEST PUSH0 PUSH20 0xFFFFFFFFFFFFFFFFFFFFFFFFFFFFFFFFFFFFFFFF DUP3 AND SWAP1 POP SWAP2 SWAP1 POP JUMP JUMPDEST PUSH0 PUSH2 0xF1A DUP3 PUSH2 0xEF1 JUMP JUMPDEST SWAP1 POP SWAP2 SWAP1 POP JUMP JUMPDEST PUSH2 0xF2A DUP2 PUSH2 0xF10 JUMP JUMPDEST DUP2 EQ PUSH2 0xF34 JUMPI PUSH0 PUSH0 REVERT JUMPDEST POP JUMP JUMPDEST PUSH0 DUP2 CALLDATALOAD SWAP1 POP PUSH2 0xF45 DUP2 PUSH2 0xF21 JUMP JUMPDEST SWAP3 SWAP2 POP POP JUMP JUMPDEST PUSH0 PUSH0 PUSH1 0x40 DUP4 DUP6 SUB SLT ISZERO PUSH2 0xF61 JUMPI PUSH2 0xF60 PUSH2 0xD56 JUMP JUMPDEST JUMPDEST PUSH0 PUSH2 0xF6E DUP6 DUP3 DUP7 ADD PUSH2 0xE2C JUMP JUMPDEST SWAP3 POP POP PUSH1 0x20 PUSH2 0xF7F DUP6 DUP3 DUP7 ADD PUSH2 0xF37 JUMP JUMPDEST SWAP2 POP POP SWAP3 POP SWAP3 SWAP1 POP JUMP JUMPDEST PUSH2 0xF92 DUP2 PUSH2 0xE93 JUMP JUMPDEST DUP3 MSTORE POP POP JUMP JUMPDEST PUSH0 PUSH1 0x20 DUP3 ADD SWAP1 POP PUSH2 0xFAB PUSH0 DUP4 ADD DUP5 PUSH2 0xF89 JUMP JUMPDEST SWAP3 SWAP2 POP POP JUMP JUMPDEST PUSH0 PUSH1 0x20 DUP3 DUP5 SUB SLT ISZERO PUSH2 0xFC6 JUMPI PUSH2 0xFC5 PUSH2 0xD56 JUMP JUMPDEST JUMPDEST PUSH0 PUSH2 0xFD3 DUP5 DUP3 DUP6 ADD PUSH2 0xF37 JUMP JUMPDEST SWAP2 POP POP SWAP3 SWAP2 POP POP JUMP JUMPDEST PUSH32 0x4E487B7100000000000000000000000000000000000000000000000000000000 PUSH0 MSTORE PUSH1 0x11 PUSH1 0x4 MSTORE PUSH1 0x24 PUSH0 REVERT JUMPDEST PUSH0 PUSH2 0x1013 DUP3 PUSH2 0xE93 JUMP JUMPDEST SWAP2 POP PUSH32 0xFFFFFFFFFFFFFFFFFFFFFFFFFFFFFFFFFFFFFFFFFFFFFFFFFFFFFFFFFFFFFFFF DUP3 SUB PUSH2 0x1045 JUMPI PUSH2 0x1044 PUSH2 0xFDC JUMP JUMPDEST JUMPDEST PUSH1 0x1 DUP3 ADD SWAP1 POP SWAP2 SWAP1 POP JUMP JUMPDEST PUSH0 PUSH2 0x105A DUP3 PUSH2 0xE93 JUMP JUMPDEST SWAP2 POP PUSH2 0x1065 DUP4 PUSH2 0xE93 JUMP JUMPDEST SWAP3 POP DUP3 DUP3 ADD SWAP1 POP DUP1 DUP3 GT ISZERO PUSH2 0x107D JUMPI PUSH2 0x107C PUSH2 0xFDC JUMP JUMPDEST JUMPDEST SWAP3 SWAP2 POP POP JUMP JUMPDEST PUSH0 DUP2 SWAP1 POP SWAP3 SWAP2 POP POP JUMP JUMPDEST POP JUMP JUMPDEST PUSH0 PUSH2 0x109B PUSH0 DUP4 PUSH2 0x1083 JUMP JUMPDEST SWAP2 POP PUSH2 0x10A6 DUP3 PUSH2 0x108D JUMP JUMPDEST PUSH0 DUP3 ADD SWAP1 POP SWAP2 SWAP1 POP JUMP JUMPDEST PUSH0 PUSH2 0x10BA DUP3 PUSH2 0x1090 JUMP JUMPDEST SWAP2 POP DUP2 SWAP1 POP SWAP2 SWAP1 POP JUMP JUMPDEST PUSH2 0x10CD DUP2 PUSH2 0xF10 JUMP JUMPDEST DUP3 MSTORE POP POP JUMP JUMPDEST PUSH0 PUSH1 0x40 DUP3 ADD SWAP1 POP PUSH2 0x10E6 PUSH0 DUP4 ADD DUP6 PUSH2 0x10C4 JUMP JUMPDEST PUSH2 0x10F3 PUSH1 0x20 DUP4 ADD DUP5 PUSH2 0xE6B JUMP JUMPDEST SWAP4 SWAP3 POP POP POP JUMP INVALID LOG2 PUSH5 0x6970667358 0x22 SLT KECCAK256 0xCB PUSH24 0x63DEF440D4F939C1661E6BA44988145BFB3EB5690CB16FA6 SDIV DATALOADN 0x1ADE 0xDC PUSH18 0x64736F6C634300081E003300000000000000 "
				},
				"gasEstimates": {
					"creation": {
						"codeDepositCost": "880000",
						"executionCost": "infinite",
						"totalCost": "infinite"
					},
					"external": {
						"BANK_MANAGER_ROLE()": "369",
						"DEFAULT_ADMIN_ROLE()": "352",
						"deposit()": "infinite",
						"depositCount(address)": "2868",
						"getBalance(address)": "2917",
						"getRoleAdmin(bytes32)": "infinite",
						"grantRole(bytes32,address)": "infinite",
						"hasRole(bytes32,address)": "3209",
						"maxWithdrawal()": "infinite",
						"renounceRole(bytes32,address)": "infinite",
						"revokeRole(bytes32,address)": "infinite",
						"supportsInterface(bytes4)": "741",
						"totalBankCapacity()": "infinite",
						"totalDeposits()": "2470",
						"withdraw(uint256)": "infinite",
						"withdrawalCount(address)": "2847"
					},
					"internal": {
						"_safeTransfer(address,uint256)": "infinite"
					}
				},
				"methodIdentifiers": {
					"BANK_MANAGER_ROLE()": "f2157052",
					"DEFAULT_ADMIN_ROLE()": "a217fddf",
					"deposit()": "d0e30db0",
					"depositCount(address)": "f4443d9a",
					"getBalance(address)": "f8b2cb4f",
					"getRoleAdmin(bytes32)": "248a9ca3",
					"grantRole(bytes32,address)": "2f2ff15d",
					"hasRole(bytes32,address)": "91d14854",
					"maxWithdrawal()": "8c0ff5b7",
					"renounceRole(bytes32,address)": "36568abe",
					"revokeRole(bytes32,address)": "d547741f",
					"supportsInterface(bytes4)": "01ffc9a7",
					"totalBankCapacity()": "c16ec037",
					"totalDeposits()": "7d882097",
					"withdraw(uint256)": "2e1a7d4d",
					"withdrawalCount(address)": "b3d8bcdc"
				}
			},
			"storageLayout": {
				"storage": [
					{
						"astId": 73,
						"contract": "src/KipuBankV2.sol:KipuBank",
						"label": "_roles",
						"offset": 0,
						"slot": "0",
						"type": "t_mapping(t_bytes32,t_struct(RoleData)68_storage)"
					},
					{
						"astId": 526,
						"contract": "src/KipuBankV2.sol:KipuBank",
						"label": "_status",
						"offset": 0,
						"slot": "1",
						"type": "t_uint256"
					},
					{
						"astId": 1217,
						"contract": "src/KipuBankV2.sol:KipuBank",
						"label": "totalDeposits",
						"offset": 0,
						"slot": "2",
						"type": "t_uint256"
					},
					{
						"astId": 1222,
						"contract": "src/KipuBankV2.sol:KipuBank",
						"label": "vaultBalance",
						"offset": 0,
						"slot": "3",
						"type": "t_mapping(t_address,t_uint256)"
					},
					{
						"astId": 1227,
						"contract": "src/KipuBankV2.sol:KipuBank",
						"label": "depositCount",
						"offset": 0,
						"slot": "4",
						"type": "t_mapping(t_address,t_uint256)"
					},
					{
						"astId": 1232,
						"contract": "src/KipuBankV2.sol:KipuBank",
						"label": "withdrawalCount",
						"offset": 0,
						"slot": "5",
						"type": "t_mapping(t_address,t_uint256)"
					}
				],
				"types": {
					"t_address": {
						"encoding": "inplace",
						"label": "address",
						"numberOfBytes": "20"
					},
					"t_bool": {
						"encoding": "inplace",
						"label": "bool",
						"numberOfBytes": "1"
					},
					"t_bytes32": {
						"encoding": "inplace",
						"label": "bytes32",
						"numberOfBytes": "32"
					},
					"t_mapping(t_address,t_bool)": {
						"encoding": "mapping",
						"key": "t_address",
						"label": "mapping(address => bool)",
						"numberOfBytes": "32",
						"value": "t_bool"
					},
					"t_mapping(t_address,t_uint256)": {
						"encoding": "mapping",
						"key": "t_address",
						"label": "mapping(address => uint256)",
						"numberOfBytes": "32",
						"value": "t_uint256"
					},
					"t_mapping(t_bytes32,t_struct(RoleData)68_storage)": {
						"encoding": "mapping",
						"key": "t_bytes32",
						"label": "mapping(bytes32 => struct AccessControl.RoleData)",
						"numberOfBytes": "32",
						"value": "t_struct(RoleData)68_storage"
					},
					"t_struct(RoleData)68_storage": {
						"encoding": "inplace",
						"label": "struct AccessControl.RoleData",
						"members": [
							{
								"astId": 65,
								"contract": "src/KipuBankV2.sol:KipuBank",
								"label": "hasRole",
								"offset": 0,
								"slot": "0",
								"type": "t_mapping(t_address,t_bool)"
							},
							{
								"astId": 67,
								"contract": "src/KipuBankV2.sol:KipuBank",
								"label": "adminRole",
								"offset": 0,
								"slot": "1",
								"type": "t_bytes32"
							}
						],
						"numberOfBytes": "64"
					},
					"t_uint256": {
						"encoding": "inplace",
						"label": "uint256",
						"numberOfBytes": "32"
					}
				}
			},
			"userdoc": {
				"errors": {
					"DirectTransferNotAllowed()": [
						{
							"notice": "Thrown if you try to send ETH directly to the contract."
						}
					],
					"InsufficientBalance()": [
						{
							"notice": "When a user tries to withdraw more than their balance"
						}
					],
					"InvalidBankCapacity()": [
						{
							"notice": "Thrown if the bank capacity in the constructor is invalid."
						}
					],
					"MaxDepositExceeded()": [
						{
							"notice": "It is launched when a deposit exceeds the global banking capacity."
						}
					],
					"MaxWithdrawalExceeded()": [
						{
							"notice": "When a withdrawal exceeds the transaction limit."
						}
					],
					"MaximumWithdrawalInvalid()": [
						{
							"notice": "Thrown if the maxRetiro value in the constructor is invalid."
						}
					],
					"ZeroDepositNotAllowed()": [
						{
							"notice": "When trying to deposit 0 ETH."
						}
					]
				},
				"events": {
					"DepositMade(address,uint256)": {
						"notice": "It is issued when the user makes a successful deposit."
					},
					"WithdrawalMade(address,uint256)": {
						"notice": "It is issued when the user makes a successful withdrawal."
					}
				},
				"kind": "user",
				"methods": {
					"constructor": {
						"notice": "Initializes the contract with the specified limits."
					},
					"deposit()": {
						"notice": "Deposits ETH into the user's personal vault."
					},
					"depositCount(address)": {
						"notice": "Number of deposits made by each user."
					},
					"getBalance(address)": {
						"notice": "Returns the current vault balance of a given user."
					},
					"maxWithdrawal()": {
						"notice": "Máximo permitido por transacción de retiro."
					},
					"totalBankCapacity()": {
						"notice": "Capacidad total del banco en ETH."
					},
					"totalDeposits()": {
						"notice": "Total actual de todos los depósitos en el contrato."
					},
					"withdraw(uint256)": {
						"notice": "Withdraws a specified amount of ETH from the user's vault."
					},
					"withdrawalCount(address)": {
						"notice": "Number of withdrawals made by each user."
					}
				},
				"version": 1
			}
		}
	}
}