{
	"src/KipuBankV2.sol": {
		"KipuBank": {
			"abi": [
				{
					"inputs": [
						{
							"internalType": "uint256",
							"name": "_maxWithdrawal",
							"type": "uint256"
						},
						{
							"internalType": "uint256",
							"name": "_totalCapacityUSD",
							"type": "uint256"
						},
						{
							"internalType": "address",
							"name": "_ethUsdFeed",
							"type": "address"
						}
					],
					"stateMutability": "nonpayable",
					"type": "constructor"
				},
				{
					"inputs": [],
					"name": "AccessControlBadConfirmation",
					"type": "error"
				},
				{
					"inputs": [
						{
							"internalType": "address",
							"name": "account",
							"type": "address"
						},
						{
							"internalType": "bytes32",
							"name": "neededRole",
							"type": "bytes32"
						}
					],
					"name": "AccessControlUnauthorizedAccount",
					"type": "error"
				},
				{
					"inputs": [],
					"name": "BankCapExceeded",
					"type": "error"
				},
				{
					"inputs": [],
					"name": "DirectCallNotAllowed",
					"type": "error"
				},
				{
					"inputs": [],
					"name": "DirectTransferNotAllowed",
					"type": "error"
				},
				{
					"inputs": [],
					"name": "InsufficientBalance",
					"type": "error"
				},
				{
					"inputs": [],
					"name": "InvalidAmount",
					"type": "error"
				},
				{
					"inputs": [],
					"name": "InvalidBankCapacity",
					"type": "error"
				},
				{
					"inputs": [],
					"name": "InvalidOracle",
					"type": "error"
				},
				{
					"inputs": [],
					"name": "MaxWithdrawalExceeded",
					"type": "error"
				},
				{
					"inputs": [],
					"name": "MaximumWithdrawalInvalid",
					"type": "error"
				},
				{
					"inputs": [
						{
							"internalType": "address",
							"name": "token",
							"type": "address"
						}
					],
					"name": "SafeERC20FailedOperation",
					"type": "error"
				},
				{
					"inputs": [],
					"name": "TokenNotSupported",
					"type": "error"
				},
				{
					"inputs": [],
					"name": "TransferFailed",
					"type": "error"
				},
				{
					"inputs": [],
					"name": "ZeroDepositNotAllowed",
					"type": "error"
				},
				{
					"anonymous": false,
					"inputs": [
						{
							"indexed": true,
							"internalType": "address",
							"name": "user",
							"type": "address"
						},
						{
							"indexed": true,
							"internalType": "address",
							"name": "token",
							"type": "address"
						},
						{
							"indexed": false,
							"internalType": "uint256",
							"name": "amount",
							"type": "uint256"
						},
						{
							"indexed": false,
							"internalType": "uint256",
							"name": "usdValue6",
							"type": "uint256"
						}
					],
					"name": "DepositMade",
					"type": "event"
				},
				{
					"anonymous": false,
					"inputs": [
						{
							"indexed": false,
							"internalType": "uint256",
							"name": "newMaxWithdrawalWei",
							"type": "uint256"
						},
						{
							"indexed": false,
							"internalType": "uint256",
							"name": "newCapacityUSD",
							"type": "uint256"
						}
					],
					"name": "ParamentersUpdated",
					"type": "event"
				},
				{
					"anonymous": false,
					"inputs": [
						{
							"indexed": true,
							"internalType": "address",
							"name": "token",
							"type": "address"
						}
					],
					"name": "PriceFeedRemoved",
					"type": "event"
				},
				{
					"anonymous": false,
					"inputs": [
						{
							"indexed": true,
							"internalType": "address",
							"name": "token",
							"type": "address"
						},
						{
							"indexed": true,
							"internalType": "address",
							"name": "feed",
							"type": "address"
						}
					],
					"name": "PriceFeedSet",
					"type": "event"
				},
				{
					"anonymous": false,
					"inputs": [
						{
							"indexed": true,
							"internalType": "bytes32",
							"name": "role",
							"type": "bytes32"
						},
						{
							"indexed": true,
							"internalType": "bytes32",
							"name": "previousAdminRole",
							"type": "bytes32"
						},
						{
							"indexed": true,
							"internalType": "bytes32",
							"name": "newAdminRole",
							"type": "bytes32"
						}
					],
					"name": "RoleAdminChanged",
					"type": "event"
				},
				{
					"anonymous": false,
					"inputs": [
						{
							"indexed": true,
							"internalType": "bytes32",
							"name": "role",
							"type": "bytes32"
						},
						{
							"indexed": true,
							"internalType": "address",
							"name": "account",
							"type": "address"
						},
						{
							"indexed": true,
							"internalType": "address",
							"name": "sender",
							"type": "address"
						}
					],
					"name": "RoleGranted",
					"type": "event"
				},
				{
					"anonymous": false,
					"inputs": [
						{
							"indexed": true,
							"internalType": "bytes32",
							"name": "role",
							"type": "bytes32"
						},
						{
							"indexed": true,
							"internalType": "address",
							"name": "account",
							"type": "address"
						},
						{
							"indexed": true,
							"internalType": "address",
							"name": "sender",
							"type": "address"
						}
					],
					"name": "RoleRevoked",
					"type": "event"
				},
				{
					"anonymous": false,
					"inputs": [
						{
							"indexed": true,
							"internalType": "address",
							"name": "token",
							"type": "address"
						}
					],
					"name": "TokenSupported",
					"type": "event"
				},
				{
					"anonymous": false,
					"inputs": [
						{
							"indexed": true,
							"internalType": "address",
							"name": "token",
							"type": "address"
						}
					],
					"name": "TokenUnsupported",
					"type": "event"
				},
				{
					"anonymous": false,
					"inputs": [
						{
							"indexed": true,
							"internalType": "address",
							"name": "user",
							"type": "address"
						},
						{
							"indexed": true,
							"internalType": "address",
							"name": "token",
							"type": "address"
						},
						{
							"indexed": false,
							"internalType": "uint256",
							"name": "amount",
							"type": "uint256"
						},
						{
							"indexed": false,
							"internalType": "uint256",
							"name": "usdValue6",
							"type": "uint256"
						}
					],
					"name": "WithdrawalMade",
					"type": "event"
				},
				{
					"stateMutability": "payable",
					"type": "fallback"
				},
				{
					"inputs": [],
					"name": "BANK_MANAGER_ROLE",
					"outputs": [
						{
							"internalType": "bytes32",
							"name": "",
							"type": "bytes32"
						}
					],
					"stateMutability": "view",
					"type": "function"
				},
				{
					"inputs": [],
					"name": "DEFAULT_ADMIN_ROLE",
					"outputs": [
						{
							"internalType": "bytes32",
							"name": "",
							"type": "bytes32"
						}
					],
					"stateMutability": "view",
					"type": "function"
				},
				{
					"inputs": [
						{
							"internalType": "address",
							"name": "token",
							"type": "address"
						},
						{
							"internalType": "uint256",
							"name": "amount",
							"type": "uint256"
						}
					],
					"name": "deposit",
					"outputs": [],
					"stateMutability": "payable",
					"type": "function"
				},
				{
					"inputs": [
						{
							"internalType": "address",
							"name": "",
							"type": "address"
						}
					],
					"name": "depositCount",
					"outputs": [
						{
							"internalType": "uint256",
							"name": "",
							"type": "uint256"
						}
					],
					"stateMutability": "view",
					"type": "function"
				},
				{
					"inputs": [],
					"name": "ethUsdFeed",
					"outputs": [
						{
							"internalType": "contract AggregatorV3Interface",
							"name": "",
							"type": "address"
						}
					],
					"stateMutability": "view",
					"type": "function"
				},
				{
					"inputs": [],
					"name": "getLatestEthPrice",
					"outputs": [
						{
							"internalType": "uint256",
							"name": "",
							"type": "uint256"
						}
					],
					"stateMutability": "view",
					"type": "function"
				},
				{
					"inputs": [
						{
							"internalType": "bytes32",
							"name": "role",
							"type": "bytes32"
						}
					],
					"name": "getRoleAdmin",
					"outputs": [
						{
							"internalType": "bytes32",
							"name": "",
							"type": "bytes32"
						}
					],
					"stateMutability": "view",
					"type": "function"
				},
				{
					"inputs": [],
					"name": "getSupportedTokens",
					"outputs": [
						{
							"internalType": "address[]",
							"name": "",
							"type": "address[]"
						}
					],
					"stateMutability": "view",
					"type": "function"
				},
				{
					"inputs": [
						{
							"internalType": "address",
							"name": "user",
							"type": "address"
						}
					],
					"name": "getTotalDepositsInUSD",
					"outputs": [
						{
							"internalType": "uint256",
							"name": "totalUSD",
							"type": "uint256"
						}
					],
					"stateMutability": "view",
					"type": "function"
				},
				{
					"inputs": [
						{
							"internalType": "address",
							"name": "user",
							"type": "address"
						},
						{
							"internalType": "address",
							"name": "token",
							"type": "address"
						}
					],
					"name": "getUserBalance",
					"outputs": [
						{
							"internalType": "uint256",
							"name": "",
							"type": "uint256"
						}
					],
					"stateMutability": "view",
					"type": "function"
				},
				{
					"inputs": [
						{
							"internalType": "bytes32",
							"name": "role",
							"type": "bytes32"
						},
						{
							"internalType": "address",
							"name": "account",
							"type": "address"
						}
					],
					"name": "grantRole",
					"outputs": [],
					"stateMutability": "nonpayable",
					"type": "function"
				},
				{
					"inputs": [
						{
							"internalType": "bytes32",
							"name": "role",
							"type": "bytes32"
						},
						{
							"internalType": "address",
							"name": "account",
							"type": "address"
						}
					],
					"name": "hasRole",
					"outputs": [
						{
							"internalType": "bool",
							"name": "",
							"type": "bool"
						}
					],
					"stateMutability": "view",
					"type": "function"
				},
				{
					"inputs": [],
					"name": "maxWithdrawal",
					"outputs": [
						{
							"internalType": "uint256",
							"name": "",
							"type": "uint256"
						}
					],
					"stateMutability": "view",
					"type": "function"
				},
				{
					"inputs": [
						{
							"internalType": "address",
							"name": "",
							"type": "address"
						}
					],
					"name": "priceFeedForToken",
					"outputs": [
						{
							"internalType": "contract AggregatorV3Interface",
							"name": "",
							"type": "address"
						}
					],
					"stateMutability": "view",
					"type": "function"
				},
				{
					"inputs": [
						{
							"internalType": "bytes32",
							"name": "role",
							"type": "bytes32"
						},
						{
							"internalType": "address",
							"name": "callerConfirmation",
							"type": "address"
						}
					],
					"name": "renounceRole",
					"outputs": [],
					"stateMutability": "nonpayable",
					"type": "function"
				},
				{
					"inputs": [
						{
							"internalType": "bytes32",
							"name": "role",
							"type": "bytes32"
						},
						{
							"internalType": "address",
							"name": "account",
							"type": "address"
						}
					],
					"name": "revokeRole",
					"outputs": [],
					"stateMutability": "nonpayable",
					"type": "function"
				},
				{
					"inputs": [
						{
							"internalType": "address",
							"name": "token",
							"type": "address"
						},
						{
							"internalType": "address",
							"name": "feed",
							"type": "address"
						}
					],
					"name": "setPriceFeed",
					"outputs": [],
					"stateMutability": "nonpayable",
					"type": "function"
				},
				{
					"inputs": [
						{
							"internalType": "address",
							"name": "token",
							"type": "address"
						},
						{
							"internalType": "address",
							"name": "feed",
							"type": "address"
						}
					],
					"name": "supportToken",
					"outputs": [],
					"stateMutability": "nonpayable",
					"type": "function"
				},
				{
					"inputs": [
						{
							"internalType": "bytes4",
							"name": "interfaceId",
							"type": "bytes4"
						}
					],
					"name": "supportsInterface",
					"outputs": [
						{
							"internalType": "bool",
							"name": "",
							"type": "bool"
						}
					],
					"stateMutability": "view",
					"type": "function"
				},
				{
					"inputs": [],
					"name": "totalBankCapacityUSD",
					"outputs": [
						{
							"internalType": "uint256",
							"name": "",
							"type": "uint256"
						}
					],
					"stateMutability": "view",
					"type": "function"
				},
				{
					"inputs": [],
					"name": "totalDepositsUSD",
					"outputs": [
						{
							"internalType": "uint256",
							"name": "",
							"type": "uint256"
						}
					],
					"stateMutability": "view",
					"type": "function"
				},
				{
					"inputs": [
						{
							"internalType": "address",
							"name": "token",
							"type": "address"
						}
					],
					"name": "unsupportToken",
					"outputs": [],
					"stateMutability": "nonpayable",
					"type": "function"
				},
				{
					"inputs": [
						{
							"internalType": "address",
							"name": "token",
							"type": "address"
						},
						{
							"internalType": "uint256",
							"name": "amount",
							"type": "uint256"
						}
					],
					"name": "withdraw",
					"outputs": [],
					"stateMutability": "nonpayable",
					"type": "function"
				},
				{
					"inputs": [
						{
							"internalType": "address",
							"name": "",
							"type": "address"
						}
					],
					"name": "withdrawalCount",
					"outputs": [
						{
							"internalType": "uint256",
							"name": "",
							"type": "uint256"
						}
					],
					"stateMutability": "view",
					"type": "function"
				},
				{
					"stateMutability": "payable",
					"type": "receive"
				}
			],
			"devdoc": {
				"errors": {
					"AccessControlBadConfirmation()": [
						{
							"details": "The caller of a function is not the expected one. NOTE: Don't confuse with {AccessControlUnauthorizedAccount}."
						}
					],
					"AccessControlUnauthorizedAccount(address,bytes32)": [
						{
							"details": "The `account` is missing a role."
						}
					],
					"SafeERC20FailedOperation(address)": [
						{
							"details": "An operation with an ERC-20 token failed."
						}
					]
				},
				"events": {
					"DepositMade(address,address,uint256,uint256)": {
						"params": {
							"amount": "Amount of ETH deposited.",
							"token": "what token it was.",
							"usdValue6": "its equivalent value in USD (with 6 decimal places).",
							"user": "is the user's address. "
						}
					},
					"RoleAdminChanged(bytes32,bytes32,bytes32)": {
						"details": "Emitted when `newAdminRole` is set as ``role``'s admin role, replacing `previousAdminRole` `DEFAULT_ADMIN_ROLE` is the starting admin for all roles, despite {RoleAdminChanged} not being emitted to signal this."
					},
					"RoleGranted(bytes32,address,address)": {
						"details": "Emitted when `account` is granted `role`. `sender` is the account that originated the contract call. This account bears the admin role (for the granted role). Expected in cases where the role was granted using the internal {AccessControl-_grantRole}."
					},
					"RoleRevoked(bytes32,address,address)": {
						"details": "Emitted when `account` is revoked `role`. `sender` is the account that originated the contract call:   - if using `revokeRole`, it is the admin role bearer   - if using `renounceRole`, it is the role bearer (i.e. `account`)"
					},
					"WithdrawalMade(address,address,uint256,uint256)": {
						"params": {
							"amount": "Amount of ETH withdrawn.",
							"user": "the user's address "
						}
					}
				},
				"kind": "dev",
				"methods": {
					"constructor": {
						"params": {
							"_maxWithdrawal": "Maximum withdrawal limit per transaction.",
							"_totalCapacityUSD": "Total ETH capacity of the bank in USD."
						}
					},
					"deposit(address,uint256)": {
						"details": "Check global limit and record deposit.allows a user to deposit ETH or a token.updates their balance and total in USD.emits a deposit event."
					},
					"getRoleAdmin(bytes32)": {
						"details": "Returns the admin role that controls `role`. See {grantRole} and {revokeRole}. To change a role's admin, use {_setRoleAdmin}."
					},
					"getUserBalance(address,address)": {
						"params": {
							"user": "Address of the user to query."
						},
						"returns": {
							"_0": "The ETH balance of the user in the vault."
						}
					},
					"grantRole(bytes32,address)": {
						"details": "Grants `role` to `account`. If `account` had not been already granted `role`, emits a {RoleGranted} event. Requirements: - the caller must have ``role``'s admin role. May emit a {RoleGranted} event."
					},
					"hasRole(bytes32,address)": {
						"details": "Returns `true` if `account` has been granted `role`."
					},
					"renounceRole(bytes32,address)": {
						"details": "Revokes `role` from the calling account. Roles are often managed via {grantRole} and {revokeRole}: this function's purpose is to provide a mechanism for accounts to lose their privileges if they are compromised (such as when a trusted device is misplaced). If the calling account had been revoked `role`, emits a {RoleRevoked} event. Requirements: - the caller must be `callerConfirmation`. May emit a {RoleRevoked} event."
					},
					"revokeRole(bytes32,address)": {
						"details": "Revokes `role` from `account`. If `account` had been granted `role`, emits a {RoleRevoked} event. Requirements: - the caller must have ``role``'s admin role. May emit a {RoleRevoked} event."
					},
					"supportsInterface(bytes4)": {
						"details": "Returns true if this contract implements the interface defined by `interfaceId`. See the corresponding https://eips.ethereum.org/EIPS/eip-165#how-interfaces-are-identified[ERC section] to learn more about how these ids are created. This function call must use less than 30 000 gas."
					},
					"withdraw(address,uint256)": {
						"details": "user to withdraw ETH or token.check limits and balance. update balances and total in USD and perform the secure transfer.issue a withdrawal event.",
						"params": {
							"amount": "The amount of ETH to withdraw and uses secure transfers and custom errors."
						}
					}
				},
				"version": 1
			},
			"evm": {
				"assembly": "    /* \"src/KipuBankV2.sol\":814:14597  contract KipuBank is AccessControl, ReentrancyGuard{... */\n  mstore(0x40, 0xe0)\n    /* \"src/KipuBankV2.sol\":5834:6423  constructor(uint256 _maxWithdrawal, uint256 _totalCapacityUSD, address _ethUsdFeed) {... */\n  callvalue\n  dup1\n  iszero\n  tag_1\n  jumpi\n  revert(0x00, 0x00)\ntag_1:\n  pop\n  mload(0x40)\n  sub(codesize, bytecodeSize)\n  dup1\n  bytecodeSize\n  dup4\n  codecopy\n  dup2\n  dup2\n  add\n  0x40\n  mstore\n  dup2\n  add\n  swap1\n  tag_2\n  swap2\n  swap1\n  tag_3\n  jump\t// in\ntag_2:\n    /* \"@openzeppelin/contracts/security/ReentrancyGuard.sol\":1716:1717  1 */\n  0x01\n    /* \"@openzeppelin/contracts/security/ReentrancyGuard.sol\":1821:1828  _status */\n  dup1\n    /* \"@openzeppelin/contracts/security/ReentrancyGuard.sol\":1821:1843  _status = _NOT_ENTERED */\n  dup2\n  swap1\n  sstore\n  pop\n    /* \"src/KipuBankV2.sol\":5951:5952  0 */\n  0x00\n    /* \"src/KipuBankV2.sol\":5933:5947  _maxWithdrawal */\n  dup4\n    /* \"src/KipuBankV2.sol\":5933:5952  _maxWithdrawal == 0 */\n  sub\n    /* \"src/KipuBankV2.sol\":5929:5987  if (_maxWithdrawal == 0) revert MaximumWithdrawalInvalid() */\n  tag_8\n  jumpi\n    /* \"src/KipuBankV2.sol\":5961:5987  MaximumWithdrawalInvalid() */\n  mload(0x40)\n  0xf1f13a3800000000000000000000000000000000000000000000000000000000\n  dup2\n  mstore\n  0x04\n  add\n  mload(0x40)\n  dup1\n  swap2\n  sub\n  swap1\n  revert\n    /* \"src/KipuBankV2.sol\":5929:5987  if (_maxWithdrawal == 0) revert MaximumWithdrawalInvalid() */\ntag_8:\n    /* \"src/KipuBankV2.sol\":6023:6024  0 */\n  0x00\n    /* \"src/KipuBankV2.sol\":6002:6019  _totalCapacityUSD */\n  dup3\n    /* \"src/KipuBankV2.sol\":6002:6024  _totalCapacityUSD == 0 */\n  sub\n    /* \"src/KipuBankV2.sol\":5998:6054  if (_totalCapacityUSD == 0) revert InvalidBankCapacity() */\n  tag_9\n  jumpi\n    /* \"src/KipuBankV2.sol\":6033:6054  InvalidBankCapacity() */\n  mload(0x40)\n  0xafea1c5700000000000000000000000000000000000000000000000000000000\n  dup2\n  mstore\n  0x04\n  add\n  mload(0x40)\n  dup1\n  swap2\n  sub\n  swap1\n  revert\n    /* \"src/KipuBankV2.sol\":5998:6054  if (_totalCapacityUSD == 0) revert InvalidBankCapacity() */\ntag_9:\n    /* \"src/KipuBankV2.sol\":6092:6093  0 */\n  0x00\n    /* \"src/KipuBankV2.sol\":6069:6094  _ethUsdFeed == address(0) */\n  0xffffffffffffffffffffffffffffffffffffffff\n  and\n    /* \"src/KipuBankV2.sol\":6069:6080  _ethUsdFeed */\n  dup2\n    /* \"src/KipuBankV2.sol\":6069:6094  _ethUsdFeed == address(0) */\n  0xffffffffffffffffffffffffffffffffffffffff\n  and\n  sub\n    /* \"src/KipuBankV2.sol\":6065:6118  if (_ethUsdFeed == address(0)) revert InvalidOracle() */\n  tag_10\n  jumpi\n    /* \"src/KipuBankV2.sol\":6103:6118  InvalidOracle() */\n  mload(0x40)\n  0x9589a27d00000000000000000000000000000000000000000000000000000000\n  dup2\n  mstore\n  0x04\n  add\n  mload(0x40)\n  dup1\n  swap2\n  sub\n  swap1\n  revert\n    /* \"src/KipuBankV2.sol\":6065:6118  if (_ethUsdFeed == address(0)) revert InvalidOracle() */\ntag_10:\n    /* \"src/KipuBankV2.sol\":6148:6162  _maxWithdrawal */\n  dup3\n    /* \"src/KipuBankV2.sol\":6132:6162  maxWithdrawal = _maxWithdrawal */\n  0x80\n  dup2\n  dup2\n  mstore\n  pop\n  pop\n    /* \"src/KipuBankV2.sol\":6196:6213  _totalCapacityUSD */\n  dup2\n    /* \"src/KipuBankV2.sol\":6173:6213  totalBankCapacityUSD = _totalCapacityUSD */\n  0xa0\n  dup2\n  dup2\n  mstore\n  pop\n  pop\n    /* \"src/KipuBankV2.sol\":6259:6270  _ethUsdFeed */\n  dup1\n    /* \"src/KipuBankV2.sol\":6224:6271  ethUsdFeed = AggregatorV3Interface(_ethUsdFeed) */\n  0xffffffffffffffffffffffffffffffffffffffff\n  and\n  0xc0\n  dup2\n  0xffffffffffffffffffffffffffffffffffffffff\n  and\n  dup2\n  mstore\n  pop\n  pop\n    /* \"src/KipuBankV2.sol\":6321:6363  _grantRole(DEFAULT_ADMIN_ROLE, msg.sender) */\n  tag_11\n    /* \"@openzeppelin/contracts/access/AccessControl.sol\":2241:2245  0x00 */\n  0x00\n    /* \"src/KipuBankV2.sol\":6332:6350  DEFAULT_ADMIN_ROLE */\n  0x00\n  shl\n    /* \"src/KipuBankV2.sol\":6352:6362  msg.sender */\n  caller\n    /* \"src/KipuBankV2.sol\":6321:6331  _grantRole */\n  shl(0x20, tag_12)\n    /* \"src/KipuBankV2.sol\":6321:6363  _grantRole(DEFAULT_ADMIN_ROLE, msg.sender) */\n  0x20\n  shr\n  jump\t// in\ntag_11:\n  pop\n    /* \"src/KipuBankV2.sol\":6374:6415  _grantRole(BANK_MANAGER_ROLE, msg.sender) */\n  tag_13\n    /* \"src/KipuBankV2.sol\":1039:1069  keccak256(\"BANK_MANAGER_ROLE\") */\n  0x2d95a8186db49da8bd2356c70cf02038f7de0d6ed39f6766fe2d93d5e7785616\n    /* \"src/KipuBankV2.sol\":6404:6414  msg.sender */\n  caller\n    /* \"src/KipuBankV2.sol\":6374:6384  _grantRole */\n  shl(0x20, tag_12)\n    /* \"src/KipuBankV2.sol\":6374:6415  _grantRole(BANK_MANAGER_ROLE, msg.sender) */\n  0x20\n  shr\n  jump\t// in\ntag_13:\n  pop\n    /* \"src/KipuBankV2.sol\":5834:6423  constructor(uint256 _maxWithdrawal, uint256 _totalCapacityUSD, address _ethUsdFeed) {... */\n  pop\n  pop\n  pop\n    /* \"src/KipuBankV2.sol\":814:14597  contract KipuBank is AccessControl, ReentrancyGuard{... */\n  jump(tag_14)\n    /* \"@openzeppelin/contracts/access/AccessControl.sol\":6155:6471  function _grantRole(bytes32 role, address account) internal virtual returns (bool) {... */\ntag_12:\n    /* \"@openzeppelin/contracts/access/AccessControl.sol\":6232:6236  bool */\n  0x00\n    /* \"@openzeppelin/contracts/access/AccessControl.sol\":6253:6275  hasRole(role, account) */\n  tag_16\n    /* \"@openzeppelin/contracts/access/AccessControl.sol\":6261:6265  role */\n  dup4\n    /* \"@openzeppelin/contracts/access/AccessControl.sol\":6267:6274  account */\n  dup4\n    /* \"@openzeppelin/contracts/access/AccessControl.sol\":6253:6260  hasRole */\n  shl(0x20, tag_17)\n    /* \"@openzeppelin/contracts/access/AccessControl.sol\":6253:6275  hasRole(role, account) */\n  0x20\n  shr\n  jump\t// in\ntag_16:\n    /* \"@openzeppelin/contracts/access/AccessControl.sol\":6248:6465  if (!hasRole(role, account)) {... */\n  tag_18\n  jumpi\n    /* \"@openzeppelin/contracts/access/AccessControl.sol\":6323:6327  true */\n  0x01\n    /* \"@openzeppelin/contracts/access/AccessControl.sol\":6291:6297  _roles */\n  0x00\n    /* \"@openzeppelin/contracts/access/AccessControl.sol\":6291:6303  _roles[role] */\n  0x00\n    /* \"@openzeppelin/contracts/access/AccessControl.sol\":6298:6302  role */\n  dup6\n    /* \"@openzeppelin/contracts/access/AccessControl.sol\":6291:6303  _roles[role] */\n  dup2\n  mstore\n  0x20\n  add\n  swap1\n  dup2\n  mstore\n  0x20\n  add\n  0x00\n  keccak256\n    /* \"@openzeppelin/contracts/access/AccessControl.sol\":6291:6311  _roles[role].hasRole */\n  0x00\n  add\n    /* \"@openzeppelin/contracts/access/AccessControl.sol\":6291:6320  _roles[role].hasRole[account] */\n  0x00\n    /* \"@openzeppelin/contracts/access/AccessControl.sol\":6312:6319  account */\n  dup5\n    /* \"@openzeppelin/contracts/access/AccessControl.sol\":6291:6320  _roles[role].hasRole[account] */\n  0xffffffffffffffffffffffffffffffffffffffff\n  and\n  0xffffffffffffffffffffffffffffffffffffffff\n  and\n  dup2\n  mstore\n  0x20\n  add\n  swap1\n  dup2\n  mstore\n  0x20\n  add\n  0x00\n  keccak256\n  0x00\n    /* \"@openzeppelin/contracts/access/AccessControl.sol\":6291:6327  _roles[role].hasRole[account] = true */\n  0x0100\n  exp\n  dup2\n  sload\n  dup2\n  0xff\n  mul\n  not\n  and\n  swap1\n  dup4\n  iszero\n  iszero\n  mul\n  or\n  swap1\n  sstore\n  pop\n    /* \"@openzeppelin/contracts/access/AccessControl.sol\":6373:6385  _msgSender() */\n  tag_19\n    /* \"@openzeppelin/contracts/access/AccessControl.sol\":6373:6383  _msgSender */\n  shl(0x20, tag_20)\n    /* \"@openzeppelin/contracts/access/AccessControl.sol\":6373:6385  _msgSender() */\n  0x20\n  shr\n  jump\t// in\ntag_19:\n    /* \"@openzeppelin/contracts/access/AccessControl.sol\":6346:6386  RoleGranted(role, account, _msgSender()) */\n  0xffffffffffffffffffffffffffffffffffffffff\n  and\n    /* \"@openzeppelin/contracts/access/AccessControl.sol\":6364:6371  account */\n  dup3\n    /* \"@openzeppelin/contracts/access/AccessControl.sol\":6346:6386  RoleGranted(role, account, _msgSender()) */\n  0xffffffffffffffffffffffffffffffffffffffff\n  and\n    /* \"@openzeppelin/contracts/access/AccessControl.sol\":6358:6362  role */\n  dup5\n    /* \"@openzeppelin/contracts/access/AccessControl.sol\":6346:6386  RoleGranted(role, account, _msgSender()) */\n  0x2f8788117e7eff1d82e926ec794901d17c78024a50270940304540a733656f0d\n  mload(0x40)\n  mload(0x40)\n  dup1\n  swap2\n  sub\n  swap1\n  log4\n    /* \"@openzeppelin/contracts/access/AccessControl.sol\":6407:6411  true */\n  0x01\n    /* \"@openzeppelin/contracts/access/AccessControl.sol\":6400:6411  return true */\n  swap1\n  pop\n  jump(tag_15)\n    /* \"@openzeppelin/contracts/access/AccessControl.sol\":6248:6465  if (!hasRole(role, account)) {... */\ntag_18:\n    /* \"@openzeppelin/contracts/access/AccessControl.sol\":6449:6454  false */\n  0x00\n    /* \"@openzeppelin/contracts/access/AccessControl.sol\":6442:6454  return false */\n  swap1\n  pop\n    /* \"@openzeppelin/contracts/access/AccessControl.sol\":6155:6471  function _grantRole(bytes32 role, address account) internal virtual returns (bool) {... */\ntag_15:\n  swap3\n  swap2\n  pop\n  pop\n  jump\t// out\n    /* \"@openzeppelin/contracts/access/AccessControl.sol\":2830:2966  function hasRole(bytes32 role, address account) public view virtual returns (bool) {... */\ntag_17:\n    /* \"@openzeppelin/contracts/access/AccessControl.sol\":2907:2911  bool */\n  0x00\n    /* \"@openzeppelin/contracts/access/AccessControl.sol\":2930:2936  _roles */\n  0x00\n    /* \"@openzeppelin/contracts/access/AccessControl.sol\":2930:2942  _roles[role] */\n  0x00\n    /* \"@openzeppelin/contracts/access/AccessControl.sol\":2937:2941  role */\n  dup5\n    /* \"@openzeppelin/contracts/access/AccessControl.sol\":2930:2942  _roles[role] */\n  dup2\n  mstore\n  0x20\n  add\n  swap1\n  dup2\n  mstore\n  0x20\n  add\n  0x00\n  keccak256\n    /* \"@openzeppelin/contracts/access/AccessControl.sol\":2930:2950  _roles[role].hasRole */\n  0x00\n  add\n    /* \"@openzeppelin/contracts/access/AccessControl.sol\":2930:2959  _roles[role].hasRole[account] */\n  0x00\n    /* \"@openzeppelin/contracts/access/AccessControl.sol\":2951:2958  account */\n  dup4\n    /* \"@openzeppelin/contracts/access/AccessControl.sol\":2930:2959  _roles[role].hasRole[account] */\n  0xffffffffffffffffffffffffffffffffffffffff\n  and\n  0xffffffffffffffffffffffffffffffffffffffff\n  and\n  dup2\n  mstore\n  0x20\n  add\n  swap1\n  dup2\n  mstore\n  0x20\n  add\n  0x00\n  keccak256\n  0x00\n  swap1\n  sload\n  swap1\n  0x0100\n  exp\n  swap1\n  div\n  0xff\n  and\n    /* \"@openzeppelin/contracts/access/AccessControl.sol\":2923:2959  return _roles[role].hasRole[account] */\n  swap1\n  pop\n    /* \"@openzeppelin/contracts/access/AccessControl.sol\":2830:2966  function hasRole(bytes32 role, address account) public view virtual returns (bool) {... */\n  swap3\n  swap2\n  pop\n  pop\n  jump\t// out\n    /* \"@openzeppelin/contracts/utils/Context.sol\":656:752  function _msgSender() internal view virtual returns (address) {... */\ntag_20:\n    /* \"@openzeppelin/contracts/utils/Context.sol\":709:716  address */\n  0x00\n    /* \"@openzeppelin/contracts/utils/Context.sol\":735:745  msg.sender */\n  caller\n    /* \"@openzeppelin/contracts/utils/Context.sol\":728:745  return msg.sender */\n  swap1\n  pop\n    /* \"@openzeppelin/contracts/utils/Context.sol\":656:752  function _msgSender() internal view virtual returns (address) {... */\n  swap1\n  jump\t// out\n    /* \"#utility.yul\":88:205   */\ntag_25:\n    /* \"#utility.yul\":197:198   */\n  0x00\n    /* \"#utility.yul\":194:195   */\n  0x00\n    /* \"#utility.yul\":187:199   */\n  revert\n    /* \"#utility.yul\":334:411   */\ntag_27:\n    /* \"#utility.yul\":371:378   */\n  0x00\n    /* \"#utility.yul\":400:405   */\n  dup2\n    /* \"#utility.yul\":389:405   */\n  swap1\n  pop\n    /* \"#utility.yul\":334:411   */\n  swap2\n  swap1\n  pop\n  jump\t// out\n    /* \"#utility.yul\":417:539   */\ntag_28:\n    /* \"#utility.yul\":490:514   */\n  tag_40\n    /* \"#utility.yul\":508:513   */\n  dup2\n    /* \"#utility.yul\":490:514   */\n  tag_27\n  jump\t// in\ntag_40:\n    /* \"#utility.yul\":483:488   */\n  dup2\n    /* \"#utility.yul\":480:515   */\n  eq\n    /* \"#utility.yul\":470:533   */\n  tag_41\n  jumpi\n    /* \"#utility.yul\":529:530   */\n  0x00\n    /* \"#utility.yul\":526:527   */\n  0x00\n    /* \"#utility.yul\":519:531   */\n  revert\n    /* \"#utility.yul\":470:533   */\ntag_41:\n    /* \"#utility.yul\":417:539   */\n  pop\n  jump\t// out\n    /* \"#utility.yul\":545:688   */\ntag_29:\n    /* \"#utility.yul\":602:607   */\n  0x00\n    /* \"#utility.yul\":633:639   */\n  dup2\n    /* \"#utility.yul\":627:640   */\n  mload\n    /* \"#utility.yul\":618:640   */\n  swap1\n  pop\n    /* \"#utility.yul\":649:682   */\n  tag_43\n    /* \"#utility.yul\":676:681   */\n  dup2\n    /* \"#utility.yul\":649:682   */\n  tag_28\n  jump\t// in\ntag_43:\n    /* \"#utility.yul\":545:688   */\n  swap3\n  swap2\n  pop\n  pop\n  jump\t// out\n    /* \"#utility.yul\":694:820   */\ntag_30:\n    /* \"#utility.yul\":731:738   */\n  0x00\n    /* \"#utility.yul\":771:813   */\n  0xffffffffffffffffffffffffffffffffffffffff\n    /* \"#utility.yul\":764:769   */\n  dup3\n    /* \"#utility.yul\":760:814   */\n  and\n    /* \"#utility.yul\":749:814   */\n  swap1\n  pop\n    /* \"#utility.yul\":694:820   */\n  swap2\n  swap1\n  pop\n  jump\t// out\n    /* \"#utility.yul\":826:922   */\ntag_31:\n    /* \"#utility.yul\":863:870   */\n  0x00\n    /* \"#utility.yul\":892:916   */\n  tag_46\n    /* \"#utility.yul\":910:915   */\n  dup3\n    /* \"#utility.yul\":892:916   */\n  tag_30\n  jump\t// in\ntag_46:\n    /* \"#utility.yul\":881:916   */\n  swap1\n  pop\n    /* \"#utility.yul\":826:922   */\n  swap2\n  swap1\n  pop\n  jump\t// out\n    /* \"#utility.yul\":928:1050   */\ntag_32:\n    /* \"#utility.yul\":1001:1025   */\n  tag_48\n    /* \"#utility.yul\":1019:1024   */\n  dup2\n    /* \"#utility.yul\":1001:1025   */\n  tag_31\n  jump\t// in\ntag_48:\n    /* \"#utility.yul\":994:999   */\n  dup2\n    /* \"#utility.yul\":991:1026   */\n  eq\n    /* \"#utility.yul\":981:1044   */\n  tag_49\n  jumpi\n    /* \"#utility.yul\":1040:1041   */\n  0x00\n    /* \"#utility.yul\":1037:1038   */\n  0x00\n    /* \"#utility.yul\":1030:1042   */\n  revert\n    /* \"#utility.yul\":981:1044   */\ntag_49:\n    /* \"#utility.yul\":928:1050   */\n  pop\n  jump\t// out\n    /* \"#utility.yul\":1056:1199   */\ntag_33:\n    /* \"#utility.yul\":1113:1118   */\n  0x00\n    /* \"#utility.yul\":1144:1150   */\n  dup2\n    /* \"#utility.yul\":1138:1151   */\n  mload\n    /* \"#utility.yul\":1129:1151   */\n  swap1\n  pop\n    /* \"#utility.yul\":1160:1193   */\n  tag_51\n    /* \"#utility.yul\":1187:1192   */\n  dup2\n    /* \"#utility.yul\":1160:1193   */\n  tag_32\n  jump\t// in\ntag_51:\n    /* \"#utility.yul\":1056:1199   */\n  swap3\n  swap2\n  pop\n  pop\n  jump\t// out\n    /* \"#utility.yul\":1205:1868   */\ntag_3:\n    /* \"#utility.yul\":1293:1299   */\n  0x00\n    /* \"#utility.yul\":1301:1307   */\n  0x00\n    /* \"#utility.yul\":1309:1315   */\n  0x00\n    /* \"#utility.yul\":1358:1360   */\n  0x60\n    /* \"#utility.yul\":1346:1355   */\n  dup5\n    /* \"#utility.yul\":1337:1344   */\n  dup7\n    /* \"#utility.yul\":1333:1356   */\n  sub\n    /* \"#utility.yul\":1329:1361   */\n  slt\n    /* \"#utility.yul\":1326:1445   */\n  iszero\n  tag_53\n  jumpi\n    /* \"#utility.yul\":1364:1443   */\n  tag_54\n  tag_25\n  jump\t// in\ntag_54:\n    /* \"#utility.yul\":1326:1445   */\ntag_53:\n    /* \"#utility.yul\":1484:1485   */\n  0x00\n    /* \"#utility.yul\":1509:1573   */\n  tag_55\n    /* \"#utility.yul\":1565:1572   */\n  dup7\n    /* \"#utility.yul\":1556:1562   */\n  dup3\n    /* \"#utility.yul\":1545:1554   */\n  dup8\n    /* \"#utility.yul\":1541:1563   */\n  add\n    /* \"#utility.yul\":1509:1573   */\n  tag_29\n  jump\t// in\ntag_55:\n    /* \"#utility.yul\":1499:1573   */\n  swap4\n  pop\n    /* \"#utility.yul\":1455:1583   */\n  pop\n    /* \"#utility.yul\":1622:1624   */\n  0x20\n    /* \"#utility.yul\":1648:1712   */\n  tag_56\n    /* \"#utility.yul\":1704:1711   */\n  dup7\n    /* \"#utility.yul\":1695:1701   */\n  dup3\n    /* \"#utility.yul\":1684:1693   */\n  dup8\n    /* \"#utility.yul\":1680:1702   */\n  add\n    /* \"#utility.yul\":1648:1712   */\n  tag_29\n  jump\t// in\ntag_56:\n    /* \"#utility.yul\":1638:1712   */\n  swap3\n  pop\n    /* \"#utility.yul\":1593:1722   */\n  pop\n    /* \"#utility.yul\":1761:1763   */\n  0x40\n    /* \"#utility.yul\":1787:1851   */\n  tag_57\n    /* \"#utility.yul\":1843:1850   */\n  dup7\n    /* \"#utility.yul\":1834:1840   */\n  dup3\n    /* \"#utility.yul\":1823:1832   */\n  dup8\n    /* \"#utility.yul\":1819:1841   */\n  add\n    /* \"#utility.yul\":1787:1851   */\n  tag_33\n  jump\t// in\ntag_57:\n    /* \"#utility.yul\":1777:1851   */\n  swap2\n  pop\n    /* \"#utility.yul\":1732:1861   */\n  pop\n    /* \"#utility.yul\":1205:1868   */\n  swap3\n  pop\n  swap3\n  pop\n  swap3\n  jump\t// out\n    /* \"src/KipuBankV2.sol\":814:14597  contract KipuBank is AccessControl, ReentrancyGuard{... */\ntag_14:\n  mload(0x80)\n  mload(0xa0)\n  mload(0xc0)\n  codecopy(0x00, dataOffset(sub_0), dataSize(sub_0))\n  0x00\n  assignImmutable(\"0xf5e5f362c88d870042340181c8ba3c810faeaf69b620e2b6c1b44f2a54634680\")\n  0x00\n  assignImmutable(\"0x764ce1cb8d17081194abba71ad56d073244079544f5df0278f53a6395c58adf1\")\n  0x00\n  assignImmutable(\"0xcc80724d438a73e21efb48933a149f5b95ade624d1778284bcca17773a1c9da3\")\n  return(0x00, dataSize(sub_0))\nstop\n\nsub_0: assembly {\n        /* \"src/KipuBankV2.sol\":814:14597  contract KipuBank is AccessControl, ReentrancyGuard{... */\n      mstore(0x40, 0x80)\n      jumpi(tag_1, lt(calldatasize, 0x04))\n      shr(0xe0, calldataload(0x00))\n      dup1\n      0x91d14854\n      gt\n      tag_27\n      jumpi\n      dup1\n      0xd547741f\n      gt\n      tag_28\n      jumpi\n      dup1\n      0xd547741f\n      eq\n      tag_21\n      jumpi\n      dup1\n      0xe7d66d63\n      eq\n      tag_22\n      jumpi\n      dup1\n      0xee3d6866\n      eq\n      tag_23\n      jumpi\n      dup1\n      0xf2157052\n      eq\n      tag_24\n      jumpi\n      dup1\n      0xf3fef3a3\n      eq\n      tag_25\n      jumpi\n      dup1\n      0xf4443d9a\n      eq\n      tag_26\n      jumpi\n      jump(tag_2)\n    tag_28:\n      dup1\n      0x91d14854\n      eq\n      tag_15\n      jumpi\n      dup1\n      0x92b9f8f5\n      eq\n      tag_16\n      jumpi\n      dup1\n      0xa217fddf\n      eq\n      tag_17\n      jumpi\n      dup1\n      0xa773a500\n      eq\n      tag_18\n      jumpi\n      dup1\n      0xb3d8bcdc\n      eq\n      tag_19\n      jumpi\n      dup1\n      0xd3c7c2c7\n      eq\n      tag_20\n      jumpi\n      jump(tag_2)\n    tag_27:\n      dup1\n      0x36568abe\n      gt\n      tag_29\n      jumpi\n      dup1\n      0x36568abe\n      eq\n      tag_9\n      jumpi\n      dup1\n      0x47e7ef24\n      eq\n      tag_10\n      jumpi\n      dup1\n      0x6805d6ad\n      eq\n      tag_11\n      jumpi\n      dup1\n      0x76e11286\n      eq\n      tag_12\n      jumpi\n      dup1\n      0x8009b7bd\n      eq\n      tag_13\n      jumpi\n      dup1\n      0x8c0ff5b7\n      eq\n      tag_14\n      jumpi\n      jump(tag_2)\n    tag_29:\n      dup1\n      0x01ffc9a7\n      eq\n      tag_3\n      jumpi\n      dup1\n      0x1e604ea3\n      eq\n      tag_4\n      jumpi\n      dup1\n      0x248a9ca3\n      eq\n      tag_5\n      jumpi\n      dup1\n      0x2e3441a9\n      eq\n      tag_6\n      jumpi\n      dup1\n      0x2f2ff15d\n      eq\n      tag_7\n      jumpi\n      dup1\n      0x30c0b9ec\n      eq\n      tag_8\n      jumpi\n      jump(tag_2)\n    tag_1:\n      jumpi(tag_2, calldatasize)\n        /* \"src/KipuBankV2.sol\":14476:14502  DirectTransferNotAllowed() */\n      mload(0x40)\n      0x3ee6509d00000000000000000000000000000000000000000000000000000000\n      dup2\n      mstore\n      0x04\n      add\n      mload(0x40)\n      dup1\n      swap2\n      sub\n      swap1\n      revert\n        /* \"src/KipuBankV2.sol\":814:14597  contract KipuBank is AccessControl, ReentrancyGuard{... */\n    tag_2:\n        /* \"src/KipuBankV2.sol\":14564:14586  DirectCallNotAllowed() */\n      mload(0x40)\n      0x3921c70300000000000000000000000000000000000000000000000000000000\n      dup2\n      mstore\n      0x04\n      add\n      mload(0x40)\n      dup1\n      swap2\n      sub\n      swap1\n      revert\n        /* \"@openzeppelin/contracts/access/AccessControl.sol\":2541:2743  function supportsInterface(bytes4 interfaceId) public view virtual override returns (bool) {... */\n    tag_3:\n      callvalue\n      dup1\n      iszero\n      tag_34\n      jumpi\n      revert(0x00, 0x00)\n    tag_34:\n      pop\n      tag_35\n      0x04\n      dup1\n      calldatasize\n      sub\n      dup2\n      add\n      swap1\n      tag_36\n      swap2\n      swap1\n      tag_37\n      jump\t// in\n    tag_36:\n      tag_38\n      jump\t// in\n    tag_35:\n      mload(0x40)\n      tag_39\n      swap2\n      swap1\n      tag_40\n      jump\t// in\n    tag_39:\n      mload(0x40)\n      dup1\n      swap2\n      sub\n      swap1\n      return\n        /* \"src/KipuBankV2.sol\":12489:12915  function getTotalDepositsInUSD(address user) external view returns (uint256 totalUSD){... */\n    tag_4:\n      callvalue\n      dup1\n      iszero\n      tag_41\n      jumpi\n      revert(0x00, 0x00)\n    tag_41:\n      pop\n      tag_42\n      0x04\n      dup1\n      calldatasize\n      sub\n      dup2\n      add\n      swap1\n      tag_43\n      swap2\n      swap1\n      tag_44\n      jump\t// in\n    tag_43:\n      tag_45\n      jump\t// in\n    tag_42:\n      mload(0x40)\n      tag_46\n      swap2\n      swap1\n      tag_47\n      jump\t// in\n    tag_46:\n      mload(0x40)\n      dup1\n      swap2\n      sub\n      swap1\n      return\n        /* \"@openzeppelin/contracts/access/AccessControl.sol\":3786:3906  function getRoleAdmin(bytes32 role) public view virtual returns (bytes32) {... */\n    tag_5:\n      callvalue\n      dup1\n      iszero\n      tag_48\n      jumpi\n      revert(0x00, 0x00)\n    tag_48:\n      pop\n      tag_49\n      0x04\n      dup1\n      calldatasize\n      sub\n      dup2\n      add\n      swap1\n      tag_50\n      swap2\n      swap1\n      tag_51\n      jump\t// in\n    tag_50:\n      tag_52\n      jump\t// in\n    tag_49:\n      mload(0x40)\n      tag_53\n      swap2\n      swap1\n      tag_54\n      jump\t// in\n    tag_53:\n      mload(0x40)\n      dup1\n      swap2\n      sub\n      swap1\n      return\n        /* \"src/KipuBankV2.sol\":1638:1704  mapping(address => AggregatorV3Interface) public priceFeedForToken */\n    tag_6:\n      callvalue\n      dup1\n      iszero\n      tag_55\n      jumpi\n      revert(0x00, 0x00)\n    tag_55:\n      pop\n      tag_56\n      0x04\n      dup1\n      calldatasize\n      sub\n      dup2\n      add\n      swap1\n      tag_57\n      swap2\n      swap1\n      tag_44\n      jump\t// in\n    tag_57:\n      tag_58\n      jump\t// in\n    tag_56:\n      mload(0x40)\n      tag_59\n      swap2\n      swap1\n      tag_60\n      jump\t// in\n    tag_59:\n      mload(0x40)\n      dup1\n      swap2\n      sub\n      swap1\n      return\n        /* \"@openzeppelin/contracts/access/AccessControl.sol\":4202:4338  function grantRole(bytes32 role, address account) public virtual onlyRole(getRoleAdmin(role)) {... */\n    tag_7:\n      callvalue\n      dup1\n      iszero\n      tag_61\n      jumpi\n      revert(0x00, 0x00)\n    tag_61:\n      pop\n      tag_62\n      0x04\n      dup1\n      calldatasize\n      sub\n      dup2\n      add\n      swap1\n      tag_63\n      swap2\n      swap1\n      tag_64\n      jump\t// in\n    tag_63:\n      tag_65\n      jump\t// in\n    tag_62:\n      stop\n        /* \"src/KipuBankV2.sol\":12200:12403  function getLatestEthPrice() public view returns (uint256) {... */\n    tag_8:\n      callvalue\n      dup1\n      iszero\n      tag_66\n      jumpi\n      revert(0x00, 0x00)\n    tag_66:\n      pop\n      tag_67\n      tag_68\n      jump\t// in\n    tag_67:\n      mload(0x40)\n      tag_69\n      swap2\n      swap1\n      tag_47\n      jump\t// in\n    tag_69:\n      mload(0x40)\n      dup1\n      swap2\n      sub\n      swap1\n      return\n        /* \"@openzeppelin/contracts/access/AccessControl.sol\":5304:5549  function renounceRole(bytes32 role, address callerConfirmation) public virtual {... */\n    tag_9:\n      callvalue\n      dup1\n      iszero\n      tag_70\n      jumpi\n      revert(0x00, 0x00)\n    tag_70:\n      pop\n      tag_71\n      0x04\n      dup1\n      calldatasize\n      sub\n      dup2\n      add\n      swap1\n      tag_72\n      swap2\n      swap1\n      tag_64\n      jump\t// in\n    tag_72:\n      tag_73\n      jump\t// in\n    tag_71:\n      stop\n        /* \"src/KipuBankV2.sol\":8653:9662  function deposit(address token, uint256 amount) external payable nonReentrant {... */\n    tag_10:\n      tag_74\n      0x04\n      dup1\n      calldatasize\n      sub\n      dup2\n      add\n      swap1\n      tag_75\n      swap2\n      swap1\n      tag_76\n      jump\t// in\n    tag_75:\n      tag_77\n      jump\t// in\n    tag_74:\n      stop\n        /* \"src/KipuBankV2.sol\":11393:11529  function getUserBalance(address user, address token) external view returns (uint256) {... */\n    tag_11:\n      callvalue\n      dup1\n      iszero\n      tag_78\n      jumpi\n      revert(0x00, 0x00)\n    tag_78:\n      pop\n      tag_79\n      0x04\n      dup1\n      calldatasize\n      sub\n      dup2\n      add\n      swap1\n      tag_80\n      swap2\n      swap1\n      tag_81\n      jump\t// in\n    tag_80:\n      tag_82\n      jump\t// in\n    tag_79:\n      mload(0x40)\n      tag_83\n      swap2\n      swap1\n      tag_47\n      jump\t// in\n    tag_83:\n      mload(0x40)\n      dup1\n      swap2\n      sub\n      swap1\n      return\n        /* \"src/KipuBankV2.sol\":7966:8269  function setPriceFeed(address token, address feed) external onlyRole(BANK_MANAGER_ROLE) {... */\n    tag_12:\n      callvalue\n      dup1\n      iszero\n      tag_84\n      jumpi\n      revert(0x00, 0x00)\n    tag_84:\n      pop\n      tag_85\n      0x04\n      dup1\n      calldatasize\n      sub\n      dup2\n      add\n      swap1\n      tag_86\n      swap2\n      swap1\n      tag_81\n      jump\t// in\n    tag_86:\n      tag_87\n      jump\t// in\n    tag_85:\n      stop\n        /* \"src/KipuBankV2.sol\":1459:1508  AggregatorV3Interface public immutable ethUsdFeed */\n    tag_13:\n      callvalue\n      dup1\n      iszero\n      tag_88\n      jumpi\n      revert(0x00, 0x00)\n    tag_88:\n      pop\n      tag_89\n      tag_90\n      jump\t// in\n    tag_89:\n      mload(0x40)\n      tag_91\n      swap2\n      swap1\n      tag_60\n      jump\t// in\n    tag_91:\n      mload(0x40)\n      dup1\n      swap2\n      sub\n      swap1\n      return\n        /* \"src/KipuBankV2.sol\":1266:1304  uint256 public immutable maxWithdrawal */\n    tag_14:\n      callvalue\n      dup1\n      iszero\n      tag_92\n      jumpi\n      revert(0x00, 0x00)\n    tag_92:\n      pop\n      tag_93\n      tag_94\n      jump\t// in\n    tag_93:\n      mload(0x40)\n      tag_95\n      swap2\n      swap1\n      tag_47\n      jump\t// in\n    tag_95:\n      mload(0x40)\n      dup1\n      swap2\n      sub\n      swap1\n      return\n        /* \"@openzeppelin/contracts/access/AccessControl.sol\":2830:2966  function hasRole(bytes32 role, address account) public view virtual returns (bool) {... */\n    tag_15:\n      callvalue\n      dup1\n      iszero\n      tag_96\n      jumpi\n      revert(0x00, 0x00)\n    tag_96:\n      pop\n      tag_97\n      0x04\n      dup1\n      calldatasize\n      sub\n      dup2\n      add\n      swap1\n      tag_98\n      swap2\n      swap1\n      tag_64\n      jump\t// in\n    tag_98:\n      tag_99\n      jump\t// in\n    tag_97:\n      mload(0x40)\n      tag_100\n      swap2\n      swap1\n      tag_40\n      jump\t// in\n    tag_100:\n      mload(0x40)\n      dup1\n      swap2\n      sub\n      swap1\n      return\n        /* \"src/KipuBankV2.sol\":6658:7156  function supportToken(address token, address feed) external onlyRole(BANK_MANAGER_ROLE) {... */\n    tag_16:\n      callvalue\n      dup1\n      iszero\n      tag_101\n      jumpi\n      revert(0x00, 0x00)\n    tag_101:\n      pop\n      tag_102\n      0x04\n      dup1\n      calldatasize\n      sub\n      dup2\n      add\n      swap1\n      tag_103\n      swap2\n      swap1\n      tag_81\n      jump\t// in\n    tag_103:\n      tag_104\n      jump\t// in\n    tag_102:\n      stop\n        /* \"@openzeppelin/contracts/access/AccessControl.sol\":2196:2245  bytes32 public constant DEFAULT_ADMIN_ROLE = 0x00 */\n    tag_17:\n      callvalue\n      dup1\n      iszero\n      tag_105\n      jumpi\n      revert(0x00, 0x00)\n    tag_105:\n      pop\n      tag_106\n      tag_107\n      jump\t// in\n    tag_106:\n      mload(0x40)\n      tag_108\n      swap2\n      swap1\n      tag_54\n      jump\t// in\n    tag_108:\n      mload(0x40)\n      dup1\n      swap2\n      sub\n      swap1\n      return\n        /* \"src/KipuBankV2.sol\":1364:1409  uint256 public immutable totalBankCapacityUSD */\n    tag_18:\n      callvalue\n      dup1\n      iszero\n      tag_109\n      jumpi\n      revert(0x00, 0x00)\n    tag_109:\n      pop\n      tag_110\n      tag_111\n      jump\t// in\n    tag_110:\n      mload(0x40)\n      tag_112\n      swap2\n      swap1\n      tag_47\n      jump\t// in\n    tag_112:\n      mload(0x40)\n      dup1\n      swap2\n      sub\n      swap1\n      return\n        /* \"src/KipuBankV2.sol\":2017:2067  mapping(address => uint256) public withdrawalCount */\n    tag_19:\n      callvalue\n      dup1\n      iszero\n      tag_113\n      jumpi\n      revert(0x00, 0x00)\n    tag_113:\n      pop\n      tag_114\n      0x04\n      dup1\n      calldatasize\n      sub\n      dup2\n      add\n      swap1\n      tag_115\n      swap2\n      swap1\n      tag_44\n      jump\t// in\n    tag_115:\n      tag_116\n      jump\t// in\n    tag_114:\n      mload(0x40)\n      tag_117\n      swap2\n      swap1\n      tag_47\n      jump\t// in\n    tag_117:\n      mload(0x40)\n      dup1\n      swap2\n      sub\n      swap1\n      return\n        /* \"src/KipuBankV2.sol\":11541:11652  function getSupportedTokens() external  view returns(address[] memory){... */\n    tag_20:\n      callvalue\n      dup1\n      iszero\n      tag_118\n      jumpi\n      revert(0x00, 0x00)\n    tag_118:\n      pop\n      tag_119\n      tag_120\n      jump\t// in\n    tag_119:\n      mload(0x40)\n      tag_121\n      swap2\n      swap1\n      tag_122\n      jump\t// in\n    tag_121:\n      mload(0x40)\n      dup1\n      swap2\n      sub\n      swap1\n      return\n        /* \"@openzeppelin/contracts/access/AccessControl.sol\":4618:4756  function revokeRole(bytes32 role, address account) public virtual onlyRole(getRoleAdmin(role)) {... */\n    tag_21:\n      callvalue\n      dup1\n      iszero\n      tag_123\n      jumpi\n      revert(0x00, 0x00)\n    tag_123:\n      pop\n      tag_124\n      0x04\n      dup1\n      calldatasize\n      sub\n      dup2\n      add\n      swap1\n      tag_125\n      swap2\n      swap1\n      tag_64\n      jump\t// in\n    tag_125:\n      tag_126\n      jump\t// in\n    tag_124:\n      stop\n        /* \"src/KipuBankV2.sol\":2369:2400  uint256 public totalDepositsUSD */\n    tag_22:\n      callvalue\n      dup1\n      iszero\n      tag_127\n      jumpi\n      revert(0x00, 0x00)\n    tag_127:\n      pop\n      tag_128\n      tag_129\n      jump\t// in\n    tag_128:\n      mload(0x40)\n      tag_130\n      swap2\n      swap1\n      tag_47\n      jump\t// in\n    tag_130:\n      mload(0x40)\n      dup1\n      swap2\n      sub\n      swap1\n      return\n        /* \"src/KipuBankV2.sol\":7351:7958  function unsupportToken(address token) external onlyRole(BANK_MANAGER_ROLE) {... */\n    tag_23:\n      callvalue\n      dup1\n      iszero\n      tag_131\n      jumpi\n      revert(0x00, 0x00)\n    tag_131:\n      pop\n      tag_132\n      0x04\n      dup1\n      calldatasize\n      sub\n      dup2\n      add\n      swap1\n      tag_133\n      swap2\n      swap1\n      tag_44\n      jump\t// in\n    tag_133:\n      tag_134\n      jump\t// in\n    tag_132:\n      stop\n        /* \"src/KipuBankV2.sol\":995:1069  bytes32 public constant BANK_MANAGER_ROLE = keccak256(\"BANK_MANAGER_ROLE\") */\n    tag_24:\n      callvalue\n      dup1\n      iszero\n      tag_135\n      jumpi\n      revert(0x00, 0x00)\n    tag_135:\n      pop\n      tag_136\n      tag_137\n      jump\t// in\n    tag_136:\n      mload(0x40)\n      tag_138\n      swap2\n      swap1\n      tag_54\n      jump\t// in\n    tag_138:\n      mload(0x40)\n      dup1\n      swap2\n      sub\n      swap1\n      return\n        /* \"src/KipuBankV2.sol\":10162:11091  function withdraw(address token, uint256 amount) external nonReentrant {... */\n    tag_25:\n      callvalue\n      dup1\n      iszero\n      tag_139\n      jumpi\n      revert(0x00, 0x00)\n    tag_139:\n      pop\n      tag_140\n      0x04\n      dup1\n      calldatasize\n      sub\n      dup2\n      add\n      swap1\n      tag_141\n      swap2\n      swap1\n      tag_76\n      jump\t// in\n    tag_141:\n      tag_142\n      jump\t// in\n    tag_140:\n      stop\n        /* \"src/KipuBankV2.sol\":1903:1950  mapping(address => uint256) public depositCount */\n    tag_26:\n      callvalue\n      dup1\n      iszero\n      tag_143\n      jumpi\n      revert(0x00, 0x00)\n    tag_143:\n      pop\n      tag_144\n      0x04\n      dup1\n      calldatasize\n      sub\n      dup2\n      add\n      swap1\n      tag_145\n      swap2\n      swap1\n      tag_44\n      jump\t// in\n    tag_145:\n      tag_146\n      jump\t// in\n    tag_144:\n      mload(0x40)\n      tag_147\n      swap2\n      swap1\n      tag_47\n      jump\t// in\n    tag_147:\n      mload(0x40)\n      dup1\n      swap2\n      sub\n      swap1\n      return\n        /* \"@openzeppelin/contracts/access/AccessControl.sol\":2541:2743  function supportsInterface(bytes4 interfaceId) public view virtual override returns (bool) {... */\n    tag_38:\n        /* \"@openzeppelin/contracts/access/AccessControl.sol\":2626:2630  bool */\n      0x00\n        /* \"@openzeppelin/contracts/access/AccessControl.sol\":2664:2696  type(IAccessControl).interfaceId */\n      0x7965db0b00000000000000000000000000000000000000000000000000000000\n        /* \"@openzeppelin/contracts/access/AccessControl.sol\":2649:2696  interfaceId == type(IAccessControl).interfaceId */\n      not(0xffffffffffffffffffffffffffffffffffffffffffffffffffffffff)\n      and\n        /* \"@openzeppelin/contracts/access/AccessControl.sol\":2649:2660  interfaceId */\n      dup3\n        /* \"@openzeppelin/contracts/access/AccessControl.sol\":2649:2696  interfaceId == type(IAccessControl).interfaceId */\n      not(0xffffffffffffffffffffffffffffffffffffffffffffffffffffffff)\n      and\n      eq\n        /* \"@openzeppelin/contracts/access/AccessControl.sol\":2649:2736  interfaceId == type(IAccessControl).interfaceId || super.supportsInterface(interfaceId) */\n      dup1\n      tag_149\n      jumpi\n      pop\n        /* \"@openzeppelin/contracts/access/AccessControl.sol\":2700:2736  super.supportsInterface(interfaceId) */\n      tag_150\n        /* \"@openzeppelin/contracts/access/AccessControl.sol\":2724:2735  interfaceId */\n      dup3\n        /* \"@openzeppelin/contracts/access/AccessControl.sol\":2700:2723  super.supportsInterface */\n      tag_151\n        /* \"@openzeppelin/contracts/access/AccessControl.sol\":2700:2736  super.supportsInterface(interfaceId) */\n      jump\t// in\n    tag_150:\n        /* \"@openzeppelin/contracts/access/AccessControl.sol\":2649:2736  interfaceId == type(IAccessControl).interfaceId || super.supportsInterface(interfaceId) */\n    tag_149:\n        /* \"@openzeppelin/contracts/access/AccessControl.sol\":2642:2736  return interfaceId == type(IAccessControl).interfaceId || super.supportsInterface(interfaceId) */\n      swap1\n      pop\n        /* \"@openzeppelin/contracts/access/AccessControl.sol\":2541:2743  function supportsInterface(bytes4 interfaceId) public view virtual override returns (bool) {... */\n      swap2\n      swap1\n      pop\n      jump\t// out\n        /* \"src/KipuBankV2.sol\":12489:12915  function getTotalDepositsInUSD(address user) external view returns (uint256 totalUSD){... */\n    tag_45:\n        /* \"src/KipuBankV2.sol\":12557:12573  uint256 totalUSD */\n      0x00\n        /* \"src/KipuBankV2.sol\":12590:12599  uint256 i */\n      0x00\n        /* \"src/KipuBankV2.sol\":12602:12603  0 */\n      0x00\n        /* \"src/KipuBankV2.sol\":12590:12603  uint256 i = 0 */\n      swap1\n      pop\n        /* \"src/KipuBankV2.sol\":12585:12835  for (uint256 i = 0; i < supportedTokens.length; i++) {... */\n    tag_153:\n        /* \"src/KipuBankV2.sol\":12609:12624  supportedTokens */\n      0x06\n        /* \"src/KipuBankV2.sol\":12609:12631  supportedTokens.length */\n      dup1\n      sload\n      swap1\n      pop\n        /* \"src/KipuBankV2.sol\":12605:12606  i */\n      dup2\n        /* \"src/KipuBankV2.sol\":12605:12631  i < supportedTokens.length */\n      lt\n        /* \"src/KipuBankV2.sol\":12585:12835  for (uint256 i = 0; i < supportedTokens.length; i++) {... */\n      iszero\n      tag_154\n      jumpi\n        /* \"src/KipuBankV2.sol\":12653:12666  address token */\n      0x00\n        /* \"src/KipuBankV2.sol\":12669:12684  supportedTokens */\n      0x06\n        /* \"src/KipuBankV2.sol\":12685:12686  i */\n      dup3\n        /* \"src/KipuBankV2.sol\":12669:12687  supportedTokens[i] */\n      dup2\n      sload\n      dup2\n      lt\n      tag_156\n      jumpi\n      tag_157\n      tag_158\n      jump\t// in\n    tag_157:\n    tag_156:\n      swap1\n      0x00\n      mstore\n      keccak256(0x00, 0x20)\n      add\n      0x00\n      swap1\n      sload\n      swap1\n      0x0100\n      exp\n      swap1\n      div\n      0xffffffffffffffffffffffffffffffffffffffff\n      and\n        /* \"src/KipuBankV2.sol\":12653:12687  address token = supportedTokens[i] */\n      swap1\n      pop\n        /* \"src/KipuBankV2.sol\":12702:12717  uint256 balance */\n      0x00\n        /* \"src/KipuBankV2.sol\":12720:12732  vaultBalance */\n      0x03\n        /* \"src/KipuBankV2.sol\":12720:12738  vaultBalance[user] */\n      0x00\n        /* \"src/KipuBankV2.sol\":12733:12737  user */\n      dup7\n        /* \"src/KipuBankV2.sol\":12720:12738  vaultBalance[user] */\n      0xffffffffffffffffffffffffffffffffffffffff\n      and\n      0xffffffffffffffffffffffffffffffffffffffff\n      and\n      dup2\n      mstore\n      0x20\n      add\n      swap1\n      dup2\n      mstore\n      0x20\n      add\n      0x00\n      keccak256\n        /* \"src/KipuBankV2.sol\":12720:12745  vaultBalance[user][token] */\n      0x00\n        /* \"src/KipuBankV2.sol\":12739:12744  token */\n      dup4\n        /* \"src/KipuBankV2.sol\":12720:12745  vaultBalance[user][token] */\n      0xffffffffffffffffffffffffffffffffffffffff\n      and\n      0xffffffffffffffffffffffffffffffffffffffff\n      and\n      dup2\n      mstore\n      0x20\n      add\n      swap1\n      dup2\n      mstore\n      0x20\n      add\n      0x00\n      keccak256\n      sload\n        /* \"src/KipuBankV2.sol\":12702:12745  uint256 balance = vaultBalance[user][token] */\n      swap1\n      pop\n        /* \"src/KipuBankV2.sol\":12774:12775  0 */\n      0x00\n        /* \"src/KipuBankV2.sol\":12764:12771  balance */\n      dup2\n        /* \"src/KipuBankV2.sol\":12764:12775  balance > 0 */\n      gt\n        /* \"src/KipuBankV2.sol\":12760:12823  if (balance > 0) totalUSD += _convertTokenToUSD(token, balance) */\n      iszero\n      tag_160\n      jumpi\n        /* \"src/KipuBankV2.sol\":12789:12823  _convertTokenToUSD(token, balance) */\n      tag_161\n        /* \"src/KipuBankV2.sol\":12808:12813  token */\n      dup3\n        /* \"src/KipuBankV2.sol\":12815:12822  balance */\n      dup3\n        /* \"src/KipuBankV2.sol\":12789:12807  _convertTokenToUSD */\n      tag_162\n        /* \"src/KipuBankV2.sol\":12789:12823  _convertTokenToUSD(token, balance) */\n      jump\t// in\n    tag_161:\n        /* \"src/KipuBankV2.sol\":12777:12823  totalUSD += _convertTokenToUSD(token, balance) */\n      dup5\n      tag_163\n      swap2\n      swap1\n      tag_164\n      jump\t// in\n    tag_163:\n      swap4\n      pop\n        /* \"src/KipuBankV2.sol\":12760:12823  if (balance > 0) totalUSD += _convertTokenToUSD(token, balance) */\n    tag_160:\n        /* \"src/KipuBankV2.sol\":12638:12835  {... */\n      pop\n      pop\n        /* \"src/KipuBankV2.sol\":12633:12636  i++ */\n      dup1\n      dup1\n      0x01\n      add\n      swap2\n      pop\n      pop\n        /* \"src/KipuBankV2.sol\":12585:12835  for (uint256 i = 0; i < supportedTokens.length; i++) {... */\n      jump(tag_153)\n    tag_154:\n      pop\n        /* \"src/KipuBankV2.sol\":12859:12907  _convertEthToUSD(vaultBalance[user][address(0)]) */\n      tag_165\n        /* \"src/KipuBankV2.sol\":12876:12888  vaultBalance */\n      0x03\n        /* \"src/KipuBankV2.sol\":12876:12894  vaultBalance[user] */\n      0x00\n        /* \"src/KipuBankV2.sol\":12889:12893  user */\n      dup5\n        /* \"src/KipuBankV2.sol\":12876:12894  vaultBalance[user] */\n      0xffffffffffffffffffffffffffffffffffffffff\n      and\n      0xffffffffffffffffffffffffffffffffffffffff\n      and\n      dup2\n      mstore\n      0x20\n      add\n      swap1\n      dup2\n      mstore\n      0x20\n      add\n      0x00\n      keccak256\n        /* \"src/KipuBankV2.sol\":12876:12906  vaultBalance[user][address(0)] */\n      0x00\n        /* \"src/KipuBankV2.sol\":12903:12904  0 */\n      0x00\n        /* \"src/KipuBankV2.sol\":12876:12906  vaultBalance[user][address(0)] */\n      0xffffffffffffffffffffffffffffffffffffffff\n      and\n      0xffffffffffffffffffffffffffffffffffffffff\n      and\n      dup2\n      mstore\n      0x20\n      add\n      swap1\n      dup2\n      mstore\n      0x20\n      add\n      0x00\n      keccak256\n      sload\n        /* \"src/KipuBankV2.sol\":12859:12875  _convertEthToUSD */\n      tag_166\n        /* \"src/KipuBankV2.sol\":12859:12907  _convertEthToUSD(vaultBalance[user][address(0)]) */\n      jump\t// in\n    tag_165:\n        /* \"src/KipuBankV2.sol\":12847:12907  totalUSD += _convertEthToUSD(vaultBalance[user][address(0)]) */\n      dup2\n      tag_167\n      swap2\n      swap1\n      tag_164\n      jump\t// in\n    tag_167:\n      swap1\n      pop\n        /* \"src/KipuBankV2.sol\":12489:12915  function getTotalDepositsInUSD(address user) external view returns (uint256 totalUSD){... */\n      swap2\n      swap1\n      pop\n      jump\t// out\n        /* \"@openzeppelin/contracts/access/AccessControl.sol\":3786:3906  function getRoleAdmin(bytes32 role) public view virtual returns (bytes32) {... */\n    tag_52:\n        /* \"@openzeppelin/contracts/access/AccessControl.sol\":3851:3858  bytes32 */\n      0x00\n        /* \"@openzeppelin/contracts/access/AccessControl.sol\":3877:3883  _roles */\n      0x00\n        /* \"@openzeppelin/contracts/access/AccessControl.sol\":3877:3889  _roles[role] */\n      0x00\n        /* \"@openzeppelin/contracts/access/AccessControl.sol\":3884:3888  role */\n      dup4\n        /* \"@openzeppelin/contracts/access/AccessControl.sol\":3877:3889  _roles[role] */\n      dup2\n      mstore\n      0x20\n      add\n      swap1\n      dup2\n      mstore\n      0x20\n      add\n      0x00\n      keccak256\n        /* \"@openzeppelin/contracts/access/AccessControl.sol\":3877:3899  _roles[role].adminRole */\n      0x01\n      add\n      sload\n        /* \"@openzeppelin/contracts/access/AccessControl.sol\":3870:3899  return _roles[role].adminRole */\n      swap1\n      pop\n        /* \"@openzeppelin/contracts/access/AccessControl.sol\":3786:3906  function getRoleAdmin(bytes32 role) public view virtual returns (bytes32) {... */\n      swap2\n      swap1\n      pop\n      jump\t// out\n        /* \"src/KipuBankV2.sol\":1638:1704  mapping(address => AggregatorV3Interface) public priceFeedForToken */\n    tag_58:\n      mstore(0x20, 0x02)\n      dup1\n      0x00\n      mstore\n      keccak256(0x00, 0x40)\n      0x00\n      swap2\n      pop\n      sload\n      swap1\n      0x0100\n      exp\n      swap1\n      div\n      0xffffffffffffffffffffffffffffffffffffffff\n      and\n      dup2\n      jump\t// out\n        /* \"@openzeppelin/contracts/access/AccessControl.sol\":4202:4338  function grantRole(bytes32 role, address account) public virtual onlyRole(getRoleAdmin(role)) {... */\n    tag_65:\n        /* \"@openzeppelin/contracts/access/AccessControl.sol\":4276:4294  getRoleAdmin(role) */\n      tag_169\n        /* \"@openzeppelin/contracts/access/AccessControl.sol\":4289:4293  role */\n      dup3\n        /* \"@openzeppelin/contracts/access/AccessControl.sol\":4276:4288  getRoleAdmin */\n      tag_52\n        /* \"@openzeppelin/contracts/access/AccessControl.sol\":4276:4294  getRoleAdmin(role) */\n      jump\t// in\n    tag_169:\n        /* \"@openzeppelin/contracts/access/AccessControl.sol\":2473:2489  _checkRole(role) */\n      tag_171\n        /* \"@openzeppelin/contracts/access/AccessControl.sol\":2484:2488  role */\n      dup2\n        /* \"@openzeppelin/contracts/access/AccessControl.sol\":2473:2483  _checkRole */\n      tag_172\n        /* \"@openzeppelin/contracts/access/AccessControl.sol\":2473:2489  _checkRole(role) */\n      jump\t// in\n    tag_171:\n        /* \"@openzeppelin/contracts/access/AccessControl.sol\":4306:4331  _grantRole(role, account) */\n      tag_174\n        /* \"@openzeppelin/contracts/access/AccessControl.sol\":4317:4321  role */\n      dup4\n        /* \"@openzeppelin/contracts/access/AccessControl.sol\":4323:4330  account */\n      dup4\n        /* \"@openzeppelin/contracts/access/AccessControl.sol\":4306:4316  _grantRole */\n      tag_175\n        /* \"@openzeppelin/contracts/access/AccessControl.sol\":4306:4331  _grantRole(role, account) */\n      jump\t// in\n    tag_174:\n      pop\n        /* \"@openzeppelin/contracts/access/AccessControl.sol\":4202:4338  function grantRole(bytes32 role, address account) public virtual onlyRole(getRoleAdmin(role)) {... */\n      pop\n      pop\n      pop\n      jump\t// out\n        /* \"src/KipuBankV2.sol\":12200:12403  function getLatestEthPrice() public view returns (uint256) {... */\n    tag_68:\n        /* \"src/KipuBankV2.sol\":12250:12257  uint256 */\n      0x00\n        /* \"src/KipuBankV2.sol\":12273:12285  int256 price */\n      0x00\n        /* \"src/KipuBankV2.sol\":12295:12305  ethUsdFeed */\n      immutable(\"0xf5e5f362c88d870042340181c8ba3c810faeaf69b620e2b6c1b44f2a54634680\")\n        /* \"src/KipuBankV2.sol\":12295:12321  ethUsdFeed.latestRoundData */\n      0xffffffffffffffffffffffffffffffffffffffff\n      and\n      0xfeaf968c\n        /* \"src/KipuBankV2.sol\":12295:12323  ethUsdFeed.latestRoundData() */\n      mload(0x40)\n      dup2\n      0xffffffff\n      and\n      0xe0\n      shl\n      dup2\n      mstore\n      0x04\n      add\n      0xa0\n      mload(0x40)\n      dup1\n      dup4\n      sub\n      dup2\n      dup7\n      gas\n      staticcall\n      iszero\n      dup1\n      iszero\n      tag_178\n      jumpi\n      returndatacopy(0x00, 0x00, returndatasize)\n      revert(0x00, returndatasize)\n    tag_178:\n      pop\n      pop\n      pop\n      pop\n      mload(0x40)\n      returndatasize\n      not(0x1f)\n      0x1f\n      dup3\n      add\n      and\n      dup3\n      add\n      dup1\n      0x40\n      mstore\n      pop\n      dup2\n      add\n      swap1\n      tag_179\n      swap2\n      swap1\n      tag_180\n      jump\t// in\n    tag_179:\n        /* \"src/KipuBankV2.sol\":12270:12323  (, int256 price, , , ) = ethUsdFeed.latestRoundData() */\n      pop\n      pop\n      pop\n      swap2\n      pop\n      pop\n        /* \"src/KipuBankV2.sol\":12389:12394  price */\n      dup1\n        /* \"src/KipuBankV2.sol\":12374:12395  return uint256(price) */\n      swap2\n      pop\n      pop\n        /* \"src/KipuBankV2.sol\":12200:12403  function getLatestEthPrice() public view returns (uint256) {... */\n      swap1\n      jump\t// out\n        /* \"@openzeppelin/contracts/access/AccessControl.sol\":5304:5549  function renounceRole(bytes32 role, address callerConfirmation) public virtual {... */\n    tag_73:\n        /* \"@openzeppelin/contracts/access/AccessControl.sol\":5419:5431  _msgSender() */\n      tag_182\n        /* \"@openzeppelin/contracts/access/AccessControl.sol\":5419:5429  _msgSender */\n      tag_183\n        /* \"@openzeppelin/contracts/access/AccessControl.sol\":5419:5431  _msgSender() */\n      jump\t// in\n    tag_182:\n        /* \"@openzeppelin/contracts/access/AccessControl.sol\":5397:5431  callerConfirmation != _msgSender() */\n      0xffffffffffffffffffffffffffffffffffffffff\n      and\n        /* \"@openzeppelin/contracts/access/AccessControl.sol\":5397:5415  callerConfirmation */\n      dup2\n        /* \"@openzeppelin/contracts/access/AccessControl.sol\":5397:5431  callerConfirmation != _msgSender() */\n      0xffffffffffffffffffffffffffffffffffffffff\n      and\n      eq\n        /* \"@openzeppelin/contracts/access/AccessControl.sol\":5393:5495  if (callerConfirmation != _msgSender()) {... */\n      tag_184\n      jumpi\n        /* \"@openzeppelin/contracts/access/AccessControl.sol\":5454:5484  AccessControlBadConfirmation() */\n      mload(0x40)\n      0x6697b23200000000000000000000000000000000000000000000000000000000\n      dup2\n      mstore\n      0x04\n      add\n      mload(0x40)\n      dup1\n      swap2\n      sub\n      swap1\n      revert\n        /* \"@openzeppelin/contracts/access/AccessControl.sol\":5393:5495  if (callerConfirmation != _msgSender()) {... */\n    tag_184:\n        /* \"@openzeppelin/contracts/access/AccessControl.sol\":5505:5542  _revokeRole(role, callerConfirmation) */\n      tag_185\n        /* \"@openzeppelin/contracts/access/AccessControl.sol\":5517:5521  role */\n      dup3\n        /* \"@openzeppelin/contracts/access/AccessControl.sol\":5523:5541  callerConfirmation */\n      dup3\n        /* \"@openzeppelin/contracts/access/AccessControl.sol\":5505:5516  _revokeRole */\n      tag_186\n        /* \"@openzeppelin/contracts/access/AccessControl.sol\":5505:5542  _revokeRole(role, callerConfirmation) */\n      jump\t// in\n    tag_185:\n      pop\n        /* \"@openzeppelin/contracts/access/AccessControl.sol\":5304:5549  function renounceRole(bytes32 role, address callerConfirmation) public virtual {... */\n      pop\n      pop\n      jump\t// out\n        /* \"src/KipuBankV2.sol\":8653:9662  function deposit(address token, uint256 amount) external payable nonReentrant {... */\n    tag_77:\n        /* \"@openzeppelin/contracts/security/ReentrancyGuard.sol\":2261:2282  _nonReentrantBefore() */\n      tag_188\n        /* \"@openzeppelin/contracts/security/ReentrancyGuard.sol\":2261:2280  _nonReentrantBefore */\n      tag_189\n        /* \"@openzeppelin/contracts/security/ReentrancyGuard.sol\":2261:2282  _nonReentrantBefore() */\n      jump\t// in\n    tag_188:\n        /* \"src/KipuBankV2.sol\":8742:8759  uint256 usdValue6 */\n      0x00\n        /* \"src/KipuBankV2.sol\":8791:8792  0 */\n      0x00\n        /* \"src/KipuBankV2.sol\":8774:8793  token == address(0) */\n      0xffffffffffffffffffffffffffffffffffffffff\n      and\n        /* \"src/KipuBankV2.sol\":8774:8779  token */\n      dup4\n        /* \"src/KipuBankV2.sol\":8774:8793  token == address(0) */\n      0xffffffffffffffffffffffffffffffffffffffff\n      and\n      sub\n        /* \"src/KipuBankV2.sol\":8770:9330  if (token == address(0)) {... */\n      tag_191\n      jumpi\n        /* \"src/KipuBankV2.sol\":8826:8827  0 */\n      0x00\n        /* \"src/KipuBankV2.sol\":8813:8822  msg.value */\n      callvalue\n        /* \"src/KipuBankV2.sol\":8813:8827  msg.value == 0 */\n      sub\n        /* \"src/KipuBankV2.sol\":8809:8859  if (msg.value == 0) revert ZeroDepositNotAllowed() */\n      tag_192\n      jumpi\n        /* \"src/KipuBankV2.sol\":8836:8859  ZeroDepositNotAllowed() */\n      mload(0x40)\n      0x8615019900000000000000000000000000000000000000000000000000000000\n      dup2\n      mstore\n      0x04\n      add\n      mload(0x40)\n      dup1\n      swap2\n      sub\n      swap1\n      revert\n        /* \"src/KipuBankV2.sol\":8809:8859  if (msg.value == 0) revert ZeroDepositNotAllowed() */\n    tag_192:\n        /* \"src/KipuBankV2.sol\":8886:8913  _convertEthToUSD(msg.value) */\n      tag_193\n        /* \"src/KipuBankV2.sol\":8903:8912  msg.value */\n      callvalue\n        /* \"src/KipuBankV2.sol\":8886:8902  _convertEthToUSD */\n      tag_166\n        /* \"src/KipuBankV2.sol\":8886:8913  _convertEthToUSD(msg.value) */\n      jump\t// in\n    tag_193:\n        /* \"src/KipuBankV2.sol\":8874:8913  usdValue6 = _convertEthToUSD(msg.value) */\n      swap1\n      pop\n        /* \"src/KipuBankV2.sol\":8968:8977  msg.value */\n      callvalue\n        /* \"src/KipuBankV2.sol\":8928:8940  vaultBalance */\n      0x03\n        /* \"src/KipuBankV2.sol\":8928:8952  vaultBalance[msg.sender] */\n      0x00\n        /* \"src/KipuBankV2.sol\":8941:8951  msg.sender */\n      caller\n        /* \"src/KipuBankV2.sol\":8928:8952  vaultBalance[msg.sender] */\n      0xffffffffffffffffffffffffffffffffffffffff\n      and\n      0xffffffffffffffffffffffffffffffffffffffff\n      and\n      dup2\n      mstore\n      0x20\n      add\n      swap1\n      dup2\n      mstore\n      0x20\n      add\n      0x00\n      keccak256\n        /* \"src/KipuBankV2.sol\":8928:8964  vaultBalance[msg.sender][address(0)] */\n      0x00\n        /* \"src/KipuBankV2.sol\":8961:8962  0 */\n      0x00\n        /* \"src/KipuBankV2.sol\":8928:8964  vaultBalance[msg.sender][address(0)] */\n      0xffffffffffffffffffffffffffffffffffffffff\n      and\n      0xffffffffffffffffffffffffffffffffffffffff\n      and\n      dup2\n      mstore\n      0x20\n      add\n      swap1\n      dup2\n      mstore\n      0x20\n      add\n      0x00\n      keccak256\n      0x00\n        /* \"src/KipuBankV2.sol\":8928:8977  vaultBalance[msg.sender][address(0)] += msg.value */\n      dup3\n      dup3\n      sload\n      tag_194\n      swap2\n      swap1\n      tag_164\n      jump\t// in\n    tag_194:\n      swap3\n      pop\n      pop\n      dup2\n      swap1\n      sstore\n      pop\n        /* \"src/KipuBankV2.sol\":8770:9330  if (token == address(0)) {... */\n      jump(tag_195)\n    tag_191:\n        /* \"src/KipuBankV2.sol\":9012:9028  isTokenSupported */\n      0x07\n        /* \"src/KipuBankV2.sol\":9012:9035  isTokenSupported[token] */\n      0x00\n        /* \"src/KipuBankV2.sol\":9029:9034  token */\n      dup5\n        /* \"src/KipuBankV2.sol\":9012:9035  isTokenSupported[token] */\n      0xffffffffffffffffffffffffffffffffffffffff\n      and\n      0xffffffffffffffffffffffffffffffffffffffff\n      and\n      dup2\n      mstore\n      0x20\n      add\n      swap1\n      dup2\n      mstore\n      0x20\n      add\n      0x00\n      keccak256\n      0x00\n      swap1\n      sload\n      swap1\n      0x0100\n      exp\n      swap1\n      div\n      0xff\n      and\n        /* \"src/KipuBankV2.sol\":9007:9063  if (!isTokenSupported[token]) revert TokenNotSupported() */\n      tag_196\n      jumpi\n        /* \"src/KipuBankV2.sol\":9044:9063  TokenNotSupported() */\n      mload(0x40)\n      0x3dd1b30500000000000000000000000000000000000000000000000000000000\n      dup2\n      mstore\n      0x04\n      add\n      mload(0x40)\n      dup1\n      swap2\n      sub\n      swap1\n      revert\n        /* \"src/KipuBankV2.sol\":9007:9063  if (!isTokenSupported[token]) revert TokenNotSupported() */\n    tag_196:\n        /* \"src/KipuBankV2.sol\":9091:9092  0 */\n      0x00\n        /* \"src/KipuBankV2.sol\":9081:9087  amount */\n      dup3\n        /* \"src/KipuBankV2.sol\":9081:9092  amount == 0 */\n      sub\n        /* \"src/KipuBankV2.sol\":9077:9124  if (amount == 0) revert ZeroDepositNotAllowed() */\n      tag_197\n      jumpi\n        /* \"src/KipuBankV2.sol\":9101:9124  ZeroDepositNotAllowed() */\n      mload(0x40)\n      0x8615019900000000000000000000000000000000000000000000000000000000\n      dup2\n      mstore\n      0x04\n      add\n      mload(0x40)\n      dup1\n      swap2\n      sub\n      swap1\n      revert\n        /* \"src/KipuBankV2.sol\":9077:9124  if (amount == 0) revert ZeroDepositNotAllowed() */\n    tag_197:\n        /* \"src/KipuBankV2.sol\":9138:9203  IERC20(token).safeTransferFrom(msg.sender, address(this), amount) */\n      tag_198\n        /* \"src/KipuBankV2.sol\":9169:9179  msg.sender */\n      caller\n        /* \"src/KipuBankV2.sol\":9189:9193  this */\n      address\n        /* \"src/KipuBankV2.sol\":9196:9202  amount */\n      dup5\n        /* \"src/KipuBankV2.sol\":9145:9150  token */\n      dup7\n        /* \"src/KipuBankV2.sol\":9138:9168  IERC20(token).safeTransferFrom */\n      0xffffffffffffffffffffffffffffffffffffffff\n      and\n      tag_199\n      swap1\n        /* \"src/KipuBankV2.sol\":9138:9203  IERC20(token).safeTransferFrom(msg.sender, address(this), amount) */\n      swap4\n      swap3\n      swap2\n      swap1\n      0xffffffff\n      and\n      jump\t// in\n    tag_198:\n        /* \"src/KipuBankV2.sol\":9229:9262  _convertTokenToUSD(token, amount) */\n      tag_200\n        /* \"src/KipuBankV2.sol\":9248:9253  token */\n      dup4\n        /* \"src/KipuBankV2.sol\":9255:9261  amount */\n      dup4\n        /* \"src/KipuBankV2.sol\":9229:9247  _convertTokenToUSD */\n      tag_162\n        /* \"src/KipuBankV2.sol\":9229:9262  _convertTokenToUSD(token, amount) */\n      jump\t// in\n    tag_200:\n        /* \"src/KipuBankV2.sol\":9217:9262  usdValue6 = _convertTokenToUSD(token, amount) */\n      swap1\n      pop\n        /* \"src/KipuBankV2.sol\":9311:9317  amount */\n      dup2\n        /* \"src/KipuBankV2.sol\":9276:9288  vaultBalance */\n      0x03\n        /* \"src/KipuBankV2.sol\":9276:9300  vaultBalance[msg.sender] */\n      0x00\n        /* \"src/KipuBankV2.sol\":9289:9299  msg.sender */\n      caller\n        /* \"src/KipuBankV2.sol\":9276:9300  vaultBalance[msg.sender] */\n      0xffffffffffffffffffffffffffffffffffffffff\n      and\n      0xffffffffffffffffffffffffffffffffffffffff\n      and\n      dup2\n      mstore\n      0x20\n      add\n      swap1\n      dup2\n      mstore\n      0x20\n      add\n      0x00\n      keccak256\n        /* \"src/KipuBankV2.sol\":9276:9307  vaultBalance[msg.sender][token] */\n      0x00\n        /* \"src/KipuBankV2.sol\":9301:9306  token */\n      dup6\n        /* \"src/KipuBankV2.sol\":9276:9307  vaultBalance[msg.sender][token] */\n      0xffffffffffffffffffffffffffffffffffffffff\n      and\n      0xffffffffffffffffffffffffffffffffffffffff\n      and\n      dup2\n      mstore\n      0x20\n      add\n      swap1\n      dup2\n      mstore\n      0x20\n      add\n      0x00\n      keccak256\n      0x00\n        /* \"src/KipuBankV2.sol\":9276:9317  vaultBalance[msg.sender][token] += amount */\n      dup3\n      dup3\n      sload\n      tag_201\n      swap2\n      swap1\n      tag_164\n      jump\t// in\n    tag_201:\n      swap3\n      pop\n      pop\n      dup2\n      swap1\n      sstore\n      pop\n        /* \"src/KipuBankV2.sol\":8770:9330  if (token == address(0)) {... */\n    tag_195:\n        /* \"src/KipuBankV2.sol\":9350:9369  uint256 newTotalUSD */\n      0x00\n        /* \"src/KipuBankV2.sol\":9391:9400  usdValue6 */\n      dup2\n        /* \"src/KipuBankV2.sol\":9372:9388  totalDepositsUSD */\n      sload(0x08)\n        /* \"src/KipuBankV2.sol\":9372:9400  totalDepositsUSD + usdValue6 */\n      tag_202\n      swap2\n      swap1\n      tag_164\n      jump\t// in\n    tag_202:\n        /* \"src/KipuBankV2.sol\":9350:9400  uint256 newTotalUSD = totalDepositsUSD + usdValue6 */\n      swap1\n      pop\n        /* \"src/KipuBankV2.sol\":9429:9449  totalBankCapacityUSD */\n      immutable(\"0x764ce1cb8d17081194abba71ad56d073244079544f5df0278f53a6395c58adf1\")\n        /* \"src/KipuBankV2.sol\":9415:9426  newTotalUSD */\n      dup2\n        /* \"src/KipuBankV2.sol\":9415:9449  newTotalUSD > totalBankCapacityUSD */\n      gt\n        /* \"src/KipuBankV2.sol\":9411:9475  if (newTotalUSD > totalBankCapacityUSD) revert BankCapExceeded() */\n      iszero\n      tag_203\n      jumpi\n        /* \"src/KipuBankV2.sol\":9458:9475  BankCapExceeded() */\n      mload(0x40)\n      0x448f3ca800000000000000000000000000000000000000000000000000000000\n      dup2\n      mstore\n      0x04\n      add\n      mload(0x40)\n      dup1\n      swap2\n      sub\n      swap1\n      revert\n        /* \"src/KipuBankV2.sol\":9411:9475  if (newTotalUSD > totalBankCapacityUSD) revert BankCapExceeded() */\n    tag_203:\n        /* \"src/KipuBankV2.sol\":9505:9516  newTotalUSD */\n      dup1\n        /* \"src/KipuBankV2.sol\":9486:9502  totalDepositsUSD */\n      0x08\n        /* \"src/KipuBankV2.sol\":9486:9516  totalDepositsUSD = newTotalUSD */\n      dup2\n      swap1\n      sstore\n      pop\n        /* \"src/KipuBankV2.sol\":9527:9539  depositCount */\n      0x04\n        /* \"src/KipuBankV2.sol\":9527:9551  depositCount[msg.sender] */\n      0x00\n        /* \"src/KipuBankV2.sol\":9540:9550  msg.sender */\n      caller\n        /* \"src/KipuBankV2.sol\":9527:9551  depositCount[msg.sender] */\n      0xffffffffffffffffffffffffffffffffffffffff\n      and\n      0xffffffffffffffffffffffffffffffffffffffff\n      and\n      dup2\n      mstore\n      0x20\n      add\n      swap1\n      dup2\n      mstore\n      0x20\n      add\n      0x00\n      keccak256\n      0x00\n        /* \"src/KipuBankV2.sol\":9527:9553  depositCount[msg.sender]++ */\n      dup2\n      sload\n      dup1\n      swap3\n      swap2\n      swap1\n      tag_204\n      swap1\n      tag_205\n      jump\t// in\n    tag_204:\n      swap2\n      swap1\n      pop\n      sstore\n      pop\n        /* \"src/KipuBankV2.sol\":9595:9600  token */\n      dup4\n        /* \"src/KipuBankV2.sol\":9571:9654  DepositMade(msg.sender, token, token == address(0) ? msg.value : amount, usdValue6) */\n      0xffffffffffffffffffffffffffffffffffffffff\n      and\n        /* \"src/KipuBankV2.sol\":9583:9593  msg.sender */\n      caller\n        /* \"src/KipuBankV2.sol\":9571:9654  DepositMade(msg.sender, token, token == address(0) ? msg.value : amount, usdValue6) */\n      0xffffffffffffffffffffffffffffffffffffffff\n      and\n      0x57bad7e3c9efecf6e1f60bbd846b999e9da4a409224287a8df09779f2330135e\n        /* \"src/KipuBankV2.sol\":9619:9620  0 */\n      0x00\n        /* \"src/KipuBankV2.sol\":9602:9621  token == address(0) */\n      0xffffffffffffffffffffffffffffffffffffffff\n      and\n        /* \"src/KipuBankV2.sol\":9602:9607  token */\n      dup8\n        /* \"src/KipuBankV2.sol\":9602:9621  token == address(0) */\n      0xffffffffffffffffffffffffffffffffffffffff\n      and\n      eq\n        /* \"src/KipuBankV2.sol\":9602:9642  token == address(0) ? msg.value : amount */\n      tag_206\n      jumpi\n        /* \"src/KipuBankV2.sol\":9636:9642  amount */\n      dup6\n        /* \"src/KipuBankV2.sol\":9602:9642  token == address(0) ? msg.value : amount */\n      jump(tag_207)\n    tag_206:\n        /* \"src/KipuBankV2.sol\":9624:9633  msg.value */\n      callvalue\n        /* \"src/KipuBankV2.sol\":9602:9642  token == address(0) ? msg.value : amount */\n    tag_207:\n        /* \"src/KipuBankV2.sol\":9644:9653  usdValue6 */\n      dup6\n        /* \"src/KipuBankV2.sol\":9571:9654  DepositMade(msg.sender, token, token == address(0) ? msg.value : amount, usdValue6) */\n      mload(0x40)\n      tag_208\n      swap3\n      swap2\n      swap1\n      tag_209\n      jump\t// in\n    tag_208:\n      mload(0x40)\n      dup1\n      swap2\n      sub\n      swap1\n      log3\n        /* \"src/KipuBankV2.sol\":8731:9662  {... */\n      pop\n      pop\n        /* \"@openzeppelin/contracts/security/ReentrancyGuard.sol\":2303:2323  _nonReentrantAfter() */\n      tag_210\n        /* \"@openzeppelin/contracts/security/ReentrancyGuard.sol\":2303:2321  _nonReentrantAfter */\n      tag_211\n        /* \"@openzeppelin/contracts/security/ReentrancyGuard.sol\":2303:2323  _nonReentrantAfter() */\n      jump\t// in\n    tag_210:\n        /* \"src/KipuBankV2.sol\":8653:9662  function deposit(address token, uint256 amount) external payable nonReentrant {... */\n      pop\n      pop\n      jump\t// out\n        /* \"src/KipuBankV2.sol\":11393:11529  function getUserBalance(address user, address token) external view returns (uint256) {... */\n    tag_82:\n        /* \"src/KipuBankV2.sol\":11469:11476  uint256 */\n      0x00\n        /* \"src/KipuBankV2.sol\":11496:11508  vaultBalance */\n      0x03\n        /* \"src/KipuBankV2.sol\":11496:11514  vaultBalance[user] */\n      0x00\n        /* \"src/KipuBankV2.sol\":11509:11513  user */\n      dup5\n        /* \"src/KipuBankV2.sol\":11496:11514  vaultBalance[user] */\n      0xffffffffffffffffffffffffffffffffffffffff\n      and\n      0xffffffffffffffffffffffffffffffffffffffff\n      and\n      dup2\n      mstore\n      0x20\n      add\n      swap1\n      dup2\n      mstore\n      0x20\n      add\n      0x00\n      keccak256\n        /* \"src/KipuBankV2.sol\":11496:11521  vaultBalance[user][token] */\n      0x00\n        /* \"src/KipuBankV2.sol\":11515:11520  token */\n      dup4\n        /* \"src/KipuBankV2.sol\":11496:11521  vaultBalance[user][token] */\n      0xffffffffffffffffffffffffffffffffffffffff\n      and\n      0xffffffffffffffffffffffffffffffffffffffff\n      and\n      dup2\n      mstore\n      0x20\n      add\n      swap1\n      dup2\n      mstore\n      0x20\n      add\n      0x00\n      keccak256\n      sload\n        /* \"src/KipuBankV2.sol\":11489:11521  return vaultBalance[user][token] */\n      swap1\n      pop\n        /* \"src/KipuBankV2.sol\":11393:11529  function getUserBalance(address user, address token) external view returns (uint256) {... */\n      swap3\n      swap2\n      pop\n      pop\n      jump\t// out\n        /* \"src/KipuBankV2.sol\":7966:8269  function setPriceFeed(address token, address feed) external onlyRole(BANK_MANAGER_ROLE) {... */\n    tag_87:\n        /* \"src/KipuBankV2.sol\":1039:1069  keccak256(\"BANK_MANAGER_ROLE\") */\n      0x2d95a8186db49da8bd2356c70cf02038f7de0d6ed39f6766fe2d93d5e7785616\n        /* \"@openzeppelin/contracts/access/AccessControl.sol\":2473:2489  _checkRole(role) */\n      tag_214\n        /* \"@openzeppelin/contracts/access/AccessControl.sol\":2484:2488  role */\n      dup2\n        /* \"@openzeppelin/contracts/access/AccessControl.sol\":2473:2483  _checkRole */\n      tag_172\n        /* \"@openzeppelin/contracts/access/AccessControl.sol\":2473:2489  _checkRole(role) */\n      jump\t// in\n    tag_214:\n        /* \"src/KipuBankV2.sol\":8086:8087  0 */\n      0x00\n        /* \"src/KipuBankV2.sol\":8069:8088  token == address(0) */\n      0xffffffffffffffffffffffffffffffffffffffff\n      and\n        /* \"src/KipuBankV2.sol\":8069:8074  token */\n      dup4\n        /* \"src/KipuBankV2.sol\":8069:8088  token == address(0) */\n      0xffffffffffffffffffffffffffffffffffffffff\n      and\n      sub\n        /* \"src/KipuBankV2.sol\":8065:8112  if (token == address(0)) revert InvalidOracle() */\n      tag_216\n      jumpi\n        /* \"src/KipuBankV2.sol\":8097:8112  InvalidOracle() */\n      mload(0x40)\n      0x9589a27d00000000000000000000000000000000000000000000000000000000\n      dup2\n      mstore\n      0x04\n      add\n      mload(0x40)\n      dup1\n      swap2\n      sub\n      swap1\n      revert\n        /* \"src/KipuBankV2.sol\":8065:8112  if (token == address(0)) revert InvalidOracle() */\n    tag_216:\n        /* \"src/KipuBankV2.sol\":8215:8219  feed */\n      dup2\n        /* \"src/KipuBankV2.sol\":8166:8183  priceFeedForToken */\n      0x02\n        /* \"src/KipuBankV2.sol\":8166:8190  priceFeedForToken[token] */\n      0x00\n        /* \"src/KipuBankV2.sol\":8184:8189  token */\n      dup6\n        /* \"src/KipuBankV2.sol\":8166:8190  priceFeedForToken[token] */\n      0xffffffffffffffffffffffffffffffffffffffff\n      and\n      0xffffffffffffffffffffffffffffffffffffffff\n      and\n      dup2\n      mstore\n      0x20\n      add\n      swap1\n      dup2\n      mstore\n      0x20\n      add\n      0x00\n      keccak256\n      0x00\n        /* \"src/KipuBankV2.sol\":8166:8220  priceFeedForToken[token] = AggregatorV3Interface(feed) */\n      0x0100\n      exp\n      dup2\n      sload\n      dup2\n      0xffffffffffffffffffffffffffffffffffffffff\n      mul\n      not\n      and\n      swap1\n      dup4\n      0xffffffffffffffffffffffffffffffffffffffff\n      and\n      mul\n      or\n      swap1\n      sstore\n      pop\n        /* \"src/KipuBankV2.sol\":8256:8260  feed */\n      dup2\n        /* \"src/KipuBankV2.sol\":8236:8261  PriceFeedSet(token, feed) */\n      0xffffffffffffffffffffffffffffffffffffffff\n      and\n        /* \"src/KipuBankV2.sol\":8249:8254  token */\n      dup4\n        /* \"src/KipuBankV2.sol\":8236:8261  PriceFeedSet(token, feed) */\n      0xffffffffffffffffffffffffffffffffffffffff\n      and\n      0xd2d8394cf7549a5ddbc2ba3dd7b2de8d53c891472d1f2907008ed6a10045fdae\n      mload(0x40)\n      mload(0x40)\n      dup1\n      swap2\n      sub\n      swap1\n      log3\n        /* \"src/KipuBankV2.sol\":7966:8269  function setPriceFeed(address token, address feed) external onlyRole(BANK_MANAGER_ROLE) {... */\n      pop\n      pop\n      pop\n      jump\t// out\n        /* \"src/KipuBankV2.sol\":1459:1508  AggregatorV3Interface public immutable ethUsdFeed */\n    tag_90:\n      immutable(\"0xf5e5f362c88d870042340181c8ba3c810faeaf69b620e2b6c1b44f2a54634680\")\n      dup2\n      jump\t// out\n        /* \"src/KipuBankV2.sol\":1266:1304  uint256 public immutable maxWithdrawal */\n    tag_94:\n      immutable(\"0xcc80724d438a73e21efb48933a149f5b95ade624d1778284bcca17773a1c9da3\")\n      dup2\n      jump\t// out\n        /* \"@openzeppelin/contracts/access/AccessControl.sol\":2830:2966  function hasRole(bytes32 role, address account) public view virtual returns (bool) {... */\n    tag_99:\n        /* \"@openzeppelin/contracts/access/AccessControl.sol\":2907:2911  bool */\n      0x00\n        /* \"@openzeppelin/contracts/access/AccessControl.sol\":2930:2936  _roles */\n      0x00\n        /* \"@openzeppelin/contracts/access/AccessControl.sol\":2930:2942  _roles[role] */\n      0x00\n        /* \"@openzeppelin/contracts/access/AccessControl.sol\":2937:2941  role */\n      dup5\n        /* \"@openzeppelin/contracts/access/AccessControl.sol\":2930:2942  _roles[role] */\n      dup2\n      mstore\n      0x20\n      add\n      swap1\n      dup2\n      mstore\n      0x20\n      add\n      0x00\n      keccak256\n        /* \"@openzeppelin/contracts/access/AccessControl.sol\":2930:2950  _roles[role].hasRole */\n      0x00\n      add\n        /* \"@openzeppelin/contracts/access/AccessControl.sol\":2930:2959  _roles[role].hasRole[account] */\n      0x00\n        /* \"@openzeppelin/contracts/access/AccessControl.sol\":2951:2958  account */\n      dup4\n        /* \"@openzeppelin/contracts/access/AccessControl.sol\":2930:2959  _roles[role].hasRole[account] */\n      0xffffffffffffffffffffffffffffffffffffffff\n      and\n      0xffffffffffffffffffffffffffffffffffffffff\n      and\n      dup2\n      mstore\n      0x20\n      add\n      swap1\n      dup2\n      mstore\n      0x20\n      add\n      0x00\n      keccak256\n      0x00\n      swap1\n      sload\n      swap1\n      0x0100\n      exp\n      swap1\n      div\n      0xff\n      and\n        /* \"@openzeppelin/contracts/access/AccessControl.sol\":2923:2959  return _roles[role].hasRole[account] */\n      swap1\n      pop\n        /* \"@openzeppelin/contracts/access/AccessControl.sol\":2830:2966  function hasRole(bytes32 role, address account) public view virtual returns (bool) {... */\n      swap3\n      swap2\n      pop\n      pop\n      jump\t// out\n        /* \"src/KipuBankV2.sol\":6658:7156  function supportToken(address token, address feed) external onlyRole(BANK_MANAGER_ROLE) {... */\n    tag_104:\n        /* \"src/KipuBankV2.sol\":1039:1069  keccak256(\"BANK_MANAGER_ROLE\") */\n      0x2d95a8186db49da8bd2356c70cf02038f7de0d6ed39f6766fe2d93d5e7785616\n        /* \"@openzeppelin/contracts/access/AccessControl.sol\":2473:2489  _checkRole(role) */\n      tag_219\n        /* \"@openzeppelin/contracts/access/AccessControl.sol\":2484:2488  role */\n      dup2\n        /* \"@openzeppelin/contracts/access/AccessControl.sol\":2473:2483  _checkRole */\n      tag_172\n        /* \"@openzeppelin/contracts/access/AccessControl.sol\":2473:2489  _checkRole(role) */\n      jump\t// in\n    tag_219:\n        /* \"src/KipuBankV2.sol\":6778:6779  0 */\n      0x00\n        /* \"src/KipuBankV2.sol\":6761:6780  token == address(0) */\n      0xffffffffffffffffffffffffffffffffffffffff\n      and\n        /* \"src/KipuBankV2.sol\":6761:6766  token */\n      dup4\n        /* \"src/KipuBankV2.sol\":6761:6780  token == address(0) */\n      0xffffffffffffffffffffffffffffffffffffffff\n      and\n      sub\n        /* \"src/KipuBankV2.sol\":6757:6808  if (token == address(0)) revert TokenNotSupported() */\n      tag_221\n      jumpi\n        /* \"src/KipuBankV2.sol\":6789:6808  TokenNotSupported() */\n      mload(0x40)\n      0x3dd1b30500000000000000000000000000000000000000000000000000000000\n      dup2\n      mstore\n      0x04\n      add\n      mload(0x40)\n      dup1\n      swap2\n      sub\n      swap1\n      revert\n        /* \"src/KipuBankV2.sol\":6757:6808  if (token == address(0)) revert TokenNotSupported() */\n    tag_221:\n        /* \"src/KipuBankV2.sol\":6824:6840  isTokenSupported */\n      0x07\n        /* \"src/KipuBankV2.sol\":6824:6847  isTokenSupported[token] */\n      0x00\n        /* \"src/KipuBankV2.sol\":6841:6846  token */\n      dup5\n        /* \"src/KipuBankV2.sol\":6824:6847  isTokenSupported[token] */\n      0xffffffffffffffffffffffffffffffffffffffff\n      and\n      0xffffffffffffffffffffffffffffffffffffffff\n      and\n      dup2\n      mstore\n      0x20\n      add\n      swap1\n      dup2\n      mstore\n      0x20\n      add\n      0x00\n      keccak256\n      0x00\n      swap1\n      sload\n      swap1\n      0x0100\n      exp\n      swap1\n      div\n      0xff\n      and\n        /* \"src/KipuBankV2.sol\":6819:6989  if (!isTokenSupported[token]) {... */\n      tag_222\n      jumpi\n        /* \"src/KipuBankV2.sol\":6864:6879  supportedTokens */\n      0x06\n        /* \"src/KipuBankV2.sol\":6885:6890  token */\n      dup4\n        /* \"src/KipuBankV2.sol\":6864:6891  supportedTokens.push(token) */\n      swap1\n      dup1\n      0x01\n      dup2\n      sload\n      add\n      dup1\n      dup3\n      sstore\n      dup1\n      swap2\n      pop\n      pop\n      0x01\n      swap1\n      sub\n      swap1\n      0x00\n      mstore\n      keccak256(0x00, 0x20)\n      add\n      0x00\n      swap1\n      swap2\n      swap1\n      swap2\n      swap1\n      swap2\n      0x0100\n      exp\n      dup2\n      sload\n      dup2\n      0xffffffffffffffffffffffffffffffffffffffff\n      mul\n      not\n      and\n      swap1\n      dup4\n      0xffffffffffffffffffffffffffffffffffffffff\n      and\n      mul\n      or\n      swap1\n      sstore\n      pop\n        /* \"src/KipuBankV2.sol\":6932:6936  true */\n      0x01\n        /* \"src/KipuBankV2.sol\":6906:6922  isTokenSupported */\n      0x07\n        /* \"src/KipuBankV2.sol\":6906:6929  isTokenSupported[token] */\n      0x00\n        /* \"src/KipuBankV2.sol\":6923:6928  token */\n      dup6\n        /* \"src/KipuBankV2.sol\":6906:6929  isTokenSupported[token] */\n      0xffffffffffffffffffffffffffffffffffffffff\n      and\n      0xffffffffffffffffffffffffffffffffffffffff\n      and\n      dup2\n      mstore\n      0x20\n      add\n      swap1\n      dup2\n      mstore\n      0x20\n      add\n      0x00\n      keccak256\n      0x00\n        /* \"src/KipuBankV2.sol\":6906:6936  isTokenSupported[token] = true */\n      0x0100\n      exp\n      dup2\n      sload\n      dup2\n      0xff\n      mul\n      not\n      and\n      swap1\n      dup4\n      iszero\n      iszero\n      mul\n      or\n      swap1\n      sstore\n      pop\n        /* \"src/KipuBankV2.sol\":6971:6976  token */\n      dup3\n        /* \"src/KipuBankV2.sol\":6956:6977  TokenSupported(token) */\n      0xffffffffffffffffffffffffffffffffffffffff\n      and\n      0xea3145306a87baeba6bb1a8b5c8d3744f840a81cb436b3509f64fc978600cdfb\n      mload(0x40)\n      mload(0x40)\n      dup1\n      swap2\n      sub\n      swap1\n      log2\n        /* \"src/KipuBankV2.sol\":6819:6989  if (!isTokenSupported[token]) {... */\n    tag_222:\n        /* \"src/KipuBankV2.sol\":7019:7020  0 */\n      0x00\n        /* \"src/KipuBankV2.sol\":7003:7021  feed != address(0) */\n      0xffffffffffffffffffffffffffffffffffffffff\n      and\n        /* \"src/KipuBankV2.sol\":7003:7007  feed */\n      dup3\n        /* \"src/KipuBankV2.sol\":7003:7021  feed != address(0) */\n      0xffffffffffffffffffffffffffffffffffffffff\n      and\n      eq\n        /* \"src/KipuBankV2.sol\":6999:7149  if (feed != address(0)) {... */\n      tag_224\n      jumpi\n        /* \"src/KipuBankV2.sol\":7087:7091  feed */\n      dup2\n        /* \"src/KipuBankV2.sol\":7038:7055  priceFeedForToken */\n      0x02\n        /* \"src/KipuBankV2.sol\":7038:7062  priceFeedForToken[token] */\n      0x00\n        /* \"src/KipuBankV2.sol\":7056:7061  token */\n      dup6\n        /* \"src/KipuBankV2.sol\":7038:7062  priceFeedForToken[token] */\n      0xffffffffffffffffffffffffffffffffffffffff\n      and\n      0xffffffffffffffffffffffffffffffffffffffff\n      and\n      dup2\n      mstore\n      0x20\n      add\n      swap1\n      dup2\n      mstore\n      0x20\n      add\n      0x00\n      keccak256\n      0x00\n        /* \"src/KipuBankV2.sol\":7038:7092  priceFeedForToken[token] = AggregatorV3Interface(feed) */\n      0x0100\n      exp\n      dup2\n      sload\n      dup2\n      0xffffffffffffffffffffffffffffffffffffffff\n      mul\n      not\n      and\n      swap1\n      dup4\n      0xffffffffffffffffffffffffffffffffffffffff\n      and\n      mul\n      or\n      swap1\n      sstore\n      pop\n        /* \"src/KipuBankV2.sol\":7132:7136  feed */\n      dup2\n        /* \"src/KipuBankV2.sol\":7112:7137  PriceFeedSet(token, feed) */\n      0xffffffffffffffffffffffffffffffffffffffff\n      and\n        /* \"src/KipuBankV2.sol\":7125:7130  token */\n      dup4\n        /* \"src/KipuBankV2.sol\":7112:7137  PriceFeedSet(token, feed) */\n      0xffffffffffffffffffffffffffffffffffffffff\n      and\n      0xd2d8394cf7549a5ddbc2ba3dd7b2de8d53c891472d1f2907008ed6a10045fdae\n      mload(0x40)\n      mload(0x40)\n      dup1\n      swap2\n      sub\n      swap1\n      log3\n        /* \"src/KipuBankV2.sol\":6999:7149  if (feed != address(0)) {... */\n    tag_224:\n        /* \"src/KipuBankV2.sol\":6658:7156  function supportToken(address token, address feed) external onlyRole(BANK_MANAGER_ROLE) {... */\n      pop\n      pop\n      pop\n      jump\t// out\n        /* \"@openzeppelin/contracts/access/AccessControl.sol\":2196:2245  bytes32 public constant DEFAULT_ADMIN_ROLE = 0x00 */\n    tag_107:\n        /* \"@openzeppelin/contracts/access/AccessControl.sol\":2241:2245  0x00 */\n      0x00\n        /* \"@openzeppelin/contracts/access/AccessControl.sol\":2196:2245  bytes32 public constant DEFAULT_ADMIN_ROLE = 0x00 */\n      0x00\n      shl\n      dup2\n      jump\t// out\n        /* \"src/KipuBankV2.sol\":1364:1409  uint256 public immutable totalBankCapacityUSD */\n    tag_111:\n      immutable(\"0x764ce1cb8d17081194abba71ad56d073244079544f5df0278f53a6395c58adf1\")\n      dup2\n      jump\t// out\n        /* \"src/KipuBankV2.sol\":2017:2067  mapping(address => uint256) public withdrawalCount */\n    tag_116:\n      mstore(0x20, 0x05)\n      dup1\n      0x00\n      mstore\n      keccak256(0x00, 0x40)\n      0x00\n      swap2\n      pop\n      swap1\n      pop\n      sload\n      dup2\n      jump\t// out\n        /* \"src/KipuBankV2.sol\":11541:11652  function getSupportedTokens() external  view returns(address[] memory){... */\n    tag_120:\n        /* \"src/KipuBankV2.sol\":11594:11610  address[] memory */\n      0x60\n        /* \"src/KipuBankV2.sol\":11629:11644  supportedTokens */\n      0x06\n        /* \"src/KipuBankV2.sol\":11622:11644  return supportedTokens */\n      dup1\n      sload\n      dup1\n      0x20\n      mul\n      0x20\n      add\n      mload(0x40)\n      swap1\n      dup2\n      add\n      0x40\n      mstore\n      dup1\n      swap3\n      swap2\n      swap1\n      dup2\n      dup2\n      mstore\n      0x20\n      add\n      dup3\n      dup1\n      sload\n      dup1\n      iszero\n      tag_226\n      jumpi\n      0x20\n      mul\n      dup3\n      add\n      swap2\n      swap1\n      0x00\n      mstore\n      keccak256(0x00, 0x20)\n      swap1\n    tag_227:\n      dup2\n      0x00\n      swap1\n      sload\n      swap1\n      0x0100\n      exp\n      swap1\n      div\n      0xffffffffffffffffffffffffffffffffffffffff\n      and\n      0xffffffffffffffffffffffffffffffffffffffff\n      and\n      dup2\n      mstore\n      0x20\n      add\n      swap1\n      0x01\n      add\n      swap1\n      dup1\n      dup4\n      gt\n      tag_227\n      jumpi\n    tag_226:\n      pop\n      pop\n      pop\n      pop\n      pop\n      swap1\n      pop\n        /* \"src/KipuBankV2.sol\":11541:11652  function getSupportedTokens() external  view returns(address[] memory){... */\n      swap1\n      jump\t// out\n        /* \"@openzeppelin/contracts/access/AccessControl.sol\":4618:4756  function revokeRole(bytes32 role, address account) public virtual onlyRole(getRoleAdmin(role)) {... */\n    tag_126:\n        /* \"@openzeppelin/contracts/access/AccessControl.sol\":4693:4711  getRoleAdmin(role) */\n      tag_228\n        /* \"@openzeppelin/contracts/access/AccessControl.sol\":4706:4710  role */\n      dup3\n        /* \"@openzeppelin/contracts/access/AccessControl.sol\":4693:4705  getRoleAdmin */\n      tag_52\n        /* \"@openzeppelin/contracts/access/AccessControl.sol\":4693:4711  getRoleAdmin(role) */\n      jump\t// in\n    tag_228:\n        /* \"@openzeppelin/contracts/access/AccessControl.sol\":2473:2489  _checkRole(role) */\n      tag_230\n        /* \"@openzeppelin/contracts/access/AccessControl.sol\":2484:2488  role */\n      dup2\n        /* \"@openzeppelin/contracts/access/AccessControl.sol\":2473:2483  _checkRole */\n      tag_172\n        /* \"@openzeppelin/contracts/access/AccessControl.sol\":2473:2489  _checkRole(role) */\n      jump\t// in\n    tag_230:\n        /* \"@openzeppelin/contracts/access/AccessControl.sol\":4723:4749  _revokeRole(role, account) */\n      tag_232\n        /* \"@openzeppelin/contracts/access/AccessControl.sol\":4735:4739  role */\n      dup4\n        /* \"@openzeppelin/contracts/access/AccessControl.sol\":4741:4748  account */\n      dup4\n        /* \"@openzeppelin/contracts/access/AccessControl.sol\":4723:4734  _revokeRole */\n      tag_186\n        /* \"@openzeppelin/contracts/access/AccessControl.sol\":4723:4749  _revokeRole(role, account) */\n      jump\t// in\n    tag_232:\n      pop\n        /* \"@openzeppelin/contracts/access/AccessControl.sol\":4618:4756  function revokeRole(bytes32 role, address account) public virtual onlyRole(getRoleAdmin(role)) {... */\n      pop\n      pop\n      pop\n      jump\t// out\n        /* \"src/KipuBankV2.sol\":2369:2400  uint256 public totalDepositsUSD */\n    tag_129:\n      sload(0x08)\n      dup2\n      jump\t// out\n        /* \"src/KipuBankV2.sol\":7351:7958  function unsupportToken(address token) external onlyRole(BANK_MANAGER_ROLE) {... */\n    tag_134:\n        /* \"src/KipuBankV2.sol\":1039:1069  keccak256(\"BANK_MANAGER_ROLE\") */\n      0x2d95a8186db49da8bd2356c70cf02038f7de0d6ed39f6766fe2d93d5e7785616\n        /* \"@openzeppelin/contracts/access/AccessControl.sol\":2473:2489  _checkRole(role) */\n      tag_234\n        /* \"@openzeppelin/contracts/access/AccessControl.sol\":2484:2488  role */\n      dup2\n        /* \"@openzeppelin/contracts/access/AccessControl.sol\":2473:2483  _checkRole */\n      tag_172\n        /* \"@openzeppelin/contracts/access/AccessControl.sol\":2473:2489  _checkRole(role) */\n      jump\t// in\n    tag_234:\n        /* \"src/KipuBankV2.sol\":7443:7459  isTokenSupported */\n      0x07\n        /* \"src/KipuBankV2.sol\":7443:7466  isTokenSupported[token] */\n      0x00\n        /* \"src/KipuBankV2.sol\":7460:7465  token */\n      dup4\n        /* \"src/KipuBankV2.sol\":7443:7466  isTokenSupported[token] */\n      0xffffffffffffffffffffffffffffffffffffffff\n      and\n      0xffffffffffffffffffffffffffffffffffffffff\n      and\n      dup2\n      mstore\n      0x20\n      add\n      swap1\n      dup2\n      mstore\n      0x20\n      add\n      0x00\n      keccak256\n      0x00\n      swap1\n      sload\n      swap1\n      0x0100\n      exp\n      swap1\n      div\n      0xff\n      and\n        /* \"src/KipuBankV2.sol\":7438:7494  if (!isTokenSupported[token]) revert TokenNotSupported() */\n      tag_236\n      jumpi\n        /* \"src/KipuBankV2.sol\":7475:7494  TokenNotSupported() */\n      mload(0x40)\n      0x3dd1b30500000000000000000000000000000000000000000000000000000000\n      dup2\n      mstore\n      0x04\n      add\n      mload(0x40)\n      dup1\n      swap2\n      sub\n      swap1\n      revert\n        /* \"src/KipuBankV2.sol\":7438:7494  if (!isTokenSupported[token]) revert TokenNotSupported() */\n    tag_236:\n        /* \"src/KipuBankV2.sol\":7531:7536  false */\n      0x00\n        /* \"src/KipuBankV2.sol\":7505:7521  isTokenSupported */\n      0x07\n        /* \"src/KipuBankV2.sol\":7505:7528  isTokenSupported[token] */\n      0x00\n        /* \"src/KipuBankV2.sol\":7522:7527  token */\n      dup5\n        /* \"src/KipuBankV2.sol\":7505:7528  isTokenSupported[token] */\n      0xffffffffffffffffffffffffffffffffffffffff\n      and\n      0xffffffffffffffffffffffffffffffffffffffff\n      and\n      dup2\n      mstore\n      0x20\n      add\n      swap1\n      dup2\n      mstore\n      0x20\n      add\n      0x00\n      keccak256\n      0x00\n        /* \"src/KipuBankV2.sol\":7505:7536  isTokenSupported[token] = false */\n      0x0100\n      exp\n      dup2\n      sload\n      dup2\n      0xff\n      mul\n      not\n      and\n      swap1\n      dup4\n      iszero\n      iszero\n      mul\n      or\n      swap1\n      sstore\n      pop\n        /* \"src/KipuBankV2.sol\":7561:7570  uint256 i */\n      0x00\n        /* \"src/KipuBankV2.sol\":7573:7574  0 */\n      0x00\n        /* \"src/KipuBankV2.sol\":7561:7574  uint256 i = 0 */\n      swap1\n      pop\n        /* \"src/KipuBankV2.sol\":7556:7831  for (uint256 i = 0; i < supportedTokens.length; i++) {... */\n    tag_237:\n        /* \"src/KipuBankV2.sol\":7580:7595  supportedTokens */\n      0x06\n        /* \"src/KipuBankV2.sol\":7580:7602  supportedTokens.length */\n      dup1\n      sload\n      swap1\n      pop\n        /* \"src/KipuBankV2.sol\":7576:7577  i */\n      dup2\n        /* \"src/KipuBankV2.sol\":7576:7602  i < supportedTokens.length */\n      lt\n        /* \"src/KipuBankV2.sol\":7556:7831  for (uint256 i = 0; i < supportedTokens.length; i++) {... */\n      iszero\n      tag_238\n      jumpi\n        /* \"src/KipuBankV2.sol\":7650:7655  token */\n      dup3\n        /* \"src/KipuBankV2.sol\":7628:7655  supportedTokens[i] == token */\n      0xffffffffffffffffffffffffffffffffffffffff\n      and\n        /* \"src/KipuBankV2.sol\":7628:7643  supportedTokens */\n      0x06\n        /* \"src/KipuBankV2.sol\":7644:7645  i */\n      dup3\n        /* \"src/KipuBankV2.sol\":7628:7646  supportedTokens[i] */\n      dup2\n      sload\n      dup2\n      lt\n      tag_240\n      jumpi\n      tag_241\n      tag_158\n      jump\t// in\n    tag_241:\n    tag_240:\n      swap1\n      0x00\n      mstore\n      keccak256(0x00, 0x20)\n      add\n      0x00\n      swap1\n      sload\n      swap1\n      0x0100\n      exp\n      swap1\n      div\n      0xffffffffffffffffffffffffffffffffffffffff\n      and\n        /* \"src/KipuBankV2.sol\":7628:7655  supportedTokens[i] == token */\n      0xffffffffffffffffffffffffffffffffffffffff\n      and\n      sub\n        /* \"src/KipuBankV2.sol\":7624:7820  if (supportedTokens[i] == token) {... */\n      tag_243\n      jumpi\n        /* \"src/KipuBankV2.sol\":7697:7712  supportedTokens */\n      0x06\n        /* \"src/KipuBankV2.sol\":7738:7739  1 */\n      0x01\n        /* \"src/KipuBankV2.sol\":7713:7728  supportedTokens */\n      0x06\n        /* \"src/KipuBankV2.sol\":7713:7735  supportedTokens.length */\n      dup1\n      sload\n      swap1\n      pop\n        /* \"src/KipuBankV2.sol\":7713:7739  supportedTokens.length - 1 */\n      tag_244\n      swap2\n      swap1\n      tag_245\n      jump\t// in\n    tag_244:\n        /* \"src/KipuBankV2.sol\":7697:7740  supportedTokens[supportedTokens.length - 1] */\n      dup2\n      sload\n      dup2\n      lt\n      tag_246\n      jumpi\n      tag_247\n      tag_158\n      jump\t// in\n    tag_247:\n    tag_246:\n      swap1\n      0x00\n      mstore\n      keccak256(0x00, 0x20)\n      add\n      0x00\n      swap1\n      sload\n      swap1\n      0x0100\n      exp\n      swap1\n      div\n      0xffffffffffffffffffffffffffffffffffffffff\n      and\n        /* \"src/KipuBankV2.sol\":7676:7691  supportedTokens */\n      0x06\n        /* \"src/KipuBankV2.sol\":7692:7693  i */\n      dup3\n        /* \"src/KipuBankV2.sol\":7676:7694  supportedTokens[i] */\n      dup2\n      sload\n      dup2\n      lt\n      tag_249\n      jumpi\n      tag_250\n      tag_158\n      jump\t// in\n    tag_250:\n    tag_249:\n      swap1\n      0x00\n      mstore\n      keccak256(0x00, 0x20)\n      add\n      0x00\n        /* \"src/KipuBankV2.sol\":7676:7740  supportedTokens[i] = supportedTokens[supportedTokens.length - 1] */\n      0x0100\n      exp\n      dup2\n      sload\n      dup2\n      0xffffffffffffffffffffffffffffffffffffffff\n      mul\n      not\n      and\n      swap1\n      dup4\n      0xffffffffffffffffffffffffffffffffffffffff\n      and\n      mul\n      or\n      swap1\n      sstore\n      pop\n        /* \"src/KipuBankV2.sol\":7759:7774  supportedTokens */\n      0x06\n        /* \"src/KipuBankV2.sol\":7759:7780  supportedTokens.pop() */\n      dup1\n      sload\n      dup1\n      tag_252\n      jumpi\n      tag_253\n      tag_254\n      jump\t// in\n    tag_253:\n    tag_252:\n      0x01\n      swap1\n      sub\n      dup2\n      dup2\n      swap1\n      0x00\n      mstore\n      keccak256(0x00, 0x20)\n      add\n      exp(0x0100, 0x00)\n      dup2\n      sload\n      swap1\n      0xffffffffffffffffffffffffffffffffffffffff\n      mul\n      not\n      and\n      swap1\n      sstore\n      swap1\n      sstore\n        /* \"src/KipuBankV2.sol\":7799:7804  break */\n      jump(tag_238)\n        /* \"src/KipuBankV2.sol\":7624:7820  if (supportedTokens[i] == token) {... */\n    tag_243:\n        /* \"src/KipuBankV2.sol\":7604:7607  i++ */\n      dup1\n      dup1\n      0x01\n      add\n      swap2\n      pop\n      pop\n        /* \"src/KipuBankV2.sol\":7556:7831  for (uint256 i = 0; i < supportedTokens.length; i++) {... */\n      jump(tag_237)\n    tag_238:\n      pop\n        /* \"src/KipuBankV2.sol\":7848:7865  priceFeedForToken */\n      0x02\n        /* \"src/KipuBankV2.sol\":7848:7872  priceFeedForToken[token] */\n      0x00\n        /* \"src/KipuBankV2.sol\":7866:7871  token */\n      dup4\n        /* \"src/KipuBankV2.sol\":7848:7872  priceFeedForToken[token] */\n      0xffffffffffffffffffffffffffffffffffffffff\n      and\n      0xffffffffffffffffffffffffffffffffffffffff\n      and\n      dup2\n      mstore\n      0x20\n      add\n      swap1\n      dup2\n      mstore\n      0x20\n      add\n      0x00\n      keccak256\n      0x00\n        /* \"src/KipuBankV2.sol\":7841:7872  delete priceFeedForToken[token] */\n      0x0100\n      exp\n      dup2\n      sload\n      swap1\n      0xffffffffffffffffffffffffffffffffffffffff\n      mul\n      not\n      and\n      swap1\n      sstore\n        /* \"src/KipuBankV2.sol\":7905:7910  token */\n      dup2\n        /* \"src/KipuBankV2.sol\":7888:7911  TokenUnsupported(token) */\n      0xffffffffffffffffffffffffffffffffffffffff\n      and\n      0xf940d38196f30e7ff3eb255dd42db8d99a75c1ac112199d4fc314ce6460bfc0c\n      mload(0x40)\n      mload(0x40)\n      dup1\n      swap2\n      sub\n      swap1\n      log2\n        /* \"src/KipuBankV2.sol\":7944:7949  token */\n      dup2\n        /* \"src/KipuBankV2.sol\":7927:7950  PriceFeedRemoved(token) */\n      0xffffffffffffffffffffffffffffffffffffffff\n      and\n      0xfd58461c4683df397133c7e91fe2aa71559919b405f9e09c9c3af7e875f54e3b\n      mload(0x40)\n      mload(0x40)\n      dup1\n      swap2\n      sub\n      swap1\n      log2\n        /* \"src/KipuBankV2.sol\":7351:7958  function unsupportToken(address token) external onlyRole(BANK_MANAGER_ROLE) {... */\n      pop\n      pop\n      jump\t// out\n        /* \"src/KipuBankV2.sol\":995:1069  bytes32 public constant BANK_MANAGER_ROLE = keccak256(\"BANK_MANAGER_ROLE\") */\n    tag_137:\n        /* \"src/KipuBankV2.sol\":1039:1069  keccak256(\"BANK_MANAGER_ROLE\") */\n      0x2d95a8186db49da8bd2356c70cf02038f7de0d6ed39f6766fe2d93d5e7785616\n        /* \"src/KipuBankV2.sol\":995:1069  bytes32 public constant BANK_MANAGER_ROLE = keccak256(\"BANK_MANAGER_ROLE\") */\n      dup2\n      jump\t// out\n        /* \"src/KipuBankV2.sol\":10162:11091  function withdraw(address token, uint256 amount) external nonReentrant {... */\n    tag_142:\n        /* \"@openzeppelin/contracts/security/ReentrancyGuard.sol\":2261:2282  _nonReentrantBefore() */\n      tag_257\n        /* \"@openzeppelin/contracts/security/ReentrancyGuard.sol\":2261:2280  _nonReentrantBefore */\n      tag_189\n        /* \"@openzeppelin/contracts/security/ReentrancyGuard.sol\":2261:2282  _nonReentrantBefore() */\n      jump\t// in\n    tag_257:\n        /* \"src/KipuBankV2.sol\":10267:10268  0 */\n      0x00\n        /* \"src/KipuBankV2.sol\":10257:10263  amount */\n      dup2\n        /* \"src/KipuBankV2.sol\":10257:10268  amount == 0 */\n      sub\n        /* \"src/KipuBankV2.sol\":10254:10292  if(amount == 0) revert InvalidAmount() */\n      tag_259\n      jumpi\n        /* \"src/KipuBankV2.sol\":10277:10292  InvalidAmount() */\n      mload(0x40)\n      0x2c5211c600000000000000000000000000000000000000000000000000000000\n      dup2\n      mstore\n      0x04\n      add\n      mload(0x40)\n      dup1\n      swap2\n      sub\n      swap1\n      revert\n        /* \"src/KipuBankV2.sol\":10254:10292  if(amount == 0) revert InvalidAmount() */\n    tag_259:\n        /* \"src/KipuBankV2.sol\":10315:10328  maxWithdrawal */\n      immutable(\"0xcc80724d438a73e21efb48933a149f5b95ade624d1778284bcca17773a1c9da3\")\n        /* \"src/KipuBankV2.sol\":10306:10312  amount */\n      dup2\n        /* \"src/KipuBankV2.sol\":10306:10328  amount > maxWithdrawal */\n      gt\n        /* \"src/KipuBankV2.sol\":10303:10360  if(amount > maxWithdrawal) revert MaxWithdrawalExceeded() */\n      iszero\n      tag_260\n      jumpi\n        /* \"src/KipuBankV2.sol\":10337:10360  MaxWithdrawalExceeded() */\n      mload(0x40)\n      0x73a7c91000000000000000000000000000000000000000000000000000000000\n      dup2\n      mstore\n      0x04\n      add\n      mload(0x40)\n      dup1\n      swap2\n      sub\n      swap1\n      revert\n        /* \"src/KipuBankV2.sol\":10303:10360  if(amount > maxWithdrawal) revert MaxWithdrawalExceeded() */\n    tag_260:\n        /* \"src/KipuBankV2.sol\":10381:10396  uint256 balance */\n      0x00\n        /* \"src/KipuBankV2.sol\":10399:10411  vaultBalance */\n      0x03\n        /* \"src/KipuBankV2.sol\":10399:10423  vaultBalance[msg.sender] */\n      0x00\n        /* \"src/KipuBankV2.sol\":10412:10422  msg.sender */\n      caller\n        /* \"src/KipuBankV2.sol\":10399:10423  vaultBalance[msg.sender] */\n      0xffffffffffffffffffffffffffffffffffffffff\n      and\n      0xffffffffffffffffffffffffffffffffffffffff\n      and\n      dup2\n      mstore\n      0x20\n      add\n      swap1\n      dup2\n      mstore\n      0x20\n      add\n      0x00\n      keccak256\n        /* \"src/KipuBankV2.sol\":10399:10430  vaultBalance[msg.sender][token] */\n      0x00\n        /* \"src/KipuBankV2.sol\":10424:10429  token */\n      dup5\n        /* \"src/KipuBankV2.sol\":10399:10430  vaultBalance[msg.sender][token] */\n      0xffffffffffffffffffffffffffffffffffffffff\n      and\n      0xffffffffffffffffffffffffffffffffffffffff\n      and\n      dup2\n      mstore\n      0x20\n      add\n      swap1\n      dup2\n      mstore\n      0x20\n      add\n      0x00\n      keccak256\n      sload\n        /* \"src/KipuBankV2.sol\":10381:10430  uint256 balance = vaultBalance[msg.sender][token] */\n      swap1\n      pop\n        /* \"src/KipuBankV2.sol\":10455:10461  amount */\n      dup2\n        /* \"src/KipuBankV2.sol\":10445:10452  balance */\n      dup2\n        /* \"src/KipuBankV2.sol\":10445:10461  balance < amount */\n      lt\n        /* \"src/KipuBankV2.sol\":10441:10491  if (balance < amount) revert InsufficientBalance() */\n      iszero\n      tag_261\n      jumpi\n        /* \"src/KipuBankV2.sol\":10470:10491  InsufficientBalance() */\n      mload(0x40)\n      0xf4d678b800000000000000000000000000000000000000000000000000000000\n      dup2\n      mstore\n      0x04\n      add\n      mload(0x40)\n      dup1\n      swap2\n      sub\n      swap1\n      revert\n        /* \"src/KipuBankV2.sol\":10441:10491  if (balance < amount) revert InsufficientBalance() */\n    tag_261:\n        /* \"src/KipuBankV2.sol\":10512:10529  uint256 usdValue6 */\n      0x00\n        /* \"src/KipuBankV2.sol\":10549:10550  0 */\n      0x00\n        /* \"src/KipuBankV2.sol\":10532:10551  token == address(0) */\n      0xffffffffffffffffffffffffffffffffffffffff\n      and\n        /* \"src/KipuBankV2.sol\":10532:10537  token */\n      dup5\n        /* \"src/KipuBankV2.sol\":10532:10551  token == address(0) */\n      0xffffffffffffffffffffffffffffffffffffffff\n      and\n      eq\n        /* \"src/KipuBankV2.sol\":10532:10614  token == address(0) ? _convertEthToUSD(amount) : _convertTokenToUSD(token, amount) */\n      tag_262\n      jumpi\n        /* \"src/KipuBankV2.sol\":10581:10614  _convertTokenToUSD(token, amount) */\n      tag_263\n        /* \"src/KipuBankV2.sol\":10600:10605  token */\n      dup5\n        /* \"src/KipuBankV2.sol\":10607:10613  amount */\n      dup5\n        /* \"src/KipuBankV2.sol\":10581:10599  _convertTokenToUSD */\n      tag_162\n        /* \"src/KipuBankV2.sol\":10581:10614  _convertTokenToUSD(token, amount) */\n      jump\t// in\n    tag_263:\n        /* \"src/KipuBankV2.sol\":10532:10614  token == address(0) ? _convertEthToUSD(amount) : _convertTokenToUSD(token, amount) */\n      jump(tag_264)\n    tag_262:\n        /* \"src/KipuBankV2.sol\":10554:10578  _convertEthToUSD(amount) */\n      tag_265\n        /* \"src/KipuBankV2.sol\":10571:10577  amount */\n      dup4\n        /* \"src/KipuBankV2.sol\":10554:10570  _convertEthToUSD */\n      tag_166\n        /* \"src/KipuBankV2.sol\":10554:10578  _convertEthToUSD(amount) */\n      jump\t// in\n    tag_265:\n        /* \"src/KipuBankV2.sol\":10532:10614  token == address(0) ? _convertEthToUSD(amount) : _convertTokenToUSD(token, amount) */\n    tag_264:\n        /* \"src/KipuBankV2.sol\":10512:10614  uint256 usdValue6 = token == address(0) ? _convertEthToUSD(amount) : _convertTokenToUSD(token, amount) */\n      swap1\n      pop\n        /* \"src/KipuBankV2.sol\":10671:10677  amount */\n      dup3\n        /* \"src/KipuBankV2.sol\":10661:10668  balance */\n      dup3\n        /* \"src/KipuBankV2.sol\":10661:10677  balance - amount */\n      tag_266\n      swap2\n      swap1\n      tag_245\n      jump\t// in\n    tag_266:\n        /* \"src/KipuBankV2.sol\":10627:10639  vaultBalance */\n      0x03\n        /* \"src/KipuBankV2.sol\":10627:10651  vaultBalance[msg.sender] */\n      0x00\n        /* \"src/KipuBankV2.sol\":10640:10650  msg.sender */\n      caller\n        /* \"src/KipuBankV2.sol\":10627:10651  vaultBalance[msg.sender] */\n      0xffffffffffffffffffffffffffffffffffffffff\n      and\n      0xffffffffffffffffffffffffffffffffffffffff\n      and\n      dup2\n      mstore\n      0x20\n      add\n      swap1\n      dup2\n      mstore\n      0x20\n      add\n      0x00\n      keccak256\n        /* \"src/KipuBankV2.sol\":10627:10658  vaultBalance[msg.sender][token] */\n      0x00\n        /* \"src/KipuBankV2.sol\":10652:10657  token */\n      dup7\n        /* \"src/KipuBankV2.sol\":10627:10658  vaultBalance[msg.sender][token] */\n      0xffffffffffffffffffffffffffffffffffffffff\n      and\n      0xffffffffffffffffffffffffffffffffffffffff\n      and\n      dup2\n      mstore\n      0x20\n      add\n      swap1\n      dup2\n      mstore\n      0x20\n      add\n      0x00\n      keccak256\n        /* \"src/KipuBankV2.sol\":10627:10677  vaultBalance[msg.sender][token] = balance - amount */\n      dup2\n      swap1\n      sstore\n      pop\n        /* \"src/KipuBankV2.sol\":10708:10717  usdValue6 */\n      dup1\n        /* \"src/KipuBankV2.sol\":10688:10704  totalDepositsUSD */\n      0x08\n      0x00\n        /* \"src/KipuBankV2.sol\":10688:10717  totalDepositsUSD -= usdValue6 */\n      dup3\n      dup3\n      sload\n      tag_267\n      swap2\n      swap1\n      tag_245\n      jump\t// in\n    tag_267:\n      swap3\n      pop\n      pop\n      dup2\n      swap1\n      sstore\n      pop\n        /* \"src/KipuBankV2.sol\":10728:10743  withdrawalCount */\n      0x05\n        /* \"src/KipuBankV2.sol\":10728:10755  withdrawalCount[msg.sender] */\n      0x00\n        /* \"src/KipuBankV2.sol\":10744:10754  msg.sender */\n      caller\n        /* \"src/KipuBankV2.sol\":10728:10755  withdrawalCount[msg.sender] */\n      0xffffffffffffffffffffffffffffffffffffffff\n      and\n      0xffffffffffffffffffffffffffffffffffffffff\n      and\n      dup2\n      mstore\n      0x20\n      add\n      swap1\n      dup2\n      mstore\n      0x20\n      add\n      0x00\n      keccak256\n      0x00\n        /* \"src/KipuBankV2.sol\":10728:10757  withdrawalCount[msg.sender]++ */\n      dup2\n      sload\n      dup1\n      swap3\n      swap2\n      swap1\n      tag_268\n      swap1\n      tag_205\n      jump\t// in\n    tag_268:\n      swap2\n      swap1\n      pop\n      sstore\n      pop\n        /* \"src/KipuBankV2.sol\":10799:10800  0 */\n      0x00\n        /* \"src/KipuBankV2.sol\":10782:10801  token == address(0) */\n      0xffffffffffffffffffffffffffffffffffffffff\n      and\n        /* \"src/KipuBankV2.sol\":10782:10787  token */\n      dup5\n        /* \"src/KipuBankV2.sol\":10782:10801  token == address(0) */\n      0xffffffffffffffffffffffffffffffffffffffff\n      and\n      sub\n        /* \"src/KipuBankV2.sol\":10778:11014  if (token == address(0)) {... */\n      tag_269\n      jumpi\n        /* \"src/KipuBankV2.sol\":10819:10831  bool success */\n      0x00\n        /* \"src/KipuBankV2.sol\":10837:10847  msg.sender */\n      caller\n        /* \"src/KipuBankV2.sol\":10837:10852  msg.sender.call */\n      0xffffffffffffffffffffffffffffffffffffffff\n      and\n        /* \"src/KipuBankV2.sol\":10860:10866  amount */\n      dup5\n        /* \"src/KipuBankV2.sol\":10837:10871  msg.sender.call{value: amount}(\"\") */\n      mload(0x40)\n      tag_270\n      swap1\n      tag_271\n      jump\t// in\n    tag_270:\n      0x00\n      mload(0x40)\n      dup1\n      dup4\n      sub\n      dup2\n      dup6\n      dup8\n      gas\n      call\n      swap3\n      pop\n      pop\n      pop\n      returndatasize\n      dup1\n      0x00\n      dup2\n      eq\n      tag_274\n      jumpi\n      mload(0x40)\n      swap2\n      pop\n      and(add(returndatasize, 0x3f), not(0x1f))\n      dup3\n      add\n      0x40\n      mstore\n      returndatasize\n      dup3\n      mstore\n      returndatasize\n      0x00\n      0x20\n      dup5\n      add\n      returndatacopy\n      jump(tag_273)\n    tag_274:\n      0x60\n      swap2\n      pop\n    tag_273:\n      pop\n        /* \"src/KipuBankV2.sol\":10818:10871  (bool success, ) = msg.sender.call{value: amount}(\"\") */\n      pop\n      swap1\n      pop\n        /* \"src/KipuBankV2.sol\":10891:10898  success */\n      dup1\n        /* \"src/KipuBankV2.sol\":10886:10923  if (!success) revert TransferFailed() */\n      tag_275\n      jumpi\n        /* \"src/KipuBankV2.sol\":10907:10923  TransferFailed() */\n      mload(0x40)\n      0x90b8ec1800000000000000000000000000000000000000000000000000000000\n      dup2\n      mstore\n      0x04\n      add\n      mload(0x40)\n      dup1\n      swap2\n      sub\n      swap1\n      revert\n        /* \"src/KipuBankV2.sol\":10886:10923  if (!success) revert TransferFailed() */\n    tag_275:\n        /* \"src/KipuBankV2.sol\":10803:10935  {... */\n      pop\n        /* \"src/KipuBankV2.sol\":10778:11014  if (token == address(0)) {... */\n      jump(tag_276)\n    tag_269:\n        /* \"src/KipuBankV2.sol\":10956:11002  IERC20(token).safeTransfer(msg.sender, amount) */\n      tag_277\n        /* \"src/KipuBankV2.sol\":10983:10993  msg.sender */\n      caller\n        /* \"src/KipuBankV2.sol\":10995:11001  amount */\n      dup5\n        /* \"src/KipuBankV2.sol\":10963:10968  token */\n      dup7\n        /* \"src/KipuBankV2.sol\":10956:10982  IERC20(token).safeTransfer */\n      0xffffffffffffffffffffffffffffffffffffffff\n      and\n      tag_278\n      swap1\n        /* \"src/KipuBankV2.sol\":10956:11002  IERC20(token).safeTransfer(msg.sender, amount) */\n      swap3\n      swap2\n      swap1\n      0xffffffff\n      and\n      jump\t// in\n    tag_277:\n        /* \"src/KipuBankV2.sol\":10778:11014  if (token == address(0)) {... */\n    tag_276:\n        /* \"src/KipuBankV2.sol\":11058:11063  token */\n      dup4\n        /* \"src/KipuBankV2.sol\":11031:11083  WithdrawalMade(msg.sender, token, amount, usdValue6) */\n      0xffffffffffffffffffffffffffffffffffffffff\n      and\n        /* \"src/KipuBankV2.sol\":11046:11056  msg.sender */\n      caller\n        /* \"src/KipuBankV2.sol\":11031:11083  WithdrawalMade(msg.sender, token, amount, usdValue6) */\n      0xffffffffffffffffffffffffffffffffffffffff\n      and\n      0xde1d532173c6de1e3937c7af1cb92745c738980729f53ac451a725f929f3b798\n        /* \"src/KipuBankV2.sol\":11065:11071  amount */\n      dup6\n        /* \"src/KipuBankV2.sol\":11073:11082  usdValue6 */\n      dup5\n        /* \"src/KipuBankV2.sol\":11031:11083  WithdrawalMade(msg.sender, token, amount, usdValue6) */\n      mload(0x40)\n      tag_279\n      swap3\n      swap2\n      swap1\n      tag_209\n      jump\t// in\n    tag_279:\n      mload(0x40)\n      dup1\n      swap2\n      sub\n      swap1\n      log3\n        /* \"src/KipuBankV2.sol\":10233:11091  {... */\n      pop\n      pop\n        /* \"@openzeppelin/contracts/security/ReentrancyGuard.sol\":2303:2323  _nonReentrantAfter() */\n      tag_280\n        /* \"@openzeppelin/contracts/security/ReentrancyGuard.sol\":2303:2321  _nonReentrantAfter */\n      tag_211\n        /* \"@openzeppelin/contracts/security/ReentrancyGuard.sol\":2303:2323  _nonReentrantAfter() */\n      jump\t// in\n    tag_280:\n        /* \"src/KipuBankV2.sol\":10162:11091  function withdraw(address token, uint256 amount) external nonReentrant {... */\n      pop\n      pop\n      jump\t// out\n        /* \"src/KipuBankV2.sol\":1903:1950  mapping(address => uint256) public depositCount */\n    tag_146:\n      mstore(0x20, 0x04)\n      dup1\n      0x00\n      mstore\n      keccak256(0x00, 0x40)\n      0x00\n      swap2\n      pop\n      swap1\n      pop\n      sload\n      dup2\n      jump\t// out\n        /* \"@openzeppelin/contracts/utils/introspection/ERC165.sol\":730:876  function supportsInterface(bytes4 interfaceId) public view virtual returns (bool) {... */\n    tag_151:\n        /* \"@openzeppelin/contracts/utils/introspection/ERC165.sol\":806:810  bool */\n      0x00\n        /* \"@openzeppelin/contracts/utils/introspection/ERC165.sol\":844:869  type(IERC165).interfaceId */\n      0x01ffc9a700000000000000000000000000000000000000000000000000000000\n        /* \"@openzeppelin/contracts/utils/introspection/ERC165.sol\":829:869  interfaceId == type(IERC165).interfaceId */\n      not(0xffffffffffffffffffffffffffffffffffffffffffffffffffffffff)\n      and\n        /* \"@openzeppelin/contracts/utils/introspection/ERC165.sol\":829:840  interfaceId */\n      dup3\n        /* \"@openzeppelin/contracts/utils/introspection/ERC165.sol\":829:869  interfaceId == type(IERC165).interfaceId */\n      not(0xffffffffffffffffffffffffffffffffffffffffffffffffffffffff)\n      and\n      eq\n        /* \"@openzeppelin/contracts/utils/introspection/ERC165.sol\":822:869  return interfaceId == type(IERC165).interfaceId */\n      swap1\n      pop\n        /* \"@openzeppelin/contracts/utils/introspection/ERC165.sol\":730:876  function supportsInterface(bytes4 interfaceId) public view virtual returns (bool) {... */\n      swap2\n      swap1\n      pop\n      jump\t// out\n        /* \"src/KipuBankV2.sol\":13240:13714  function _convertTokenToUSD(address token, uint256 amount) internal view returns (uint256) {... */\n    tag_162:\n        /* \"src/KipuBankV2.sol\":13322:13329  uint256 */\n      0x00\n        /* \"src/KipuBankV2.sol\":13342:13368  AggregatorV3Interface feed */\n      0x00\n        /* \"src/KipuBankV2.sol\":13371:13388  priceFeedForToken */\n      0x02\n        /* \"src/KipuBankV2.sol\":13371:13395  priceFeedForToken[token] */\n      0x00\n        /* \"src/KipuBankV2.sol\":13389:13394  token */\n      dup6\n        /* \"src/KipuBankV2.sol\":13371:13395  priceFeedForToken[token] */\n      0xffffffffffffffffffffffffffffffffffffffff\n      and\n      0xffffffffffffffffffffffffffffffffffffffff\n      and\n      dup2\n      mstore\n      0x20\n      add\n      swap1\n      dup2\n      mstore\n      0x20\n      add\n      0x00\n      keccak256\n      0x00\n      swap1\n      sload\n      swap1\n      0x0100\n      exp\n      swap1\n      div\n      0xffffffffffffffffffffffffffffffffffffffff\n      and\n        /* \"src/KipuBankV2.sol\":13342:13395  AggregatorV3Interface feed = priceFeedForToken[token] */\n      swap1\n      pop\n        /* \"src/KipuBankV2.sol\":13435:13436  0 */\n      0x00\n        /* \"src/KipuBankV2.sol\":13410:13437  address(feed) == address(0) */\n      0xffffffffffffffffffffffffffffffffffffffff\n      and\n        /* \"src/KipuBankV2.sol\":13418:13422  feed */\n      dup2\n        /* \"src/KipuBankV2.sol\":13410:13437  address(feed) == address(0) */\n      0xffffffffffffffffffffffffffffffffffffffff\n      and\n      sub\n        /* \"src/KipuBankV2.sol\":13406:13461  if (address(feed) == address(0)) revert InvalidOracle() */\n      tag_283\n      jumpi\n        /* \"src/KipuBankV2.sol\":13446:13461  InvalidOracle() */\n      mload(0x40)\n      0x9589a27d00000000000000000000000000000000000000000000000000000000\n      dup2\n      mstore\n      0x04\n      add\n      mload(0x40)\n      dup1\n      swap2\n      sub\n      swap1\n      revert\n        /* \"src/KipuBankV2.sol\":13406:13461  if (address(feed) == address(0)) revert InvalidOracle() */\n    tag_283:\n        /* \"src/KipuBankV2.sol\":13475:13487  int256 price */\n      0x00\n        /* \"src/KipuBankV2.sol\":13497:13501  feed */\n      dup2\n        /* \"src/KipuBankV2.sol\":13497:13517  feed.latestRoundData */\n      0xffffffffffffffffffffffffffffffffffffffff\n      and\n      0xfeaf968c\n        /* \"src/KipuBankV2.sol\":13497:13519  feed.latestRoundData() */\n      mload(0x40)\n      dup2\n      0xffffffff\n      and\n      0xe0\n      shl\n      dup2\n      mstore\n      0x04\n      add\n      0xa0\n      mload(0x40)\n      dup1\n      dup4\n      sub\n      dup2\n      dup7\n      gas\n      staticcall\n      iszero\n      dup1\n      iszero\n      tag_285\n      jumpi\n      returndatacopy(0x00, 0x00, returndatasize)\n      revert(0x00, returndatasize)\n    tag_285:\n      pop\n      pop\n      pop\n      pop\n      mload(0x40)\n      returndatasize\n      not(0x1f)\n      0x1f\n      dup3\n      add\n      and\n      dup3\n      add\n      dup1\n      0x40\n      mstore\n      pop\n      dup2\n      add\n      swap1\n      tag_286\n      swap2\n      swap1\n      tag_180\n      jump\t// in\n    tag_286:\n        /* \"src/KipuBankV2.sol\":13472:13519  (, int256 price, , , ) = feed.latestRoundData() */\n      pop\n      pop\n      pop\n      swap2\n      pop\n      pop\n        /* \"src/KipuBankV2.sol\":13530:13544  uint8 decimals */\n      0x00\n        /* \"src/KipuBankV2.sol\":13562:13567  token */\n      dup6\n        /* \"src/KipuBankV2.sol\":13547:13577  IERC20Metadata(token).decimals */\n      0xffffffffffffffffffffffffffffffffffffffff\n      and\n      0x313ce567\n        /* \"src/KipuBankV2.sol\":13547:13579  IERC20Metadata(token).decimals() */\n      mload(0x40)\n      dup2\n      0xffffffff\n      and\n      0xe0\n      shl\n      dup2\n      mstore\n      0x04\n      add\n      0x20\n      mload(0x40)\n      dup1\n      dup4\n      sub\n      dup2\n      dup7\n      gas\n      staticcall\n      iszero\n      dup1\n      iszero\n      tag_288\n      jumpi\n      returndatacopy(0x00, 0x00, returndatasize)\n      revert(0x00, returndatasize)\n    tag_288:\n      pop\n      pop\n      pop\n      pop\n      mload(0x40)\n      returndatasize\n      not(0x1f)\n      0x1f\n      dup3\n      add\n      and\n      dup3\n      add\n      dup1\n      0x40\n      mstore\n      pop\n      dup2\n      add\n      swap1\n      tag_289\n      swap2\n      swap1\n      tag_290\n      jump\t// in\n    tag_289:\n        /* \"src/KipuBankV2.sol\":13530:13579  uint8 decimals = IERC20Metadata(token).decimals() */\n      swap1\n      pop\n        /* \"src/KipuBankV2.sol\":13590:13608  uint256 normalized */\n      0x00\n        /* \"src/KipuBankV2.sol\":13611:13653  _normalizeToUSDCDecimals(amount, decimals) */\n      tag_291\n        /* \"src/KipuBankV2.sol\":13636:13642  amount */\n      dup7\n        /* \"src/KipuBankV2.sol\":13644:13652  decimals */\n      dup4\n        /* \"src/KipuBankV2.sol\":13611:13635  _normalizeToUSDCDecimals */\n      tag_292\n        /* \"src/KipuBankV2.sol\":13611:13653  _normalizeToUSDCDecimals(amount, decimals) */\n      jump\t// in\n    tag_291:\n        /* \"src/KipuBankV2.sol\":13590:13653  uint256 normalized = _normalizeToUSDCDecimals(amount, decimals) */\n      swap1\n      pop\n        /* \"src/KipuBankV2.sol\":13703:13706  1e8 */\n      0x05f5e100\n        /* \"src/KipuBankV2.sol\":13693:13698  price */\n      dup4\n        /* \"src/KipuBankV2.sol\":13672:13682  normalized */\n      dup3\n        /* \"src/KipuBankV2.sol\":13672:13699  normalized * uint256(price) */\n      tag_293\n      swap2\n      swap1\n      tag_294\n      jump\t// in\n    tag_293:\n        /* \"src/KipuBankV2.sol\":13671:13706  (normalized * uint256(price)) / 1e8 */\n      tag_295\n      swap2\n      swap1\n      tag_296\n      jump\t// in\n    tag_295:\n        /* \"src/KipuBankV2.sol\":13664:13706  return (normalized * uint256(price)) / 1e8 */\n      swap5\n      pop\n      pop\n      pop\n      pop\n      pop\n        /* \"src/KipuBankV2.sol\":13240:13714  function _convertTokenToUSD(address token, uint256 amount) internal view returns (uint256) {... */\n      swap3\n      swap2\n      pop\n      pop\n      jump\t// out\n        /* \"src/KipuBankV2.sol\":13030:13232  function _convertEthToUSD(uint256 amount) internal view returns (uint256) {... */\n    tag_166:\n        /* \"src/KipuBankV2.sol\":13095:13102  uint256 */\n      0x00\n        /* \"src/KipuBankV2.sol\":13115:13128  uint256 price */\n      0x00\n        /* \"src/KipuBankV2.sol\":13131:13150  getLatestEthPrice() */\n      tag_298\n        /* \"src/KipuBankV2.sol\":13131:13148  getLatestEthPrice */\n      tag_68\n        /* \"src/KipuBankV2.sol\":13131:13150  getLatestEthPrice() */\n      jump\t// in\n    tag_298:\n        /* \"src/KipuBankV2.sol\":13115:13150  uint256 price = getLatestEthPrice() */\n      swap1\n      pop\n        /* \"src/KipuBankV2.sol\":13202:13205  1e8 */\n      0x05f5e100\n        /* \"src/KipuBankV2.sol\":13193:13198  price */\n      dup2\n        /* \"src/KipuBankV2.sol\":13184:13190  amount */\n      dup5\n        /* \"src/KipuBankV2.sol\":13184:13198  amount * price */\n      tag_299\n      swap2\n      swap1\n      tag_294\n      jump\t// in\n    tag_299:\n        /* \"src/KipuBankV2.sol\":13183:13205  (amount * price) / 1e8 */\n      tag_300\n      swap2\n      swap1\n      tag_296\n      jump\t// in\n    tag_300:\n        /* \"src/KipuBankV2.sol\":13176:13205  return (amount * price) / 1e8 */\n      swap2\n      pop\n      pop\n        /* \"src/KipuBankV2.sol\":13030:13232  function _convertEthToUSD(uint256 amount) internal view returns (uint256) {... */\n      swap2\n      swap1\n      pop\n      jump\t// out\n        /* \"@openzeppelin/contracts/access/AccessControl.sol\":3175:3278  function _checkRole(bytes32 role) internal view virtual {... */\n    tag_172:\n        /* \"@openzeppelin/contracts/access/AccessControl.sol\":3241:3271  _checkRole(role, _msgSender()) */\n      tag_302\n        /* \"@openzeppelin/contracts/access/AccessControl.sol\":3252:3256  role */\n      dup2\n        /* \"@openzeppelin/contracts/access/AccessControl.sol\":3258:3270  _msgSender() */\n      tag_303\n        /* \"@openzeppelin/contracts/access/AccessControl.sol\":3258:3268  _msgSender */\n      tag_183\n        /* \"@openzeppelin/contracts/access/AccessControl.sol\":3258:3270  _msgSender() */\n      jump\t// in\n    tag_303:\n        /* \"@openzeppelin/contracts/access/AccessControl.sol\":3241:3251  _checkRole */\n      tag_304\n        /* \"@openzeppelin/contracts/access/AccessControl.sol\":3241:3271  _checkRole(role, _msgSender()) */\n      jump\t// in\n    tag_302:\n        /* \"@openzeppelin/contracts/access/AccessControl.sol\":3175:3278  function _checkRole(bytes32 role) internal view virtual {... */\n      pop\n      jump\t// out\n        /* \"@openzeppelin/contracts/access/AccessControl.sol\":6155:6471  function _grantRole(bytes32 role, address account) internal virtual returns (bool) {... */\n    tag_175:\n        /* \"@openzeppelin/contracts/access/AccessControl.sol\":6232:6236  bool */\n      0x00\n        /* \"@openzeppelin/contracts/access/AccessControl.sol\":6253:6275  hasRole(role, account) */\n      tag_306\n        /* \"@openzeppelin/contracts/access/AccessControl.sol\":6261:6265  role */\n      dup4\n        /* \"@openzeppelin/contracts/access/AccessControl.sol\":6267:6274  account */\n      dup4\n        /* \"@openzeppelin/contracts/access/AccessControl.sol\":6253:6260  hasRole */\n      tag_99\n        /* \"@openzeppelin/contracts/access/AccessControl.sol\":6253:6275  hasRole(role, account) */\n      jump\t// in\n    tag_306:\n        /* \"@openzeppelin/contracts/access/AccessControl.sol\":6248:6465  if (!hasRole(role, account)) {... */\n      tag_307\n      jumpi\n        /* \"@openzeppelin/contracts/access/AccessControl.sol\":6323:6327  true */\n      0x01\n        /* \"@openzeppelin/contracts/access/AccessControl.sol\":6291:6297  _roles */\n      0x00\n        /* \"@openzeppelin/contracts/access/AccessControl.sol\":6291:6303  _roles[role] */\n      0x00\n        /* \"@openzeppelin/contracts/access/AccessControl.sol\":6298:6302  role */\n      dup6\n        /* \"@openzeppelin/contracts/access/AccessControl.sol\":6291:6303  _roles[role] */\n      dup2\n      mstore\n      0x20\n      add\n      swap1\n      dup2\n      mstore\n      0x20\n      add\n      0x00\n      keccak256\n        /* \"@openzeppelin/contracts/access/AccessControl.sol\":6291:6311  _roles[role].hasRole */\n      0x00\n      add\n        /* \"@openzeppelin/contracts/access/AccessControl.sol\":6291:6320  _roles[role].hasRole[account] */\n      0x00\n        /* \"@openzeppelin/contracts/access/AccessControl.sol\":6312:6319  account */\n      dup5\n        /* \"@openzeppelin/contracts/access/AccessControl.sol\":6291:6320  _roles[role].hasRole[account] */\n      0xffffffffffffffffffffffffffffffffffffffff\n      and\n      0xffffffffffffffffffffffffffffffffffffffff\n      and\n      dup2\n      mstore\n      0x20\n      add\n      swap1\n      dup2\n      mstore\n      0x20\n      add\n      0x00\n      keccak256\n      0x00\n        /* \"@openzeppelin/contracts/access/AccessControl.sol\":6291:6327  _roles[role].hasRole[account] = true */\n      0x0100\n      exp\n      dup2\n      sload\n      dup2\n      0xff\n      mul\n      not\n      and\n      swap1\n      dup4\n      iszero\n      iszero\n      mul\n      or\n      swap1\n      sstore\n      pop\n        /* \"@openzeppelin/contracts/access/AccessControl.sol\":6373:6385  _msgSender() */\n      tag_308\n        /* \"@openzeppelin/contracts/access/AccessControl.sol\":6373:6383  _msgSender */\n      tag_183\n        /* \"@openzeppelin/contracts/access/AccessControl.sol\":6373:6385  _msgSender() */\n      jump\t// in\n    tag_308:\n        /* \"@openzeppelin/contracts/access/AccessControl.sol\":6346:6386  RoleGranted(role, account, _msgSender()) */\n      0xffffffffffffffffffffffffffffffffffffffff\n      and\n        /* \"@openzeppelin/contracts/access/AccessControl.sol\":6364:6371  account */\n      dup3\n        /* \"@openzeppelin/contracts/access/AccessControl.sol\":6346:6386  RoleGranted(role, account, _msgSender()) */\n      0xffffffffffffffffffffffffffffffffffffffff\n      and\n        /* \"@openzeppelin/contracts/access/AccessControl.sol\":6358:6362  role */\n      dup5\n        /* \"@openzeppelin/contracts/access/AccessControl.sol\":6346:6386  RoleGranted(role, account, _msgSender()) */\n      0x2f8788117e7eff1d82e926ec794901d17c78024a50270940304540a733656f0d\n      mload(0x40)\n      mload(0x40)\n      dup1\n      swap2\n      sub\n      swap1\n      log4\n        /* \"@openzeppelin/contracts/access/AccessControl.sol\":6407:6411  true */\n      0x01\n        /* \"@openzeppelin/contracts/access/AccessControl.sol\":6400:6411  return true */\n      swap1\n      pop\n      jump(tag_305)\n        /* \"@openzeppelin/contracts/access/AccessControl.sol\":6248:6465  if (!hasRole(role, account)) {... */\n    tag_307:\n        /* \"@openzeppelin/contracts/access/AccessControl.sol\":6449:6454  false */\n      0x00\n        /* \"@openzeppelin/contracts/access/AccessControl.sol\":6442:6454  return false */\n      swap1\n      pop\n        /* \"@openzeppelin/contracts/access/AccessControl.sol\":6155:6471  function _grantRole(bytes32 role, address account) internal virtual returns (bool) {... */\n    tag_305:\n      swap3\n      swap2\n      pop\n      pop\n      jump\t// out\n        /* \"@openzeppelin/contracts/utils/Context.sol\":656:752  function _msgSender() internal view virtual returns (address) {... */\n    tag_183:\n        /* \"@openzeppelin/contracts/utils/Context.sol\":709:716  address */\n      0x00\n        /* \"@openzeppelin/contracts/utils/Context.sol\":735:745  msg.sender */\n      caller\n        /* \"@openzeppelin/contracts/utils/Context.sol\":728:745  return msg.sender */\n      swap1\n      pop\n        /* \"@openzeppelin/contracts/utils/Context.sol\":656:752  function _msgSender() internal view virtual returns (address) {... */\n      swap1\n      jump\t// out\n        /* \"@openzeppelin/contracts/access/AccessControl.sol\":6708:7025  function _revokeRole(bytes32 role, address account) internal virtual returns (bool) {... */\n    tag_186:\n        /* \"@openzeppelin/contracts/access/AccessControl.sol\":6786:6790  bool */\n      0x00\n        /* \"@openzeppelin/contracts/access/AccessControl.sol\":6806:6828  hasRole(role, account) */\n      tag_312\n        /* \"@openzeppelin/contracts/access/AccessControl.sol\":6814:6818  role */\n      dup4\n        /* \"@openzeppelin/contracts/access/AccessControl.sol\":6820:6827  account */\n      dup4\n        /* \"@openzeppelin/contracts/access/AccessControl.sol\":6806:6813  hasRole */\n      tag_99\n        /* \"@openzeppelin/contracts/access/AccessControl.sol\":6806:6828  hasRole(role, account) */\n      jump\t// in\n    tag_312:\n        /* \"@openzeppelin/contracts/access/AccessControl.sol\":6802:7019  if (hasRole(role, account)) {... */\n      iszero\n      tag_313\n      jumpi\n        /* \"@openzeppelin/contracts/access/AccessControl.sol\":6876:6881  false */\n      0x00\n        /* \"@openzeppelin/contracts/access/AccessControl.sol\":6844:6850  _roles */\n      0x00\n        /* \"@openzeppelin/contracts/access/AccessControl.sol\":6844:6856  _roles[role] */\n      0x00\n        /* \"@openzeppelin/contracts/access/AccessControl.sol\":6851:6855  role */\n      dup6\n        /* \"@openzeppelin/contracts/access/AccessControl.sol\":6844:6856  _roles[role] */\n      dup2\n      mstore\n      0x20\n      add\n      swap1\n      dup2\n      mstore\n      0x20\n      add\n      0x00\n      keccak256\n        /* \"@openzeppelin/contracts/access/AccessControl.sol\":6844:6864  _roles[role].hasRole */\n      0x00\n      add\n        /* \"@openzeppelin/contracts/access/AccessControl.sol\":6844:6873  _roles[role].hasRole[account] */\n      0x00\n        /* \"@openzeppelin/contracts/access/AccessControl.sol\":6865:6872  account */\n      dup5\n        /* \"@openzeppelin/contracts/access/AccessControl.sol\":6844:6873  _roles[role].hasRole[account] */\n      0xffffffffffffffffffffffffffffffffffffffff\n      and\n      0xffffffffffffffffffffffffffffffffffffffff\n      and\n      dup2\n      mstore\n      0x20\n      add\n      swap1\n      dup2\n      mstore\n      0x20\n      add\n      0x00\n      keccak256\n      0x00\n        /* \"@openzeppelin/contracts/access/AccessControl.sol\":6844:6881  _roles[role].hasRole[account] = false */\n      0x0100\n      exp\n      dup2\n      sload\n      dup2\n      0xff\n      mul\n      not\n      and\n      swap1\n      dup4\n      iszero\n      iszero\n      mul\n      or\n      swap1\n      sstore\n      pop\n        /* \"@openzeppelin/contracts/access/AccessControl.sol\":6927:6939  _msgSender() */\n      tag_314\n        /* \"@openzeppelin/contracts/access/AccessControl.sol\":6927:6937  _msgSender */\n      tag_183\n        /* \"@openzeppelin/contracts/access/AccessControl.sol\":6927:6939  _msgSender() */\n      jump\t// in\n    tag_314:\n        /* \"@openzeppelin/contracts/access/AccessControl.sol\":6900:6940  RoleRevoked(role, account, _msgSender()) */\n      0xffffffffffffffffffffffffffffffffffffffff\n      and\n        /* \"@openzeppelin/contracts/access/AccessControl.sol\":6918:6925  account */\n      dup3\n        /* \"@openzeppelin/contracts/access/AccessControl.sol\":6900:6940  RoleRevoked(role, account, _msgSender()) */\n      0xffffffffffffffffffffffffffffffffffffffff\n      and\n        /* \"@openzeppelin/contracts/access/AccessControl.sol\":6912:6916  role */\n      dup5\n        /* \"@openzeppelin/contracts/access/AccessControl.sol\":6900:6940  RoleRevoked(role, account, _msgSender()) */\n      0xf6391f5c32d9c69d2a47ea670b442974b53935d1edc7fd64eb21e047a839171b\n      mload(0x40)\n      mload(0x40)\n      dup1\n      swap2\n      sub\n      swap1\n      log4\n        /* \"@openzeppelin/contracts/access/AccessControl.sol\":6961:6965  true */\n      0x01\n        /* \"@openzeppelin/contracts/access/AccessControl.sol\":6954:6965  return true */\n      swap1\n      pop\n      jump(tag_311)\n        /* \"@openzeppelin/contracts/access/AccessControl.sol\":6802:7019  if (hasRole(role, account)) {... */\n    tag_313:\n        /* \"@openzeppelin/contracts/access/AccessControl.sol\":7003:7008  false */\n      0x00\n        /* \"@openzeppelin/contracts/access/AccessControl.sol\":6996:7008  return false */\n      swap1\n      pop\n        /* \"@openzeppelin/contracts/access/AccessControl.sol\":6708:7025  function _revokeRole(bytes32 role, address account) internal virtual returns (bool) {... */\n    tag_311:\n      swap3\n      swap2\n      pop\n      pop\n      jump\t// out\n        /* \"@openzeppelin/contracts/security/ReentrancyGuard.sol\":2336:2623  function _nonReentrantBefore() private {... */\n    tag_189:\n        /* \"@openzeppelin/contracts/security/ReentrancyGuard.sol\":1759:1760  2 */\n      0x02\n        /* \"@openzeppelin/contracts/security/ReentrancyGuard.sol\":2468:2475  _status */\n      sload(0x01)\n        /* \"@openzeppelin/contracts/security/ReentrancyGuard.sol\":2468:2487  _status != _ENTERED */\n      sub\n        /* \"@openzeppelin/contracts/security/ReentrancyGuard.sol\":2460:2523  require(_status != _ENTERED, \"ReentrancyGuard: reentrant call\") */\n      tag_317\n      jumpi\n      mload(0x40)\n      0x08c379a000000000000000000000000000000000000000000000000000000000\n      dup2\n      mstore\n      0x04\n      add\n      tag_318\n      swap1\n      tag_319\n      jump\t// in\n    tag_318:\n      mload(0x40)\n      dup1\n      swap2\n      sub\n      swap1\n      revert\n    tag_317:\n        /* \"@openzeppelin/contracts/security/ReentrancyGuard.sol\":1759:1760  2 */\n      0x02\n        /* \"@openzeppelin/contracts/security/ReentrancyGuard.sol\":2598:2605  _status */\n      0x01\n        /* \"@openzeppelin/contracts/security/ReentrancyGuard.sol\":2598:2616  _status = _ENTERED */\n      dup2\n      swap1\n      sstore\n      pop\n        /* \"@openzeppelin/contracts/security/ReentrancyGuard.sol\":2336:2623  function _nonReentrantBefore() private {... */\n      jump\t// out\n        /* \"@openzeppelin/contracts/token/ERC20/utils/SafeERC20.sol\":1618:1806  function safeTransferFrom(IERC20 token, address from, address to, uint256 value) internal {... */\n    tag_199:\n        /* \"@openzeppelin/contracts/token/ERC20/utils/SafeERC20.sol\":1718:1799  _callOptionalReturn(token, abi.encodeCall(token.transferFrom, (from, to, value))) */\n      tag_321\n        /* \"@openzeppelin/contracts/token/ERC20/utils/SafeERC20.sol\":1738:1743  token */\n      dup5\n        /* \"@openzeppelin/contracts/token/ERC20/utils/SafeERC20.sol\":1760:1765  token */\n      dup6\n        /* \"@openzeppelin/contracts/token/ERC20/utils/SafeERC20.sol\":1760:1778  token.transferFrom */\n      0xffffffffffffffffffffffffffffffffffffffff\n      and\n      0x23b872dd\n        /* \"@openzeppelin/contracts/token/ERC20/utils/SafeERC20.sol\":1781:1785  from */\n      dup7\n        /* \"@openzeppelin/contracts/token/ERC20/utils/SafeERC20.sol\":1787:1789  to */\n      dup7\n        /* \"@openzeppelin/contracts/token/ERC20/utils/SafeERC20.sol\":1791:1796  value */\n      dup7\n        /* \"@openzeppelin/contracts/token/ERC20/utils/SafeERC20.sol\":1745:1798  abi.encodeCall(token.transferFrom, (from, to, value)) */\n      add(0x24, mload(0x40))\n      tag_322\n      swap4\n      swap3\n      swap2\n      swap1\n      tag_323\n      jump\t// in\n    tag_322:\n      mload(0x40)\n      0x20\n      dup2\n      dup4\n      sub\n      sub\n      dup2\n      mstore\n      swap1\n      0x40\n      mstore\n      swap2\n      pop\n      0xe0\n      shl\n      0x20\n      dup3\n      add\n      dup1\n      mload\n      0xffffffffffffffffffffffffffffffffffffffffffffffffffffffff\n      dup4\n      dup2\n      dup4\n      and\n      or\n      dup4\n      mstore\n      pop\n      pop\n      pop\n      pop\n        /* \"@openzeppelin/contracts/token/ERC20/utils/SafeERC20.sol\":1718:1737  _callOptionalReturn */\n      tag_324\n        /* \"@openzeppelin/contracts/token/ERC20/utils/SafeERC20.sol\":1718:1799  _callOptionalReturn(token, abi.encodeCall(token.transferFrom, (from, to, value))) */\n      jump\t// in\n    tag_321:\n        /* \"@openzeppelin/contracts/token/ERC20/utils/SafeERC20.sol\":1618:1806  function safeTransferFrom(IERC20 token, address from, address to, uint256 value) internal {... */\n      pop\n      pop\n      pop\n      pop\n      jump\t// out\n        /* \"@openzeppelin/contracts/security/ReentrancyGuard.sol\":2629:2838  function _nonReentrantAfter() private {... */\n    tag_211:\n        /* \"@openzeppelin/contracts/security/ReentrancyGuard.sol\":1716:1717  1 */\n      0x01\n        /* \"@openzeppelin/contracts/security/ReentrancyGuard.sol\":2809:2816  _status */\n      dup1\n        /* \"@openzeppelin/contracts/security/ReentrancyGuard.sol\":2809:2831  _status = _NOT_ENTERED */\n      dup2\n      swap1\n      sstore\n      pop\n        /* \"@openzeppelin/contracts/security/ReentrancyGuard.sol\":2629:2838  function _nonReentrantAfter() private {... */\n      jump\t// out\n        /* \"@openzeppelin/contracts/token/ERC20/utils/SafeERC20.sol\":1219:1379  function safeTransfer(IERC20 token, address to, uint256 value) internal {... */\n    tag_278:\n        /* \"@openzeppelin/contracts/token/ERC20/utils/SafeERC20.sol\":1301:1372  _callOptionalReturn(token, abi.encodeCall(token.transfer, (to, value))) */\n      tag_327\n        /* \"@openzeppelin/contracts/token/ERC20/utils/SafeERC20.sol\":1321:1326  token */\n      dup4\n        /* \"@openzeppelin/contracts/token/ERC20/utils/SafeERC20.sol\":1343:1348  token */\n      dup5\n        /* \"@openzeppelin/contracts/token/ERC20/utils/SafeERC20.sol\":1343:1357  token.transfer */\n      0xffffffffffffffffffffffffffffffffffffffff\n      and\n      0xa9059cbb\n        /* \"@openzeppelin/contracts/token/ERC20/utils/SafeERC20.sol\":1360:1362  to */\n      dup6\n        /* \"@openzeppelin/contracts/token/ERC20/utils/SafeERC20.sol\":1364:1369  value */\n      dup6\n        /* \"@openzeppelin/contracts/token/ERC20/utils/SafeERC20.sol\":1328:1371  abi.encodeCall(token.transfer, (to, value)) */\n      add(0x24, mload(0x40))\n      tag_328\n      swap3\n      swap2\n      swap1\n      tag_329\n      jump\t// in\n    tag_328:\n      mload(0x40)\n      0x20\n      dup2\n      dup4\n      sub\n      sub\n      dup2\n      mstore\n      swap1\n      0x40\n      mstore\n      swap2\n      pop\n      0xe0\n      shl\n      0x20\n      dup3\n      add\n      dup1\n      mload\n      0xffffffffffffffffffffffffffffffffffffffffffffffffffffffff\n      dup4\n      dup2\n      dup4\n      and\n      or\n      dup4\n      mstore\n      pop\n      pop\n      pop\n      pop\n        /* \"@openzeppelin/contracts/token/ERC20/utils/SafeERC20.sol\":1301:1320  _callOptionalReturn */\n      tag_324\n        /* \"@openzeppelin/contracts/token/ERC20/utils/SafeERC20.sol\":1301:1372  _callOptionalReturn(token, abi.encodeCall(token.transfer, (to, value))) */\n      jump\t// in\n    tag_327:\n        /* \"@openzeppelin/contracts/token/ERC20/utils/SafeERC20.sol\":1219:1379  function safeTransfer(IERC20 token, address to, uint256 value) internal {... */\n      pop\n      pop\n      pop\n      jump\t// out\n        /* \"src/KipuBankV2.sol\":13947:14305  function _normalizeToUSDCDecimals(uint256 amount, uint8 tokenDecimals) internal pure returns (uint256){... */\n    tag_292:\n        /* \"src/KipuBankV2.sol\":14041:14048  uint256 */\n      0x00\n        /* \"src/KipuBankV2.sol\":14080:14081  6 */\n      0x06\n        /* \"src/KipuBankV2.sol\":14064:14077  tokenDecimals */\n      dup3\n        /* \"src/KipuBankV2.sol\":14064:14081  tokenDecimals > 6 */\n      0xff\n      and\n      gt\n        /* \"src/KipuBankV2.sol\":14060:14298  if (tokenDecimals > 6) {... */\n      iszero\n      tag_331\n      jumpi\n        /* \"src/KipuBankV2.sol\":14138:14139  6 */\n      0x06\n        /* \"src/KipuBankV2.sol\":14122:14135  tokenDecimals */\n      dup3\n        /* \"src/KipuBankV2.sol\":14122:14139  tokenDecimals - 6 */\n      tag_332\n      swap2\n      swap1\n      tag_333\n      jump\t// in\n    tag_332:\n        /* \"src/KipuBankV2.sol\":14115:14117  10 */\n      0x0a\n        /* \"src/KipuBankV2.sol\":14115:14140  10 ** (tokenDecimals - 6) */\n      tag_334\n      swap2\n      swap1\n      tag_335\n      jump\t// in\n    tag_334:\n        /* \"src/KipuBankV2.sol\":14105:14111  amount */\n      dup4\n        /* \"src/KipuBankV2.sol\":14105:14141  amount / (10 ** (tokenDecimals - 6)) */\n      tag_336\n      swap2\n      swap1\n      tag_296\n      jump\t// in\n    tag_336:\n        /* \"src/KipuBankV2.sol\":14098:14141  return amount / (10 ** (tokenDecimals - 6)) */\n      swap1\n      pop\n      jump(tag_330)\n        /* \"src/KipuBankV2.sol\":14060:14298  if (tokenDecimals > 6) {... */\n    tag_331:\n        /* \"src/KipuBankV2.sol\":14179:14180  6 */\n      0x06\n        /* \"src/KipuBankV2.sol\":14163:14176  tokenDecimals */\n      dup3\n        /* \"src/KipuBankV2.sol\":14163:14180  tokenDecimals < 6 */\n      0xff\n      and\n      lt\n        /* \"src/KipuBankV2.sol\":14159:14298  if (tokenDecimals < 6) {... */\n      iszero\n      tag_338\n      jumpi\n        /* \"src/KipuBankV2.sol\":14225:14238  tokenDecimals */\n      dup2\n        /* \"src/KipuBankV2.sol\":14221:14222  6 */\n      0x06\n        /* \"src/KipuBankV2.sol\":14221:14238  6 - tokenDecimals */\n      tag_339\n      swap2\n      swap1\n      tag_333\n      jump\t// in\n    tag_339:\n        /* \"src/KipuBankV2.sol\":14214:14216  10 */\n      0x0a\n        /* \"src/KipuBankV2.sol\":14214:14239  10 ** (6 - tokenDecimals) */\n      tag_340\n      swap2\n      swap1\n      tag_335\n      jump\t// in\n    tag_340:\n        /* \"src/KipuBankV2.sol\":14204:14210  amount */\n      dup4\n        /* \"src/KipuBankV2.sol\":14204:14240  amount * (10 ** (6 - tokenDecimals)) */\n      tag_341\n      swap2\n      swap1\n      tag_294\n      jump\t// in\n    tag_341:\n        /* \"src/KipuBankV2.sol\":14197:14240  return amount * (10 ** (6 - tokenDecimals)) */\n      swap1\n      pop\n      jump(tag_330)\n        /* \"src/KipuBankV2.sol\":14159:14298  if (tokenDecimals < 6) {... */\n    tag_338:\n        /* \"src/KipuBankV2.sol\":14280:14286  amount */\n      dup3\n        /* \"src/KipuBankV2.sol\":14273:14286  return amount */\n      swap1\n      pop\n        /* \"src/KipuBankV2.sol\":13947:14305  function _normalizeToUSDCDecimals(uint256 amount, uint8 tokenDecimals) internal pure returns (uint256){... */\n    tag_330:\n      swap3\n      swap2\n      pop\n      pop\n      jump\t// out\n        /* \"@openzeppelin/contracts/access/AccessControl.sol\":3408:3605  function _checkRole(bytes32 role, address account) internal view virtual {... */\n    tag_304:\n        /* \"@openzeppelin/contracts/access/AccessControl.sol\":3496:3518  hasRole(role, account) */\n      tag_344\n        /* \"@openzeppelin/contracts/access/AccessControl.sol\":3504:3508  role */\n      dup3\n        /* \"@openzeppelin/contracts/access/AccessControl.sol\":3510:3517  account */\n      dup3\n        /* \"@openzeppelin/contracts/access/AccessControl.sol\":3496:3503  hasRole */\n      tag_99\n        /* \"@openzeppelin/contracts/access/AccessControl.sol\":3496:3518  hasRole(role, account) */\n      jump\t// in\n    tag_344:\n        /* \"@openzeppelin/contracts/access/AccessControl.sol\":3491:3599  if (!hasRole(role, account)) {... */\n      tag_345\n      jumpi\n        /* \"@openzeppelin/contracts/access/AccessControl.sol\":3574:3581  account */\n      dup1\n        /* \"@openzeppelin/contracts/access/AccessControl.sol\":3583:3587  role */\n      dup3\n        /* \"@openzeppelin/contracts/access/AccessControl.sol\":3541:3588  AccessControlUnauthorizedAccount(account, role) */\n      mload(0x40)\n      0xe2517d3f00000000000000000000000000000000000000000000000000000000\n      dup2\n      mstore\n      0x04\n      add\n      tag_346\n      swap3\n      swap2\n      swap1\n      tag_347\n      jump\t// in\n    tag_346:\n      mload(0x40)\n      dup1\n      swap2\n      sub\n      swap1\n      revert\n        /* \"@openzeppelin/contracts/access/AccessControl.sol\":3491:3599  if (!hasRole(role, account)) {... */\n    tag_345:\n        /* \"@openzeppelin/contracts/access/AccessControl.sol\":3408:3605  function _checkRole(bytes32 role, address account) internal view virtual {... */\n      pop\n      pop\n      jump\t// out\n        /* \"@openzeppelin/contracts/token/ERC20/utils/SafeERC20.sol\":8370:9090  function _callOptionalReturn(IERC20 token, bytes memory data) private {... */\n    tag_324:\n        /* \"@openzeppelin/contracts/token/ERC20/utils/SafeERC20.sol\":8450:8468  uint256 returnSize */\n      0x00\n        /* \"@openzeppelin/contracts/token/ERC20/utils/SafeERC20.sol\":8478:8497  uint256 returnValue */\n      0x00\n        /* \"@openzeppelin/contracts/token/ERC20/utils/SafeERC20.sol\":8616:8620  0x20 */\n      0x20\n        /* \"@openzeppelin/contracts/token/ERC20/utils/SafeERC20.sol\":8613:8614  0 */\n      0x00\n        /* \"@openzeppelin/contracts/token/ERC20/utils/SafeERC20.sol\":8606:8610  data */\n      dup5\n        /* \"@openzeppelin/contracts/token/ERC20/utils/SafeERC20.sol\":8600:8611  mload(data) */\n      mload\n        /* \"@openzeppelin/contracts/token/ERC20/utils/SafeERC20.sol\":8593:8597  0x20 */\n      0x20\n        /* \"@openzeppelin/contracts/token/ERC20/utils/SafeERC20.sol\":8587:8591  data */\n      dup7\n        /* \"@openzeppelin/contracts/token/ERC20/utils/SafeERC20.sol\":8583:8598  add(data, 0x20) */\n      add\n        /* \"@openzeppelin/contracts/token/ERC20/utils/SafeERC20.sol\":8580:8581  0 */\n      0x00\n        /* \"@openzeppelin/contracts/token/ERC20/utils/SafeERC20.sol\":8573:8578  token */\n      dup9\n        /* \"@openzeppelin/contracts/token/ERC20/utils/SafeERC20.sol\":8566:8571  gas() */\n      gas\n        /* \"@openzeppelin/contracts/token/ERC20/utils/SafeERC20.sol\":8561:8621  call(gas(), token, 0, add(data, 0x20), mload(data), 0, 0x20) */\n      call\n        /* \"@openzeppelin/contracts/token/ERC20/utils/SafeERC20.sol\":8673:8680  success */\n      dup1\n        /* \"@openzeppelin/contracts/token/ERC20/utils/SafeERC20.sol\":8663:8839  if iszero(success) {... */\n      tag_349\n      jumpi\n        /* \"@openzeppelin/contracts/token/ERC20/utils/SafeERC20.sol\":8717:8721  0x40 */\n      0x40\n        /* \"@openzeppelin/contracts/token/ERC20/utils/SafeERC20.sol\":8711:8722  mload(0x40) */\n      mload\n        /* \"@openzeppelin/contracts/token/ERC20/utils/SafeERC20.sol\":8762:8778  returndatasize() */\n      returndatasize\n        /* \"@openzeppelin/contracts/token/ERC20/utils/SafeERC20.sol\":8759:8760  0 */\n      0x00\n        /* \"@openzeppelin/contracts/token/ERC20/utils/SafeERC20.sol\":8754:8757  ptr */\n      dup3\n        /* \"@openzeppelin/contracts/token/ERC20/utils/SafeERC20.sol\":8739:8779  returndatacopy(ptr, 0, returndatasize()) */\n      returndatacopy\n        /* \"@openzeppelin/contracts/token/ERC20/utils/SafeERC20.sol\":8808:8824  returndatasize() */\n      returndatasize\n        /* \"@openzeppelin/contracts/token/ERC20/utils/SafeERC20.sol\":8803:8806  ptr */\n      dup2\n        /* \"@openzeppelin/contracts/token/ERC20/utils/SafeERC20.sol\":8796:8825  revert(ptr, returndatasize()) */\n      revert\n        /* \"@openzeppelin/contracts/token/ERC20/utils/SafeERC20.sol\":8663:8839  if iszero(success) {... */\n    tag_349:\n        /* \"@openzeppelin/contracts/token/ERC20/utils/SafeERC20.sol\":8866:8882  returndatasize() */\n      returndatasize\n        /* \"@openzeppelin/contracts/token/ERC20/utils/SafeERC20.sol\":8852:8882  returnSize := returndatasize() */\n      swap3\n      pop\n        /* \"@openzeppelin/contracts/token/ERC20/utils/SafeERC20.sol\":8916:8917  0 */\n      0x00\n        /* \"@openzeppelin/contracts/token/ERC20/utils/SafeERC20.sol\":8910:8918  mload(0) */\n      mload\n        /* \"@openzeppelin/contracts/token/ERC20/utils/SafeERC20.sol\":8895:8918  returnValue := mload(0) */\n      swap2\n      pop\n        /* \"@openzeppelin/contracts/token/ERC20/utils/SafeERC20.sol\":8532:8928  {... */\n      pop\n        /* \"@openzeppelin/contracts/token/ERC20/utils/SafeERC20.sol\":8956:8957  0 */\n      0x00\n        /* \"@openzeppelin/contracts/token/ERC20/utils/SafeERC20.sol\":8942:8952  returnSize */\n      dup3\n        /* \"@openzeppelin/contracts/token/ERC20/utils/SafeERC20.sol\":8942:8957  returnSize == 0 */\n      eq\n        /* \"@openzeppelin/contracts/token/ERC20/utils/SafeERC20.sol\":8942:9010  returnSize == 0 ? address(token).code.length == 0 : returnValue != 1 */\n      tag_350\n      jumpi\n        /* \"@openzeppelin/contracts/token/ERC20/utils/SafeERC20.sol\":9009:9010  1 */\n      0x01\n        /* \"@openzeppelin/contracts/token/ERC20/utils/SafeERC20.sol\":8994:9005  returnValue */\n      dup2\n        /* \"@openzeppelin/contracts/token/ERC20/utils/SafeERC20.sol\":8994:9010  returnValue != 1 */\n      eq\n      iszero\n        /* \"@openzeppelin/contracts/token/ERC20/utils/SafeERC20.sol\":8942:9010  returnSize == 0 ? address(token).code.length == 0 : returnValue != 1 */\n      jump(tag_351)\n    tag_350:\n        /* \"@openzeppelin/contracts/token/ERC20/utils/SafeERC20.sol\":8990:8991  0 */\n      0x00\n        /* \"@openzeppelin/contracts/token/ERC20/utils/SafeERC20.sol\":8968:8973  token */\n      dup5\n        /* \"@openzeppelin/contracts/token/ERC20/utils/SafeERC20.sol\":8960:8986  address(token).code.length */\n      0xffffffffffffffffffffffffffffffffffffffff\n      and\n      extcodesize\n        /* \"@openzeppelin/contracts/token/ERC20/utils/SafeERC20.sol\":8960:8991  address(token).code.length == 0 */\n      eq\n        /* \"@openzeppelin/contracts/token/ERC20/utils/SafeERC20.sol\":8942:9010  returnSize == 0 ? address(token).code.length == 0 : returnValue != 1 */\n    tag_351:\n        /* \"@openzeppelin/contracts/token/ERC20/utils/SafeERC20.sol\":8938:9084  if (returnSize == 0 ? address(token).code.length == 0 : returnValue != 1) {... */\n      iszero\n      tag_352\n      jumpi\n        /* \"@openzeppelin/contracts/token/ERC20/utils/SafeERC20.sol\":9066:9071  token */\n      dup4\n        /* \"@openzeppelin/contracts/token/ERC20/utils/SafeERC20.sol\":9033:9073  SafeERC20FailedOperation(address(token)) */\n      mload(0x40)\n      0x5274afe700000000000000000000000000000000000000000000000000000000\n      dup2\n      mstore\n      0x04\n      add\n      tag_353\n      swap2\n      swap1\n      tag_354\n      jump\t// in\n    tag_353:\n      mload(0x40)\n      dup1\n      swap2\n      sub\n      swap1\n      revert\n        /* \"@openzeppelin/contracts/token/ERC20/utils/SafeERC20.sol\":8938:9084  if (returnSize == 0 ? address(token).code.length == 0 : returnValue != 1) {... */\n    tag_352:\n        /* \"@openzeppelin/contracts/token/ERC20/utils/SafeERC20.sol\":8440:9090  {... */\n      pop\n      pop\n        /* \"@openzeppelin/contracts/token/ERC20/utils/SafeERC20.sol\":8370:9090  function _callOptionalReturn(IERC20 token, bytes memory data) private {... */\n      pop\n      pop\n      jump\t// out\n        /* \"#utility.yul\":88:205   */\n    tag_356:\n        /* \"#utility.yul\":197:198   */\n      0x00\n        /* \"#utility.yul\":194:195   */\n      0x00\n        /* \"#utility.yul\":187:199   */\n      revert\n        /* \"#utility.yul\":334:483   */\n    tag_358:\n        /* \"#utility.yul\":370:377   */\n      0x00\n        /* \"#utility.yul\":410:476   */\n      0xffffffff00000000000000000000000000000000000000000000000000000000\n        /* \"#utility.yul\":403:408   */\n      dup3\n        /* \"#utility.yul\":399:477   */\n      and\n        /* \"#utility.yul\":388:477   */\n      swap1\n      pop\n        /* \"#utility.yul\":334:483   */\n      swap2\n      swap1\n      pop\n      jump\t// out\n        /* \"#utility.yul\":489:609   */\n    tag_359:\n        /* \"#utility.yul\":561:584   */\n      tag_415\n        /* \"#utility.yul\":578:583   */\n      dup2\n        /* \"#utility.yul\":561:584   */\n      tag_358\n      jump\t// in\n    tag_415:\n        /* \"#utility.yul\":554:559   */\n      dup2\n        /* \"#utility.yul\":551:585   */\n      eq\n        /* \"#utility.yul\":541:603   */\n      tag_416\n      jumpi\n        /* \"#utility.yul\":599:600   */\n      0x00\n        /* \"#utility.yul\":596:597   */\n      0x00\n        /* \"#utility.yul\":589:601   */\n      revert\n        /* \"#utility.yul\":541:603   */\n    tag_416:\n        /* \"#utility.yul\":489:609   */\n      pop\n      jump\t// out\n        /* \"#utility.yul\":615:752   */\n    tag_360:\n        /* \"#utility.yul\":660:665   */\n      0x00\n        /* \"#utility.yul\":698:704   */\n      dup2\n        /* \"#utility.yul\":685:705   */\n      calldataload\n        /* \"#utility.yul\":676:705   */\n      swap1\n      pop\n        /* \"#utility.yul\":714:746   */\n      tag_418\n        /* \"#utility.yul\":740:745   */\n      dup2\n        /* \"#utility.yul\":714:746   */\n      tag_359\n      jump\t// in\n    tag_418:\n        /* \"#utility.yul\":615:752   */\n      swap3\n      swap2\n      pop\n      pop\n      jump\t// out\n        /* \"#utility.yul\":758:1085   */\n    tag_37:\n        /* \"#utility.yul\":816:822   */\n      0x00\n        /* \"#utility.yul\":865:867   */\n      0x20\n        /* \"#utility.yul\":853:862   */\n      dup3\n        /* \"#utility.yul\":844:851   */\n      dup5\n        /* \"#utility.yul\":840:863   */\n      sub\n        /* \"#utility.yul\":836:868   */\n      slt\n        /* \"#utility.yul\":833:952   */\n      iszero\n      tag_420\n      jumpi\n        /* \"#utility.yul\":871:950   */\n      tag_421\n      tag_356\n      jump\t// in\n    tag_421:\n        /* \"#utility.yul\":833:952   */\n    tag_420:\n        /* \"#utility.yul\":991:992   */\n      0x00\n        /* \"#utility.yul\":1016:1068   */\n      tag_422\n        /* \"#utility.yul\":1060:1067   */\n      dup5\n        /* \"#utility.yul\":1051:1057   */\n      dup3\n        /* \"#utility.yul\":1040:1049   */\n      dup6\n        /* \"#utility.yul\":1036:1058   */\n      add\n        /* \"#utility.yul\":1016:1068   */\n      tag_360\n      jump\t// in\n    tag_422:\n        /* \"#utility.yul\":1006:1068   */\n      swap2\n      pop\n        /* \"#utility.yul\":962:1078   */\n      pop\n        /* \"#utility.yul\":758:1085   */\n      swap3\n      swap2\n      pop\n      pop\n      jump\t// out\n        /* \"#utility.yul\":1091:1181   */\n    tag_361:\n        /* \"#utility.yul\":1125:1132   */\n      0x00\n        /* \"#utility.yul\":1168:1173   */\n      dup2\n        /* \"#utility.yul\":1161:1174   */\n      iszero\n        /* \"#utility.yul\":1154:1175   */\n      iszero\n        /* \"#utility.yul\":1143:1175   */\n      swap1\n      pop\n        /* \"#utility.yul\":1091:1181   */\n      swap2\n      swap1\n      pop\n      jump\t// out\n        /* \"#utility.yul\":1187:1296   */\n    tag_362:\n        /* \"#utility.yul\":1268:1289   */\n      tag_425\n        /* \"#utility.yul\":1283:1288   */\n      dup2\n        /* \"#utility.yul\":1268:1289   */\n      tag_361\n      jump\t// in\n    tag_425:\n        /* \"#utility.yul\":1263:1266   */\n      dup3\n        /* \"#utility.yul\":1256:1290   */\n      mstore\n        /* \"#utility.yul\":1187:1296   */\n      pop\n      pop\n      jump\t// out\n        /* \"#utility.yul\":1302:1512   */\n    tag_40:\n        /* \"#utility.yul\":1389:1393   */\n      0x00\n        /* \"#utility.yul\":1427:1429   */\n      0x20\n        /* \"#utility.yul\":1416:1425   */\n      dup3\n        /* \"#utility.yul\":1412:1430   */\n      add\n        /* \"#utility.yul\":1404:1430   */\n      swap1\n      pop\n        /* \"#utility.yul\":1440:1505   */\n      tag_427\n        /* \"#utility.yul\":1502:1503   */\n      0x00\n        /* \"#utility.yul\":1491:1500   */\n      dup4\n        /* \"#utility.yul\":1487:1504   */\n      add\n        /* \"#utility.yul\":1478:1484   */\n      dup5\n        /* \"#utility.yul\":1440:1505   */\n      tag_362\n      jump\t// in\n    tag_427:\n        /* \"#utility.yul\":1302:1512   */\n      swap3\n      swap2\n      pop\n      pop\n      jump\t// out\n        /* \"#utility.yul\":1518:1644   */\n    tag_363:\n        /* \"#utility.yul\":1555:1562   */\n      0x00\n        /* \"#utility.yul\":1595:1637   */\n      0xffffffffffffffffffffffffffffffffffffffff\n        /* \"#utility.yul\":1588:1593   */\n      dup3\n        /* \"#utility.yul\":1584:1638   */\n      and\n        /* \"#utility.yul\":1573:1638   */\n      swap1\n      pop\n        /* \"#utility.yul\":1518:1644   */\n      swap2\n      swap1\n      pop\n      jump\t// out\n        /* \"#utility.yul\":1650:1746   */\n    tag_364:\n        /* \"#utility.yul\":1687:1694   */\n      0x00\n        /* \"#utility.yul\":1716:1740   */\n      tag_430\n        /* \"#utility.yul\":1734:1739   */\n      dup3\n        /* \"#utility.yul\":1716:1740   */\n      tag_363\n      jump\t// in\n    tag_430:\n        /* \"#utility.yul\":1705:1740   */\n      swap1\n      pop\n        /* \"#utility.yul\":1650:1746   */\n      swap2\n      swap1\n      pop\n      jump\t// out\n        /* \"#utility.yul\":1752:1874   */\n    tag_365:\n        /* \"#utility.yul\":1825:1849   */\n      tag_432\n        /* \"#utility.yul\":1843:1848   */\n      dup2\n        /* \"#utility.yul\":1825:1849   */\n      tag_364\n      jump\t// in\n    tag_432:\n        /* \"#utility.yul\":1818:1823   */\n      dup2\n        /* \"#utility.yul\":1815:1850   */\n      eq\n        /* \"#utility.yul\":1805:1868   */\n      tag_433\n      jumpi\n        /* \"#utility.yul\":1864:1865   */\n      0x00\n        /* \"#utility.yul\":1861:1862   */\n      0x00\n        /* \"#utility.yul\":1854:1866   */\n      revert\n        /* \"#utility.yul\":1805:1868   */\n    tag_433:\n        /* \"#utility.yul\":1752:1874   */\n      pop\n      jump\t// out\n        /* \"#utility.yul\":1880:2019   */\n    tag_366:\n        /* \"#utility.yul\":1926:1931   */\n      0x00\n        /* \"#utility.yul\":1964:1970   */\n      dup2\n        /* \"#utility.yul\":1951:1971   */\n      calldataload\n        /* \"#utility.yul\":1942:1971   */\n      swap1\n      pop\n        /* \"#utility.yul\":1980:2013   */\n      tag_435\n        /* \"#utility.yul\":2007:2012   */\n      dup2\n        /* \"#utility.yul\":1980:2013   */\n      tag_365\n      jump\t// in\n    tag_435:\n        /* \"#utility.yul\":1880:2019   */\n      swap3\n      swap2\n      pop\n      pop\n      jump\t// out\n        /* \"#utility.yul\":2025:2354   */\n    tag_44:\n        /* \"#utility.yul\":2084:2090   */\n      0x00\n        /* \"#utility.yul\":2133:2135   */\n      0x20\n        /* \"#utility.yul\":2121:2130   */\n      dup3\n        /* \"#utility.yul\":2112:2119   */\n      dup5\n        /* \"#utility.yul\":2108:2131   */\n      sub\n        /* \"#utility.yul\":2104:2136   */\n      slt\n        /* \"#utility.yul\":2101:2220   */\n      iszero\n      tag_437\n      jumpi\n        /* \"#utility.yul\":2139:2218   */\n      tag_438\n      tag_356\n      jump\t// in\n    tag_438:\n        /* \"#utility.yul\":2101:2220   */\n    tag_437:\n        /* \"#utility.yul\":2259:2260   */\n      0x00\n        /* \"#utility.yul\":2284:2337   */\n      tag_439\n        /* \"#utility.yul\":2329:2336   */\n      dup5\n        /* \"#utility.yul\":2320:2326   */\n      dup3\n        /* \"#utility.yul\":2309:2318   */\n      dup6\n        /* \"#utility.yul\":2305:2327   */\n      add\n        /* \"#utility.yul\":2284:2337   */\n      tag_366\n      jump\t// in\n    tag_439:\n        /* \"#utility.yul\":2274:2337   */\n      swap2\n      pop\n        /* \"#utility.yul\":2230:2347   */\n      pop\n        /* \"#utility.yul\":2025:2354   */\n      swap3\n      swap2\n      pop\n      pop\n      jump\t// out\n        /* \"#utility.yul\":2360:2437   */\n    tag_367:\n        /* \"#utility.yul\":2397:2404   */\n      0x00\n        /* \"#utility.yul\":2426:2431   */\n      dup2\n        /* \"#utility.yul\":2415:2431   */\n      swap1\n      pop\n        /* \"#utility.yul\":2360:2437   */\n      swap2\n      swap1\n      pop\n      jump\t// out\n        /* \"#utility.yul\":2443:2561   */\n    tag_368:\n        /* \"#utility.yul\":2530:2554   */\n      tag_442\n        /* \"#utility.yul\":2548:2553   */\n      dup2\n        /* \"#utility.yul\":2530:2554   */\n      tag_367\n      jump\t// in\n    tag_442:\n        /* \"#utility.yul\":2525:2528   */\n      dup3\n        /* \"#utility.yul\":2518:2555   */\n      mstore\n        /* \"#utility.yul\":2443:2561   */\n      pop\n      pop\n      jump\t// out\n        /* \"#utility.yul\":2567:2789   */\n    tag_47:\n        /* \"#utility.yul\":2660:2664   */\n      0x00\n        /* \"#utility.yul\":2698:2700   */\n      0x20\n        /* \"#utility.yul\":2687:2696   */\n      dup3\n        /* \"#utility.yul\":2683:2701   */\n      add\n        /* \"#utility.yul\":2675:2701   */\n      swap1\n      pop\n        /* \"#utility.yul\":2711:2782   */\n      tag_444\n        /* \"#utility.yul\":2779:2780   */\n      0x00\n        /* \"#utility.yul\":2768:2777   */\n      dup4\n        /* \"#utility.yul\":2764:2781   */\n      add\n        /* \"#utility.yul\":2755:2761   */\n      dup5\n        /* \"#utility.yul\":2711:2782   */\n      tag_368\n      jump\t// in\n    tag_444:\n        /* \"#utility.yul\":2567:2789   */\n      swap3\n      swap2\n      pop\n      pop\n      jump\t// out\n        /* \"#utility.yul\":2795:2872   */\n    tag_369:\n        /* \"#utility.yul\":2832:2839   */\n      0x00\n        /* \"#utility.yul\":2861:2866   */\n      dup2\n        /* \"#utility.yul\":2850:2866   */\n      swap1\n      pop\n        /* \"#utility.yul\":2795:2872   */\n      swap2\n      swap1\n      pop\n      jump\t// out\n        /* \"#utility.yul\":2878:3000   */\n    tag_370:\n        /* \"#utility.yul\":2951:2975   */\n      tag_447\n        /* \"#utility.yul\":2969:2974   */\n      dup2\n        /* \"#utility.yul\":2951:2975   */\n      tag_369\n      jump\t// in\n    tag_447:\n        /* \"#utility.yul\":2944:2949   */\n      dup2\n        /* \"#utility.yul\":2941:2976   */\n      eq\n        /* \"#utility.yul\":2931:2994   */\n      tag_448\n      jumpi\n        /* \"#utility.yul\":2990:2991   */\n      0x00\n        /* \"#utility.yul\":2987:2988   */\n      0x00\n        /* \"#utility.yul\":2980:2992   */\n      revert\n        /* \"#utility.yul\":2931:2994   */\n    tag_448:\n        /* \"#utility.yul\":2878:3000   */\n      pop\n      jump\t// out\n        /* \"#utility.yul\":3006:3145   */\n    tag_371:\n        /* \"#utility.yul\":3052:3057   */\n      0x00\n        /* \"#utility.yul\":3090:3096   */\n      dup2\n        /* \"#utility.yul\":3077:3097   */\n      calldataload\n        /* \"#utility.yul\":3068:3097   */\n      swap1\n      pop\n        /* \"#utility.yul\":3106:3139   */\n      tag_450\n        /* \"#utility.yul\":3133:3138   */\n      dup2\n        /* \"#utility.yul\":3106:3139   */\n      tag_370\n      jump\t// in\n    tag_450:\n        /* \"#utility.yul\":3006:3145   */\n      swap3\n      swap2\n      pop\n      pop\n      jump\t// out\n        /* \"#utility.yul\":3151:3480   */\n    tag_51:\n        /* \"#utility.yul\":3210:3216   */\n      0x00\n        /* \"#utility.yul\":3259:3261   */\n      0x20\n        /* \"#utility.yul\":3247:3256   */\n      dup3\n        /* \"#utility.yul\":3238:3245   */\n      dup5\n        /* \"#utility.yul\":3234:3257   */\n      sub\n        /* \"#utility.yul\":3230:3262   */\n      slt\n        /* \"#utility.yul\":3227:3346   */\n      iszero\n      tag_452\n      jumpi\n        /* \"#utility.yul\":3265:3344   */\n      tag_453\n      tag_356\n      jump\t// in\n    tag_453:\n        /* \"#utility.yul\":3227:3346   */\n    tag_452:\n        /* \"#utility.yul\":3385:3386   */\n      0x00\n        /* \"#utility.yul\":3410:3463   */\n      tag_454\n        /* \"#utility.yul\":3455:3462   */\n      dup5\n        /* \"#utility.yul\":3446:3452   */\n      dup3\n        /* \"#utility.yul\":3435:3444   */\n      dup6\n        /* \"#utility.yul\":3431:3453   */\n      add\n        /* \"#utility.yul\":3410:3463   */\n      tag_371\n      jump\t// in\n    tag_454:\n        /* \"#utility.yul\":3400:3463   */\n      swap2\n      pop\n        /* \"#utility.yul\":3356:3473   */\n      pop\n        /* \"#utility.yul\":3151:3480   */\n      swap3\n      swap2\n      pop\n      pop\n      jump\t// out\n        /* \"#utility.yul\":3486:3604   */\n    tag_372:\n        /* \"#utility.yul\":3573:3597   */\n      tag_456\n        /* \"#utility.yul\":3591:3596   */\n      dup2\n        /* \"#utility.yul\":3573:3597   */\n      tag_369\n      jump\t// in\n    tag_456:\n        /* \"#utility.yul\":3568:3571   */\n      dup3\n        /* \"#utility.yul\":3561:3598   */\n      mstore\n        /* \"#utility.yul\":3486:3604   */\n      pop\n      pop\n      jump\t// out\n        /* \"#utility.yul\":3610:3832   */\n    tag_54:\n        /* \"#utility.yul\":3703:3707   */\n      0x00\n        /* \"#utility.yul\":3741:3743   */\n      0x20\n        /* \"#utility.yul\":3730:3739   */\n      dup3\n        /* \"#utility.yul\":3726:3744   */\n      add\n        /* \"#utility.yul\":3718:3744   */\n      swap1\n      pop\n        /* \"#utility.yul\":3754:3825   */\n      tag_458\n        /* \"#utility.yul\":3822:3823   */\n      0x00\n        /* \"#utility.yul\":3811:3820   */\n      dup4\n        /* \"#utility.yul\":3807:3824   */\n      add\n        /* \"#utility.yul\":3798:3804   */\n      dup5\n        /* \"#utility.yul\":3754:3825   */\n      tag_372\n      jump\t// in\n    tag_458:\n        /* \"#utility.yul\":3610:3832   */\n      swap3\n      swap2\n      pop\n      pop\n      jump\t// out\n        /* \"#utility.yul\":3838:3898   */\n    tag_373:\n        /* \"#utility.yul\":3866:3869   */\n      0x00\n        /* \"#utility.yul\":3887:3892   */\n      dup2\n        /* \"#utility.yul\":3880:3892   */\n      swap1\n      pop\n        /* \"#utility.yul\":3838:3898   */\n      swap2\n      swap1\n      pop\n      jump\t// out\n        /* \"#utility.yul\":3904:4046   */\n    tag_374:\n        /* \"#utility.yul\":3954:3963   */\n      0x00\n        /* \"#utility.yul\":3987:4040   */\n      tag_461\n        /* \"#utility.yul\":4005:4039   */\n      tag_462\n        /* \"#utility.yul\":4014:4038   */\n      tag_463\n        /* \"#utility.yul\":4032:4037   */\n      dup5\n        /* \"#utility.yul\":4014:4038   */\n      tag_363\n      jump\t// in\n    tag_463:\n        /* \"#utility.yul\":4005:4039   */\n      tag_373\n      jump\t// in\n    tag_462:\n        /* \"#utility.yul\":3987:4040   */\n      tag_363\n      jump\t// in\n    tag_461:\n        /* \"#utility.yul\":3974:4040   */\n      swap1\n      pop\n        /* \"#utility.yul\":3904:4046   */\n      swap2\n      swap1\n      pop\n      jump\t// out\n        /* \"#utility.yul\":4052:4178   */\n    tag_375:\n        /* \"#utility.yul\":4102:4111   */\n      0x00\n        /* \"#utility.yul\":4135:4172   */\n      tag_465\n        /* \"#utility.yul\":4166:4171   */\n      dup3\n        /* \"#utility.yul\":4135:4172   */\n      tag_374\n      jump\t// in\n    tag_465:\n        /* \"#utility.yul\":4122:4172   */\n      swap1\n      pop\n        /* \"#utility.yul\":4052:4178   */\n      swap2\n      swap1\n      pop\n      jump\t// out\n        /* \"#utility.yul\":4184:4338   */\n    tag_376:\n        /* \"#utility.yul\":4262:4271   */\n      0x00\n        /* \"#utility.yul\":4295:4332   */\n      tag_467\n        /* \"#utility.yul\":4326:4331   */\n      dup3\n        /* \"#utility.yul\":4295:4332   */\n      tag_375\n      jump\t// in\n    tag_467:\n        /* \"#utility.yul\":4282:4332   */\n      swap1\n      pop\n        /* \"#utility.yul\":4184:4338   */\n      swap2\n      swap1\n      pop\n      jump\t// out\n        /* \"#utility.yul\":4344:4531   */\n    tag_377:\n        /* \"#utility.yul\":4459:4524   */\n      tag_469\n        /* \"#utility.yul\":4518:4523   */\n      dup2\n        /* \"#utility.yul\":4459:4524   */\n      tag_376\n      jump\t// in\n    tag_469:\n        /* \"#utility.yul\":4454:4457   */\n      dup3\n        /* \"#utility.yul\":4447:4525   */\n      mstore\n        /* \"#utility.yul\":4344:4531   */\n      pop\n      pop\n      jump\t// out\n        /* \"#utility.yul\":4537:4815   */\n    tag_60:\n        /* \"#utility.yul\":4658:4662   */\n      0x00\n        /* \"#utility.yul\":4696:4698   */\n      0x20\n        /* \"#utility.yul\":4685:4694   */\n      dup3\n        /* \"#utility.yul\":4681:4699   */\n      add\n        /* \"#utility.yul\":4673:4699   */\n      swap1\n      pop\n        /* \"#utility.yul\":4709:4808   */\n      tag_471\n        /* \"#utility.yul\":4805:4806   */\n      0x00\n        /* \"#utility.yul\":4794:4803   */\n      dup4\n        /* \"#utility.yul\":4790:4807   */\n      add\n        /* \"#utility.yul\":4781:4787   */\n      dup5\n        /* \"#utility.yul\":4709:4808   */\n      tag_377\n      jump\t// in\n    tag_471:\n        /* \"#utility.yul\":4537:4815   */\n      swap3\n      swap2\n      pop\n      pop\n      jump\t// out\n        /* \"#utility.yul\":4821:5295   */\n    tag_64:\n        /* \"#utility.yul\":4889:4895   */\n      0x00\n        /* \"#utility.yul\":4897:4903   */\n      0x00\n        /* \"#utility.yul\":4946:4948   */\n      0x40\n        /* \"#utility.yul\":4934:4943   */\n      dup4\n        /* \"#utility.yul\":4925:4932   */\n      dup6\n        /* \"#utility.yul\":4921:4944   */\n      sub\n        /* \"#utility.yul\":4917:4949   */\n      slt\n        /* \"#utility.yul\":4914:5033   */\n      iszero\n      tag_473\n      jumpi\n        /* \"#utility.yul\":4952:5031   */\n      tag_474\n      tag_356\n      jump\t// in\n    tag_474:\n        /* \"#utility.yul\":4914:5033   */\n    tag_473:\n        /* \"#utility.yul\":5072:5073   */\n      0x00\n        /* \"#utility.yul\":5097:5150   */\n      tag_475\n        /* \"#utility.yul\":5142:5149   */\n      dup6\n        /* \"#utility.yul\":5133:5139   */\n      dup3\n        /* \"#utility.yul\":5122:5131   */\n      dup7\n        /* \"#utility.yul\":5118:5140   */\n      add\n        /* \"#utility.yul\":5097:5150   */\n      tag_371\n      jump\t// in\n    tag_475:\n        /* \"#utility.yul\":5087:5150   */\n      swap3\n      pop\n        /* \"#utility.yul\":5043:5160   */\n      pop\n        /* \"#utility.yul\":5199:5201   */\n      0x20\n        /* \"#utility.yul\":5225:5278   */\n      tag_476\n        /* \"#utility.yul\":5270:5277   */\n      dup6\n        /* \"#utility.yul\":5261:5267   */\n      dup3\n        /* \"#utility.yul\":5250:5259   */\n      dup7\n        /* \"#utility.yul\":5246:5268   */\n      add\n        /* \"#utility.yul\":5225:5278   */\n      tag_366\n      jump\t// in\n    tag_476:\n        /* \"#utility.yul\":5215:5278   */\n      swap2\n      pop\n        /* \"#utility.yul\":5170:5288   */\n      pop\n        /* \"#utility.yul\":4821:5295   */\n      swap3\n      pop\n      swap3\n      swap1\n      pop\n      jump\t// out\n        /* \"#utility.yul\":5301:5423   */\n    tag_378:\n        /* \"#utility.yul\":5374:5398   */\n      tag_478\n        /* \"#utility.yul\":5392:5397   */\n      dup2\n        /* \"#utility.yul\":5374:5398   */\n      tag_367\n      jump\t// in\n    tag_478:\n        /* \"#utility.yul\":5367:5372   */\n      dup2\n        /* \"#utility.yul\":5364:5399   */\n      eq\n        /* \"#utility.yul\":5354:5417   */\n      tag_479\n      jumpi\n        /* \"#utility.yul\":5413:5414   */\n      0x00\n        /* \"#utility.yul\":5410:5411   */\n      0x00\n        /* \"#utility.yul\":5403:5415   */\n      revert\n        /* \"#utility.yul\":5354:5417   */\n    tag_479:\n        /* \"#utility.yul\":5301:5423   */\n      pop\n      jump\t// out\n        /* \"#utility.yul\":5429:5568   */\n    tag_379:\n        /* \"#utility.yul\":5475:5480   */\n      0x00\n        /* \"#utility.yul\":5513:5519   */\n      dup2\n        /* \"#utility.yul\":5500:5520   */\n      calldataload\n        /* \"#utility.yul\":5491:5520   */\n      swap1\n      pop\n        /* \"#utility.yul\":5529:5562   */\n      tag_481\n        /* \"#utility.yul\":5556:5561   */\n      dup2\n        /* \"#utility.yul\":5529:5562   */\n      tag_378\n      jump\t// in\n    tag_481:\n        /* \"#utility.yul\":5429:5568   */\n      swap3\n      swap2\n      pop\n      pop\n      jump\t// out\n        /* \"#utility.yul\":5574:6048   */\n    tag_76:\n        /* \"#utility.yul\":5642:5648   */\n      0x00\n        /* \"#utility.yul\":5650:5656   */\n      0x00\n        /* \"#utility.yul\":5699:5701   */\n      0x40\n        /* \"#utility.yul\":5687:5696   */\n      dup4\n        /* \"#utility.yul\":5678:5685   */\n      dup6\n        /* \"#utility.yul\":5674:5697   */\n      sub\n        /* \"#utility.yul\":5670:5702   */\n      slt\n        /* \"#utility.yul\":5667:5786   */\n      iszero\n      tag_483\n      jumpi\n        /* \"#utility.yul\":5705:5784   */\n      tag_484\n      tag_356\n      jump\t// in\n    tag_484:\n        /* \"#utility.yul\":5667:5786   */\n    tag_483:\n        /* \"#utility.yul\":5825:5826   */\n      0x00\n        /* \"#utility.yul\":5850:5903   */\n      tag_485\n        /* \"#utility.yul\":5895:5902   */\n      dup6\n        /* \"#utility.yul\":5886:5892   */\n      dup3\n        /* \"#utility.yul\":5875:5884   */\n      dup7\n        /* \"#utility.yul\":5871:5893   */\n      add\n        /* \"#utility.yul\":5850:5903   */\n      tag_366\n      jump\t// in\n    tag_485:\n        /* \"#utility.yul\":5840:5903   */\n      swap3\n      pop\n        /* \"#utility.yul\":5796:5913   */\n      pop\n        /* \"#utility.yul\":5952:5954   */\n      0x20\n        /* \"#utility.yul\":5978:6031   */\n      tag_486\n        /* \"#utility.yul\":6023:6030   */\n      dup6\n        /* \"#utility.yul\":6014:6020   */\n      dup3\n        /* \"#utility.yul\":6003:6012   */\n      dup7\n        /* \"#utility.yul\":5999:6021   */\n      add\n        /* \"#utility.yul\":5978:6031   */\n      tag_379\n      jump\t// in\n    tag_486:\n        /* \"#utility.yul\":5968:6031   */\n      swap2\n      pop\n        /* \"#utility.yul\":5923:6041   */\n      pop\n        /* \"#utility.yul\":5574:6048   */\n      swap3\n      pop\n      swap3\n      swap1\n      pop\n      jump\t// out\n        /* \"#utility.yul\":6054:6528   */\n    tag_81:\n        /* \"#utility.yul\":6122:6128   */\n      0x00\n        /* \"#utility.yul\":6130:6136   */\n      0x00\n        /* \"#utility.yul\":6179:6181   */\n      0x40\n        /* \"#utility.yul\":6167:6176   */\n      dup4\n        /* \"#utility.yul\":6158:6165   */\n      dup6\n        /* \"#utility.yul\":6154:6177   */\n      sub\n        /* \"#utility.yul\":6150:6182   */\n      slt\n        /* \"#utility.yul\":6147:6266   */\n      iszero\n      tag_488\n      jumpi\n        /* \"#utility.yul\":6185:6264   */\n      tag_489\n      tag_356\n      jump\t// in\n    tag_489:\n        /* \"#utility.yul\":6147:6266   */\n    tag_488:\n        /* \"#utility.yul\":6305:6306   */\n      0x00\n        /* \"#utility.yul\":6330:6383   */\n      tag_490\n        /* \"#utility.yul\":6375:6382   */\n      dup6\n        /* \"#utility.yul\":6366:6372   */\n      dup3\n        /* \"#utility.yul\":6355:6364   */\n      dup7\n        /* \"#utility.yul\":6351:6373   */\n      add\n        /* \"#utility.yul\":6330:6383   */\n      tag_366\n      jump\t// in\n    tag_490:\n        /* \"#utility.yul\":6320:6383   */\n      swap3\n      pop\n        /* \"#utility.yul\":6276:6393   */\n      pop\n        /* \"#utility.yul\":6432:6434   */\n      0x20\n        /* \"#utility.yul\":6458:6511   */\n      tag_491\n        /* \"#utility.yul\":6503:6510   */\n      dup6\n        /* \"#utility.yul\":6494:6500   */\n      dup3\n        /* \"#utility.yul\":6483:6492   */\n      dup7\n        /* \"#utility.yul\":6479:6501   */\n      add\n        /* \"#utility.yul\":6458:6511   */\n      tag_366\n      jump\t// in\n    tag_491:\n        /* \"#utility.yul\":6448:6511   */\n      swap2\n      pop\n        /* \"#utility.yul\":6403:6521   */\n      pop\n        /* \"#utility.yul\":6054:6528   */\n      swap3\n      pop\n      swap3\n      swap1\n      pop\n      jump\t// out\n        /* \"#utility.yul\":6534:6648   */\n    tag_380:\n        /* \"#utility.yul\":6601:6607   */\n      0x00\n        /* \"#utility.yul\":6635:6640   */\n      dup2\n        /* \"#utility.yul\":6629:6641   */\n      mload\n        /* \"#utility.yul\":6619:6641   */\n      swap1\n      pop\n        /* \"#utility.yul\":6534:6648   */\n      swap2\n      swap1\n      pop\n      jump\t// out\n        /* \"#utility.yul\":6654:6838   */\n    tag_381:\n        /* \"#utility.yul\":6753:6764   */\n      0x00\n        /* \"#utility.yul\":6787:6793   */\n      dup3\n        /* \"#utility.yul\":6782:6785   */\n      dup3\n        /* \"#utility.yul\":6775:6794   */\n      mstore\n        /* \"#utility.yul\":6827:6831   */\n      0x20\n        /* \"#utility.yul\":6822:6825   */\n      dup3\n        /* \"#utility.yul\":6818:6832   */\n      add\n        /* \"#utility.yul\":6803:6832   */\n      swap1\n      pop\n        /* \"#utility.yul\":6654:6838   */\n      swap3\n      swap2\n      pop\n      pop\n      jump\t// out\n        /* \"#utility.yul\":6844:6976   */\n    tag_382:\n        /* \"#utility.yul\":6911:6915   */\n      0x00\n        /* \"#utility.yul\":6934:6937   */\n      dup2\n        /* \"#utility.yul\":6926:6937   */\n      swap1\n      pop\n        /* \"#utility.yul\":6964:6968   */\n      0x20\n        /* \"#utility.yul\":6959:6962   */\n      dup3\n        /* \"#utility.yul\":6955:6969   */\n      add\n        /* \"#utility.yul\":6947:6969   */\n      swap1\n      pop\n        /* \"#utility.yul\":6844:6976   */\n      swap2\n      swap1\n      pop\n      jump\t// out\n        /* \"#utility.yul\":6982:7090   */\n    tag_383:\n        /* \"#utility.yul\":7059:7083   */\n      tag_496\n        /* \"#utility.yul\":7077:7082   */\n      dup2\n        /* \"#utility.yul\":7059:7083   */\n      tag_364\n      jump\t// in\n    tag_496:\n        /* \"#utility.yul\":7054:7057   */\n      dup3\n        /* \"#utility.yul\":7047:7084   */\n      mstore\n        /* \"#utility.yul\":6982:7090   */\n      pop\n      pop\n      jump\t// out\n        /* \"#utility.yul\":7096:7275   */\n    tag_384:\n        /* \"#utility.yul\":7165:7175   */\n      0x00\n        /* \"#utility.yul\":7186:7232   */\n      tag_498\n        /* \"#utility.yul\":7228:7231   */\n      dup4\n        /* \"#utility.yul\":7220:7226   */\n      dup4\n        /* \"#utility.yul\":7186:7232   */\n      tag_383\n      jump\t// in\n    tag_498:\n        /* \"#utility.yul\":7264:7268   */\n      0x20\n        /* \"#utility.yul\":7259:7262   */\n      dup4\n        /* \"#utility.yul\":7255:7269   */\n      add\n        /* \"#utility.yul\":7241:7269   */\n      swap1\n      pop\n        /* \"#utility.yul\":7096:7275   */\n      swap3\n      swap2\n      pop\n      pop\n      jump\t// out\n        /* \"#utility.yul\":7281:7394   */\n    tag_385:\n        /* \"#utility.yul\":7351:7355   */\n      0x00\n        /* \"#utility.yul\":7383:7387   */\n      0x20\n        /* \"#utility.yul\":7378:7381   */\n      dup3\n        /* \"#utility.yul\":7374:7388   */\n      add\n        /* \"#utility.yul\":7366:7388   */\n      swap1\n      pop\n        /* \"#utility.yul\":7281:7394   */\n      swap2\n      swap1\n      pop\n      jump\t// out\n        /* \"#utility.yul\":7430:8162   */\n    tag_386:\n        /* \"#utility.yul\":7549:7552   */\n      0x00\n        /* \"#utility.yul\":7578:7632   */\n      tag_501\n        /* \"#utility.yul\":7626:7631   */\n      dup3\n        /* \"#utility.yul\":7578:7632   */\n      tag_380\n      jump\t// in\n    tag_501:\n        /* \"#utility.yul\":7648:7734   */\n      tag_502\n        /* \"#utility.yul\":7727:7733   */\n      dup2\n        /* \"#utility.yul\":7722:7725   */\n      dup6\n        /* \"#utility.yul\":7648:7734   */\n      tag_381\n      jump\t// in\n    tag_502:\n        /* \"#utility.yul\":7641:7734   */\n      swap4\n      pop\n        /* \"#utility.yul\":7758:7814   */\n      tag_503\n        /* \"#utility.yul\":7808:7813   */\n      dup4\n        /* \"#utility.yul\":7758:7814   */\n      tag_382\n      jump\t// in\n    tag_503:\n        /* \"#utility.yul\":7837:7844   */\n      dup1\n        /* \"#utility.yul\":7868:7869   */\n      0x00\n        /* \"#utility.yul\":7853:8137   */\n    tag_504:\n        /* \"#utility.yul\":7878:7884   */\n      dup4\n        /* \"#utility.yul\":7875:7876   */\n      dup2\n        /* \"#utility.yul\":7872:7885   */\n      lt\n        /* \"#utility.yul\":7853:8137   */\n      iszero\n      tag_506\n      jumpi\n        /* \"#utility.yul\":7954:7960   */\n      dup2\n        /* \"#utility.yul\":7948:7961   */\n      mload\n        /* \"#utility.yul\":7981:8044   */\n      tag_507\n        /* \"#utility.yul\":8040:8043   */\n      dup9\n        /* \"#utility.yul\":8025:8038   */\n      dup3\n        /* \"#utility.yul\":7981:8044   */\n      tag_384\n      jump\t// in\n    tag_507:\n        /* \"#utility.yul\":7974:8044   */\n      swap8\n      pop\n        /* \"#utility.yul\":8067:8127   */\n      tag_508\n        /* \"#utility.yul\":8120:8126   */\n      dup4\n        /* \"#utility.yul\":8067:8127   */\n      tag_385\n      jump\t// in\n    tag_508:\n        /* \"#utility.yul\":8057:8127   */\n      swap3\n      pop\n        /* \"#utility.yul\":7913:8137   */\n      pop\n        /* \"#utility.yul\":7900:7901   */\n      0x01\n        /* \"#utility.yul\":7897:7898   */\n      dup2\n        /* \"#utility.yul\":7893:7902   */\n      add\n        /* \"#utility.yul\":7888:7902   */\n      swap1\n      pop\n        /* \"#utility.yul\":7853:8137   */\n      jump(tag_504)\n    tag_506:\n        /* \"#utility.yul\":7857:7871   */\n      pop\n        /* \"#utility.yul\":8153:8156   */\n      dup6\n        /* \"#utility.yul\":8146:8156   */\n      swap4\n      pop\n        /* \"#utility.yul\":7554:8162   */\n      pop\n      pop\n      pop\n        /* \"#utility.yul\":7430:8162   */\n      swap3\n      swap2\n      pop\n      pop\n      jump\t// out\n        /* \"#utility.yul\":8168:8541   */\n    tag_122:\n        /* \"#utility.yul\":8311:8315   */\n      0x00\n        /* \"#utility.yul\":8349:8351   */\n      0x20\n        /* \"#utility.yul\":8338:8347   */\n      dup3\n        /* \"#utility.yul\":8334:8352   */\n      add\n        /* \"#utility.yul\":8326:8352   */\n      swap1\n      pop\n        /* \"#utility.yul\":8398:8407   */\n      dup2\n        /* \"#utility.yul\":8392:8396   */\n      dup2\n        /* \"#utility.yul\":8388:8408   */\n      sub\n        /* \"#utility.yul\":8384:8385   */\n      0x00\n        /* \"#utility.yul\":8373:8382   */\n      dup4\n        /* \"#utility.yul\":8369:8386   */\n      add\n        /* \"#utility.yul\":8362:8409   */\n      mstore\n        /* \"#utility.yul\":8426:8534   */\n      tag_510\n        /* \"#utility.yul\":8529:8533   */\n      dup2\n        /* \"#utility.yul\":8520:8526   */\n      dup5\n        /* \"#utility.yul\":8426:8534   */\n      tag_386\n      jump\t// in\n    tag_510:\n        /* \"#utility.yul\":8418:8534   */\n      swap1\n      pop\n        /* \"#utility.yul\":8168:8541   */\n      swap3\n      swap2\n      pop\n      pop\n      jump\t// out\n        /* \"#utility.yul\":8547:8727   */\n    tag_158:\n        /* \"#utility.yul\":8595:8672   */\n      0x4e487b7100000000000000000000000000000000000000000000000000000000\n        /* \"#utility.yul\":8592:8593   */\n      0x00\n        /* \"#utility.yul\":8585:8673   */\n      mstore\n        /* \"#utility.yul\":8692:8696   */\n      0x32\n        /* \"#utility.yul\":8689:8690   */\n      0x04\n        /* \"#utility.yul\":8682:8697   */\n      mstore\n        /* \"#utility.yul\":8716:8720   */\n      0x24\n        /* \"#utility.yul\":8713:8714   */\n      0x00\n        /* \"#utility.yul\":8706:8721   */\n      revert\n        /* \"#utility.yul\":8733:8913   */\n    tag_387:\n        /* \"#utility.yul\":8781:8858   */\n      0x4e487b7100000000000000000000000000000000000000000000000000000000\n        /* \"#utility.yul\":8778:8779   */\n      0x00\n        /* \"#utility.yul\":8771:8859   */\n      mstore\n        /* \"#utility.yul\":8878:8882   */\n      0x11\n        /* \"#utility.yul\":8875:8876   */\n      0x04\n        /* \"#utility.yul\":8868:8883   */\n      mstore\n        /* \"#utility.yul\":8902:8906   */\n      0x24\n        /* \"#utility.yul\":8899:8900   */\n      0x00\n        /* \"#utility.yul\":8892:8907   */\n      revert\n        /* \"#utility.yul\":8919:9110   */\n    tag_164:\n        /* \"#utility.yul\":8959:8962   */\n      0x00\n        /* \"#utility.yul\":8978:8998   */\n      tag_514\n        /* \"#utility.yul\":8996:8997   */\n      dup3\n        /* \"#utility.yul\":8978:8998   */\n      tag_367\n      jump\t// in\n    tag_514:\n        /* \"#utility.yul\":8973:8998   */\n      swap2\n      pop\n        /* \"#utility.yul\":9012:9032   */\n      tag_515\n        /* \"#utility.yul\":9030:9031   */\n      dup4\n        /* \"#utility.yul\":9012:9032   */\n      tag_367\n      jump\t// in\n    tag_515:\n        /* \"#utility.yul\":9007:9032   */\n      swap3\n      pop\n        /* \"#utility.yul\":9055:9056   */\n      dup3\n        /* \"#utility.yul\":9052:9053   */\n      dup3\n        /* \"#utility.yul\":9048:9057   */\n      add\n        /* \"#utility.yul\":9041:9057   */\n      swap1\n      pop\n        /* \"#utility.yul\":9076:9079   */\n      dup1\n        /* \"#utility.yul\":9073:9074   */\n      dup3\n        /* \"#utility.yul\":9070:9080   */\n      gt\n        /* \"#utility.yul\":9067:9103   */\n      iszero\n      tag_516\n      jumpi\n        /* \"#utility.yul\":9083:9101   */\n      tag_517\n      tag_387\n      jump\t// in\n    tag_517:\n        /* \"#utility.yul\":9067:9103   */\n    tag_516:\n        /* \"#utility.yul\":8919:9110   */\n      swap3\n      swap2\n      pop\n      pop\n      jump\t// out\n        /* \"#utility.yul\":9116:9221   */\n    tag_388:\n        /* \"#utility.yul\":9152:9159   */\n      0x00\n        /* \"#utility.yul\":9192:9214   */\n      0xffffffffffffffffffff\n        /* \"#utility.yul\":9185:9190   */\n      dup3\n        /* \"#utility.yul\":9181:9215   */\n      and\n        /* \"#utility.yul\":9170:9215   */\n      swap1\n      pop\n        /* \"#utility.yul\":9116:9221   */\n      swap2\n      swap1\n      pop\n      jump\t// out\n        /* \"#utility.yul\":9227:9347   */\n    tag_389:\n        /* \"#utility.yul\":9299:9322   */\n      tag_520\n        /* \"#utility.yul\":9316:9321   */\n      dup2\n        /* \"#utility.yul\":9299:9322   */\n      tag_388\n      jump\t// in\n    tag_520:\n        /* \"#utility.yul\":9292:9297   */\n      dup2\n        /* \"#utility.yul\":9289:9323   */\n      eq\n        /* \"#utility.yul\":9279:9341   */\n      tag_521\n      jumpi\n        /* \"#utility.yul\":9337:9338   */\n      0x00\n        /* \"#utility.yul\":9334:9335   */\n      0x00\n        /* \"#utility.yul\":9327:9339   */\n      revert\n        /* \"#utility.yul\":9279:9341   */\n    tag_521:\n        /* \"#utility.yul\":9227:9347   */\n      pop\n      jump\t// out\n        /* \"#utility.yul\":9353:9494   */\n    tag_390:\n        /* \"#utility.yul\":9409:9414   */\n      0x00\n        /* \"#utility.yul\":9440:9446   */\n      dup2\n        /* \"#utility.yul\":9434:9447   */\n      mload\n        /* \"#utility.yul\":9425:9447   */\n      swap1\n      pop\n        /* \"#utility.yul\":9456:9488   */\n      tag_523\n        /* \"#utility.yul\":9482:9487   */\n      dup2\n        /* \"#utility.yul\":9456:9488   */\n      tag_389\n      jump\t// in\n    tag_523:\n        /* \"#utility.yul\":9353:9494   */\n      swap3\n      swap2\n      pop\n      pop\n      jump\t// out\n        /* \"#utility.yul\":9500:9576   */\n    tag_391:\n        /* \"#utility.yul\":9536:9543   */\n      0x00\n        /* \"#utility.yul\":9565:9570   */\n      dup2\n        /* \"#utility.yul\":9554:9570   */\n      swap1\n      pop\n        /* \"#utility.yul\":9500:9576   */\n      swap2\n      swap1\n      pop\n      jump\t// out\n        /* \"#utility.yul\":9582:9702   */\n    tag_392:\n        /* \"#utility.yul\":9654:9677   */\n      tag_526\n        /* \"#utility.yul\":9671:9676   */\n      dup2\n        /* \"#utility.yul\":9654:9677   */\n      tag_391\n      jump\t// in\n    tag_526:\n        /* \"#utility.yul\":9647:9652   */\n      dup2\n        /* \"#utility.yul\":9644:9678   */\n      eq\n        /* \"#utility.yul\":9634:9696   */\n      tag_527\n      jumpi\n        /* \"#utility.yul\":9692:9693   */\n      0x00\n        /* \"#utility.yul\":9689:9690   */\n      0x00\n        /* \"#utility.yul\":9682:9694   */\n      revert\n        /* \"#utility.yul\":9634:9696   */\n    tag_527:\n        /* \"#utility.yul\":9582:9702   */\n      pop\n      jump\t// out\n        /* \"#utility.yul\":9708:9849   */\n    tag_393:\n        /* \"#utility.yul\":9764:9769   */\n      0x00\n        /* \"#utility.yul\":9795:9801   */\n      dup2\n        /* \"#utility.yul\":9789:9802   */\n      mload\n        /* \"#utility.yul\":9780:9802   */\n      swap1\n      pop\n        /* \"#utility.yul\":9811:9843   */\n      tag_529\n        /* \"#utility.yul\":9837:9842   */\n      dup2\n        /* \"#utility.yul\":9811:9843   */\n      tag_392\n      jump\t// in\n    tag_529:\n        /* \"#utility.yul\":9708:9849   */\n      swap3\n      swap2\n      pop\n      pop\n      jump\t// out\n        /* \"#utility.yul\":9855:9998   */\n    tag_394:\n        /* \"#utility.yul\":9912:9917   */\n      0x00\n        /* \"#utility.yul\":9943:9949   */\n      dup2\n        /* \"#utility.yul\":9937:9950   */\n      mload\n        /* \"#utility.yul\":9928:9950   */\n      swap1\n      pop\n        /* \"#utility.yul\":9959:9992   */\n      tag_531\n        /* \"#utility.yul\":9986:9991   */\n      dup2\n        /* \"#utility.yul\":9959:9992   */\n      tag_378\n      jump\t// in\n    tag_531:\n        /* \"#utility.yul\":9855:9998   */\n      swap3\n      swap2\n      pop\n      pop\n      jump\t// out\n        /* \"#utility.yul\":10004:10975   */\n    tag_180:\n        /* \"#utility.yul\":10107:10113   */\n      0x00\n        /* \"#utility.yul\":10115:10121   */\n      0x00\n        /* \"#utility.yul\":10123:10129   */\n      0x00\n        /* \"#utility.yul\":10131:10137   */\n      0x00\n        /* \"#utility.yul\":10139:10145   */\n      0x00\n        /* \"#utility.yul\":10188:10191   */\n      0xa0\n        /* \"#utility.yul\":10176:10185   */\n      dup7\n        /* \"#utility.yul\":10167:10174   */\n      dup9\n        /* \"#utility.yul\":10163:10186   */\n      sub\n        /* \"#utility.yul\":10159:10192   */\n      slt\n        /* \"#utility.yul\":10156:10276   */\n      iszero\n      tag_533\n      jumpi\n        /* \"#utility.yul\":10195:10274   */\n      tag_534\n      tag_356\n      jump\t// in\n    tag_534:\n        /* \"#utility.yul\":10156:10276   */\n    tag_533:\n        /* \"#utility.yul\":10315:10316   */\n      0x00\n        /* \"#utility.yul\":10340:10403   */\n      tag_535\n        /* \"#utility.yul\":10395:10402   */\n      dup9\n        /* \"#utility.yul\":10386:10392   */\n      dup3\n        /* \"#utility.yul\":10375:10384   */\n      dup10\n        /* \"#utility.yul\":10371:10393   */\n      add\n        /* \"#utility.yul\":10340:10403   */\n      tag_390\n      jump\t// in\n    tag_535:\n        /* \"#utility.yul\":10330:10403   */\n      swap6\n      pop\n        /* \"#utility.yul\":10286:10413   */\n      pop\n        /* \"#utility.yul\":10452:10454   */\n      0x20\n        /* \"#utility.yul\":10478:10541   */\n      tag_536\n        /* \"#utility.yul\":10533:10540   */\n      dup9\n        /* \"#utility.yul\":10524:10530   */\n      dup3\n        /* \"#utility.yul\":10513:10522   */\n      dup10\n        /* \"#utility.yul\":10509:10531   */\n      add\n        /* \"#utility.yul\":10478:10541   */\n      tag_393\n      jump\t// in\n    tag_536:\n        /* \"#utility.yul\":10468:10541   */\n      swap5\n      pop\n        /* \"#utility.yul\":10423:10551   */\n      pop\n        /* \"#utility.yul\":10590:10592   */\n      0x40\n        /* \"#utility.yul\":10616:10680   */\n      tag_537\n        /* \"#utility.yul\":10672:10679   */\n      dup9\n        /* \"#utility.yul\":10663:10669   */\n      dup3\n        /* \"#utility.yul\":10652:10661   */\n      dup10\n        /* \"#utility.yul\":10648:10670   */\n      add\n        /* \"#utility.yul\":10616:10680   */\n      tag_394\n      jump\t// in\n    tag_537:\n        /* \"#utility.yul\":10606:10680   */\n      swap4\n      pop\n        /* \"#utility.yul\":10561:10690   */\n      pop\n        /* \"#utility.yul\":10729:10731   */\n      0x60\n        /* \"#utility.yul\":10755:10819   */\n      tag_538\n        /* \"#utility.yul\":10811:10818   */\n      dup9\n        /* \"#utility.yul\":10802:10808   */\n      dup3\n        /* \"#utility.yul\":10791:10800   */\n      dup10\n        /* \"#utility.yul\":10787:10809   */\n      add\n        /* \"#utility.yul\":10755:10819   */\n      tag_394\n      jump\t// in\n    tag_538:\n        /* \"#utility.yul\":10745:10819   */\n      swap3\n      pop\n        /* \"#utility.yul\":10700:10829   */\n      pop\n        /* \"#utility.yul\":10868:10871   */\n      0x80\n        /* \"#utility.yul\":10895:10958   */\n      tag_539\n        /* \"#utility.yul\":10950:10957   */\n      dup9\n        /* \"#utility.yul\":10941:10947   */\n      dup3\n        /* \"#utility.yul\":10930:10939   */\n      dup10\n        /* \"#utility.yul\":10926:10948   */\n      add\n        /* \"#utility.yul\":10895:10958   */\n      tag_390\n      jump\t// in\n    tag_539:\n        /* \"#utility.yul\":10885:10958   */\n      swap2\n      pop\n        /* \"#utility.yul\":10839:10968   */\n      pop\n        /* \"#utility.yul\":10004:10975   */\n      swap3\n      swap6\n      pop\n      swap3\n      swap6\n      swap1\n      swap4\n      pop\n      jump\t// out\n        /* \"#utility.yul\":10981:11214   */\n    tag_205:\n        /* \"#utility.yul\":11020:11023   */\n      0x00\n        /* \"#utility.yul\":11043:11067   */\n      tag_541\n        /* \"#utility.yul\":11061:11066   */\n      dup3\n        /* \"#utility.yul\":11043:11067   */\n      tag_367\n      jump\t// in\n    tag_541:\n        /* \"#utility.yul\":11034:11067   */\n      swap2\n      pop\n        /* \"#utility.yul\":11089:11155   */\n      0xffffffffffffffffffffffffffffffffffffffffffffffffffffffffffffffff\n        /* \"#utility.yul\":11082:11087   */\n      dup3\n        /* \"#utility.yul\":11079:11156   */\n      sub\n        /* \"#utility.yul\":11076:11179   */\n      tag_542\n      jumpi\n        /* \"#utility.yul\":11159:11177   */\n      tag_543\n      tag_387\n      jump\t// in\n    tag_543:\n        /* \"#utility.yul\":11076:11179   */\n    tag_542:\n        /* \"#utility.yul\":11206:11207   */\n      0x01\n        /* \"#utility.yul\":11199:11204   */\n      dup3\n        /* \"#utility.yul\":11195:11208   */\n      add\n        /* \"#utility.yul\":11188:11208   */\n      swap1\n      pop\n        /* \"#utility.yul\":10981:11214   */\n      swap2\n      swap1\n      pop\n      jump\t// out\n        /* \"#utility.yul\":11220:11552   */\n    tag_209:\n        /* \"#utility.yul\":11341:11345   */\n      0x00\n        /* \"#utility.yul\":11379:11381   */\n      0x40\n        /* \"#utility.yul\":11368:11377   */\n      dup3\n        /* \"#utility.yul\":11364:11382   */\n      add\n        /* \"#utility.yul\":11356:11382   */\n      swap1\n      pop\n        /* \"#utility.yul\":11392:11463   */\n      tag_545\n        /* \"#utility.yul\":11460:11461   */\n      0x00\n        /* \"#utility.yul\":11449:11458   */\n      dup4\n        /* \"#utility.yul\":11445:11462   */\n      add\n        /* \"#utility.yul\":11436:11442   */\n      dup6\n        /* \"#utility.yul\":11392:11463   */\n      tag_368\n      jump\t// in\n    tag_545:\n        /* \"#utility.yul\":11473:11545   */\n      tag_546\n        /* \"#utility.yul\":11541:11543   */\n      0x20\n        /* \"#utility.yul\":11530:11539   */\n      dup4\n        /* \"#utility.yul\":11526:11544   */\n      add\n        /* \"#utility.yul\":11517:11523   */\n      dup5\n        /* \"#utility.yul\":11473:11545   */\n      tag_368\n      jump\t// in\n    tag_546:\n        /* \"#utility.yul\":11220:11552   */\n      swap4\n      swap3\n      pop\n      pop\n      pop\n      jump\t// out\n        /* \"#utility.yul\":11558:11752   */\n    tag_245:\n        /* \"#utility.yul\":11598:11602   */\n      0x00\n        /* \"#utility.yul\":11618:11638   */\n      tag_548\n        /* \"#utility.yul\":11636:11637   */\n      dup3\n        /* \"#utility.yul\":11618:11638   */\n      tag_367\n      jump\t// in\n    tag_548:\n        /* \"#utility.yul\":11613:11638   */\n      swap2\n      pop\n        /* \"#utility.yul\":11652:11672   */\n      tag_549\n        /* \"#utility.yul\":11670:11671   */\n      dup4\n        /* \"#utility.yul\":11652:11672   */\n      tag_367\n      jump\t// in\n    tag_549:\n        /* \"#utility.yul\":11647:11672   */\n      swap3\n      pop\n        /* \"#utility.yul\":11696:11697   */\n      dup3\n        /* \"#utility.yul\":11693:11694   */\n      dup3\n        /* \"#utility.yul\":11689:11698   */\n      sub\n        /* \"#utility.yul\":11681:11698   */\n      swap1\n      pop\n        /* \"#utility.yul\":11720:11721   */\n      dup2\n        /* \"#utility.yul\":11714:11718   */\n      dup2\n        /* \"#utility.yul\":11711:11722   */\n      gt\n        /* \"#utility.yul\":11708:11745   */\n      iszero\n      tag_550\n      jumpi\n        /* \"#utility.yul\":11725:11743   */\n      tag_551\n      tag_387\n      jump\t// in\n    tag_551:\n        /* \"#utility.yul\":11708:11745   */\n    tag_550:\n        /* \"#utility.yul\":11558:11752   */\n      swap3\n      swap2\n      pop\n      pop\n      jump\t// out\n        /* \"#utility.yul\":11758:11938   */\n    tag_254:\n        /* \"#utility.yul\":11806:11883   */\n      0x4e487b7100000000000000000000000000000000000000000000000000000000\n        /* \"#utility.yul\":11803:11804   */\n      0x00\n        /* \"#utility.yul\":11796:11884   */\n      mstore\n        /* \"#utility.yul\":11903:11907   */\n      0x31\n        /* \"#utility.yul\":11900:11901   */\n      0x04\n        /* \"#utility.yul\":11893:11908   */\n      mstore\n        /* \"#utility.yul\":11927:11931   */\n      0x24\n        /* \"#utility.yul\":11924:11925   */\n      0x00\n        /* \"#utility.yul\":11917:11932   */\n      revert\n        /* \"#utility.yul\":11944:12091   */\n    tag_395:\n        /* \"#utility.yul\":12045:12056   */\n      0x00\n        /* \"#utility.yul\":12082:12085   */\n      dup2\n        /* \"#utility.yul\":12067:12085   */\n      swap1\n      pop\n        /* \"#utility.yul\":11944:12091   */\n      swap3\n      swap2\n      pop\n      pop\n      jump\t// out\n        /* \"#utility.yul\":12097:12211   */\n    tag_396:\n      pop\n      jump\t// out\n        /* \"#utility.yul\":12217:12615   */\n    tag_397:\n        /* \"#utility.yul\":12376:12379   */\n      0x00\n        /* \"#utility.yul\":12397:12480   */\n      tag_556\n        /* \"#utility.yul\":12478:12479   */\n      0x00\n        /* \"#utility.yul\":12473:12476   */\n      dup4\n        /* \"#utility.yul\":12397:12480   */\n      tag_395\n      jump\t// in\n    tag_556:\n        /* \"#utility.yul\":12390:12480   */\n      swap2\n      pop\n        /* \"#utility.yul\":12489:12582   */\n      tag_557\n        /* \"#utility.yul\":12578:12581   */\n      dup3\n        /* \"#utility.yul\":12489:12582   */\n      tag_396\n      jump\t// in\n    tag_557:\n        /* \"#utility.yul\":12607:12608   */\n      0x00\n        /* \"#utility.yul\":12602:12605   */\n      dup3\n        /* \"#utility.yul\":12598:12609   */\n      add\n        /* \"#utility.yul\":12591:12609   */\n      swap1\n      pop\n        /* \"#utility.yul\":12217:12615   */\n      swap2\n      swap1\n      pop\n      jump\t// out\n        /* \"#utility.yul\":12621:13000   */\n    tag_271:\n        /* \"#utility.yul\":12805:12808   */\n      0x00\n        /* \"#utility.yul\":12827:12974   */\n      tag_559\n        /* \"#utility.yul\":12970:12973   */\n      dup3\n        /* \"#utility.yul\":12827:12974   */\n      tag_397\n      jump\t// in\n    tag_559:\n        /* \"#utility.yul\":12820:12974   */\n      swap2\n      pop\n        /* \"#utility.yul\":12991:12994   */\n      dup2\n        /* \"#utility.yul\":12984:12994   */\n      swap1\n      pop\n        /* \"#utility.yul\":12621:13000   */\n      swap2\n      swap1\n      pop\n      jump\t// out\n        /* \"#utility.yul\":13006:13092   */\n    tag_398:\n        /* \"#utility.yul\":13041:13048   */\n      0x00\n        /* \"#utility.yul\":13081:13085   */\n      0xff\n        /* \"#utility.yul\":13074:13079   */\n      dup3\n        /* \"#utility.yul\":13070:13086   */\n      and\n        /* \"#utility.yul\":13059:13086   */\n      swap1\n      pop\n        /* \"#utility.yul\":13006:13092   */\n      swap2\n      swap1\n      pop\n      jump\t// out\n        /* \"#utility.yul\":13098:13216   */\n    tag_399:\n        /* \"#utility.yul\":13169:13191   */\n      tag_562\n        /* \"#utility.yul\":13185:13190   */\n      dup2\n        /* \"#utility.yul\":13169:13191   */\n      tag_398\n      jump\t// in\n    tag_562:\n        /* \"#utility.yul\":13162:13167   */\n      dup2\n        /* \"#utility.yul\":13159:13192   */\n      eq\n        /* \"#utility.yul\":13149:13210   */\n      tag_563\n      jumpi\n        /* \"#utility.yul\":13206:13207   */\n      0x00\n        /* \"#utility.yul\":13203:13204   */\n      0x00\n        /* \"#utility.yul\":13196:13208   */\n      revert\n        /* \"#utility.yul\":13149:13210   */\n    tag_563:\n        /* \"#utility.yul\":13098:13216   */\n      pop\n      jump\t// out\n        /* \"#utility.yul\":13222:13361   */\n    tag_400:\n        /* \"#utility.yul\":13277:13282   */\n      0x00\n        /* \"#utility.yul\":13308:13314   */\n      dup2\n        /* \"#utility.yul\":13302:13315   */\n      mload\n        /* \"#utility.yul\":13293:13315   */\n      swap1\n      pop\n        /* \"#utility.yul\":13324:13355   */\n      tag_565\n        /* \"#utility.yul\":13349:13354   */\n      dup2\n        /* \"#utility.yul\":13324:13355   */\n      tag_399\n      jump\t// in\n    tag_565:\n        /* \"#utility.yul\":13222:13361   */\n      swap3\n      swap2\n      pop\n      pop\n      jump\t// out\n        /* \"#utility.yul\":13367:13714   */\n    tag_290:\n        /* \"#utility.yul\":13435:13441   */\n      0x00\n        /* \"#utility.yul\":13484:13486   */\n      0x20\n        /* \"#utility.yul\":13472:13481   */\n      dup3\n        /* \"#utility.yul\":13463:13470   */\n      dup5\n        /* \"#utility.yul\":13459:13482   */\n      sub\n        /* \"#utility.yul\":13455:13487   */\n      slt\n        /* \"#utility.yul\":13452:13571   */\n      iszero\n      tag_567\n      jumpi\n        /* \"#utility.yul\":13490:13569   */\n      tag_568\n      tag_356\n      jump\t// in\n    tag_568:\n        /* \"#utility.yul\":13452:13571   */\n    tag_567:\n        /* \"#utility.yul\":13610:13611   */\n      0x00\n        /* \"#utility.yul\":13635:13697   */\n      tag_569\n        /* \"#utility.yul\":13689:13696   */\n      dup5\n        /* \"#utility.yul\":13680:13686   */\n      dup3\n        /* \"#utility.yul\":13669:13678   */\n      dup6\n        /* \"#utility.yul\":13665:13687   */\n      add\n        /* \"#utility.yul\":13635:13697   */\n      tag_400\n      jump\t// in\n    tag_569:\n        /* \"#utility.yul\":13625:13697   */\n      swap2\n      pop\n        /* \"#utility.yul\":13581:13707   */\n      pop\n        /* \"#utility.yul\":13367:13714   */\n      swap3\n      swap2\n      pop\n      pop\n      jump\t// out\n        /* \"#utility.yul\":13720:14130   */\n    tag_294:\n        /* \"#utility.yul\":13760:13767   */\n      0x00\n        /* \"#utility.yul\":13783:13803   */\n      tag_571\n        /* \"#utility.yul\":13801:13802   */\n      dup3\n        /* \"#utility.yul\":13783:13803   */\n      tag_367\n      jump\t// in\n    tag_571:\n        /* \"#utility.yul\":13778:13803   */\n      swap2\n      pop\n        /* \"#utility.yul\":13817:13837   */\n      tag_572\n        /* \"#utility.yul\":13835:13836   */\n      dup4\n        /* \"#utility.yul\":13817:13837   */\n      tag_367\n      jump\t// in\n    tag_572:\n        /* \"#utility.yul\":13812:13837   */\n      swap3\n      pop\n        /* \"#utility.yul\":13872:13873   */\n      dup3\n        /* \"#utility.yul\":13869:13870   */\n      dup3\n        /* \"#utility.yul\":13865:13874   */\n      mul\n        /* \"#utility.yul\":13894:13924   */\n      tag_573\n        /* \"#utility.yul\":13912:13923   */\n      dup2\n        /* \"#utility.yul\":13894:13924   */\n      tag_367\n      jump\t// in\n    tag_573:\n        /* \"#utility.yul\":13883:13924   */\n      swap2\n      pop\n        /* \"#utility.yul\":14073:14074   */\n      dup3\n        /* \"#utility.yul\":14064:14071   */\n      dup3\n        /* \"#utility.yul\":14060:14075   */\n      div\n        /* \"#utility.yul\":14057:14058   */\n      dup5\n        /* \"#utility.yul\":14054:14076   */\n      eq\n        /* \"#utility.yul\":14034:14035   */\n      dup4\n        /* \"#utility.yul\":14027:14036   */\n      iszero\n        /* \"#utility.yul\":14007:14090   */\n      or\n        /* \"#utility.yul\":13984:14123   */\n      tag_574\n      jumpi\n        /* \"#utility.yul\":14103:14121   */\n      tag_575\n      tag_387\n      jump\t// in\n    tag_575:\n        /* \"#utility.yul\":13984:14123   */\n    tag_574:\n        /* \"#utility.yul\":13768:14130   */\n      pop\n        /* \"#utility.yul\":13720:14130   */\n      swap3\n      swap2\n      pop\n      pop\n      jump\t// out\n        /* \"#utility.yul\":14136:14316   */\n    tag_401:\n        /* \"#utility.yul\":14184:14261   */\n      0x4e487b7100000000000000000000000000000000000000000000000000000000\n        /* \"#utility.yul\":14181:14182   */\n      0x00\n        /* \"#utility.yul\":14174:14262   */\n      mstore\n        /* \"#utility.yul\":14281:14285   */\n      0x12\n        /* \"#utility.yul\":14278:14279   */\n      0x04\n        /* \"#utility.yul\":14271:14286   */\n      mstore\n        /* \"#utility.yul\":14305:14309   */\n      0x24\n        /* \"#utility.yul\":14302:14303   */\n      0x00\n        /* \"#utility.yul\":14295:14310   */\n      revert\n        /* \"#utility.yul\":14322:14507   */\n    tag_296:\n        /* \"#utility.yul\":14362:14363   */\n      0x00\n        /* \"#utility.yul\":14379:14399   */\n      tag_578\n        /* \"#utility.yul\":14397:14398   */\n      dup3\n        /* \"#utility.yul\":14379:14399   */\n      tag_367\n      jump\t// in\n    tag_578:\n        /* \"#utility.yul\":14374:14399   */\n      swap2\n      pop\n        /* \"#utility.yul\":14413:14433   */\n      tag_579\n        /* \"#utility.yul\":14431:14432   */\n      dup4\n        /* \"#utility.yul\":14413:14433   */\n      tag_367\n      jump\t// in\n    tag_579:\n        /* \"#utility.yul\":14408:14433   */\n      swap3\n      pop\n        /* \"#utility.yul\":14452:14453   */\n      dup3\n        /* \"#utility.yul\":14442:14477   */\n      tag_580\n      jumpi\n        /* \"#utility.yul\":14457:14475   */\n      tag_581\n      tag_401\n      jump\t// in\n    tag_581:\n        /* \"#utility.yul\":14442:14477   */\n    tag_580:\n        /* \"#utility.yul\":14499:14500   */\n      dup3\n        /* \"#utility.yul\":14496:14497   */\n      dup3\n        /* \"#utility.yul\":14492:14501   */\n      div\n        /* \"#utility.yul\":14487:14501   */\n      swap1\n      pop\n        /* \"#utility.yul\":14322:14507   */\n      swap3\n      swap2\n      pop\n      pop\n      jump\t// out\n        /* \"#utility.yul\":14513:14682   */\n    tag_402:\n        /* \"#utility.yul\":14597:14608   */\n      0x00\n        /* \"#utility.yul\":14631:14637   */\n      dup3\n        /* \"#utility.yul\":14626:14629   */\n      dup3\n        /* \"#utility.yul\":14619:14638   */\n      mstore\n        /* \"#utility.yul\":14671:14675   */\n      0x20\n        /* \"#utility.yul\":14666:14669   */\n      dup3\n        /* \"#utility.yul\":14662:14676   */\n      add\n        /* \"#utility.yul\":14647:14676   */\n      swap1\n      pop\n        /* \"#utility.yul\":14513:14682   */\n      swap3\n      swap2\n      pop\n      pop\n      jump\t// out\n        /* \"#utility.yul\":14688:14869   */\n    tag_403:\n        /* \"#utility.yul\":14828:14861   */\n      0x5265656e7472616e637947756172643a207265656e7472616e742063616c6c00\n        /* \"#utility.yul\":14824:14825   */\n      0x00\n        /* \"#utility.yul\":14816:14822   */\n      dup3\n        /* \"#utility.yul\":14812:14826   */\n      add\n        /* \"#utility.yul\":14805:14862   */\n      mstore\n        /* \"#utility.yul\":14688:14869   */\n      pop\n      jump\t// out\n        /* \"#utility.yul\":14875:15241   */\n    tag_404:\n        /* \"#utility.yul\":15017:15020   */\n      0x00\n        /* \"#utility.yul\":15038:15105   */\n      tag_585\n        /* \"#utility.yul\":15102:15104   */\n      0x1f\n        /* \"#utility.yul\":15097:15100   */\n      dup4\n        /* \"#utility.yul\":15038:15105   */\n      tag_402\n      jump\t// in\n    tag_585:\n        /* \"#utility.yul\":15031:15105   */\n      swap2\n      pop\n        /* \"#utility.yul\":15114:15207   */\n      tag_586\n        /* \"#utility.yul\":15203:15206   */\n      dup3\n        /* \"#utility.yul\":15114:15207   */\n      tag_403\n      jump\t// in\n    tag_586:\n        /* \"#utility.yul\":15232:15234   */\n      0x20\n        /* \"#utility.yul\":15227:15230   */\n      dup3\n        /* \"#utility.yul\":15223:15235   */\n      add\n        /* \"#utility.yul\":15216:15235   */\n      swap1\n      pop\n        /* \"#utility.yul\":14875:15241   */\n      swap2\n      swap1\n      pop\n      jump\t// out\n        /* \"#utility.yul\":15247:15666   */\n    tag_319:\n        /* \"#utility.yul\":15413:15417   */\n      0x00\n        /* \"#utility.yul\":15451:15453   */\n      0x20\n        /* \"#utility.yul\":15440:15449   */\n      dup3\n        /* \"#utility.yul\":15436:15454   */\n      add\n        /* \"#utility.yul\":15428:15454   */\n      swap1\n      pop\n        /* \"#utility.yul\":15500:15509   */\n      dup2\n        /* \"#utility.yul\":15494:15498   */\n      dup2\n        /* \"#utility.yul\":15490:15510   */\n      sub\n        /* \"#utility.yul\":15486:15487   */\n      0x00\n        /* \"#utility.yul\":15475:15484   */\n      dup4\n        /* \"#utility.yul\":15471:15488   */\n      add\n        /* \"#utility.yul\":15464:15511   */\n      mstore\n        /* \"#utility.yul\":15528:15659   */\n      tag_588\n        /* \"#utility.yul\":15654:15658   */\n      dup2\n        /* \"#utility.yul\":15528:15659   */\n      tag_404\n      jump\t// in\n    tag_588:\n        /* \"#utility.yul\":15520:15659   */\n      swap1\n      pop\n        /* \"#utility.yul\":15247:15666   */\n      swap2\n      swap1\n      pop\n      jump\t// out\n        /* \"#utility.yul\":15672:15790   */\n    tag_405:\n        /* \"#utility.yul\":15759:15783   */\n      tag_590\n        /* \"#utility.yul\":15777:15782   */\n      dup2\n        /* \"#utility.yul\":15759:15783   */\n      tag_364\n      jump\t// in\n    tag_590:\n        /* \"#utility.yul\":15754:15757   */\n      dup3\n        /* \"#utility.yul\":15747:15784   */\n      mstore\n        /* \"#utility.yul\":15672:15790   */\n      pop\n      pop\n      jump\t// out\n        /* \"#utility.yul\":15796:16238   */\n    tag_323:\n        /* \"#utility.yul\":15945:15949   */\n      0x00\n        /* \"#utility.yul\":15983:15985   */\n      0x60\n        /* \"#utility.yul\":15972:15981   */\n      dup3\n        /* \"#utility.yul\":15968:15986   */\n      add\n        /* \"#utility.yul\":15960:15986   */\n      swap1\n      pop\n        /* \"#utility.yul\":15996:16067   */\n      tag_592\n        /* \"#utility.yul\":16064:16065   */\n      0x00\n        /* \"#utility.yul\":16053:16062   */\n      dup4\n        /* \"#utility.yul\":16049:16066   */\n      add\n        /* \"#utility.yul\":16040:16046   */\n      dup7\n        /* \"#utility.yul\":15996:16067   */\n      tag_405\n      jump\t// in\n    tag_592:\n        /* \"#utility.yul\":16077:16149   */\n      tag_593\n        /* \"#utility.yul\":16145:16147   */\n      0x20\n        /* \"#utility.yul\":16134:16143   */\n      dup4\n        /* \"#utility.yul\":16130:16148   */\n      add\n        /* \"#utility.yul\":16121:16127   */\n      dup6\n        /* \"#utility.yul\":16077:16149   */\n      tag_405\n      jump\t// in\n    tag_593:\n        /* \"#utility.yul\":16159:16231   */\n      tag_594\n        /* \"#utility.yul\":16227:16229   */\n      0x40\n        /* \"#utility.yul\":16216:16225   */\n      dup4\n        /* \"#utility.yul\":16212:16230   */\n      add\n        /* \"#utility.yul\":16203:16209   */\n      dup5\n        /* \"#utility.yul\":16159:16231   */\n      tag_368\n      jump\t// in\n    tag_594:\n        /* \"#utility.yul\":15796:16238   */\n      swap5\n      swap4\n      pop\n      pop\n      pop\n      pop\n      jump\t// out\n        /* \"#utility.yul\":16244:16576   */\n    tag_329:\n        /* \"#utility.yul\":16365:16369   */\n      0x00\n        /* \"#utility.yul\":16403:16405   */\n      0x40\n        /* \"#utility.yul\":16392:16401   */\n      dup3\n        /* \"#utility.yul\":16388:16406   */\n      add\n        /* \"#utility.yul\":16380:16406   */\n      swap1\n      pop\n        /* \"#utility.yul\":16416:16487   */\n      tag_596\n        /* \"#utility.yul\":16484:16485   */\n      0x00\n        /* \"#utility.yul\":16473:16482   */\n      dup4\n        /* \"#utility.yul\":16469:16486   */\n      add\n        /* \"#utility.yul\":16460:16466   */\n      dup6\n        /* \"#utility.yul\":16416:16487   */\n      tag_405\n      jump\t// in\n    tag_596:\n        /* \"#utility.yul\":16497:16569   */\n      tag_597\n        /* \"#utility.yul\":16565:16567   */\n      0x20\n        /* \"#utility.yul\":16554:16563   */\n      dup4\n        /* \"#utility.yul\":16550:16568   */\n      add\n        /* \"#utility.yul\":16541:16547   */\n      dup5\n        /* \"#utility.yul\":16497:16569   */\n      tag_368\n      jump\t// in\n    tag_597:\n        /* \"#utility.yul\":16244:16576   */\n      swap4\n      swap3\n      pop\n      pop\n      pop\n      jump\t// out\n        /* \"#utility.yul\":16582:16773   */\n    tag_333:\n        /* \"#utility.yul\":16620:16624   */\n      0x00\n        /* \"#utility.yul\":16640:16658   */\n      tag_599\n        /* \"#utility.yul\":16656:16657   */\n      dup3\n        /* \"#utility.yul\":16640:16658   */\n      tag_398\n      jump\t// in\n    tag_599:\n        /* \"#utility.yul\":16635:16658   */\n      swap2\n      pop\n        /* \"#utility.yul\":16672:16690   */\n      tag_600\n        /* \"#utility.yul\":16688:16689   */\n      dup4\n        /* \"#utility.yul\":16672:16690   */\n      tag_398\n      jump\t// in\n    tag_600:\n        /* \"#utility.yul\":16667:16690   */\n      swap3\n      pop\n        /* \"#utility.yul\":16714:16715   */\n      dup3\n        /* \"#utility.yul\":16711:16712   */\n      dup3\n        /* \"#utility.yul\":16707:16716   */\n      sub\n        /* \"#utility.yul\":16699:16716   */\n      swap1\n      pop\n        /* \"#utility.yul\":16738:16742   */\n      0xff\n        /* \"#utility.yul\":16732:16736   */\n      dup2\n        /* \"#utility.yul\":16729:16743   */\n      gt\n        /* \"#utility.yul\":16726:16766   */\n      iszero\n      tag_601\n      jumpi\n        /* \"#utility.yul\":16746:16764   */\n      tag_602\n      tag_387\n      jump\t// in\n    tag_602:\n        /* \"#utility.yul\":16726:16766   */\n    tag_601:\n        /* \"#utility.yul\":16582:16773   */\n      swap3\n      swap2\n      pop\n      pop\n      jump\t// out\n        /* \"#utility.yul\":16779:16881   */\n    tag_406:\n        /* \"#utility.yul\":16821:16829   */\n      0x00\n        /* \"#utility.yul\":16868:16873   */\n      dup2\n        /* \"#utility.yul\":16865:16866   */\n      0x01\n        /* \"#utility.yul\":16861:16874   */\n      shr\n        /* \"#utility.yul\":16840:16874   */\n      swap1\n      pop\n        /* \"#utility.yul\":16779:16881   */\n      swap2\n      swap1\n      pop\n      jump\t// out\n        /* \"#utility.yul\":16887:17735   */\n    tag_407:\n        /* \"#utility.yul\":16948:16953   */\n      0x00\n        /* \"#utility.yul\":16955:16959   */\n      0x00\n        /* \"#utility.yul\":16979:16985   */\n      dup3\n        /* \"#utility.yul\":16970:16985   */\n      swap2\n      pop\n        /* \"#utility.yul\":17003:17008   */\n      dup4\n        /* \"#utility.yul\":16994:17008   */\n      swap1\n      pop\n        /* \"#utility.yul\":17017:17729   */\n    tag_605:\n        /* \"#utility.yul\":17038:17039   */\n      0x01\n        /* \"#utility.yul\":17028:17036   */\n      dup6\n        /* \"#utility.yul\":17025:17040   */\n      gt\n        /* \"#utility.yul\":17017:17729   */\n      iszero\n      tag_607\n      jumpi\n        /* \"#utility.yul\":17133:17137   */\n      dup1\n        /* \"#utility.yul\":17128:17131   */\n      dup7\n        /* \"#utility.yul\":17124:17138   */\n      div\n        /* \"#utility.yul\":17118:17122   */\n      dup2\n        /* \"#utility.yul\":17115:17139   */\n      gt\n        /* \"#utility.yul\":17112:17162   */\n      iszero\n      tag_608\n      jumpi\n        /* \"#utility.yul\":17142:17160   */\n      tag_609\n      tag_387\n      jump\t// in\n    tag_609:\n        /* \"#utility.yul\":17112:17162   */\n    tag_608:\n        /* \"#utility.yul\":17192:17193   */\n      0x01\n        /* \"#utility.yul\":17182:17190   */\n      dup6\n        /* \"#utility.yul\":17178:17194   */\n      and\n        /* \"#utility.yul\":17175:17626   */\n      iszero\n      tag_610\n      jumpi\n        /* \"#utility.yul\":17607:17611   */\n      dup1\n        /* \"#utility.yul\":17600:17605   */\n      dup3\n        /* \"#utility.yul\":17596:17612   */\n      mul\n        /* \"#utility.yul\":17587:17612   */\n      swap2\n      pop\n        /* \"#utility.yul\":17175:17626   */\n    tag_610:\n        /* \"#utility.yul\":17657:17661   */\n      dup1\n        /* \"#utility.yul\":17651:17655   */\n      dup2\n        /* \"#utility.yul\":17647:17662   */\n      mul\n        /* \"#utility.yul\":17639:17662   */\n      swap1\n      pop\n        /* \"#utility.yul\":17687:17719   */\n      tag_611\n        /* \"#utility.yul\":17710:17718   */\n      dup6\n        /* \"#utility.yul\":17687:17719   */\n      tag_406\n      jump\t// in\n    tag_611:\n        /* \"#utility.yul\":17675:17719   */\n      swap5\n      pop\n        /* \"#utility.yul\":17017:17729   */\n      jump(tag_605)\n    tag_607:\n        /* \"#utility.yul\":16887:17735   */\n      swap5\n      pop\n      swap5\n      swap3\n      pop\n      pop\n      pop\n      jump\t// out\n        /* \"#utility.yul\":17741:18814   */\n    tag_408:\n        /* \"#utility.yul\":17795:17800   */\n      0x00\n        /* \"#utility.yul\":17986:17994   */\n      dup3\n        /* \"#utility.yul\":17976:18016   */\n      tag_613\n      jumpi\n        /* \"#utility.yul\":18007:18008   */\n      0x01\n        /* \"#utility.yul\":17998:18008   */\n      swap1\n      pop\n        /* \"#utility.yul\":18009:18014   */\n      jump(tag_612)\n        /* \"#utility.yul\":17976:18016   */\n    tag_613:\n        /* \"#utility.yul\":18035:18039   */\n      dup2\n        /* \"#utility.yul\":18025:18061   */\n      tag_614\n      jumpi\n        /* \"#utility.yul\":18052:18053   */\n      0x00\n        /* \"#utility.yul\":18043:18053   */\n      swap1\n      pop\n        /* \"#utility.yul\":18054:18059   */\n      jump(tag_612)\n        /* \"#utility.yul\":18025:18061   */\n    tag_614:\n        /* \"#utility.yul\":18121:18125   */\n      dup2\n        /* \"#utility.yul\":18169:18170   */\n      0x01\n        /* \"#utility.yul\":18164:18191   */\n      dup2\n      eq\n      tag_616\n      jumpi\n        /* \"#utility.yul\":18205:18206   */\n      0x02\n        /* \"#utility.yul\":18200:18391   */\n      dup2\n      eq\n      tag_617\n      jumpi\n        /* \"#utility.yul\":18114:18391   */\n      jump(tag_615)\n        /* \"#utility.yul\":18164:18191   */\n    tag_616:\n        /* \"#utility.yul\":18182:18183   */\n      0x01\n        /* \"#utility.yul\":18173:18183   */\n      swap2\n      pop\n        /* \"#utility.yul\":18184:18189   */\n      pop\n      jump(tag_612)\n        /* \"#utility.yul\":18200:18391   */\n    tag_617:\n        /* \"#utility.yul\":18245:18248   */\n      0xff\n        /* \"#utility.yul\":18235:18243   */\n      dup5\n        /* \"#utility.yul\":18232:18249   */\n      gt\n        /* \"#utility.yul\":18229:18272   */\n      iszero\n      tag_618\n      jumpi\n        /* \"#utility.yul\":18252:18270   */\n      tag_619\n      tag_387\n      jump\t// in\n    tag_619:\n        /* \"#utility.yul\":18229:18272   */\n    tag_618:\n        /* \"#utility.yul\":18301:18309   */\n      dup4\n        /* \"#utility.yul\":18298:18299   */\n      0x02\n        /* \"#utility.yul\":18294:18310   */\n      exp\n        /* \"#utility.yul\":18285:18310   */\n      swap2\n      pop\n        /* \"#utility.yul\":18336:18339   */\n      dup5\n        /* \"#utility.yul\":18329:18334   */\n      dup3\n        /* \"#utility.yul\":18326:18340   */\n      gt\n        /* \"#utility.yul\":18323:18363   */\n      iszero\n      tag_620\n      jumpi\n        /* \"#utility.yul\":18343:18361   */\n      tag_621\n      tag_387\n      jump\t// in\n    tag_621:\n        /* \"#utility.yul\":18323:18363   */\n    tag_620:\n        /* \"#utility.yul\":18376:18381   */\n      pop\n      jump(tag_612)\n        /* \"#utility.yul\":18114:18391   */\n    tag_615:\n      pop\n        /* \"#utility.yul\":18500:18502   */\n      0x20\n        /* \"#utility.yul\":18490:18498   */\n      dup4\n        /* \"#utility.yul\":18487:18503   */\n      lt\n        /* \"#utility.yul\":18481:18484   */\n      0x0133\n        /* \"#utility.yul\":18475:18479   */\n      dup4\n        /* \"#utility.yul\":18472:18485   */\n      lt\n        /* \"#utility.yul\":18468:18504   */\n      and\n        /* \"#utility.yul\":18450:18452   */\n      0x4e\n        /* \"#utility.yul\":18440:18448   */\n      dup5\n        /* \"#utility.yul\":18437:18453   */\n      lt\n        /* \"#utility.yul\":18432:18434   */\n      0x0b\n        /* \"#utility.yul\":18426:18430   */\n      dup5\n        /* \"#utility.yul\":18423:18435   */\n      lt\n        /* \"#utility.yul\":18419:18454   */\n      and\n        /* \"#utility.yul\":18403:18514   */\n      or\n        /* \"#utility.yul\":18400:18646   */\n      iszero\n      tag_622\n      jumpi\n        /* \"#utility.yul\":18556:18564   */\n      dup3\n        /* \"#utility.yul\":18550:18554   */\n      dup3\n        /* \"#utility.yul\":18546:18565   */\n      exp\n        /* \"#utility.yul\":18537:18565   */\n      swap1\n      pop\n        /* \"#utility.yul\":18591:18594   */\n      dup4\n        /* \"#utility.yul\":18584:18589   */\n      dup2\n        /* \"#utility.yul\":18581:18595   */\n      gt\n        /* \"#utility.yul\":18578:18618   */\n      iszero\n      tag_623\n      jumpi\n        /* \"#utility.yul\":18598:18616   */\n      tag_624\n      tag_387\n      jump\t// in\n    tag_624:\n        /* \"#utility.yul\":18578:18618   */\n    tag_623:\n        /* \"#utility.yul\":18631:18636   */\n      jump(tag_612)\n        /* \"#utility.yul\":18400:18646   */\n    tag_622:\n        /* \"#utility.yul\":18671:18713   */\n      tag_625\n        /* \"#utility.yul\":18709:18712   */\n      dup5\n        /* \"#utility.yul\":18699:18707   */\n      dup5\n        /* \"#utility.yul\":18693:18697   */\n      dup5\n        /* \"#utility.yul\":18690:18691   */\n      0x01\n        /* \"#utility.yul\":18671:18713   */\n      tag_407\n      jump\t// in\n    tag_625:\n        /* \"#utility.yul\":18656:18713   */\n      swap3\n      pop\n      swap1\n      pop\n        /* \"#utility.yul\":18745:18749   */\n      dup2\n        /* \"#utility.yul\":18740:18743   */\n      dup5\n        /* \"#utility.yul\":18736:18750   */\n      div\n        /* \"#utility.yul\":18729:18734   */\n      dup2\n        /* \"#utility.yul\":18726:18751   */\n      gt\n        /* \"#utility.yul\":18723:18774   */\n      iszero\n      tag_626\n      jumpi\n        /* \"#utility.yul\":18754:18772   */\n      tag_627\n      tag_387\n      jump\t// in\n    tag_627:\n        /* \"#utility.yul\":18723:18774   */\n    tag_626:\n        /* \"#utility.yul\":18803:18807   */\n      dup2\n        /* \"#utility.yul\":18796:18801   */\n      dup2\n        /* \"#utility.yul\":18792:18808   */\n      mul\n        /* \"#utility.yul\":18783:18808   */\n      swap1\n      pop\n        /* \"#utility.yul\":17741:18814   */\n    tag_612:\n      swap4\n      swap3\n      pop\n      pop\n      pop\n      jump\t// out\n        /* \"#utility.yul\":18820:19101   */\n    tag_335:\n        /* \"#utility.yul\":18878:18883   */\n      0x00\n        /* \"#utility.yul\":18902:18925   */\n      tag_629\n        /* \"#utility.yul\":18920:18924   */\n      dup3\n        /* \"#utility.yul\":18902:18925   */\n      tag_367\n      jump\t// in\n    tag_629:\n        /* \"#utility.yul\":18894:18925   */\n      swap2\n      pop\n        /* \"#utility.yul\":18946:18971   */\n      tag_630\n        /* \"#utility.yul\":18962:18970   */\n      dup4\n        /* \"#utility.yul\":18946:18971   */\n      tag_398\n      jump\t// in\n    tag_630:\n        /* \"#utility.yul\":18934:18971   */\n      swap3\n      pop\n        /* \"#utility.yul\":18990:19094   */\n      tag_631\n        /* \"#utility.yul\":19027:19093   */\n      0xffffffffffffffffffffffffffffffffffffffffffffffffffffffffffffffff\n        /* \"#utility.yul\":19017:19025   */\n      dup5\n        /* \"#utility.yul\":19011:19015   */\n      dup5\n        /* \"#utility.yul\":18990:19094   */\n      tag_408\n      jump\t// in\n    tag_631:\n        /* \"#utility.yul\":18981:19094   */\n      swap1\n      pop\n        /* \"#utility.yul\":18820:19101   */\n      swap3\n      swap2\n      pop\n      pop\n      jump\t// out\n        /* \"#utility.yul\":19107:19439   */\n    tag_347:\n        /* \"#utility.yul\":19228:19232   */\n      0x00\n        /* \"#utility.yul\":19266:19268   */\n      0x40\n        /* \"#utility.yul\":19255:19264   */\n      dup3\n        /* \"#utility.yul\":19251:19269   */\n      add\n        /* \"#utility.yul\":19243:19269   */\n      swap1\n      pop\n        /* \"#utility.yul\":19279:19350   */\n      tag_633\n        /* \"#utility.yul\":19347:19348   */\n      0x00\n        /* \"#utility.yul\":19336:19345   */\n      dup4\n        /* \"#utility.yul\":19332:19349   */\n      add\n        /* \"#utility.yul\":19323:19329   */\n      dup6\n        /* \"#utility.yul\":19279:19350   */\n      tag_405\n      jump\t// in\n    tag_633:\n        /* \"#utility.yul\":19360:19432   */\n      tag_634\n        /* \"#utility.yul\":19428:19430   */\n      0x20\n        /* \"#utility.yul\":19417:19426   */\n      dup4\n        /* \"#utility.yul\":19413:19431   */\n      add\n        /* \"#utility.yul\":19404:19410   */\n      dup5\n        /* \"#utility.yul\":19360:19432   */\n      tag_372\n      jump\t// in\n    tag_634:\n        /* \"#utility.yul\":19107:19439   */\n      swap4\n      swap3\n      pop\n      pop\n      pop\n      jump\t// out\n        /* \"#utility.yul\":19445:19667   */\n    tag_354:\n        /* \"#utility.yul\":19538:19542   */\n      0x00\n        /* \"#utility.yul\":19576:19578   */\n      0x20\n        /* \"#utility.yul\":19565:19574   */\n      dup3\n        /* \"#utility.yul\":19561:19579   */\n      add\n        /* \"#utility.yul\":19553:19579   */\n      swap1\n      pop\n        /* \"#utility.yul\":19589:19660   */\n      tag_636\n        /* \"#utility.yul\":19657:19658   */\n      0x00\n        /* \"#utility.yul\":19646:19655   */\n      dup4\n        /* \"#utility.yul\":19642:19659   */\n      add\n        /* \"#utility.yul\":19633:19639   */\n      dup5\n        /* \"#utility.yul\":19589:19660   */\n      tag_405\n      jump\t// in\n    tag_636:\n        /* \"#utility.yul\":19445:19667   */\n      swap3\n      swap2\n      pop\n      pop\n      jump\t// out\n\n    auxdata: 0xa2646970667358221220185bc13f375add1f081d4958d6750a25250b43993e3ab57652cee2f38f00fd8264736f6c634300081e0033\n}\n",
				"bytecode": {
					"linkReferences": {},
					"object": "60e060405234801561000f575f5ffd5b506040516131c43803806131c48339818101604052810190610031919061038f565b600180819055505f8303610071576040517ff1f13a3800000000000000000000000000000000000000000000000000000000815260040160405180910390fd5b5f82036100aa576040517fafea1c5700000000000000000000000000000000000000000000000000000000815260040160405180910390fd5b5f73ffffffffffffffffffffffffffffffffffffffff168173ffffffffffffffffffffffffffffffffffffffff160361010f576040517f9589a27d00000000000000000000000000000000000000000000000000000000815260040160405180910390fd5b82608081815250508160a081815250508073ffffffffffffffffffffffffffffffffffffffff1660c08173ffffffffffffffffffffffffffffffffffffffff16815250506101655f5f1b3361019f60201b60201c565b506101967f2d95a8186db49da8bd2356c70cf02038f7de0d6ed39f6766fe2d93d5e77856163361019f60201b60201c565b505050506103df565b5f6101b0838361029460201b60201c565b61028a5760015f5f8581526020019081526020015f205f015f8473ffffffffffffffffffffffffffffffffffffffff1673ffffffffffffffffffffffffffffffffffffffff1681526020019081526020015f205f6101000a81548160ff0219169083151502179055506102276102f760201b60201c565b73ffffffffffffffffffffffffffffffffffffffff168273ffffffffffffffffffffffffffffffffffffffff16847f2f8788117e7eff1d82e926ec794901d17c78024a50270940304540a733656f0d60405160405180910390a46001905061028e565b5f90505b92915050565b5f5f5f8481526020019081526020015f205f015f8373ffffffffffffffffffffffffffffffffffffffff1673ffffffffffffffffffffffffffffffffffffffff1681526020019081526020015f205f9054906101000a900460ff16905092915050565b5f33905090565b5f5ffd5b5f819050919050565b61031481610302565b811461031e575f5ffd5b50565b5f8151905061032f8161030b565b92915050565b5f73ffffffffffffffffffffffffffffffffffffffff82169050919050565b5f61035e82610335565b9050919050565b61036e81610354565b8114610378575f5ffd5b50565b5f8151905061038981610365565b92915050565b5f5f5f606084860312156103a6576103a56102fe565b5b5f6103b386828701610321565b93505060206103c486828701610321565b92505060406103d58682870161037b565b9150509250925092565b60805160a05160c051612da661041e5f395f81816108970152610f9e01525f8181610c51015261133301525f8181610fc201526117e80152612da65ff3fe60806040526004361061014e575f3560e01c806391d14854116100b5578063d547741f1161006e578063d547741f14610513578063e7d66d631461053b578063ee3d686614610565578063f21570521461058d578063f3fef3a3146105b7578063f4443d9a146105df57610185565b806391d14854146103f557806392b9f8f514610431578063a217fddf14610459578063a773a50014610483578063b3d8bcdc146104ad578063d3c7c2c7146104e957610185565b806336568abe1161010757806336568abe146102f957806347e7ef24146103215780636805d6ad1461033d57806376e11286146103795780638009b7bd146103a15780638c0ff5b7146103cb57610185565b806301ffc9a7146101b75780631e604ea3146101f3578063248a9ca31461022f5780632e3441a91461026b5780632f2ff15d146102a757806330c0b9ec146102cf57610185565b36610185576040517f3ee6509d00000000000000000000000000000000000000000000000000000000815260040160405180910390fd5b6040517f3921c70300000000000000000000000000000000000000000000000000000000815260040160405180910390fd5b3480156101c2575f5ffd5b506101dd60048036038101906101d8919061233f565b61061b565b6040516101ea9190612384565b60405180910390f35b3480156101fe575f5ffd5b50610219600480360381019061021491906123f7565b610694565b604051610226919061243a565b60405180910390f35b34801561023a575f5ffd5b5061025560048036038101906102509190612486565b610825565b60405161026291906124c0565b60405180910390f35b348015610276575f5ffd5b50610291600480360381019061028c91906123f7565b610841565b60405161029e9190612534565b60405180910390f35b3480156102b2575f5ffd5b506102cd60048036038101906102c8919061254d565b610871565b005b3480156102da575f5ffd5b506102e3610893565b6040516102f0919061243a565b60405180910390f35b348015610304575f5ffd5b5061031f600480360381019061031a919061254d565b61092f565b005b61033b600480360381019061033691906125b5565b6109aa565b005b348015610348575f5ffd5b50610363600480360381019061035e91906125f3565b610db1565b604051610370919061243a565b60405180910390f35b348015610384575f5ffd5b5061039f600480360381019061039a91906125f3565b610e33565b005b3480156103ac575f5ffd5b506103b5610f9c565b6040516103c29190612534565b60405180910390f35b3480156103d6575f5ffd5b506103df610fc0565b6040516103ec919061243a565b60405180910390f35b348015610400575f5ffd5b5061041b6004803603810190610416919061254d565b610fe4565b6040516104289190612384565b60405180910390f35b34801561043c575f5ffd5b50610457600480360381019061045291906125f3565b611047565b005b348015610464575f5ffd5b5061046d61132b565b60405161047a91906124c0565b60405180910390f35b34801561048e575f5ffd5b50610497611331565b6040516104a4919061243a565b60405180910390f35b3480156104b8575f5ffd5b506104d360048036038101906104ce91906123f7565b611355565b6040516104e0919061243a565b60405180910390f35b3480156104f4575f5ffd5b506104fd61136a565b60405161050a91906126e8565b60405180910390f35b34801561051e575f5ffd5b506105396004803603810190610534919061254d565b6113f5565b005b348015610546575f5ffd5b5061054f611417565b60405161055c919061243a565b60405180910390f35b348015610570575f5ffd5b5061058b600480360381019061058691906123f7565b61141d565b005b348015610598575f5ffd5b506105a1611781565b6040516105ae91906124c0565b60405180910390f35b3480156105c2575f5ffd5b506105dd60048036038101906105d891906125b5565b6117a5565b005b3480156105ea575f5ffd5b50610605600480360381019061060091906123f7565b611bb0565b604051610612919061243a565b60405180910390f35b5f7f7965db0b000000000000000000000000000000000000000000000000000000007bffffffffffffffffffffffffffffffffffffffffffffffffffffffff1916827bffffffffffffffffffffffffffffffffffffffffffffffffffffffff1916148061068d575061068c82611bc5565b5b9050919050565b5f5f5f90505b600680549050811015610791575f600682815481106106bc576106bb612708565b5b905f5260205f20015f9054906101000a900473ffffffffffffffffffffffffffffffffffffffff1690505f60035f8673ffffffffffffffffffffffffffffffffffffffff1673ffffffffffffffffffffffffffffffffffffffff1681526020019081526020015f205f8373ffffffffffffffffffffffffffffffffffffffff1673ffffffffffffffffffffffffffffffffffffffff1681526020019081526020015f205490505f811115610782576107748282611c2e565b8461077f9190612762565b93505b5050808060010191505061069a565b5061081360035f8473ffffffffffffffffffffffffffffffffffffffff1673ffffffffffffffffffffffffffffffffffffffff1681526020019081526020015f205f5f73ffffffffffffffffffffffffffffffffffffffff1673ffffffffffffffffffffffffffffffffffffffff1681526020019081526020015f2054611e0c565b8161081e9190612762565b9050919050565b5f5f5f8381526020019081526020015f20600101549050919050565b6002602052805f5260405f205f915054906101000a900473ffffffffffffffffffffffffffffffffffffffff1681565b61087a82610825565b61088381611e3b565b61088d8383611e4f565b50505050565b5f5f7f000000000000000000000000000000000000000000000000000000000000000073ffffffffffffffffffffffffffffffffffffffff1663feaf968c6040518163ffffffff1660e01b815260040160a060405180830381865afa1580156108fe573d5f5f3e3d5ffd5b505050506040513d601f19601f82011682018060405250810190610922919061281b565b5050509150508091505090565b610937611f38565b73ffffffffffffffffffffffffffffffffffffffff168173ffffffffffffffffffffffffffffffffffffffff161461099b576040517f6697b23200000000000000000000000000000000000000000000000000000000815260040160405180910390fd5b6109a58282611f3f565b505050565b6109b2612028565b5f5f73ffffffffffffffffffffffffffffffffffffffff168373ffffffffffffffffffffffffffffffffffffffff1603610abd575f3403610a1f576040517f8615019900000000000000000000000000000000000000000000000000000000815260040160405180910390fd5b610a2834611e0c565b90503460035f3373ffffffffffffffffffffffffffffffffffffffff1673ffffffffffffffffffffffffffffffffffffffff1681526020019081526020015f205f5f73ffffffffffffffffffffffffffffffffffffffff1673ffffffffffffffffffffffffffffffffffffffff1681526020019081526020015f205f828254610ab19190612762565b92505081905550610c3e565b60075f8473ffffffffffffffffffffffffffffffffffffffff1673ffffffffffffffffffffffffffffffffffffffff1681526020019081526020015f205f9054906101000a900460ff16610b3d576040517f3dd1b30500000000000000000000000000000000000000000000000000000000815260040160405180910390fd5b5f8203610b76576040517f8615019900000000000000000000000000000000000000000000000000000000815260040160405180910390fd5b610ba33330848673ffffffffffffffffffffffffffffffffffffffff16612077909392919063ffffffff16565b610bad8383611c2e565b90508160035f3373ffffffffffffffffffffffffffffffffffffffff1673ffffffffffffffffffffffffffffffffffffffff1681526020019081526020015f205f8573ffffffffffffffffffffffffffffffffffffffff1673ffffffffffffffffffffffffffffffffffffffff1681526020019081526020015f205f828254610c369190612762565b925050819055505b5f81600854610c4d9190612762565b90507f0000000000000000000000000000000000000000000000000000000000000000811115610ca9576040517f448f3ca800000000000000000000000000000000000000000000000000000000815260040160405180910390fd5b8060088190555060045f3373ffffffffffffffffffffffffffffffffffffffff1673ffffffffffffffffffffffffffffffffffffffff1681526020019081526020015f205f815480929190610cfd90612892565b91905055508373ffffffffffffffffffffffffffffffffffffffff163373ffffffffffffffffffffffffffffffffffffffff167f57bad7e3c9efecf6e1f60bbd846b999e9da4a409224287a8df09779f2330135e5f73ffffffffffffffffffffffffffffffffffffffff168773ffffffffffffffffffffffffffffffffffffffff1614610d8a5785610d8c565b345b85604051610d9b9291906128d9565b60405180910390a35050610dad6120f9565b5050565b5f60035f8473ffffffffffffffffffffffffffffffffffffffff1673ffffffffffffffffffffffffffffffffffffffff1681526020019081526020015f205f8373ffffffffffffffffffffffffffffffffffffffff1673ffffffffffffffffffffffffffffffffffffffff1681526020019081526020015f2054905092915050565b7f2d95a8186db49da8bd2356c70cf02038f7de0d6ed39f6766fe2d93d5e7785616610e5d81611e3b565b5f73ffffffffffffffffffffffffffffffffffffffff168373ffffffffffffffffffffffffffffffffffffffff1603610ec2576040517f9589a27d00000000000000000000000000000000000000000000000000000000815260040160405180910390fd5b8160025f8573ffffffffffffffffffffffffffffffffffffffff1673ffffffffffffffffffffffffffffffffffffffff1681526020019081526020015f205f6101000a81548173ffffffffffffffffffffffffffffffffffffffff021916908373ffffffffffffffffffffffffffffffffffffffff1602179055508173ffffffffffffffffffffffffffffffffffffffff168373ffffffffffffffffffffffffffffffffffffffff167fd2d8394cf7549a5ddbc2ba3dd7b2de8d53c891472d1f2907008ed6a10045fdae60405160405180910390a3505050565b7f000000000000000000000000000000000000000000000000000000000000000081565b7f000000000000000000000000000000000000000000000000000000000000000081565b5f5f5f8481526020019081526020015f205f015f8373ffffffffffffffffffffffffffffffffffffffff1673ffffffffffffffffffffffffffffffffffffffff1681526020019081526020015f205f9054906101000a900460ff16905092915050565b7f2d95a8186db49da8bd2356c70cf02038f7de0d6ed39f6766fe2d93d5e778561661107181611e3b565b5f73ffffffffffffffffffffffffffffffffffffffff168373ffffffffffffffffffffffffffffffffffffffff16036110d6576040517f3dd1b30500000000000000000000000000000000000000000000000000000000815260040160405180910390fd5b60075f8473ffffffffffffffffffffffffffffffffffffffff1673ffffffffffffffffffffffffffffffffffffffff1681526020019081526020015f205f9054906101000a900460ff1661121d57600683908060018154018082558091505060019003905f5260205f20015f9091909190916101000a81548173ffffffffffffffffffffffffffffffffffffffff021916908373ffffffffffffffffffffffffffffffffffffffff160217905550600160075f8573ffffffffffffffffffffffffffffffffffffffff1673ffffffffffffffffffffffffffffffffffffffff1681526020019081526020015f205f6101000a81548160ff0219169083151502179055508273ffffffffffffffffffffffffffffffffffffffff167fea3145306a87baeba6bb1a8b5c8d3744f840a81cb436b3509f64fc978600cdfb60405160405180910390a25b5f73ffffffffffffffffffffffffffffffffffffffff168273ffffffffffffffffffffffffffffffffffffffff1614611326578160025f8573ffffffffffffffffffffffffffffffffffffffff1673ffffffffffffffffffffffffffffffffffffffff1681526020019081526020015f205f6101000a81548173ffffffffffffffffffffffffffffffffffffffff021916908373ffffffffffffffffffffffffffffffffffffffff1602179055508173ffffffffffffffffffffffffffffffffffffffff168373ffffffffffffffffffffffffffffffffffffffff167fd2d8394cf7549a5ddbc2ba3dd7b2de8d53c891472d1f2907008ed6a10045fdae60405160405180910390a35b505050565b5f5f1b81565b7f000000000000000000000000000000000000000000000000000000000000000081565b6005602052805f5260405f205f915090505481565b606060068054806020026020016040519081016040528092919081815260200182805480156113eb57602002820191905f5260205f20905b815f9054906101000a900473ffffffffffffffffffffffffffffffffffffffff1673ffffffffffffffffffffffffffffffffffffffff16815260200190600101908083116113a2575b5050505050905090565b6113fe82610825565b61140781611e3b565b6114118383611f3f565b50505050565b60085481565b7f2d95a8186db49da8bd2356c70cf02038f7de0d6ed39f6766fe2d93d5e778561661144781611e3b565b60075f8373ffffffffffffffffffffffffffffffffffffffff1673ffffffffffffffffffffffffffffffffffffffff1681526020019081526020015f205f9054906101000a900460ff166114c7576040517f3dd1b30500000000000000000000000000000000000000000000000000000000815260040160405180910390fd5b5f60075f8473ffffffffffffffffffffffffffffffffffffffff1673ffffffffffffffffffffffffffffffffffffffff1681526020019081526020015f205f6101000a81548160ff0219169083151502179055505f5f90505b600680549050811015611697578273ffffffffffffffffffffffffffffffffffffffff166006828154811061155857611557612708565b5b905f5260205f20015f9054906101000a900473ffffffffffffffffffffffffffffffffffffffff1673ffffffffffffffffffffffffffffffffffffffff160361168a57600660016006805490506115af9190612900565b815481106115c0576115bf612708565b5b905f5260205f20015f9054906101000a900473ffffffffffffffffffffffffffffffffffffffff16600682815481106115fc576115fb612708565b5b905f5260205f20015f6101000a81548173ffffffffffffffffffffffffffffffffffffffff021916908373ffffffffffffffffffffffffffffffffffffffff160217905550600680548061165357611652612933565b5b600190038181905f5260205f20015f6101000a81549073ffffffffffffffffffffffffffffffffffffffff02191690559055611697565b8080600101915050611520565b5060025f8373ffffffffffffffffffffffffffffffffffffffff1673ffffffffffffffffffffffffffffffffffffffff1681526020019081526020015f205f6101000a81549073ffffffffffffffffffffffffffffffffffffffff02191690558173ffffffffffffffffffffffffffffffffffffffff167ff940d38196f30e7ff3eb255dd42db8d99a75c1ac112199d4fc314ce6460bfc0c60405160405180910390a28173ffffffffffffffffffffffffffffffffffffffff167ffd58461c4683df397133c7e91fe2aa71559919b405f9e09c9c3af7e875f54e3b60405160405180910390a25050565b7f2d95a8186db49da8bd2356c70cf02038f7de0d6ed39f6766fe2d93d5e778561681565b6117ad612028565b5f81036117e6576040517f2c5211c600000000000000000000000000000000000000000000000000000000815260040160405180910390fd5b7f0000000000000000000000000000000000000000000000000000000000000000811115611840576040517f73a7c91000000000000000000000000000000000000000000000000000000000815260040160405180910390fd5b5f60035f3373ffffffffffffffffffffffffffffffffffffffff1673ffffffffffffffffffffffffffffffffffffffff1681526020019081526020015f205f8473ffffffffffffffffffffffffffffffffffffffff1673ffffffffffffffffffffffffffffffffffffffff1681526020019081526020015f20549050818110156118f6576040517ff4d678b800000000000000000000000000000000000000000000000000000000815260040160405180910390fd5b5f5f73ffffffffffffffffffffffffffffffffffffffff168473ffffffffffffffffffffffffffffffffffffffff1614611939576119348484611c2e565b611943565b61194283611e0c565b5b905082826119519190612900565b60035f3373ffffffffffffffffffffffffffffffffffffffff1673ffffffffffffffffffffffffffffffffffffffff1681526020019081526020015f205f8673ffffffffffffffffffffffffffffffffffffffff1673ffffffffffffffffffffffffffffffffffffffff1681526020019081526020015f20819055508060085f8282546119de9190612900565b9250508190555060055f3373ffffffffffffffffffffffffffffffffffffffff1673ffffffffffffffffffffffffffffffffffffffff1681526020019081526020015f205f815480929190611a3290612892565b91905055505f73ffffffffffffffffffffffffffffffffffffffff168473ffffffffffffffffffffffffffffffffffffffff1603611b0f575f3373ffffffffffffffffffffffffffffffffffffffff1684604051611a8f9061298d565b5f6040518083038185875af1925050503d805f8114611ac9576040519150601f19603f3d011682016040523d82523d5f602084013e611ace565b606091505b5050905080611b09576040517f90b8ec1800000000000000000000000000000000000000000000000000000000815260040160405180910390fd5b50611b3b565b611b3a33848673ffffffffffffffffffffffffffffffffffffffff166121029092919063ffffffff16565b5b8373ffffffffffffffffffffffffffffffffffffffff163373ffffffffffffffffffffffffffffffffffffffff167fde1d532173c6de1e3937c7af1cb92745c738980729f53ac451a725f929f3b7988584604051611b9a9291906128d9565b60405180910390a35050611bac6120f9565b5050565b6004602052805f5260405f205f915090505481565b5f7f01ffc9a7000000000000000000000000000000000000000000000000000000007bffffffffffffffffffffffffffffffffffffffffffffffffffffffff1916827bffffffffffffffffffffffffffffffffffffffffffffffffffffffff1916149050919050565b5f5f60025f8573ffffffffffffffffffffffffffffffffffffffff1673ffffffffffffffffffffffffffffffffffffffff1681526020019081526020015f205f9054906101000a900473ffffffffffffffffffffffffffffffffffffffff1690505f73ffffffffffffffffffffffffffffffffffffffff168173ffffffffffffffffffffffffffffffffffffffff1603611cf4576040517f9589a27d00000000000000000000000000000000000000000000000000000000815260040160405180910390fd5b5f8173ffffffffffffffffffffffffffffffffffffffff1663feaf968c6040518163ffffffff1660e01b815260040160a060405180830381865afa158015611d3e573d5f5f3e3d5ffd5b505050506040513d601f19601f82011682018060405250810190611d62919061281b565b5050509150505f8573ffffffffffffffffffffffffffffffffffffffff1663313ce5676040518163ffffffff1660e01b8152600401602060405180830381865afa158015611db2573d5f5f3e3d5ffd5b505050506040513d601f19601f82011682018060405250810190611dd691906129d7565b90505f611de38683612181565b90506305f5e1008382611df69190612a02565b611e009190612a70565b94505050505092915050565b5f5f611e16610893565b90506305f5e1008184611e299190612a02565b611e339190612a70565b915050919050565b611e4c81611e47611f38565b6121fa565b50565b5f611e5a8383610fe4565b611f2e5760015f5f8581526020019081526020015f205f015f8473ffffffffffffffffffffffffffffffffffffffff1673ffffffffffffffffffffffffffffffffffffffff1681526020019081526020015f205f6101000a81548160ff021916908315150217905550611ecb611f38565b73ffffffffffffffffffffffffffffffffffffffff168273ffffffffffffffffffffffffffffffffffffffff16847f2f8788117e7eff1d82e926ec794901d17c78024a50270940304540a733656f0d60405160405180910390a460019050611f32565b5f90505b92915050565b5f33905090565b5f611f4a8383610fe4565b1561201e575f5f5f8581526020019081526020015f205f015f8473ffffffffffffffffffffffffffffffffffffffff1673ffffffffffffffffffffffffffffffffffffffff1681526020019081526020015f205f6101000a81548160ff021916908315150217905550611fbb611f38565b73ffffffffffffffffffffffffffffffffffffffff168273ffffffffffffffffffffffffffffffffffffffff16847ff6391f5c32d9c69d2a47ea670b442974b53935d1edc7fd64eb21e047a839171b60405160405180910390a460019050612022565b5f90505b92915050565b60026001540361206d576040517f08c379a000000000000000000000000000000000000000000000000000000000815260040161206490612afa565b60405180910390fd5b6002600181905550565b6120f3848573ffffffffffffffffffffffffffffffffffffffff166323b872dd8686866040516024016120ac93929190612b27565b604051602081830303815290604052915060e01b6020820180517bffffffffffffffffffffffffffffffffffffffffffffffffffffffff838183161783525050505061224b565b50505050565b60018081905550565b61217c838473ffffffffffffffffffffffffffffffffffffffff1663a9059cbb8585604051602401612135929190612b5c565b604051602081830303815290604052915060e01b6020820180517bffffffffffffffffffffffffffffffffffffffffffffffffffffffff838183161783525050505061224b565b505050565b5f60068260ff1611156121b95760068261219b9190612b83565b600a6121a79190612ce6565b836121b29190612a70565b90506121f4565b60068260ff1610156121f0578160066121d29190612b83565b600a6121de9190612ce6565b836121e99190612a02565b90506121f4565b8290505b92915050565b6122048282610fe4565b6122475780826040517fe2517d3f00000000000000000000000000000000000000000000000000000000815260040161223e929190612d30565b60405180910390fd5b5050565b5f5f60205f8451602086015f885af18061226a576040513d5f823e3d81fd5b3d92505f519150505f821461228357600181141561229e565b5f8473ffffffffffffffffffffffffffffffffffffffff163b145b156122e057836040517f5274afe70000000000000000000000000000000000000000000000000000000081526004016122d79190612d57565b60405180910390fd5b50505050565b5f5ffd5b5f7fffffffff0000000000000000000000000000000000000000000000000000000082169050919050565b61231e816122ea565b8114612328575f5ffd5b50565b5f8135905061233981612315565b92915050565b5f60208284031215612354576123536122e6565b5b5f6123618482850161232b565b91505092915050565b5f8115159050919050565b61237e8161236a565b82525050565b5f6020820190506123975f830184612375565b92915050565b5f73ffffffffffffffffffffffffffffffffffffffff82169050919050565b5f6123c68261239d565b9050919050565b6123d6816123bc565b81146123e0575f5ffd5b50565b5f813590506123f1816123cd565b92915050565b5f6020828403121561240c5761240b6122e6565b5b5f612419848285016123e3565b91505092915050565b5f819050919050565b61243481612422565b82525050565b5f60208201905061244d5f83018461242b565b92915050565b5f819050919050565b61246581612453565b811461246f575f5ffd5b50565b5f813590506124808161245c565b92915050565b5f6020828403121561249b5761249a6122e6565b5b5f6124a884828501612472565b91505092915050565b6124ba81612453565b82525050565b5f6020820190506124d35f8301846124b1565b92915050565b5f819050919050565b5f6124fc6124f76124f28461239d565b6124d9565b61239d565b9050919050565b5f61250d826124e2565b9050919050565b5f61251e82612503565b9050919050565b61252e81612514565b82525050565b5f6020820190506125475f830184612525565b92915050565b5f5f60408385031215612563576125626122e6565b5b5f61257085828601612472565b9250506020612581858286016123e3565b9150509250929050565b61259481612422565b811461259e575f5ffd5b50565b5f813590506125af8161258b565b92915050565b5f5f604083850312156125cb576125ca6122e6565b5b5f6125d8858286016123e3565b92505060206125e9858286016125a1565b9150509250929050565b5f5f60408385031215612609576126086122e6565b5b5f612616858286016123e3565b9250506020612627858286016123e3565b9150509250929050565b5f81519050919050565b5f82825260208201905092915050565b5f819050602082019050919050565b612663816123bc565b82525050565b5f612674838361265a565b60208301905092915050565b5f602082019050919050565b5f61269682612631565b6126a0818561263b565b93506126ab8361264b565b805f5b838110156126db5781516126c28882612669565b97506126cd83612680565b9250506001810190506126ae565b5085935050505092915050565b5f6020820190508181035f830152612700818461268c565b905092915050565b7f4e487b71000000000000000000000000000000000000000000000000000000005f52603260045260245ffd5b7f4e487b71000000000000000000000000000000000000000000000000000000005f52601160045260245ffd5b5f61276c82612422565b915061277783612422565b925082820190508082111561278f5761278e612735565b5b92915050565b5f69ffffffffffffffffffff82169050919050565b6127b381612795565b81146127bd575f5ffd5b50565b5f815190506127ce816127aa565b92915050565b5f819050919050565b6127e6816127d4565b81146127f0575f5ffd5b50565b5f81519050612801816127dd565b92915050565b5f815190506128158161258b565b92915050565b5f5f5f5f5f60a08688031215612834576128336122e6565b5b5f612841888289016127c0565b9550506020612852888289016127f3565b945050604061286388828901612807565b935050606061287488828901612807565b9250506080612885888289016127c0565b9150509295509295909350565b5f61289c82612422565b91507fffffffffffffffffffffffffffffffffffffffffffffffffffffffffffffffff82036128ce576128cd612735565b5b600182019050919050565b5f6040820190506128ec5f83018561242b565b6128f9602083018461242b565b9392505050565b5f61290a82612422565b915061291583612422565b925082820390508181111561292d5761292c612735565b5b92915050565b7f4e487b71000000000000000000000000000000000000000000000000000000005f52603160045260245ffd5b5f81905092915050565b50565b5f6129785f83612960565b91506129838261296a565b5f82019050919050565b5f6129978261296d565b9150819050919050565b5f60ff82169050919050565b6129b6816129a1565b81146129c0575f5ffd5b50565b5f815190506129d1816129ad565b92915050565b5f602082840312156129ec576129eb6122e6565b5b5f6129f9848285016129c3565b91505092915050565b5f612a0c82612422565b9150612a1783612422565b9250828202612a2581612422565b91508282048414831517612a3c57612a3b612735565b5b5092915050565b7f4e487b71000000000000000000000000000000000000000000000000000000005f52601260045260245ffd5b5f612a7a82612422565b9150612a8583612422565b925082612a9557612a94612a43565b5b828204905092915050565b5f82825260208201905092915050565b7f5265656e7472616e637947756172643a207265656e7472616e742063616c6c005f82015250565b5f612ae4601f83612aa0565b9150612aef82612ab0565b602082019050919050565b5f6020820190508181035f830152612b1181612ad8565b9050919050565b612b21816123bc565b82525050565b5f606082019050612b3a5f830186612b18565b612b476020830185612b18565b612b54604083018461242b565b949350505050565b5f604082019050612b6f5f830185612b18565b612b7c602083018461242b565b9392505050565b5f612b8d826129a1565b9150612b98836129a1565b9250828203905060ff811115612bb157612bb0612735565b5b92915050565b5f8160011c9050919050565b5f5f8291508390505b6001851115612c0c57808604811115612be857612be7612735565b5b6001851615612bf75780820291505b8081029050612c0585612bb7565b9450612bcc565b94509492505050565b5f82612c245760019050612cdf565b81612c31575f9050612cdf565b8160018114612c475760028114612c5157612c80565b6001915050612cdf565b60ff841115612c6357612c62612735565b5b8360020a915084821115612c7a57612c79612735565b5b50612cdf565b5060208310610133831016604e8410600b8410161715612cb55782820a905083811115612cb057612caf612735565b5b612cdf565b612cc28484846001612bc3565b92509050818404811115612cd957612cd8612735565b5b81810290505b9392505050565b5f612cf082612422565b9150612cfb836129a1565b9250612d287fffffffffffffffffffffffffffffffffffffffffffffffffffffffffffffffff8484612c15565b905092915050565b5f604082019050612d435f830185612b18565b612d5060208301846124b1565b9392505050565b5f602082019050612d6a5f830184612b18565b9291505056fea2646970667358221220185bc13f375add1f081d4958d6750a25250b43993e3ab57652cee2f38f00fd8264736f6c634300081e0033",
					"opcodes": "PUSH1 0xE0 PUSH1 0x40 MSTORE CALLVALUE DUP1 ISZERO PUSH2 0xF JUMPI PUSH0 PUSH0 REVERT JUMPDEST POP PUSH1 0x40 MLOAD PUSH2 0x31C4 CODESIZE SUB DUP1 PUSH2 0x31C4 DUP4 CODECOPY DUP2 DUP2 ADD PUSH1 0x40 MSTORE DUP2 ADD SWAP1 PUSH2 0x31 SWAP2 SWAP1 PUSH2 0x38F JUMP JUMPDEST PUSH1 0x1 DUP1 DUP2 SWAP1 SSTORE POP PUSH0 DUP4 SUB PUSH2 0x71 JUMPI PUSH1 0x40 MLOAD PUSH32 0xF1F13A3800000000000000000000000000000000000000000000000000000000 DUP2 MSTORE PUSH1 0x4 ADD PUSH1 0x40 MLOAD DUP1 SWAP2 SUB SWAP1 REVERT JUMPDEST PUSH0 DUP3 SUB PUSH2 0xAA JUMPI PUSH1 0x40 MLOAD PUSH32 0xAFEA1C5700000000000000000000000000000000000000000000000000000000 DUP2 MSTORE PUSH1 0x4 ADD PUSH1 0x40 MLOAD DUP1 SWAP2 SUB SWAP1 REVERT JUMPDEST PUSH0 PUSH20 0xFFFFFFFFFFFFFFFFFFFFFFFFFFFFFFFFFFFFFFFF AND DUP2 PUSH20 0xFFFFFFFFFFFFFFFFFFFFFFFFFFFFFFFFFFFFFFFF AND SUB PUSH2 0x10F JUMPI PUSH1 0x40 MLOAD PUSH32 0x9589A27D00000000000000000000000000000000000000000000000000000000 DUP2 MSTORE PUSH1 0x4 ADD PUSH1 0x40 MLOAD DUP1 SWAP2 SUB SWAP1 REVERT JUMPDEST DUP3 PUSH1 0x80 DUP2 DUP2 MSTORE POP POP DUP2 PUSH1 0xA0 DUP2 DUP2 MSTORE POP POP DUP1 PUSH20 0xFFFFFFFFFFFFFFFFFFFFFFFFFFFFFFFFFFFFFFFF AND PUSH1 0xC0 DUP2 PUSH20 0xFFFFFFFFFFFFFFFFFFFFFFFFFFFFFFFFFFFFFFFF AND DUP2 MSTORE POP POP PUSH2 0x165 PUSH0 PUSH0 SHL CALLER PUSH2 0x19F PUSH1 0x20 SHL PUSH1 0x20 SHR JUMP JUMPDEST POP PUSH2 0x196 PUSH32 0x2D95A8186DB49DA8BD2356C70CF02038F7DE0D6ED39F6766FE2D93D5E7785616 CALLER PUSH2 0x19F PUSH1 0x20 SHL PUSH1 0x20 SHR JUMP JUMPDEST POP POP POP POP PUSH2 0x3DF JUMP JUMPDEST PUSH0 PUSH2 0x1B0 DUP4 DUP4 PUSH2 0x294 PUSH1 0x20 SHL PUSH1 0x20 SHR JUMP JUMPDEST PUSH2 0x28A JUMPI PUSH1 0x1 PUSH0 PUSH0 DUP6 DUP2 MSTORE PUSH1 0x20 ADD SWAP1 DUP2 MSTORE PUSH1 0x20 ADD PUSH0 KECCAK256 PUSH0 ADD PUSH0 DUP5 PUSH20 0xFFFFFFFFFFFFFFFFFFFFFFFFFFFFFFFFFFFFFFFF AND PUSH20 0xFFFFFFFFFFFFFFFFFFFFFFFFFFFFFFFFFFFFFFFF AND DUP2 MSTORE PUSH1 0x20 ADD SWAP1 DUP2 MSTORE PUSH1 0x20 ADD PUSH0 KECCAK256 PUSH0 PUSH2 0x100 EXP DUP2 SLOAD DUP2 PUSH1 0xFF MUL NOT AND SWAP1 DUP4 ISZERO ISZERO MUL OR SWAP1 SSTORE POP PUSH2 0x227 PUSH2 0x2F7 PUSH1 0x20 SHL PUSH1 0x20 SHR JUMP JUMPDEST PUSH20 0xFFFFFFFFFFFFFFFFFFFFFFFFFFFFFFFFFFFFFFFF AND DUP3 PUSH20 0xFFFFFFFFFFFFFFFFFFFFFFFFFFFFFFFFFFFFFFFF AND DUP5 PUSH32 0x2F8788117E7EFF1D82E926EC794901D17C78024A50270940304540A733656F0D PUSH1 0x40 MLOAD PUSH1 0x40 MLOAD DUP1 SWAP2 SUB SWAP1 LOG4 PUSH1 0x1 SWAP1 POP PUSH2 0x28E JUMP JUMPDEST PUSH0 SWAP1 POP JUMPDEST SWAP3 SWAP2 POP POP JUMP JUMPDEST PUSH0 PUSH0 PUSH0 DUP5 DUP2 MSTORE PUSH1 0x20 ADD SWAP1 DUP2 MSTORE PUSH1 0x20 ADD PUSH0 KECCAK256 PUSH0 ADD PUSH0 DUP4 PUSH20 0xFFFFFFFFFFFFFFFFFFFFFFFFFFFFFFFFFFFFFFFF AND PUSH20 0xFFFFFFFFFFFFFFFFFFFFFFFFFFFFFFFFFFFFFFFF AND DUP2 MSTORE PUSH1 0x20 ADD SWAP1 DUP2 MSTORE PUSH1 0x20 ADD PUSH0 KECCAK256 PUSH0 SWAP1 SLOAD SWAP1 PUSH2 0x100 EXP SWAP1 DIV PUSH1 0xFF AND SWAP1 POP SWAP3 SWAP2 POP POP JUMP JUMPDEST PUSH0 CALLER SWAP1 POP SWAP1 JUMP JUMPDEST PUSH0 PUSH0 REVERT JUMPDEST PUSH0 DUP2 SWAP1 POP SWAP2 SWAP1 POP JUMP JUMPDEST PUSH2 0x314 DUP2 PUSH2 0x302 JUMP JUMPDEST DUP2 EQ PUSH2 0x31E JUMPI PUSH0 PUSH0 REVERT JUMPDEST POP JUMP JUMPDEST PUSH0 DUP2 MLOAD SWAP1 POP PUSH2 0x32F DUP2 PUSH2 0x30B JUMP JUMPDEST SWAP3 SWAP2 POP POP JUMP JUMPDEST PUSH0 PUSH20 0xFFFFFFFFFFFFFFFFFFFFFFFFFFFFFFFFFFFFFFFF DUP3 AND SWAP1 POP SWAP2 SWAP1 POP JUMP JUMPDEST PUSH0 PUSH2 0x35E DUP3 PUSH2 0x335 JUMP JUMPDEST SWAP1 POP SWAP2 SWAP1 POP JUMP JUMPDEST PUSH2 0x36E DUP2 PUSH2 0x354 JUMP JUMPDEST DUP2 EQ PUSH2 0x378 JUMPI PUSH0 PUSH0 REVERT JUMPDEST POP JUMP JUMPDEST PUSH0 DUP2 MLOAD SWAP1 POP PUSH2 0x389 DUP2 PUSH2 0x365 JUMP JUMPDEST SWAP3 SWAP2 POP POP JUMP JUMPDEST PUSH0 PUSH0 PUSH0 PUSH1 0x60 DUP5 DUP7 SUB SLT ISZERO PUSH2 0x3A6 JUMPI PUSH2 0x3A5 PUSH2 0x2FE JUMP JUMPDEST JUMPDEST PUSH0 PUSH2 0x3B3 DUP7 DUP3 DUP8 ADD PUSH2 0x321 JUMP JUMPDEST SWAP4 POP POP PUSH1 0x20 PUSH2 0x3C4 DUP7 DUP3 DUP8 ADD PUSH2 0x321 JUMP JUMPDEST SWAP3 POP POP PUSH1 0x40 PUSH2 0x3D5 DUP7 DUP3 DUP8 ADD PUSH2 0x37B JUMP JUMPDEST SWAP2 POP POP SWAP3 POP SWAP3 POP SWAP3 JUMP JUMPDEST PUSH1 0x80 MLOAD PUSH1 0xA0 MLOAD PUSH1 0xC0 MLOAD PUSH2 0x2DA6 PUSH2 0x41E PUSH0 CODECOPY PUSH0 DUP2 DUP2 PUSH2 0x897 ADD MSTORE PUSH2 0xF9E ADD MSTORE PUSH0 DUP2 DUP2 PUSH2 0xC51 ADD MSTORE PUSH2 0x1333 ADD MSTORE PUSH0 DUP2 DUP2 PUSH2 0xFC2 ADD MSTORE PUSH2 0x17E8 ADD MSTORE PUSH2 0x2DA6 PUSH0 RETURN INVALID PUSH1 0x80 PUSH1 0x40 MSTORE PUSH1 0x4 CALLDATASIZE LT PUSH2 0x14E JUMPI PUSH0 CALLDATALOAD PUSH1 0xE0 SHR DUP1 PUSH4 0x91D14854 GT PUSH2 0xB5 JUMPI DUP1 PUSH4 0xD547741F GT PUSH2 0x6E JUMPI DUP1 PUSH4 0xD547741F EQ PUSH2 0x513 JUMPI DUP1 PUSH4 0xE7D66D63 EQ PUSH2 0x53B JUMPI DUP1 PUSH4 0xEE3D6866 EQ PUSH2 0x565 JUMPI DUP1 PUSH4 0xF2157052 EQ PUSH2 0x58D JUMPI DUP1 PUSH4 0xF3FEF3A3 EQ PUSH2 0x5B7 JUMPI DUP1 PUSH4 0xF4443D9A EQ PUSH2 0x5DF JUMPI PUSH2 0x185 JUMP JUMPDEST DUP1 PUSH4 0x91D14854 EQ PUSH2 0x3F5 JUMPI DUP1 PUSH4 0x92B9F8F5 EQ PUSH2 0x431 JUMPI DUP1 PUSH4 0xA217FDDF EQ PUSH2 0x459 JUMPI DUP1 PUSH4 0xA773A500 EQ PUSH2 0x483 JUMPI DUP1 PUSH4 0xB3D8BCDC EQ PUSH2 0x4AD JUMPI DUP1 PUSH4 0xD3C7C2C7 EQ PUSH2 0x4E9 JUMPI PUSH2 0x185 JUMP JUMPDEST DUP1 PUSH4 0x36568ABE GT PUSH2 0x107 JUMPI DUP1 PUSH4 0x36568ABE EQ PUSH2 0x2F9 JUMPI DUP1 PUSH4 0x47E7EF24 EQ PUSH2 0x321 JUMPI DUP1 PUSH4 0x6805D6AD EQ PUSH2 0x33D JUMPI DUP1 PUSH4 0x76E11286 EQ PUSH2 0x379 JUMPI DUP1 PUSH4 0x8009B7BD EQ PUSH2 0x3A1 JUMPI DUP1 PUSH4 0x8C0FF5B7 EQ PUSH2 0x3CB JUMPI PUSH2 0x185 JUMP JUMPDEST DUP1 PUSH4 0x1FFC9A7 EQ PUSH2 0x1B7 JUMPI DUP1 PUSH4 0x1E604EA3 EQ PUSH2 0x1F3 JUMPI DUP1 PUSH4 0x248A9CA3 EQ PUSH2 0x22F JUMPI DUP1 PUSH4 0x2E3441A9 EQ PUSH2 0x26B JUMPI DUP1 PUSH4 0x2F2FF15D EQ PUSH2 0x2A7 JUMPI DUP1 PUSH4 0x30C0B9EC EQ PUSH2 0x2CF JUMPI PUSH2 0x185 JUMP JUMPDEST CALLDATASIZE PUSH2 0x185 JUMPI PUSH1 0x40 MLOAD PUSH32 0x3EE6509D00000000000000000000000000000000000000000000000000000000 DUP2 MSTORE PUSH1 0x4 ADD PUSH1 0x40 MLOAD DUP1 SWAP2 SUB SWAP1 REVERT JUMPDEST PUSH1 0x40 MLOAD PUSH32 0x3921C70300000000000000000000000000000000000000000000000000000000 DUP2 MSTORE PUSH1 0x4 ADD PUSH1 0x40 MLOAD DUP1 SWAP2 SUB SWAP1 REVERT JUMPDEST CALLVALUE DUP1 ISZERO PUSH2 0x1C2 JUMPI PUSH0 PUSH0 REVERT JUMPDEST POP PUSH2 0x1DD PUSH1 0x4 DUP1 CALLDATASIZE SUB DUP2 ADD SWAP1 PUSH2 0x1D8 SWAP2 SWAP1 PUSH2 0x233F JUMP JUMPDEST PUSH2 0x61B JUMP JUMPDEST PUSH1 0x40 MLOAD PUSH2 0x1EA SWAP2 SWAP1 PUSH2 0x2384 JUMP JUMPDEST PUSH1 0x40 MLOAD DUP1 SWAP2 SUB SWAP1 RETURN JUMPDEST CALLVALUE DUP1 ISZERO PUSH2 0x1FE JUMPI PUSH0 PUSH0 REVERT JUMPDEST POP PUSH2 0x219 PUSH1 0x4 DUP1 CALLDATASIZE SUB DUP2 ADD SWAP1 PUSH2 0x214 SWAP2 SWAP1 PUSH2 0x23F7 JUMP JUMPDEST PUSH2 0x694 JUMP JUMPDEST PUSH1 0x40 MLOAD PUSH2 0x226 SWAP2 SWAP1 PUSH2 0x243A JUMP JUMPDEST PUSH1 0x40 MLOAD DUP1 SWAP2 SUB SWAP1 RETURN JUMPDEST CALLVALUE DUP1 ISZERO PUSH2 0x23A JUMPI PUSH0 PUSH0 REVERT JUMPDEST POP PUSH2 0x255 PUSH1 0x4 DUP1 CALLDATASIZE SUB DUP2 ADD SWAP1 PUSH2 0x250 SWAP2 SWAP1 PUSH2 0x2486 JUMP JUMPDEST PUSH2 0x825 JUMP JUMPDEST PUSH1 0x40 MLOAD PUSH2 0x262 SWAP2 SWAP1 PUSH2 0x24C0 JUMP JUMPDEST PUSH1 0x40 MLOAD DUP1 SWAP2 SUB SWAP1 RETURN JUMPDEST CALLVALUE DUP1 ISZERO PUSH2 0x276 JUMPI PUSH0 PUSH0 REVERT JUMPDEST POP PUSH2 0x291 PUSH1 0x4 DUP1 CALLDATASIZE SUB DUP2 ADD SWAP1 PUSH2 0x28C SWAP2 SWAP1 PUSH2 0x23F7 JUMP JUMPDEST PUSH2 0x841 JUMP JUMPDEST PUSH1 0x40 MLOAD PUSH2 0x29E SWAP2 SWAP1 PUSH2 0x2534 JUMP JUMPDEST PUSH1 0x40 MLOAD DUP1 SWAP2 SUB SWAP1 RETURN JUMPDEST CALLVALUE DUP1 ISZERO PUSH2 0x2B2 JUMPI PUSH0 PUSH0 REVERT JUMPDEST POP PUSH2 0x2CD PUSH1 0x4 DUP1 CALLDATASIZE SUB DUP2 ADD SWAP1 PUSH2 0x2C8 SWAP2 SWAP1 PUSH2 0x254D JUMP JUMPDEST PUSH2 0x871 JUMP JUMPDEST STOP JUMPDEST CALLVALUE DUP1 ISZERO PUSH2 0x2DA JUMPI PUSH0 PUSH0 REVERT JUMPDEST POP PUSH2 0x2E3 PUSH2 0x893 JUMP JUMPDEST PUSH1 0x40 MLOAD PUSH2 0x2F0 SWAP2 SWAP1 PUSH2 0x243A JUMP JUMPDEST PUSH1 0x40 MLOAD DUP1 SWAP2 SUB SWAP1 RETURN JUMPDEST CALLVALUE DUP1 ISZERO PUSH2 0x304 JUMPI PUSH0 PUSH0 REVERT JUMPDEST POP PUSH2 0x31F PUSH1 0x4 DUP1 CALLDATASIZE SUB DUP2 ADD SWAP1 PUSH2 0x31A SWAP2 SWAP1 PUSH2 0x254D JUMP JUMPDEST PUSH2 0x92F JUMP JUMPDEST STOP JUMPDEST PUSH2 0x33B PUSH1 0x4 DUP1 CALLDATASIZE SUB DUP2 ADD SWAP1 PUSH2 0x336 SWAP2 SWAP1 PUSH2 0x25B5 JUMP JUMPDEST PUSH2 0x9AA JUMP JUMPDEST STOP JUMPDEST CALLVALUE DUP1 ISZERO PUSH2 0x348 JUMPI PUSH0 PUSH0 REVERT JUMPDEST POP PUSH2 0x363 PUSH1 0x4 DUP1 CALLDATASIZE SUB DUP2 ADD SWAP1 PUSH2 0x35E SWAP2 SWAP1 PUSH2 0x25F3 JUMP JUMPDEST PUSH2 0xDB1 JUMP JUMPDEST PUSH1 0x40 MLOAD PUSH2 0x370 SWAP2 SWAP1 PUSH2 0x243A JUMP JUMPDEST PUSH1 0x40 MLOAD DUP1 SWAP2 SUB SWAP1 RETURN JUMPDEST CALLVALUE DUP1 ISZERO PUSH2 0x384 JUMPI PUSH0 PUSH0 REVERT JUMPDEST POP PUSH2 0x39F PUSH1 0x4 DUP1 CALLDATASIZE SUB DUP2 ADD SWAP1 PUSH2 0x39A SWAP2 SWAP1 PUSH2 0x25F3 JUMP JUMPDEST PUSH2 0xE33 JUMP JUMPDEST STOP JUMPDEST CALLVALUE DUP1 ISZERO PUSH2 0x3AC JUMPI PUSH0 PUSH0 REVERT JUMPDEST POP PUSH2 0x3B5 PUSH2 0xF9C JUMP JUMPDEST PUSH1 0x40 MLOAD PUSH2 0x3C2 SWAP2 SWAP1 PUSH2 0x2534 JUMP JUMPDEST PUSH1 0x40 MLOAD DUP1 SWAP2 SUB SWAP1 RETURN JUMPDEST CALLVALUE DUP1 ISZERO PUSH2 0x3D6 JUMPI PUSH0 PUSH0 REVERT JUMPDEST POP PUSH2 0x3DF PUSH2 0xFC0 JUMP JUMPDEST PUSH1 0x40 MLOAD PUSH2 0x3EC SWAP2 SWAP1 PUSH2 0x243A JUMP JUMPDEST PUSH1 0x40 MLOAD DUP1 SWAP2 SUB SWAP1 RETURN JUMPDEST CALLVALUE DUP1 ISZERO PUSH2 0x400 JUMPI PUSH0 PUSH0 REVERT JUMPDEST POP PUSH2 0x41B PUSH1 0x4 DUP1 CALLDATASIZE SUB DUP2 ADD SWAP1 PUSH2 0x416 SWAP2 SWAP1 PUSH2 0x254D JUMP JUMPDEST PUSH2 0xFE4 JUMP JUMPDEST PUSH1 0x40 MLOAD PUSH2 0x428 SWAP2 SWAP1 PUSH2 0x2384 JUMP JUMPDEST PUSH1 0x40 MLOAD DUP1 SWAP2 SUB SWAP1 RETURN JUMPDEST CALLVALUE DUP1 ISZERO PUSH2 0x43C JUMPI PUSH0 PUSH0 REVERT JUMPDEST POP PUSH2 0x457 PUSH1 0x4 DUP1 CALLDATASIZE SUB DUP2 ADD SWAP1 PUSH2 0x452 SWAP2 SWAP1 PUSH2 0x25F3 JUMP JUMPDEST PUSH2 0x1047 JUMP JUMPDEST STOP JUMPDEST CALLVALUE DUP1 ISZERO PUSH2 0x464 JUMPI PUSH0 PUSH0 REVERT JUMPDEST POP PUSH2 0x46D PUSH2 0x132B JUMP JUMPDEST PUSH1 0x40 MLOAD PUSH2 0x47A SWAP2 SWAP1 PUSH2 0x24C0 JUMP JUMPDEST PUSH1 0x40 MLOAD DUP1 SWAP2 SUB SWAP1 RETURN JUMPDEST CALLVALUE DUP1 ISZERO PUSH2 0x48E JUMPI PUSH0 PUSH0 REVERT JUMPDEST POP PUSH2 0x497 PUSH2 0x1331 JUMP JUMPDEST PUSH1 0x40 MLOAD PUSH2 0x4A4 SWAP2 SWAP1 PUSH2 0x243A JUMP JUMPDEST PUSH1 0x40 MLOAD DUP1 SWAP2 SUB SWAP1 RETURN JUMPDEST CALLVALUE DUP1 ISZERO PUSH2 0x4B8 JUMPI PUSH0 PUSH0 REVERT JUMPDEST POP PUSH2 0x4D3 PUSH1 0x4 DUP1 CALLDATASIZE SUB DUP2 ADD SWAP1 PUSH2 0x4CE SWAP2 SWAP1 PUSH2 0x23F7 JUMP JUMPDEST PUSH2 0x1355 JUMP JUMPDEST PUSH1 0x40 MLOAD PUSH2 0x4E0 SWAP2 SWAP1 PUSH2 0x243A JUMP JUMPDEST PUSH1 0x40 MLOAD DUP1 SWAP2 SUB SWAP1 RETURN JUMPDEST CALLVALUE DUP1 ISZERO PUSH2 0x4F4 JUMPI PUSH0 PUSH0 REVERT JUMPDEST POP PUSH2 0x4FD PUSH2 0x136A JUMP JUMPDEST PUSH1 0x40 MLOAD PUSH2 0x50A SWAP2 SWAP1 PUSH2 0x26E8 JUMP JUMPDEST PUSH1 0x40 MLOAD DUP1 SWAP2 SUB SWAP1 RETURN JUMPDEST CALLVALUE DUP1 ISZERO PUSH2 0x51E JUMPI PUSH0 PUSH0 REVERT JUMPDEST POP PUSH2 0x539 PUSH1 0x4 DUP1 CALLDATASIZE SUB DUP2 ADD SWAP1 PUSH2 0x534 SWAP2 SWAP1 PUSH2 0x254D JUMP JUMPDEST PUSH2 0x13F5 JUMP JUMPDEST STOP JUMPDEST CALLVALUE DUP1 ISZERO PUSH2 0x546 JUMPI PUSH0 PUSH0 REVERT JUMPDEST POP PUSH2 0x54F PUSH2 0x1417 JUMP JUMPDEST PUSH1 0x40 MLOAD PUSH2 0x55C SWAP2 SWAP1 PUSH2 0x243A JUMP JUMPDEST PUSH1 0x40 MLOAD DUP1 SWAP2 SUB SWAP1 RETURN JUMPDEST CALLVALUE DUP1 ISZERO PUSH2 0x570 JUMPI PUSH0 PUSH0 REVERT JUMPDEST POP PUSH2 0x58B PUSH1 0x4 DUP1 CALLDATASIZE SUB DUP2 ADD SWAP1 PUSH2 0x586 SWAP2 SWAP1 PUSH2 0x23F7 JUMP JUMPDEST PUSH2 0x141D JUMP JUMPDEST STOP JUMPDEST CALLVALUE DUP1 ISZERO PUSH2 0x598 JUMPI PUSH0 PUSH0 REVERT JUMPDEST POP PUSH2 0x5A1 PUSH2 0x1781 JUMP JUMPDEST PUSH1 0x40 MLOAD PUSH2 0x5AE SWAP2 SWAP1 PUSH2 0x24C0 JUMP JUMPDEST PUSH1 0x40 MLOAD DUP1 SWAP2 SUB SWAP1 RETURN JUMPDEST CALLVALUE DUP1 ISZERO PUSH2 0x5C2 JUMPI PUSH0 PUSH0 REVERT JUMPDEST POP PUSH2 0x5DD PUSH1 0x4 DUP1 CALLDATASIZE SUB DUP2 ADD SWAP1 PUSH2 0x5D8 SWAP2 SWAP1 PUSH2 0x25B5 JUMP JUMPDEST PUSH2 0x17A5 JUMP JUMPDEST STOP JUMPDEST CALLVALUE DUP1 ISZERO PUSH2 0x5EA JUMPI PUSH0 PUSH0 REVERT JUMPDEST POP PUSH2 0x605 PUSH1 0x4 DUP1 CALLDATASIZE SUB DUP2 ADD SWAP1 PUSH2 0x600 SWAP2 SWAP1 PUSH2 0x23F7 JUMP JUMPDEST PUSH2 0x1BB0 JUMP JUMPDEST PUSH1 0x40 MLOAD PUSH2 0x612 SWAP2 SWAP1 PUSH2 0x243A JUMP JUMPDEST PUSH1 0x40 MLOAD DUP1 SWAP2 SUB SWAP1 RETURN JUMPDEST PUSH0 PUSH32 0x7965DB0B00000000000000000000000000000000000000000000000000000000 PUSH28 0xFFFFFFFFFFFFFFFFFFFFFFFFFFFFFFFFFFFFFFFFFFFFFFFFFFFFFFFF NOT AND DUP3 PUSH28 0xFFFFFFFFFFFFFFFFFFFFFFFFFFFFFFFFFFFFFFFFFFFFFFFFFFFFFFFF NOT AND EQ DUP1 PUSH2 0x68D JUMPI POP PUSH2 0x68C DUP3 PUSH2 0x1BC5 JUMP JUMPDEST JUMPDEST SWAP1 POP SWAP2 SWAP1 POP JUMP JUMPDEST PUSH0 PUSH0 PUSH0 SWAP1 POP JUMPDEST PUSH1 0x6 DUP1 SLOAD SWAP1 POP DUP2 LT ISZERO PUSH2 0x791 JUMPI PUSH0 PUSH1 0x6 DUP3 DUP2 SLOAD DUP2 LT PUSH2 0x6BC JUMPI PUSH2 0x6BB PUSH2 0x2708 JUMP JUMPDEST JUMPDEST SWAP1 PUSH0 MSTORE PUSH1 0x20 PUSH0 KECCAK256 ADD PUSH0 SWAP1 SLOAD SWAP1 PUSH2 0x100 EXP SWAP1 DIV PUSH20 0xFFFFFFFFFFFFFFFFFFFFFFFFFFFFFFFFFFFFFFFF AND SWAP1 POP PUSH0 PUSH1 0x3 PUSH0 DUP7 PUSH20 0xFFFFFFFFFFFFFFFFFFFFFFFFFFFFFFFFFFFFFFFF AND PUSH20 0xFFFFFFFFFFFFFFFFFFFFFFFFFFFFFFFFFFFFFFFF AND DUP2 MSTORE PUSH1 0x20 ADD SWAP1 DUP2 MSTORE PUSH1 0x20 ADD PUSH0 KECCAK256 PUSH0 DUP4 PUSH20 0xFFFFFFFFFFFFFFFFFFFFFFFFFFFFFFFFFFFFFFFF AND PUSH20 0xFFFFFFFFFFFFFFFFFFFFFFFFFFFFFFFFFFFFFFFF AND DUP2 MSTORE PUSH1 0x20 ADD SWAP1 DUP2 MSTORE PUSH1 0x20 ADD PUSH0 KECCAK256 SLOAD SWAP1 POP PUSH0 DUP2 GT ISZERO PUSH2 0x782 JUMPI PUSH2 0x774 DUP3 DUP3 PUSH2 0x1C2E JUMP JUMPDEST DUP5 PUSH2 0x77F SWAP2 SWAP1 PUSH2 0x2762 JUMP JUMPDEST SWAP4 POP JUMPDEST POP POP DUP1 DUP1 PUSH1 0x1 ADD SWAP2 POP POP PUSH2 0x69A JUMP JUMPDEST POP PUSH2 0x813 PUSH1 0x3 PUSH0 DUP5 PUSH20 0xFFFFFFFFFFFFFFFFFFFFFFFFFFFFFFFFFFFFFFFF AND PUSH20 0xFFFFFFFFFFFFFFFFFFFFFFFFFFFFFFFFFFFFFFFF AND DUP2 MSTORE PUSH1 0x20 ADD SWAP1 DUP2 MSTORE PUSH1 0x20 ADD PUSH0 KECCAK256 PUSH0 PUSH0 PUSH20 0xFFFFFFFFFFFFFFFFFFFFFFFFFFFFFFFFFFFFFFFF AND PUSH20 0xFFFFFFFFFFFFFFFFFFFFFFFFFFFFFFFFFFFFFFFF AND DUP2 MSTORE PUSH1 0x20 ADD SWAP1 DUP2 MSTORE PUSH1 0x20 ADD PUSH0 KECCAK256 SLOAD PUSH2 0x1E0C JUMP JUMPDEST DUP2 PUSH2 0x81E SWAP2 SWAP1 PUSH2 0x2762 JUMP JUMPDEST SWAP1 POP SWAP2 SWAP1 POP JUMP JUMPDEST PUSH0 PUSH0 PUSH0 DUP4 DUP2 MSTORE PUSH1 0x20 ADD SWAP1 DUP2 MSTORE PUSH1 0x20 ADD PUSH0 KECCAK256 PUSH1 0x1 ADD SLOAD SWAP1 POP SWAP2 SWAP1 POP JUMP JUMPDEST PUSH1 0x2 PUSH1 0x20 MSTORE DUP1 PUSH0 MSTORE PUSH1 0x40 PUSH0 KECCAK256 PUSH0 SWAP2 POP SLOAD SWAP1 PUSH2 0x100 EXP SWAP1 DIV PUSH20 0xFFFFFFFFFFFFFFFFFFFFFFFFFFFFFFFFFFFFFFFF AND DUP2 JUMP JUMPDEST PUSH2 0x87A DUP3 PUSH2 0x825 JUMP JUMPDEST PUSH2 0x883 DUP2 PUSH2 0x1E3B JUMP JUMPDEST PUSH2 0x88D DUP4 DUP4 PUSH2 0x1E4F JUMP JUMPDEST POP POP POP POP JUMP JUMPDEST PUSH0 PUSH0 PUSH32 0x0 PUSH20 0xFFFFFFFFFFFFFFFFFFFFFFFFFFFFFFFFFFFFFFFF AND PUSH4 0xFEAF968C PUSH1 0x40 MLOAD DUP2 PUSH4 0xFFFFFFFF AND PUSH1 0xE0 SHL DUP2 MSTORE PUSH1 0x4 ADD PUSH1 0xA0 PUSH1 0x40 MLOAD DUP1 DUP4 SUB DUP2 DUP7 GAS STATICCALL ISZERO DUP1 ISZERO PUSH2 0x8FE JUMPI RETURNDATASIZE PUSH0 PUSH0 RETURNDATACOPY RETURNDATASIZE PUSH0 REVERT JUMPDEST POP POP POP POP PUSH1 0x40 MLOAD RETURNDATASIZE PUSH1 0x1F NOT PUSH1 0x1F DUP3 ADD AND DUP3 ADD DUP1 PUSH1 0x40 MSTORE POP DUP2 ADD SWAP1 PUSH2 0x922 SWAP2 SWAP1 PUSH2 0x281B JUMP JUMPDEST POP POP POP SWAP2 POP POP DUP1 SWAP2 POP POP SWAP1 JUMP JUMPDEST PUSH2 0x937 PUSH2 0x1F38 JUMP JUMPDEST PUSH20 0xFFFFFFFFFFFFFFFFFFFFFFFFFFFFFFFFFFFFFFFF AND DUP2 PUSH20 0xFFFFFFFFFFFFFFFFFFFFFFFFFFFFFFFFFFFFFFFF AND EQ PUSH2 0x99B JUMPI PUSH1 0x40 MLOAD PUSH32 0x6697B23200000000000000000000000000000000000000000000000000000000 DUP2 MSTORE PUSH1 0x4 ADD PUSH1 0x40 MLOAD DUP1 SWAP2 SUB SWAP1 REVERT JUMPDEST PUSH2 0x9A5 DUP3 DUP3 PUSH2 0x1F3F JUMP JUMPDEST POP POP POP JUMP JUMPDEST PUSH2 0x9B2 PUSH2 0x2028 JUMP JUMPDEST PUSH0 PUSH0 PUSH20 0xFFFFFFFFFFFFFFFFFFFFFFFFFFFFFFFFFFFFFFFF AND DUP4 PUSH20 0xFFFFFFFFFFFFFFFFFFFFFFFFFFFFFFFFFFFFFFFF AND SUB PUSH2 0xABD JUMPI PUSH0 CALLVALUE SUB PUSH2 0xA1F JUMPI PUSH1 0x40 MLOAD PUSH32 0x8615019900000000000000000000000000000000000000000000000000000000 DUP2 MSTORE PUSH1 0x4 ADD PUSH1 0x40 MLOAD DUP1 SWAP2 SUB SWAP1 REVERT JUMPDEST PUSH2 0xA28 CALLVALUE PUSH2 0x1E0C JUMP JUMPDEST SWAP1 POP CALLVALUE PUSH1 0x3 PUSH0 CALLER PUSH20 0xFFFFFFFFFFFFFFFFFFFFFFFFFFFFFFFFFFFFFFFF AND PUSH20 0xFFFFFFFFFFFFFFFFFFFFFFFFFFFFFFFFFFFFFFFF AND DUP2 MSTORE PUSH1 0x20 ADD SWAP1 DUP2 MSTORE PUSH1 0x20 ADD PUSH0 KECCAK256 PUSH0 PUSH0 PUSH20 0xFFFFFFFFFFFFFFFFFFFFFFFFFFFFFFFFFFFFFFFF AND PUSH20 0xFFFFFFFFFFFFFFFFFFFFFFFFFFFFFFFFFFFFFFFF AND DUP2 MSTORE PUSH1 0x20 ADD SWAP1 DUP2 MSTORE PUSH1 0x20 ADD PUSH0 KECCAK256 PUSH0 DUP3 DUP3 SLOAD PUSH2 0xAB1 SWAP2 SWAP1 PUSH2 0x2762 JUMP JUMPDEST SWAP3 POP POP DUP2 SWAP1 SSTORE POP PUSH2 0xC3E JUMP JUMPDEST PUSH1 0x7 PUSH0 DUP5 PUSH20 0xFFFFFFFFFFFFFFFFFFFFFFFFFFFFFFFFFFFFFFFF AND PUSH20 0xFFFFFFFFFFFFFFFFFFFFFFFFFFFFFFFFFFFFFFFF AND DUP2 MSTORE PUSH1 0x20 ADD SWAP1 DUP2 MSTORE PUSH1 0x20 ADD PUSH0 KECCAK256 PUSH0 SWAP1 SLOAD SWAP1 PUSH2 0x100 EXP SWAP1 DIV PUSH1 0xFF AND PUSH2 0xB3D JUMPI PUSH1 0x40 MLOAD PUSH32 0x3DD1B30500000000000000000000000000000000000000000000000000000000 DUP2 MSTORE PUSH1 0x4 ADD PUSH1 0x40 MLOAD DUP1 SWAP2 SUB SWAP1 REVERT JUMPDEST PUSH0 DUP3 SUB PUSH2 0xB76 JUMPI PUSH1 0x40 MLOAD PUSH32 0x8615019900000000000000000000000000000000000000000000000000000000 DUP2 MSTORE PUSH1 0x4 ADD PUSH1 0x40 MLOAD DUP1 SWAP2 SUB SWAP1 REVERT JUMPDEST PUSH2 0xBA3 CALLER ADDRESS DUP5 DUP7 PUSH20 0xFFFFFFFFFFFFFFFFFFFFFFFFFFFFFFFFFFFFFFFF AND PUSH2 0x2077 SWAP1 SWAP4 SWAP3 SWAP2 SWAP1 PUSH4 0xFFFFFFFF AND JUMP JUMPDEST PUSH2 0xBAD DUP4 DUP4 PUSH2 0x1C2E JUMP JUMPDEST SWAP1 POP DUP2 PUSH1 0x3 PUSH0 CALLER PUSH20 0xFFFFFFFFFFFFFFFFFFFFFFFFFFFFFFFFFFFFFFFF AND PUSH20 0xFFFFFFFFFFFFFFFFFFFFFFFFFFFFFFFFFFFFFFFF AND DUP2 MSTORE PUSH1 0x20 ADD SWAP1 DUP2 MSTORE PUSH1 0x20 ADD PUSH0 KECCAK256 PUSH0 DUP6 PUSH20 0xFFFFFFFFFFFFFFFFFFFFFFFFFFFFFFFFFFFFFFFF AND PUSH20 0xFFFFFFFFFFFFFFFFFFFFFFFFFFFFFFFFFFFFFFFF AND DUP2 MSTORE PUSH1 0x20 ADD SWAP1 DUP2 MSTORE PUSH1 0x20 ADD PUSH0 KECCAK256 PUSH0 DUP3 DUP3 SLOAD PUSH2 0xC36 SWAP2 SWAP1 PUSH2 0x2762 JUMP JUMPDEST SWAP3 POP POP DUP2 SWAP1 SSTORE POP JUMPDEST PUSH0 DUP2 PUSH1 0x8 SLOAD PUSH2 0xC4D SWAP2 SWAP1 PUSH2 0x2762 JUMP JUMPDEST SWAP1 POP PUSH32 0x0 DUP2 GT ISZERO PUSH2 0xCA9 JUMPI PUSH1 0x40 MLOAD PUSH32 0x448F3CA800000000000000000000000000000000000000000000000000000000 DUP2 MSTORE PUSH1 0x4 ADD PUSH1 0x40 MLOAD DUP1 SWAP2 SUB SWAP1 REVERT JUMPDEST DUP1 PUSH1 0x8 DUP2 SWAP1 SSTORE POP PUSH1 0x4 PUSH0 CALLER PUSH20 0xFFFFFFFFFFFFFFFFFFFFFFFFFFFFFFFFFFFFFFFF AND PUSH20 0xFFFFFFFFFFFFFFFFFFFFFFFFFFFFFFFFFFFFFFFF AND DUP2 MSTORE PUSH1 0x20 ADD SWAP1 DUP2 MSTORE PUSH1 0x20 ADD PUSH0 KECCAK256 PUSH0 DUP2 SLOAD DUP1 SWAP3 SWAP2 SWAP1 PUSH2 0xCFD SWAP1 PUSH2 0x2892 JUMP JUMPDEST SWAP2 SWAP1 POP SSTORE POP DUP4 PUSH20 0xFFFFFFFFFFFFFFFFFFFFFFFFFFFFFFFFFFFFFFFF AND CALLER PUSH20 0xFFFFFFFFFFFFFFFFFFFFFFFFFFFFFFFFFFFFFFFF AND PUSH32 0x57BAD7E3C9EFECF6E1F60BBD846B999E9DA4A409224287A8DF09779F2330135E PUSH0 PUSH20 0xFFFFFFFFFFFFFFFFFFFFFFFFFFFFFFFFFFFFFFFF AND DUP8 PUSH20 0xFFFFFFFFFFFFFFFFFFFFFFFFFFFFFFFFFFFFFFFF AND EQ PUSH2 0xD8A JUMPI DUP6 PUSH2 0xD8C JUMP JUMPDEST CALLVALUE JUMPDEST DUP6 PUSH1 0x40 MLOAD PUSH2 0xD9B SWAP3 SWAP2 SWAP1 PUSH2 0x28D9 JUMP JUMPDEST PUSH1 0x40 MLOAD DUP1 SWAP2 SUB SWAP1 LOG3 POP POP PUSH2 0xDAD PUSH2 0x20F9 JUMP JUMPDEST POP POP JUMP JUMPDEST PUSH0 PUSH1 0x3 PUSH0 DUP5 PUSH20 0xFFFFFFFFFFFFFFFFFFFFFFFFFFFFFFFFFFFFFFFF AND PUSH20 0xFFFFFFFFFFFFFFFFFFFFFFFFFFFFFFFFFFFFFFFF AND DUP2 MSTORE PUSH1 0x20 ADD SWAP1 DUP2 MSTORE PUSH1 0x20 ADD PUSH0 KECCAK256 PUSH0 DUP4 PUSH20 0xFFFFFFFFFFFFFFFFFFFFFFFFFFFFFFFFFFFFFFFF AND PUSH20 0xFFFFFFFFFFFFFFFFFFFFFFFFFFFFFFFFFFFFFFFF AND DUP2 MSTORE PUSH1 0x20 ADD SWAP1 DUP2 MSTORE PUSH1 0x20 ADD PUSH0 KECCAK256 SLOAD SWAP1 POP SWAP3 SWAP2 POP POP JUMP JUMPDEST PUSH32 0x2D95A8186DB49DA8BD2356C70CF02038F7DE0D6ED39F6766FE2D93D5E7785616 PUSH2 0xE5D DUP2 PUSH2 0x1E3B JUMP JUMPDEST PUSH0 PUSH20 0xFFFFFFFFFFFFFFFFFFFFFFFFFFFFFFFFFFFFFFFF AND DUP4 PUSH20 0xFFFFFFFFFFFFFFFFFFFFFFFFFFFFFFFFFFFFFFFF AND SUB PUSH2 0xEC2 JUMPI PUSH1 0x40 MLOAD PUSH32 0x9589A27D00000000000000000000000000000000000000000000000000000000 DUP2 MSTORE PUSH1 0x4 ADD PUSH1 0x40 MLOAD DUP1 SWAP2 SUB SWAP1 REVERT JUMPDEST DUP2 PUSH1 0x2 PUSH0 DUP6 PUSH20 0xFFFFFFFFFFFFFFFFFFFFFFFFFFFFFFFFFFFFFFFF AND PUSH20 0xFFFFFFFFFFFFFFFFFFFFFFFFFFFFFFFFFFFFFFFF AND DUP2 MSTORE PUSH1 0x20 ADD SWAP1 DUP2 MSTORE PUSH1 0x20 ADD PUSH0 KECCAK256 PUSH0 PUSH2 0x100 EXP DUP2 SLOAD DUP2 PUSH20 0xFFFFFFFFFFFFFFFFFFFFFFFFFFFFFFFFFFFFFFFF MUL NOT AND SWAP1 DUP4 PUSH20 0xFFFFFFFFFFFFFFFFFFFFFFFFFFFFFFFFFFFFFFFF AND MUL OR SWAP1 SSTORE POP DUP2 PUSH20 0xFFFFFFFFFFFFFFFFFFFFFFFFFFFFFFFFFFFFFFFF AND DUP4 PUSH20 0xFFFFFFFFFFFFFFFFFFFFFFFFFFFFFFFFFFFFFFFF AND PUSH32 0xD2D8394CF7549A5DDBC2BA3DD7B2DE8D53C891472D1F2907008ED6A10045FDAE PUSH1 0x40 MLOAD PUSH1 0x40 MLOAD DUP1 SWAP2 SUB SWAP1 LOG3 POP POP POP JUMP JUMPDEST PUSH32 0x0 DUP2 JUMP JUMPDEST PUSH32 0x0 DUP2 JUMP JUMPDEST PUSH0 PUSH0 PUSH0 DUP5 DUP2 MSTORE PUSH1 0x20 ADD SWAP1 DUP2 MSTORE PUSH1 0x20 ADD PUSH0 KECCAK256 PUSH0 ADD PUSH0 DUP4 PUSH20 0xFFFFFFFFFFFFFFFFFFFFFFFFFFFFFFFFFFFFFFFF AND PUSH20 0xFFFFFFFFFFFFFFFFFFFFFFFFFFFFFFFFFFFFFFFF AND DUP2 MSTORE PUSH1 0x20 ADD SWAP1 DUP2 MSTORE PUSH1 0x20 ADD PUSH0 KECCAK256 PUSH0 SWAP1 SLOAD SWAP1 PUSH2 0x100 EXP SWAP1 DIV PUSH1 0xFF AND SWAP1 POP SWAP3 SWAP2 POP POP JUMP JUMPDEST PUSH32 0x2D95A8186DB49DA8BD2356C70CF02038F7DE0D6ED39F6766FE2D93D5E7785616 PUSH2 0x1071 DUP2 PUSH2 0x1E3B JUMP JUMPDEST PUSH0 PUSH20 0xFFFFFFFFFFFFFFFFFFFFFFFFFFFFFFFFFFFFFFFF AND DUP4 PUSH20 0xFFFFFFFFFFFFFFFFFFFFFFFFFFFFFFFFFFFFFFFF AND SUB PUSH2 0x10D6 JUMPI PUSH1 0x40 MLOAD PUSH32 0x3DD1B30500000000000000000000000000000000000000000000000000000000 DUP2 MSTORE PUSH1 0x4 ADD PUSH1 0x40 MLOAD DUP1 SWAP2 SUB SWAP1 REVERT JUMPDEST PUSH1 0x7 PUSH0 DUP5 PUSH20 0xFFFFFFFFFFFFFFFFFFFFFFFFFFFFFFFFFFFFFFFF AND PUSH20 0xFFFFFFFFFFFFFFFFFFFFFFFFFFFFFFFFFFFFFFFF AND DUP2 MSTORE PUSH1 0x20 ADD SWAP1 DUP2 MSTORE PUSH1 0x20 ADD PUSH0 KECCAK256 PUSH0 SWAP1 SLOAD SWAP1 PUSH2 0x100 EXP SWAP1 DIV PUSH1 0xFF AND PUSH2 0x121D JUMPI PUSH1 0x6 DUP4 SWAP1 DUP1 PUSH1 0x1 DUP2 SLOAD ADD DUP1 DUP3 SSTORE DUP1 SWAP2 POP POP PUSH1 0x1 SWAP1 SUB SWAP1 PUSH0 MSTORE PUSH1 0x20 PUSH0 KECCAK256 ADD PUSH0 SWAP1 SWAP2 SWAP1 SWAP2 SWAP1 SWAP2 PUSH2 0x100 EXP DUP2 SLOAD DUP2 PUSH20 0xFFFFFFFFFFFFFFFFFFFFFFFFFFFFFFFFFFFFFFFF MUL NOT AND SWAP1 DUP4 PUSH20 0xFFFFFFFFFFFFFFFFFFFFFFFFFFFFFFFFFFFFFFFF AND MUL OR SWAP1 SSTORE POP PUSH1 0x1 PUSH1 0x7 PUSH0 DUP6 PUSH20 0xFFFFFFFFFFFFFFFFFFFFFFFFFFFFFFFFFFFFFFFF AND PUSH20 0xFFFFFFFFFFFFFFFFFFFFFFFFFFFFFFFFFFFFFFFF AND DUP2 MSTORE PUSH1 0x20 ADD SWAP1 DUP2 MSTORE PUSH1 0x20 ADD PUSH0 KECCAK256 PUSH0 PUSH2 0x100 EXP DUP2 SLOAD DUP2 PUSH1 0xFF MUL NOT AND SWAP1 DUP4 ISZERO ISZERO MUL OR SWAP1 SSTORE POP DUP3 PUSH20 0xFFFFFFFFFFFFFFFFFFFFFFFFFFFFFFFFFFFFFFFF AND PUSH32 0xEA3145306A87BAEBA6BB1A8B5C8D3744F840A81CB436B3509F64FC978600CDFB PUSH1 0x40 MLOAD PUSH1 0x40 MLOAD DUP1 SWAP2 SUB SWAP1 LOG2 JUMPDEST PUSH0 PUSH20 0xFFFFFFFFFFFFFFFFFFFFFFFFFFFFFFFFFFFFFFFF AND DUP3 PUSH20 0xFFFFFFFFFFFFFFFFFFFFFFFFFFFFFFFFFFFFFFFF AND EQ PUSH2 0x1326 JUMPI DUP2 PUSH1 0x2 PUSH0 DUP6 PUSH20 0xFFFFFFFFFFFFFFFFFFFFFFFFFFFFFFFFFFFFFFFF AND PUSH20 0xFFFFFFFFFFFFFFFFFFFFFFFFFFFFFFFFFFFFFFFF AND DUP2 MSTORE PUSH1 0x20 ADD SWAP1 DUP2 MSTORE PUSH1 0x20 ADD PUSH0 KECCAK256 PUSH0 PUSH2 0x100 EXP DUP2 SLOAD DUP2 PUSH20 0xFFFFFFFFFFFFFFFFFFFFFFFFFFFFFFFFFFFFFFFF MUL NOT AND SWAP1 DUP4 PUSH20 0xFFFFFFFFFFFFFFFFFFFFFFFFFFFFFFFFFFFFFFFF AND MUL OR SWAP1 SSTORE POP DUP2 PUSH20 0xFFFFFFFFFFFFFFFFFFFFFFFFFFFFFFFFFFFFFFFF AND DUP4 PUSH20 0xFFFFFFFFFFFFFFFFFFFFFFFFFFFFFFFFFFFFFFFF AND PUSH32 0xD2D8394CF7549A5DDBC2BA3DD7B2DE8D53C891472D1F2907008ED6A10045FDAE PUSH1 0x40 MLOAD PUSH1 0x40 MLOAD DUP1 SWAP2 SUB SWAP1 LOG3 JUMPDEST POP POP POP JUMP JUMPDEST PUSH0 PUSH0 SHL DUP2 JUMP JUMPDEST PUSH32 0x0 DUP2 JUMP JUMPDEST PUSH1 0x5 PUSH1 0x20 MSTORE DUP1 PUSH0 MSTORE PUSH1 0x40 PUSH0 KECCAK256 PUSH0 SWAP2 POP SWAP1 POP SLOAD DUP2 JUMP JUMPDEST PUSH1 0x60 PUSH1 0x6 DUP1 SLOAD DUP1 PUSH1 0x20 MUL PUSH1 0x20 ADD PUSH1 0x40 MLOAD SWAP1 DUP2 ADD PUSH1 0x40 MSTORE DUP1 SWAP3 SWAP2 SWAP1 DUP2 DUP2 MSTORE PUSH1 0x20 ADD DUP3 DUP1 SLOAD DUP1 ISZERO PUSH2 0x13EB JUMPI PUSH1 0x20 MUL DUP3 ADD SWAP2 SWAP1 PUSH0 MSTORE PUSH1 0x20 PUSH0 KECCAK256 SWAP1 JUMPDEST DUP2 PUSH0 SWAP1 SLOAD SWAP1 PUSH2 0x100 EXP SWAP1 DIV PUSH20 0xFFFFFFFFFFFFFFFFFFFFFFFFFFFFFFFFFFFFFFFF AND PUSH20 0xFFFFFFFFFFFFFFFFFFFFFFFFFFFFFFFFFFFFFFFF AND DUP2 MSTORE PUSH1 0x20 ADD SWAP1 PUSH1 0x1 ADD SWAP1 DUP1 DUP4 GT PUSH2 0x13A2 JUMPI JUMPDEST POP POP POP POP POP SWAP1 POP SWAP1 JUMP JUMPDEST PUSH2 0x13FE DUP3 PUSH2 0x825 JUMP JUMPDEST PUSH2 0x1407 DUP2 PUSH2 0x1E3B JUMP JUMPDEST PUSH2 0x1411 DUP4 DUP4 PUSH2 0x1F3F JUMP JUMPDEST POP POP POP POP JUMP JUMPDEST PUSH1 0x8 SLOAD DUP2 JUMP JUMPDEST PUSH32 0x2D95A8186DB49DA8BD2356C70CF02038F7DE0D6ED39F6766FE2D93D5E7785616 PUSH2 0x1447 DUP2 PUSH2 0x1E3B JUMP JUMPDEST PUSH1 0x7 PUSH0 DUP4 PUSH20 0xFFFFFFFFFFFFFFFFFFFFFFFFFFFFFFFFFFFFFFFF AND PUSH20 0xFFFFFFFFFFFFFFFFFFFFFFFFFFFFFFFFFFFFFFFF AND DUP2 MSTORE PUSH1 0x20 ADD SWAP1 DUP2 MSTORE PUSH1 0x20 ADD PUSH0 KECCAK256 PUSH0 SWAP1 SLOAD SWAP1 PUSH2 0x100 EXP SWAP1 DIV PUSH1 0xFF AND PUSH2 0x14C7 JUMPI PUSH1 0x40 MLOAD PUSH32 0x3DD1B30500000000000000000000000000000000000000000000000000000000 DUP2 MSTORE PUSH1 0x4 ADD PUSH1 0x40 MLOAD DUP1 SWAP2 SUB SWAP1 REVERT JUMPDEST PUSH0 PUSH1 0x7 PUSH0 DUP5 PUSH20 0xFFFFFFFFFFFFFFFFFFFFFFFFFFFFFFFFFFFFFFFF AND PUSH20 0xFFFFFFFFFFFFFFFFFFFFFFFFFFFFFFFFFFFFFFFF AND DUP2 MSTORE PUSH1 0x20 ADD SWAP1 DUP2 MSTORE PUSH1 0x20 ADD PUSH0 KECCAK256 PUSH0 PUSH2 0x100 EXP DUP2 SLOAD DUP2 PUSH1 0xFF MUL NOT AND SWAP1 DUP4 ISZERO ISZERO MUL OR SWAP1 SSTORE POP PUSH0 PUSH0 SWAP1 POP JUMPDEST PUSH1 0x6 DUP1 SLOAD SWAP1 POP DUP2 LT ISZERO PUSH2 0x1697 JUMPI DUP3 PUSH20 0xFFFFFFFFFFFFFFFFFFFFFFFFFFFFFFFFFFFFFFFF AND PUSH1 0x6 DUP3 DUP2 SLOAD DUP2 LT PUSH2 0x1558 JUMPI PUSH2 0x1557 PUSH2 0x2708 JUMP JUMPDEST JUMPDEST SWAP1 PUSH0 MSTORE PUSH1 0x20 PUSH0 KECCAK256 ADD PUSH0 SWAP1 SLOAD SWAP1 PUSH2 0x100 EXP SWAP1 DIV PUSH20 0xFFFFFFFFFFFFFFFFFFFFFFFFFFFFFFFFFFFFFFFF AND PUSH20 0xFFFFFFFFFFFFFFFFFFFFFFFFFFFFFFFFFFFFFFFF AND SUB PUSH2 0x168A JUMPI PUSH1 0x6 PUSH1 0x1 PUSH1 0x6 DUP1 SLOAD SWAP1 POP PUSH2 0x15AF SWAP2 SWAP1 PUSH2 0x2900 JUMP JUMPDEST DUP2 SLOAD DUP2 LT PUSH2 0x15C0 JUMPI PUSH2 0x15BF PUSH2 0x2708 JUMP JUMPDEST JUMPDEST SWAP1 PUSH0 MSTORE PUSH1 0x20 PUSH0 KECCAK256 ADD PUSH0 SWAP1 SLOAD SWAP1 PUSH2 0x100 EXP SWAP1 DIV PUSH20 0xFFFFFFFFFFFFFFFFFFFFFFFFFFFFFFFFFFFFFFFF AND PUSH1 0x6 DUP3 DUP2 SLOAD DUP2 LT PUSH2 0x15FC JUMPI PUSH2 0x15FB PUSH2 0x2708 JUMP JUMPDEST JUMPDEST SWAP1 PUSH0 MSTORE PUSH1 0x20 PUSH0 KECCAK256 ADD PUSH0 PUSH2 0x100 EXP DUP2 SLOAD DUP2 PUSH20 0xFFFFFFFFFFFFFFFFFFFFFFFFFFFFFFFFFFFFFFFF MUL NOT AND SWAP1 DUP4 PUSH20 0xFFFFFFFFFFFFFFFFFFFFFFFFFFFFFFFFFFFFFFFF AND MUL OR SWAP1 SSTORE POP PUSH1 0x6 DUP1 SLOAD DUP1 PUSH2 0x1653 JUMPI PUSH2 0x1652 PUSH2 0x2933 JUMP JUMPDEST JUMPDEST PUSH1 0x1 SWAP1 SUB DUP2 DUP2 SWAP1 PUSH0 MSTORE PUSH1 0x20 PUSH0 KECCAK256 ADD PUSH0 PUSH2 0x100 EXP DUP2 SLOAD SWAP1 PUSH20 0xFFFFFFFFFFFFFFFFFFFFFFFFFFFFFFFFFFFFFFFF MUL NOT AND SWAP1 SSTORE SWAP1 SSTORE PUSH2 0x1697 JUMP JUMPDEST DUP1 DUP1 PUSH1 0x1 ADD SWAP2 POP POP PUSH2 0x1520 JUMP JUMPDEST POP PUSH1 0x2 PUSH0 DUP4 PUSH20 0xFFFFFFFFFFFFFFFFFFFFFFFFFFFFFFFFFFFFFFFF AND PUSH20 0xFFFFFFFFFFFFFFFFFFFFFFFFFFFFFFFFFFFFFFFF AND DUP2 MSTORE PUSH1 0x20 ADD SWAP1 DUP2 MSTORE PUSH1 0x20 ADD PUSH0 KECCAK256 PUSH0 PUSH2 0x100 EXP DUP2 SLOAD SWAP1 PUSH20 0xFFFFFFFFFFFFFFFFFFFFFFFFFFFFFFFFFFFFFFFF MUL NOT AND SWAP1 SSTORE DUP2 PUSH20 0xFFFFFFFFFFFFFFFFFFFFFFFFFFFFFFFFFFFFFFFF AND PUSH32 0xF940D38196F30E7FF3EB255DD42DB8D99A75C1AC112199D4FC314CE6460BFC0C PUSH1 0x40 MLOAD PUSH1 0x40 MLOAD DUP1 SWAP2 SUB SWAP1 LOG2 DUP2 PUSH20 0xFFFFFFFFFFFFFFFFFFFFFFFFFFFFFFFFFFFFFFFF AND PUSH32 0xFD58461C4683DF397133C7E91FE2AA71559919B405F9E09C9C3AF7E875F54E3B PUSH1 0x40 MLOAD PUSH1 0x40 MLOAD DUP1 SWAP2 SUB SWAP1 LOG2 POP POP JUMP JUMPDEST PUSH32 0x2D95A8186DB49DA8BD2356C70CF02038F7DE0D6ED39F6766FE2D93D5E7785616 DUP2 JUMP JUMPDEST PUSH2 0x17AD PUSH2 0x2028 JUMP JUMPDEST PUSH0 DUP2 SUB PUSH2 0x17E6 JUMPI PUSH1 0x40 MLOAD PUSH32 0x2C5211C600000000000000000000000000000000000000000000000000000000 DUP2 MSTORE PUSH1 0x4 ADD PUSH1 0x40 MLOAD DUP1 SWAP2 SUB SWAP1 REVERT JUMPDEST PUSH32 0x0 DUP2 GT ISZERO PUSH2 0x1840 JUMPI PUSH1 0x40 MLOAD PUSH32 0x73A7C91000000000000000000000000000000000000000000000000000000000 DUP2 MSTORE PUSH1 0x4 ADD PUSH1 0x40 MLOAD DUP1 SWAP2 SUB SWAP1 REVERT JUMPDEST PUSH0 PUSH1 0x3 PUSH0 CALLER PUSH20 0xFFFFFFFFFFFFFFFFFFFFFFFFFFFFFFFFFFFFFFFF AND PUSH20 0xFFFFFFFFFFFFFFFFFFFFFFFFFFFFFFFFFFFFFFFF AND DUP2 MSTORE PUSH1 0x20 ADD SWAP1 DUP2 MSTORE PUSH1 0x20 ADD PUSH0 KECCAK256 PUSH0 DUP5 PUSH20 0xFFFFFFFFFFFFFFFFFFFFFFFFFFFFFFFFFFFFFFFF AND PUSH20 0xFFFFFFFFFFFFFFFFFFFFFFFFFFFFFFFFFFFFFFFF AND DUP2 MSTORE PUSH1 0x20 ADD SWAP1 DUP2 MSTORE PUSH1 0x20 ADD PUSH0 KECCAK256 SLOAD SWAP1 POP DUP2 DUP2 LT ISZERO PUSH2 0x18F6 JUMPI PUSH1 0x40 MLOAD PUSH32 0xF4D678B800000000000000000000000000000000000000000000000000000000 DUP2 MSTORE PUSH1 0x4 ADD PUSH1 0x40 MLOAD DUP1 SWAP2 SUB SWAP1 REVERT JUMPDEST PUSH0 PUSH0 PUSH20 0xFFFFFFFFFFFFFFFFFFFFFFFFFFFFFFFFFFFFFFFF AND DUP5 PUSH20 0xFFFFFFFFFFFFFFFFFFFFFFFFFFFFFFFFFFFFFFFF AND EQ PUSH2 0x1939 JUMPI PUSH2 0x1934 DUP5 DUP5 PUSH2 0x1C2E JUMP JUMPDEST PUSH2 0x1943 JUMP JUMPDEST PUSH2 0x1942 DUP4 PUSH2 0x1E0C JUMP JUMPDEST JUMPDEST SWAP1 POP DUP3 DUP3 PUSH2 0x1951 SWAP2 SWAP1 PUSH2 0x2900 JUMP JUMPDEST PUSH1 0x3 PUSH0 CALLER PUSH20 0xFFFFFFFFFFFFFFFFFFFFFFFFFFFFFFFFFFFFFFFF AND PUSH20 0xFFFFFFFFFFFFFFFFFFFFFFFFFFFFFFFFFFFFFFFF AND DUP2 MSTORE PUSH1 0x20 ADD SWAP1 DUP2 MSTORE PUSH1 0x20 ADD PUSH0 KECCAK256 PUSH0 DUP7 PUSH20 0xFFFFFFFFFFFFFFFFFFFFFFFFFFFFFFFFFFFFFFFF AND PUSH20 0xFFFFFFFFFFFFFFFFFFFFFFFFFFFFFFFFFFFFFFFF AND DUP2 MSTORE PUSH1 0x20 ADD SWAP1 DUP2 MSTORE PUSH1 0x20 ADD PUSH0 KECCAK256 DUP2 SWAP1 SSTORE POP DUP1 PUSH1 0x8 PUSH0 DUP3 DUP3 SLOAD PUSH2 0x19DE SWAP2 SWAP1 PUSH2 0x2900 JUMP JUMPDEST SWAP3 POP POP DUP2 SWAP1 SSTORE POP PUSH1 0x5 PUSH0 CALLER PUSH20 0xFFFFFFFFFFFFFFFFFFFFFFFFFFFFFFFFFFFFFFFF AND PUSH20 0xFFFFFFFFFFFFFFFFFFFFFFFFFFFFFFFFFFFFFFFF AND DUP2 MSTORE PUSH1 0x20 ADD SWAP1 DUP2 MSTORE PUSH1 0x20 ADD PUSH0 KECCAK256 PUSH0 DUP2 SLOAD DUP1 SWAP3 SWAP2 SWAP1 PUSH2 0x1A32 SWAP1 PUSH2 0x2892 JUMP JUMPDEST SWAP2 SWAP1 POP SSTORE POP PUSH0 PUSH20 0xFFFFFFFFFFFFFFFFFFFFFFFFFFFFFFFFFFFFFFFF AND DUP5 PUSH20 0xFFFFFFFFFFFFFFFFFFFFFFFFFFFFFFFFFFFFFFFF AND SUB PUSH2 0x1B0F JUMPI PUSH0 CALLER PUSH20 0xFFFFFFFFFFFFFFFFFFFFFFFFFFFFFFFFFFFFFFFF AND DUP5 PUSH1 0x40 MLOAD PUSH2 0x1A8F SWAP1 PUSH2 0x298D JUMP JUMPDEST PUSH0 PUSH1 0x40 MLOAD DUP1 DUP4 SUB DUP2 DUP6 DUP8 GAS CALL SWAP3 POP POP POP RETURNDATASIZE DUP1 PUSH0 DUP2 EQ PUSH2 0x1AC9 JUMPI PUSH1 0x40 MLOAD SWAP2 POP PUSH1 0x1F NOT PUSH1 0x3F RETURNDATASIZE ADD AND DUP3 ADD PUSH1 0x40 MSTORE RETURNDATASIZE DUP3 MSTORE RETURNDATASIZE PUSH0 PUSH1 0x20 DUP5 ADD RETURNDATACOPY PUSH2 0x1ACE JUMP JUMPDEST PUSH1 0x60 SWAP2 POP JUMPDEST POP POP SWAP1 POP DUP1 PUSH2 0x1B09 JUMPI PUSH1 0x40 MLOAD PUSH32 0x90B8EC1800000000000000000000000000000000000000000000000000000000 DUP2 MSTORE PUSH1 0x4 ADD PUSH1 0x40 MLOAD DUP1 SWAP2 SUB SWAP1 REVERT JUMPDEST POP PUSH2 0x1B3B JUMP JUMPDEST PUSH2 0x1B3A CALLER DUP5 DUP7 PUSH20 0xFFFFFFFFFFFFFFFFFFFFFFFFFFFFFFFFFFFFFFFF AND PUSH2 0x2102 SWAP1 SWAP3 SWAP2 SWAP1 PUSH4 0xFFFFFFFF AND JUMP JUMPDEST JUMPDEST DUP4 PUSH20 0xFFFFFFFFFFFFFFFFFFFFFFFFFFFFFFFFFFFFFFFF AND CALLER PUSH20 0xFFFFFFFFFFFFFFFFFFFFFFFFFFFFFFFFFFFFFFFF AND PUSH32 0xDE1D532173C6DE1E3937C7AF1CB92745C738980729F53AC451A725F929F3B798 DUP6 DUP5 PUSH1 0x40 MLOAD PUSH2 0x1B9A SWAP3 SWAP2 SWAP1 PUSH2 0x28D9 JUMP JUMPDEST PUSH1 0x40 MLOAD DUP1 SWAP2 SUB SWAP1 LOG3 POP POP PUSH2 0x1BAC PUSH2 0x20F9 JUMP JUMPDEST POP POP JUMP JUMPDEST PUSH1 0x4 PUSH1 0x20 MSTORE DUP1 PUSH0 MSTORE PUSH1 0x40 PUSH0 KECCAK256 PUSH0 SWAP2 POP SWAP1 POP SLOAD DUP2 JUMP JUMPDEST PUSH0 PUSH32 0x1FFC9A700000000000000000000000000000000000000000000000000000000 PUSH28 0xFFFFFFFFFFFFFFFFFFFFFFFFFFFFFFFFFFFFFFFFFFFFFFFFFFFFFFFF NOT AND DUP3 PUSH28 0xFFFFFFFFFFFFFFFFFFFFFFFFFFFFFFFFFFFFFFFFFFFFFFFFFFFFFFFF NOT AND EQ SWAP1 POP SWAP2 SWAP1 POP JUMP JUMPDEST PUSH0 PUSH0 PUSH1 0x2 PUSH0 DUP6 PUSH20 0xFFFFFFFFFFFFFFFFFFFFFFFFFFFFFFFFFFFFFFFF AND PUSH20 0xFFFFFFFFFFFFFFFFFFFFFFFFFFFFFFFFFFFFFFFF AND DUP2 MSTORE PUSH1 0x20 ADD SWAP1 DUP2 MSTORE PUSH1 0x20 ADD PUSH0 KECCAK256 PUSH0 SWAP1 SLOAD SWAP1 PUSH2 0x100 EXP SWAP1 DIV PUSH20 0xFFFFFFFFFFFFFFFFFFFFFFFFFFFFFFFFFFFFFFFF AND SWAP1 POP PUSH0 PUSH20 0xFFFFFFFFFFFFFFFFFFFFFFFFFFFFFFFFFFFFFFFF AND DUP2 PUSH20 0xFFFFFFFFFFFFFFFFFFFFFFFFFFFFFFFFFFFFFFFF AND SUB PUSH2 0x1CF4 JUMPI PUSH1 0x40 MLOAD PUSH32 0x9589A27D00000000000000000000000000000000000000000000000000000000 DUP2 MSTORE PUSH1 0x4 ADD PUSH1 0x40 MLOAD DUP1 SWAP2 SUB SWAP1 REVERT JUMPDEST PUSH0 DUP2 PUSH20 0xFFFFFFFFFFFFFFFFFFFFFFFFFFFFFFFFFFFFFFFF AND PUSH4 0xFEAF968C PUSH1 0x40 MLOAD DUP2 PUSH4 0xFFFFFFFF AND PUSH1 0xE0 SHL DUP2 MSTORE PUSH1 0x4 ADD PUSH1 0xA0 PUSH1 0x40 MLOAD DUP1 DUP4 SUB DUP2 DUP7 GAS STATICCALL ISZERO DUP1 ISZERO PUSH2 0x1D3E JUMPI RETURNDATASIZE PUSH0 PUSH0 RETURNDATACOPY RETURNDATASIZE PUSH0 REVERT JUMPDEST POP POP POP POP PUSH1 0x40 MLOAD RETURNDATASIZE PUSH1 0x1F NOT PUSH1 0x1F DUP3 ADD AND DUP3 ADD DUP1 PUSH1 0x40 MSTORE POP DUP2 ADD SWAP1 PUSH2 0x1D62 SWAP2 SWAP1 PUSH2 0x281B JUMP JUMPDEST POP POP POP SWAP2 POP POP PUSH0 DUP6 PUSH20 0xFFFFFFFFFFFFFFFFFFFFFFFFFFFFFFFFFFFFFFFF AND PUSH4 0x313CE567 PUSH1 0x40 MLOAD DUP2 PUSH4 0xFFFFFFFF AND PUSH1 0xE0 SHL DUP2 MSTORE PUSH1 0x4 ADD PUSH1 0x20 PUSH1 0x40 MLOAD DUP1 DUP4 SUB DUP2 DUP7 GAS STATICCALL ISZERO DUP1 ISZERO PUSH2 0x1DB2 JUMPI RETURNDATASIZE PUSH0 PUSH0 RETURNDATACOPY RETURNDATASIZE PUSH0 REVERT JUMPDEST POP POP POP POP PUSH1 0x40 MLOAD RETURNDATASIZE PUSH1 0x1F NOT PUSH1 0x1F DUP3 ADD AND DUP3 ADD DUP1 PUSH1 0x40 MSTORE POP DUP2 ADD SWAP1 PUSH2 0x1DD6 SWAP2 SWAP1 PUSH2 0x29D7 JUMP JUMPDEST SWAP1 POP PUSH0 PUSH2 0x1DE3 DUP7 DUP4 PUSH2 0x2181 JUMP JUMPDEST SWAP1 POP PUSH4 0x5F5E100 DUP4 DUP3 PUSH2 0x1DF6 SWAP2 SWAP1 PUSH2 0x2A02 JUMP JUMPDEST PUSH2 0x1E00 SWAP2 SWAP1 PUSH2 0x2A70 JUMP JUMPDEST SWAP5 POP POP POP POP POP SWAP3 SWAP2 POP POP JUMP JUMPDEST PUSH0 PUSH0 PUSH2 0x1E16 PUSH2 0x893 JUMP JUMPDEST SWAP1 POP PUSH4 0x5F5E100 DUP2 DUP5 PUSH2 0x1E29 SWAP2 SWAP1 PUSH2 0x2A02 JUMP JUMPDEST PUSH2 0x1E33 SWAP2 SWAP1 PUSH2 0x2A70 JUMP JUMPDEST SWAP2 POP POP SWAP2 SWAP1 POP JUMP JUMPDEST PUSH2 0x1E4C DUP2 PUSH2 0x1E47 PUSH2 0x1F38 JUMP JUMPDEST PUSH2 0x21FA JUMP JUMPDEST POP JUMP JUMPDEST PUSH0 PUSH2 0x1E5A DUP4 DUP4 PUSH2 0xFE4 JUMP JUMPDEST PUSH2 0x1F2E JUMPI PUSH1 0x1 PUSH0 PUSH0 DUP6 DUP2 MSTORE PUSH1 0x20 ADD SWAP1 DUP2 MSTORE PUSH1 0x20 ADD PUSH0 KECCAK256 PUSH0 ADD PUSH0 DUP5 PUSH20 0xFFFFFFFFFFFFFFFFFFFFFFFFFFFFFFFFFFFFFFFF AND PUSH20 0xFFFFFFFFFFFFFFFFFFFFFFFFFFFFFFFFFFFFFFFF AND DUP2 MSTORE PUSH1 0x20 ADD SWAP1 DUP2 MSTORE PUSH1 0x20 ADD PUSH0 KECCAK256 PUSH0 PUSH2 0x100 EXP DUP2 SLOAD DUP2 PUSH1 0xFF MUL NOT AND SWAP1 DUP4 ISZERO ISZERO MUL OR SWAP1 SSTORE POP PUSH2 0x1ECB PUSH2 0x1F38 JUMP JUMPDEST PUSH20 0xFFFFFFFFFFFFFFFFFFFFFFFFFFFFFFFFFFFFFFFF AND DUP3 PUSH20 0xFFFFFFFFFFFFFFFFFFFFFFFFFFFFFFFFFFFFFFFF AND DUP5 PUSH32 0x2F8788117E7EFF1D82E926EC794901D17C78024A50270940304540A733656F0D PUSH1 0x40 MLOAD PUSH1 0x40 MLOAD DUP1 SWAP2 SUB SWAP1 LOG4 PUSH1 0x1 SWAP1 POP PUSH2 0x1F32 JUMP JUMPDEST PUSH0 SWAP1 POP JUMPDEST SWAP3 SWAP2 POP POP JUMP JUMPDEST PUSH0 CALLER SWAP1 POP SWAP1 JUMP JUMPDEST PUSH0 PUSH2 0x1F4A DUP4 DUP4 PUSH2 0xFE4 JUMP JUMPDEST ISZERO PUSH2 0x201E JUMPI PUSH0 PUSH0 PUSH0 DUP6 DUP2 MSTORE PUSH1 0x20 ADD SWAP1 DUP2 MSTORE PUSH1 0x20 ADD PUSH0 KECCAK256 PUSH0 ADD PUSH0 DUP5 PUSH20 0xFFFFFFFFFFFFFFFFFFFFFFFFFFFFFFFFFFFFFFFF AND PUSH20 0xFFFFFFFFFFFFFFFFFFFFFFFFFFFFFFFFFFFFFFFF AND DUP2 MSTORE PUSH1 0x20 ADD SWAP1 DUP2 MSTORE PUSH1 0x20 ADD PUSH0 KECCAK256 PUSH0 PUSH2 0x100 EXP DUP2 SLOAD DUP2 PUSH1 0xFF MUL NOT AND SWAP1 DUP4 ISZERO ISZERO MUL OR SWAP1 SSTORE POP PUSH2 0x1FBB PUSH2 0x1F38 JUMP JUMPDEST PUSH20 0xFFFFFFFFFFFFFFFFFFFFFFFFFFFFFFFFFFFFFFFF AND DUP3 PUSH20 0xFFFFFFFFFFFFFFFFFFFFFFFFFFFFFFFFFFFFFFFF AND DUP5 PUSH32 0xF6391F5C32D9C69D2A47EA670B442974B53935D1EDC7FD64EB21E047A839171B PUSH1 0x40 MLOAD PUSH1 0x40 MLOAD DUP1 SWAP2 SUB SWAP1 LOG4 PUSH1 0x1 SWAP1 POP PUSH2 0x2022 JUMP JUMPDEST PUSH0 SWAP1 POP JUMPDEST SWAP3 SWAP2 POP POP JUMP JUMPDEST PUSH1 0x2 PUSH1 0x1 SLOAD SUB PUSH2 0x206D JUMPI PUSH1 0x40 MLOAD PUSH32 0x8C379A000000000000000000000000000000000000000000000000000000000 DUP2 MSTORE PUSH1 0x4 ADD PUSH2 0x2064 SWAP1 PUSH2 0x2AFA JUMP JUMPDEST PUSH1 0x40 MLOAD DUP1 SWAP2 SUB SWAP1 REVERT JUMPDEST PUSH1 0x2 PUSH1 0x1 DUP2 SWAP1 SSTORE POP JUMP JUMPDEST PUSH2 0x20F3 DUP5 DUP6 PUSH20 0xFFFFFFFFFFFFFFFFFFFFFFFFFFFFFFFFFFFFFFFF AND PUSH4 0x23B872DD DUP7 DUP7 DUP7 PUSH1 0x40 MLOAD PUSH1 0x24 ADD PUSH2 0x20AC SWAP4 SWAP3 SWAP2 SWAP1 PUSH2 0x2B27 JUMP JUMPDEST PUSH1 0x40 MLOAD PUSH1 0x20 DUP2 DUP4 SUB SUB DUP2 MSTORE SWAP1 PUSH1 0x40 MSTORE SWAP2 POP PUSH1 0xE0 SHL PUSH1 0x20 DUP3 ADD DUP1 MLOAD PUSH28 0xFFFFFFFFFFFFFFFFFFFFFFFFFFFFFFFFFFFFFFFFFFFFFFFFFFFFFFFF DUP4 DUP2 DUP4 AND OR DUP4 MSTORE POP POP POP POP PUSH2 0x224B JUMP JUMPDEST POP POP POP POP JUMP JUMPDEST PUSH1 0x1 DUP1 DUP2 SWAP1 SSTORE POP JUMP JUMPDEST PUSH2 0x217C DUP4 DUP5 PUSH20 0xFFFFFFFFFFFFFFFFFFFFFFFFFFFFFFFFFFFFFFFF AND PUSH4 0xA9059CBB DUP6 DUP6 PUSH1 0x40 MLOAD PUSH1 0x24 ADD PUSH2 0x2135 SWAP3 SWAP2 SWAP1 PUSH2 0x2B5C JUMP JUMPDEST PUSH1 0x40 MLOAD PUSH1 0x20 DUP2 DUP4 SUB SUB DUP2 MSTORE SWAP1 PUSH1 0x40 MSTORE SWAP2 POP PUSH1 0xE0 SHL PUSH1 0x20 DUP3 ADD DUP1 MLOAD PUSH28 0xFFFFFFFFFFFFFFFFFFFFFFFFFFFFFFFFFFFFFFFFFFFFFFFFFFFFFFFF DUP4 DUP2 DUP4 AND OR DUP4 MSTORE POP POP POP POP PUSH2 0x224B JUMP JUMPDEST POP POP POP JUMP JUMPDEST PUSH0 PUSH1 0x6 DUP3 PUSH1 0xFF AND GT ISZERO PUSH2 0x21B9 JUMPI PUSH1 0x6 DUP3 PUSH2 0x219B SWAP2 SWAP1 PUSH2 0x2B83 JUMP JUMPDEST PUSH1 0xA PUSH2 0x21A7 SWAP2 SWAP1 PUSH2 0x2CE6 JUMP JUMPDEST DUP4 PUSH2 0x21B2 SWAP2 SWAP1 PUSH2 0x2A70 JUMP JUMPDEST SWAP1 POP PUSH2 0x21F4 JUMP JUMPDEST PUSH1 0x6 DUP3 PUSH1 0xFF AND LT ISZERO PUSH2 0x21F0 JUMPI DUP2 PUSH1 0x6 PUSH2 0x21D2 SWAP2 SWAP1 PUSH2 0x2B83 JUMP JUMPDEST PUSH1 0xA PUSH2 0x21DE SWAP2 SWAP1 PUSH2 0x2CE6 JUMP JUMPDEST DUP4 PUSH2 0x21E9 SWAP2 SWAP1 PUSH2 0x2A02 JUMP JUMPDEST SWAP1 POP PUSH2 0x21F4 JUMP JUMPDEST DUP3 SWAP1 POP JUMPDEST SWAP3 SWAP2 POP POP JUMP JUMPDEST PUSH2 0x2204 DUP3 DUP3 PUSH2 0xFE4 JUMP JUMPDEST PUSH2 0x2247 JUMPI DUP1 DUP3 PUSH1 0x40 MLOAD PUSH32 0xE2517D3F00000000000000000000000000000000000000000000000000000000 DUP2 MSTORE PUSH1 0x4 ADD PUSH2 0x223E SWAP3 SWAP2 SWAP1 PUSH2 0x2D30 JUMP JUMPDEST PUSH1 0x40 MLOAD DUP1 SWAP2 SUB SWAP1 REVERT JUMPDEST POP POP JUMP JUMPDEST PUSH0 PUSH0 PUSH1 0x20 PUSH0 DUP5 MLOAD PUSH1 0x20 DUP7 ADD PUSH0 DUP9 GAS CALL DUP1 PUSH2 0x226A JUMPI PUSH1 0x40 MLOAD RETURNDATASIZE PUSH0 DUP3 RETURNDATACOPY RETURNDATASIZE DUP2 REVERT JUMPDEST RETURNDATASIZE SWAP3 POP PUSH0 MLOAD SWAP2 POP POP PUSH0 DUP3 EQ PUSH2 0x2283 JUMPI PUSH1 0x1 DUP2 EQ ISZERO PUSH2 0x229E JUMP JUMPDEST PUSH0 DUP5 PUSH20 0xFFFFFFFFFFFFFFFFFFFFFFFFFFFFFFFFFFFFFFFF AND EXTCODESIZE EQ JUMPDEST ISZERO PUSH2 0x22E0 JUMPI DUP4 PUSH1 0x40 MLOAD PUSH32 0x5274AFE700000000000000000000000000000000000000000000000000000000 DUP2 MSTORE PUSH1 0x4 ADD PUSH2 0x22D7 SWAP2 SWAP1 PUSH2 0x2D57 JUMP JUMPDEST PUSH1 0x40 MLOAD DUP1 SWAP2 SUB SWAP1 REVERT JUMPDEST POP POP POP POP JUMP JUMPDEST PUSH0 PUSH0 REVERT JUMPDEST PUSH0 PUSH32 0xFFFFFFFF00000000000000000000000000000000000000000000000000000000 DUP3 AND SWAP1 POP SWAP2 SWAP1 POP JUMP JUMPDEST PUSH2 0x231E DUP2 PUSH2 0x22EA JUMP JUMPDEST DUP2 EQ PUSH2 0x2328 JUMPI PUSH0 PUSH0 REVERT JUMPDEST POP JUMP JUMPDEST PUSH0 DUP2 CALLDATALOAD SWAP1 POP PUSH2 0x2339 DUP2 PUSH2 0x2315 JUMP JUMPDEST SWAP3 SWAP2 POP POP JUMP JUMPDEST PUSH0 PUSH1 0x20 DUP3 DUP5 SUB SLT ISZERO PUSH2 0x2354 JUMPI PUSH2 0x2353 PUSH2 0x22E6 JUMP JUMPDEST JUMPDEST PUSH0 PUSH2 0x2361 DUP5 DUP3 DUP6 ADD PUSH2 0x232B JUMP JUMPDEST SWAP2 POP POP SWAP3 SWAP2 POP POP JUMP JUMPDEST PUSH0 DUP2 ISZERO ISZERO SWAP1 POP SWAP2 SWAP1 POP JUMP JUMPDEST PUSH2 0x237E DUP2 PUSH2 0x236A JUMP JUMPDEST DUP3 MSTORE POP POP JUMP JUMPDEST PUSH0 PUSH1 0x20 DUP3 ADD SWAP1 POP PUSH2 0x2397 PUSH0 DUP4 ADD DUP5 PUSH2 0x2375 JUMP JUMPDEST SWAP3 SWAP2 POP POP JUMP JUMPDEST PUSH0 PUSH20 0xFFFFFFFFFFFFFFFFFFFFFFFFFFFFFFFFFFFFFFFF DUP3 AND SWAP1 POP SWAP2 SWAP1 POP JUMP JUMPDEST PUSH0 PUSH2 0x23C6 DUP3 PUSH2 0x239D JUMP JUMPDEST SWAP1 POP SWAP2 SWAP1 POP JUMP JUMPDEST PUSH2 0x23D6 DUP2 PUSH2 0x23BC JUMP JUMPDEST DUP2 EQ PUSH2 0x23E0 JUMPI PUSH0 PUSH0 REVERT JUMPDEST POP JUMP JUMPDEST PUSH0 DUP2 CALLDATALOAD SWAP1 POP PUSH2 0x23F1 DUP2 PUSH2 0x23CD JUMP JUMPDEST SWAP3 SWAP2 POP POP JUMP JUMPDEST PUSH0 PUSH1 0x20 DUP3 DUP5 SUB SLT ISZERO PUSH2 0x240C JUMPI PUSH2 0x240B PUSH2 0x22E6 JUMP JUMPDEST JUMPDEST PUSH0 PUSH2 0x2419 DUP5 DUP3 DUP6 ADD PUSH2 0x23E3 JUMP JUMPDEST SWAP2 POP POP SWAP3 SWAP2 POP POP JUMP JUMPDEST PUSH0 DUP2 SWAP1 POP SWAP2 SWAP1 POP JUMP JUMPDEST PUSH2 0x2434 DUP2 PUSH2 0x2422 JUMP JUMPDEST DUP3 MSTORE POP POP JUMP JUMPDEST PUSH0 PUSH1 0x20 DUP3 ADD SWAP1 POP PUSH2 0x244D PUSH0 DUP4 ADD DUP5 PUSH2 0x242B JUMP JUMPDEST SWAP3 SWAP2 POP POP JUMP JUMPDEST PUSH0 DUP2 SWAP1 POP SWAP2 SWAP1 POP JUMP JUMPDEST PUSH2 0x2465 DUP2 PUSH2 0x2453 JUMP JUMPDEST DUP2 EQ PUSH2 0x246F JUMPI PUSH0 PUSH0 REVERT JUMPDEST POP JUMP JUMPDEST PUSH0 DUP2 CALLDATALOAD SWAP1 POP PUSH2 0x2480 DUP2 PUSH2 0x245C JUMP JUMPDEST SWAP3 SWAP2 POP POP JUMP JUMPDEST PUSH0 PUSH1 0x20 DUP3 DUP5 SUB SLT ISZERO PUSH2 0x249B JUMPI PUSH2 0x249A PUSH2 0x22E6 JUMP JUMPDEST JUMPDEST PUSH0 PUSH2 0x24A8 DUP5 DUP3 DUP6 ADD PUSH2 0x2472 JUMP JUMPDEST SWAP2 POP POP SWAP3 SWAP2 POP POP JUMP JUMPDEST PUSH2 0x24BA DUP2 PUSH2 0x2453 JUMP JUMPDEST DUP3 MSTORE POP POP JUMP JUMPDEST PUSH0 PUSH1 0x20 DUP3 ADD SWAP1 POP PUSH2 0x24D3 PUSH0 DUP4 ADD DUP5 PUSH2 0x24B1 JUMP JUMPDEST SWAP3 SWAP2 POP POP JUMP JUMPDEST PUSH0 DUP2 SWAP1 POP SWAP2 SWAP1 POP JUMP JUMPDEST PUSH0 PUSH2 0x24FC PUSH2 0x24F7 PUSH2 0x24F2 DUP5 PUSH2 0x239D JUMP JUMPDEST PUSH2 0x24D9 JUMP JUMPDEST PUSH2 0x239D JUMP JUMPDEST SWAP1 POP SWAP2 SWAP1 POP JUMP JUMPDEST PUSH0 PUSH2 0x250D DUP3 PUSH2 0x24E2 JUMP JUMPDEST SWAP1 POP SWAP2 SWAP1 POP JUMP JUMPDEST PUSH0 PUSH2 0x251E DUP3 PUSH2 0x2503 JUMP JUMPDEST SWAP1 POP SWAP2 SWAP1 POP JUMP JUMPDEST PUSH2 0x252E DUP2 PUSH2 0x2514 JUMP JUMPDEST DUP3 MSTORE POP POP JUMP JUMPDEST PUSH0 PUSH1 0x20 DUP3 ADD SWAP1 POP PUSH2 0x2547 PUSH0 DUP4 ADD DUP5 PUSH2 0x2525 JUMP JUMPDEST SWAP3 SWAP2 POP POP JUMP JUMPDEST PUSH0 PUSH0 PUSH1 0x40 DUP4 DUP6 SUB SLT ISZERO PUSH2 0x2563 JUMPI PUSH2 0x2562 PUSH2 0x22E6 JUMP JUMPDEST JUMPDEST PUSH0 PUSH2 0x2570 DUP6 DUP3 DUP7 ADD PUSH2 0x2472 JUMP JUMPDEST SWAP3 POP POP PUSH1 0x20 PUSH2 0x2581 DUP6 DUP3 DUP7 ADD PUSH2 0x23E3 JUMP JUMPDEST SWAP2 POP POP SWAP3 POP SWAP3 SWAP1 POP JUMP JUMPDEST PUSH2 0x2594 DUP2 PUSH2 0x2422 JUMP JUMPDEST DUP2 EQ PUSH2 0x259E JUMPI PUSH0 PUSH0 REVERT JUMPDEST POP JUMP JUMPDEST PUSH0 DUP2 CALLDATALOAD SWAP1 POP PUSH2 0x25AF DUP2 PUSH2 0x258B JUMP JUMPDEST SWAP3 SWAP2 POP POP JUMP JUMPDEST PUSH0 PUSH0 PUSH1 0x40 DUP4 DUP6 SUB SLT ISZERO PUSH2 0x25CB JUMPI PUSH2 0x25CA PUSH2 0x22E6 JUMP JUMPDEST JUMPDEST PUSH0 PUSH2 0x25D8 DUP6 DUP3 DUP7 ADD PUSH2 0x23E3 JUMP JUMPDEST SWAP3 POP POP PUSH1 0x20 PUSH2 0x25E9 DUP6 DUP3 DUP7 ADD PUSH2 0x25A1 JUMP JUMPDEST SWAP2 POP POP SWAP3 POP SWAP3 SWAP1 POP JUMP JUMPDEST PUSH0 PUSH0 PUSH1 0x40 DUP4 DUP6 SUB SLT ISZERO PUSH2 0x2609 JUMPI PUSH2 0x2608 PUSH2 0x22E6 JUMP JUMPDEST JUMPDEST PUSH0 PUSH2 0x2616 DUP6 DUP3 DUP7 ADD PUSH2 0x23E3 JUMP JUMPDEST SWAP3 POP POP PUSH1 0x20 PUSH2 0x2627 DUP6 DUP3 DUP7 ADD PUSH2 0x23E3 JUMP JUMPDEST SWAP2 POP POP SWAP3 POP SWAP3 SWAP1 POP JUMP JUMPDEST PUSH0 DUP2 MLOAD SWAP1 POP SWAP2 SWAP1 POP JUMP JUMPDEST PUSH0 DUP3 DUP3 MSTORE PUSH1 0x20 DUP3 ADD SWAP1 POP SWAP3 SWAP2 POP POP JUMP JUMPDEST PUSH0 DUP2 SWAP1 POP PUSH1 0x20 DUP3 ADD SWAP1 POP SWAP2 SWAP1 POP JUMP JUMPDEST PUSH2 0x2663 DUP2 PUSH2 0x23BC JUMP JUMPDEST DUP3 MSTORE POP POP JUMP JUMPDEST PUSH0 PUSH2 0x2674 DUP4 DUP4 PUSH2 0x265A JUMP JUMPDEST PUSH1 0x20 DUP4 ADD SWAP1 POP SWAP3 SWAP2 POP POP JUMP JUMPDEST PUSH0 PUSH1 0x20 DUP3 ADD SWAP1 POP SWAP2 SWAP1 POP JUMP JUMPDEST PUSH0 PUSH2 0x2696 DUP3 PUSH2 0x2631 JUMP JUMPDEST PUSH2 0x26A0 DUP2 DUP6 PUSH2 0x263B JUMP JUMPDEST SWAP4 POP PUSH2 0x26AB DUP4 PUSH2 0x264B JUMP JUMPDEST DUP1 PUSH0 JUMPDEST DUP4 DUP2 LT ISZERO PUSH2 0x26DB JUMPI DUP2 MLOAD PUSH2 0x26C2 DUP9 DUP3 PUSH2 0x2669 JUMP JUMPDEST SWAP8 POP PUSH2 0x26CD DUP4 PUSH2 0x2680 JUMP JUMPDEST SWAP3 POP POP PUSH1 0x1 DUP2 ADD SWAP1 POP PUSH2 0x26AE JUMP JUMPDEST POP DUP6 SWAP4 POP POP POP POP SWAP3 SWAP2 POP POP JUMP JUMPDEST PUSH0 PUSH1 0x20 DUP3 ADD SWAP1 POP DUP2 DUP2 SUB PUSH0 DUP4 ADD MSTORE PUSH2 0x2700 DUP2 DUP5 PUSH2 0x268C JUMP JUMPDEST SWAP1 POP SWAP3 SWAP2 POP POP JUMP JUMPDEST PUSH32 0x4E487B7100000000000000000000000000000000000000000000000000000000 PUSH0 MSTORE PUSH1 0x32 PUSH1 0x4 MSTORE PUSH1 0x24 PUSH0 REVERT JUMPDEST PUSH32 0x4E487B7100000000000000000000000000000000000000000000000000000000 PUSH0 MSTORE PUSH1 0x11 PUSH1 0x4 MSTORE PUSH1 0x24 PUSH0 REVERT JUMPDEST PUSH0 PUSH2 0x276C DUP3 PUSH2 0x2422 JUMP JUMPDEST SWAP2 POP PUSH2 0x2777 DUP4 PUSH2 0x2422 JUMP JUMPDEST SWAP3 POP DUP3 DUP3 ADD SWAP1 POP DUP1 DUP3 GT ISZERO PUSH2 0x278F JUMPI PUSH2 0x278E PUSH2 0x2735 JUMP JUMPDEST JUMPDEST SWAP3 SWAP2 POP POP JUMP JUMPDEST PUSH0 PUSH10 0xFFFFFFFFFFFFFFFFFFFF DUP3 AND SWAP1 POP SWAP2 SWAP1 POP JUMP JUMPDEST PUSH2 0x27B3 DUP2 PUSH2 0x2795 JUMP JUMPDEST DUP2 EQ PUSH2 0x27BD JUMPI PUSH0 PUSH0 REVERT JUMPDEST POP JUMP JUMPDEST PUSH0 DUP2 MLOAD SWAP1 POP PUSH2 0x27CE DUP2 PUSH2 0x27AA JUMP JUMPDEST SWAP3 SWAP2 POP POP JUMP JUMPDEST PUSH0 DUP2 SWAP1 POP SWAP2 SWAP1 POP JUMP JUMPDEST PUSH2 0x27E6 DUP2 PUSH2 0x27D4 JUMP JUMPDEST DUP2 EQ PUSH2 0x27F0 JUMPI PUSH0 PUSH0 REVERT JUMPDEST POP JUMP JUMPDEST PUSH0 DUP2 MLOAD SWAP1 POP PUSH2 0x2801 DUP2 PUSH2 0x27DD JUMP JUMPDEST SWAP3 SWAP2 POP POP JUMP JUMPDEST PUSH0 DUP2 MLOAD SWAP1 POP PUSH2 0x2815 DUP2 PUSH2 0x258B JUMP JUMPDEST SWAP3 SWAP2 POP POP JUMP JUMPDEST PUSH0 PUSH0 PUSH0 PUSH0 PUSH0 PUSH1 0xA0 DUP7 DUP9 SUB SLT ISZERO PUSH2 0x2834 JUMPI PUSH2 0x2833 PUSH2 0x22E6 JUMP JUMPDEST JUMPDEST PUSH0 PUSH2 0x2841 DUP9 DUP3 DUP10 ADD PUSH2 0x27C0 JUMP JUMPDEST SWAP6 POP POP PUSH1 0x20 PUSH2 0x2852 DUP9 DUP3 DUP10 ADD PUSH2 0x27F3 JUMP JUMPDEST SWAP5 POP POP PUSH1 0x40 PUSH2 0x2863 DUP9 DUP3 DUP10 ADD PUSH2 0x2807 JUMP JUMPDEST SWAP4 POP POP PUSH1 0x60 PUSH2 0x2874 DUP9 DUP3 DUP10 ADD PUSH2 0x2807 JUMP JUMPDEST SWAP3 POP POP PUSH1 0x80 PUSH2 0x2885 DUP9 DUP3 DUP10 ADD PUSH2 0x27C0 JUMP JUMPDEST SWAP2 POP POP SWAP3 SWAP6 POP SWAP3 SWAP6 SWAP1 SWAP4 POP JUMP JUMPDEST PUSH0 PUSH2 0x289C DUP3 PUSH2 0x2422 JUMP JUMPDEST SWAP2 POP PUSH32 0xFFFFFFFFFFFFFFFFFFFFFFFFFFFFFFFFFFFFFFFFFFFFFFFFFFFFFFFFFFFFFFFF DUP3 SUB PUSH2 0x28CE JUMPI PUSH2 0x28CD PUSH2 0x2735 JUMP JUMPDEST JUMPDEST PUSH1 0x1 DUP3 ADD SWAP1 POP SWAP2 SWAP1 POP JUMP JUMPDEST PUSH0 PUSH1 0x40 DUP3 ADD SWAP1 POP PUSH2 0x28EC PUSH0 DUP4 ADD DUP6 PUSH2 0x242B JUMP JUMPDEST PUSH2 0x28F9 PUSH1 0x20 DUP4 ADD DUP5 PUSH2 0x242B JUMP JUMPDEST SWAP4 SWAP3 POP POP POP JUMP JUMPDEST PUSH0 PUSH2 0x290A DUP3 PUSH2 0x2422 JUMP JUMPDEST SWAP2 POP PUSH2 0x2915 DUP4 PUSH2 0x2422 JUMP JUMPDEST SWAP3 POP DUP3 DUP3 SUB SWAP1 POP DUP2 DUP2 GT ISZERO PUSH2 0x292D JUMPI PUSH2 0x292C PUSH2 0x2735 JUMP JUMPDEST JUMPDEST SWAP3 SWAP2 POP POP JUMP JUMPDEST PUSH32 0x4E487B7100000000000000000000000000000000000000000000000000000000 PUSH0 MSTORE PUSH1 0x31 PUSH1 0x4 MSTORE PUSH1 0x24 PUSH0 REVERT JUMPDEST PUSH0 DUP2 SWAP1 POP SWAP3 SWAP2 POP POP JUMP JUMPDEST POP JUMP JUMPDEST PUSH0 PUSH2 0x2978 PUSH0 DUP4 PUSH2 0x2960 JUMP JUMPDEST SWAP2 POP PUSH2 0x2983 DUP3 PUSH2 0x296A JUMP JUMPDEST PUSH0 DUP3 ADD SWAP1 POP SWAP2 SWAP1 POP JUMP JUMPDEST PUSH0 PUSH2 0x2997 DUP3 PUSH2 0x296D JUMP JUMPDEST SWAP2 POP DUP2 SWAP1 POP SWAP2 SWAP1 POP JUMP JUMPDEST PUSH0 PUSH1 0xFF DUP3 AND SWAP1 POP SWAP2 SWAP1 POP JUMP JUMPDEST PUSH2 0x29B6 DUP2 PUSH2 0x29A1 JUMP JUMPDEST DUP2 EQ PUSH2 0x29C0 JUMPI PUSH0 PUSH0 REVERT JUMPDEST POP JUMP JUMPDEST PUSH0 DUP2 MLOAD SWAP1 POP PUSH2 0x29D1 DUP2 PUSH2 0x29AD JUMP JUMPDEST SWAP3 SWAP2 POP POP JUMP JUMPDEST PUSH0 PUSH1 0x20 DUP3 DUP5 SUB SLT ISZERO PUSH2 0x29EC JUMPI PUSH2 0x29EB PUSH2 0x22E6 JUMP JUMPDEST JUMPDEST PUSH0 PUSH2 0x29F9 DUP5 DUP3 DUP6 ADD PUSH2 0x29C3 JUMP JUMPDEST SWAP2 POP POP SWAP3 SWAP2 POP POP JUMP JUMPDEST PUSH0 PUSH2 0x2A0C DUP3 PUSH2 0x2422 JUMP JUMPDEST SWAP2 POP PUSH2 0x2A17 DUP4 PUSH2 0x2422 JUMP JUMPDEST SWAP3 POP DUP3 DUP3 MUL PUSH2 0x2A25 DUP2 PUSH2 0x2422 JUMP JUMPDEST SWAP2 POP DUP3 DUP3 DIV DUP5 EQ DUP4 ISZERO OR PUSH2 0x2A3C JUMPI PUSH2 0x2A3B PUSH2 0x2735 JUMP JUMPDEST JUMPDEST POP SWAP3 SWAP2 POP POP JUMP JUMPDEST PUSH32 0x4E487B7100000000000000000000000000000000000000000000000000000000 PUSH0 MSTORE PUSH1 0x12 PUSH1 0x4 MSTORE PUSH1 0x24 PUSH0 REVERT JUMPDEST PUSH0 PUSH2 0x2A7A DUP3 PUSH2 0x2422 JUMP JUMPDEST SWAP2 POP PUSH2 0x2A85 DUP4 PUSH2 0x2422 JUMP JUMPDEST SWAP3 POP DUP3 PUSH2 0x2A95 JUMPI PUSH2 0x2A94 PUSH2 0x2A43 JUMP JUMPDEST JUMPDEST DUP3 DUP3 DIV SWAP1 POP SWAP3 SWAP2 POP POP JUMP JUMPDEST PUSH0 DUP3 DUP3 MSTORE PUSH1 0x20 DUP3 ADD SWAP1 POP SWAP3 SWAP2 POP POP JUMP JUMPDEST PUSH32 0x5265656E7472616E637947756172643A207265656E7472616E742063616C6C00 PUSH0 DUP3 ADD MSTORE POP JUMP JUMPDEST PUSH0 PUSH2 0x2AE4 PUSH1 0x1F DUP4 PUSH2 0x2AA0 JUMP JUMPDEST SWAP2 POP PUSH2 0x2AEF DUP3 PUSH2 0x2AB0 JUMP JUMPDEST PUSH1 0x20 DUP3 ADD SWAP1 POP SWAP2 SWAP1 POP JUMP JUMPDEST PUSH0 PUSH1 0x20 DUP3 ADD SWAP1 POP DUP2 DUP2 SUB PUSH0 DUP4 ADD MSTORE PUSH2 0x2B11 DUP2 PUSH2 0x2AD8 JUMP JUMPDEST SWAP1 POP SWAP2 SWAP1 POP JUMP JUMPDEST PUSH2 0x2B21 DUP2 PUSH2 0x23BC JUMP JUMPDEST DUP3 MSTORE POP POP JUMP JUMPDEST PUSH0 PUSH1 0x60 DUP3 ADD SWAP1 POP PUSH2 0x2B3A PUSH0 DUP4 ADD DUP7 PUSH2 0x2B18 JUMP JUMPDEST PUSH2 0x2B47 PUSH1 0x20 DUP4 ADD DUP6 PUSH2 0x2B18 JUMP JUMPDEST PUSH2 0x2B54 PUSH1 0x40 DUP4 ADD DUP5 PUSH2 0x242B JUMP JUMPDEST SWAP5 SWAP4 POP POP POP POP JUMP JUMPDEST PUSH0 PUSH1 0x40 DUP3 ADD SWAP1 POP PUSH2 0x2B6F PUSH0 DUP4 ADD DUP6 PUSH2 0x2B18 JUMP JUMPDEST PUSH2 0x2B7C PUSH1 0x20 DUP4 ADD DUP5 PUSH2 0x242B JUMP JUMPDEST SWAP4 SWAP3 POP POP POP JUMP JUMPDEST PUSH0 PUSH2 0x2B8D DUP3 PUSH2 0x29A1 JUMP JUMPDEST SWAP2 POP PUSH2 0x2B98 DUP4 PUSH2 0x29A1 JUMP JUMPDEST SWAP3 POP DUP3 DUP3 SUB SWAP1 POP PUSH1 0xFF DUP2 GT ISZERO PUSH2 0x2BB1 JUMPI PUSH2 0x2BB0 PUSH2 0x2735 JUMP JUMPDEST JUMPDEST SWAP3 SWAP2 POP POP JUMP JUMPDEST PUSH0 DUP2 PUSH1 0x1 SHR SWAP1 POP SWAP2 SWAP1 POP JUMP JUMPDEST PUSH0 PUSH0 DUP3 SWAP2 POP DUP4 SWAP1 POP JUMPDEST PUSH1 0x1 DUP6 GT ISZERO PUSH2 0x2C0C JUMPI DUP1 DUP7 DIV DUP2 GT ISZERO PUSH2 0x2BE8 JUMPI PUSH2 0x2BE7 PUSH2 0x2735 JUMP JUMPDEST JUMPDEST PUSH1 0x1 DUP6 AND ISZERO PUSH2 0x2BF7 JUMPI DUP1 DUP3 MUL SWAP2 POP JUMPDEST DUP1 DUP2 MUL SWAP1 POP PUSH2 0x2C05 DUP6 PUSH2 0x2BB7 JUMP JUMPDEST SWAP5 POP PUSH2 0x2BCC JUMP JUMPDEST SWAP5 POP SWAP5 SWAP3 POP POP POP JUMP JUMPDEST PUSH0 DUP3 PUSH2 0x2C24 JUMPI PUSH1 0x1 SWAP1 POP PUSH2 0x2CDF JUMP JUMPDEST DUP2 PUSH2 0x2C31 JUMPI PUSH0 SWAP1 POP PUSH2 0x2CDF JUMP JUMPDEST DUP2 PUSH1 0x1 DUP2 EQ PUSH2 0x2C47 JUMPI PUSH1 0x2 DUP2 EQ PUSH2 0x2C51 JUMPI PUSH2 0x2C80 JUMP JUMPDEST PUSH1 0x1 SWAP2 POP POP PUSH2 0x2CDF JUMP JUMPDEST PUSH1 0xFF DUP5 GT ISZERO PUSH2 0x2C63 JUMPI PUSH2 0x2C62 PUSH2 0x2735 JUMP JUMPDEST JUMPDEST DUP4 PUSH1 0x2 EXP SWAP2 POP DUP5 DUP3 GT ISZERO PUSH2 0x2C7A JUMPI PUSH2 0x2C79 PUSH2 0x2735 JUMP JUMPDEST JUMPDEST POP PUSH2 0x2CDF JUMP JUMPDEST POP PUSH1 0x20 DUP4 LT PUSH2 0x133 DUP4 LT AND PUSH1 0x4E DUP5 LT PUSH1 0xB DUP5 LT AND OR ISZERO PUSH2 0x2CB5 JUMPI DUP3 DUP3 EXP SWAP1 POP DUP4 DUP2 GT ISZERO PUSH2 0x2CB0 JUMPI PUSH2 0x2CAF PUSH2 0x2735 JUMP JUMPDEST JUMPDEST PUSH2 0x2CDF JUMP JUMPDEST PUSH2 0x2CC2 DUP5 DUP5 DUP5 PUSH1 0x1 PUSH2 0x2BC3 JUMP JUMPDEST SWAP3 POP SWAP1 POP DUP2 DUP5 DIV DUP2 GT ISZERO PUSH2 0x2CD9 JUMPI PUSH2 0x2CD8 PUSH2 0x2735 JUMP JUMPDEST JUMPDEST DUP2 DUP2 MUL SWAP1 POP JUMPDEST SWAP4 SWAP3 POP POP POP JUMP JUMPDEST PUSH0 PUSH2 0x2CF0 DUP3 PUSH2 0x2422 JUMP JUMPDEST SWAP2 POP PUSH2 0x2CFB DUP4 PUSH2 0x29A1 JUMP JUMPDEST SWAP3 POP PUSH2 0x2D28 PUSH32 0xFFFFFFFFFFFFFFFFFFFFFFFFFFFFFFFFFFFFFFFFFFFFFFFFFFFFFFFFFFFFFFFF DUP5 DUP5 PUSH2 0x2C15 JUMP JUMPDEST SWAP1 POP SWAP3 SWAP2 POP POP JUMP JUMPDEST PUSH0 PUSH1 0x40 DUP3 ADD SWAP1 POP PUSH2 0x2D43 PUSH0 DUP4 ADD DUP6 PUSH2 0x2B18 JUMP JUMPDEST PUSH2 0x2D50 PUSH1 0x20 DUP4 ADD DUP5 PUSH2 0x24B1 JUMP JUMPDEST SWAP4 SWAP3 POP POP POP JUMP JUMPDEST PUSH0 PUSH1 0x20 DUP3 ADD SWAP1 POP PUSH2 0x2D6A PUSH0 DUP4 ADD DUP5 PUSH2 0x2B18 JUMP JUMPDEST SWAP3 SWAP2 POP POP JUMP INVALID LOG2 PUSH5 0x6970667358 0x22 SLT KECCAK256 XOR JUMPDEST 0xC1 EXTCODEHASH CALLDATACOPY GAS 0xDD 0x1F ADDMOD SAR BLOBHASH PC 0xD6 PUSH22 0xA25250B43993E3AB57652CEE2F38F00FD8264736F6C PUSH4 0x4300081E STOP CALLER "
				},
				"gasEstimates": {
					"creation": {
						"codeDepositCost": "2337200",
						"executionCost": "infinite",
						"totalCost": "infinite"
					},
					"external": {
						"": "285",
						"BANK_MANAGER_ROLE()": "413",
						"DEFAULT_ADMIN_ROLE()": "396",
						"deposit(address,uint256)": "infinite",
						"depositCount(address)": "2934",
						"ethUsdFeed()": "infinite",
						"getLatestEthPrice()": "infinite",
						"getRoleAdmin(bytes32)": "infinite",
						"getSupportedTokens()": "infinite",
						"getTotalDepositsInUSD(address)": "infinite",
						"getUserBalance(address,address)": "infinite",
						"grantRole(bytes32,address)": "infinite",
						"hasRole(bytes32,address)": "3143",
						"maxWithdrawal()": "infinite",
						"priceFeedForToken(address)": "infinite",
						"renounceRole(bytes32,address)": "infinite",
						"revokeRole(bytes32,address)": "infinite",
						"setPriceFeed(address,address)": "infinite",
						"supportToken(address,address)": "infinite",
						"supportsInterface(bytes4)": "741",
						"totalBankCapacityUSD()": "infinite",
						"totalDepositsUSD()": "2469",
						"unsupportToken(address)": "infinite",
						"withdraw(address,uint256)": "infinite",
						"withdrawalCount(address)": "2913"
					},
					"internal": {
						"_convertEthToUSD(uint256)": "infinite",
						"_convertTokenToUSD(address,uint256)": "infinite",
						"_normalizeToUSDCDecimals(uint256,uint8)": "infinite",
						"_safeTransfer(address,uint256)": "infinite"
					}
				},
				"methodIdentifiers": {
					"BANK_MANAGER_ROLE()": "f2157052",
					"DEFAULT_ADMIN_ROLE()": "a217fddf",
					"deposit(address,uint256)": "47e7ef24",
					"depositCount(address)": "f4443d9a",
					"ethUsdFeed()": "8009b7bd",
					"getLatestEthPrice()": "30c0b9ec",
					"getRoleAdmin(bytes32)": "248a9ca3",
					"getSupportedTokens()": "d3c7c2c7",
					"getTotalDepositsInUSD(address)": "1e604ea3",
					"getUserBalance(address,address)": "6805d6ad",
					"grantRole(bytes32,address)": "2f2ff15d",
					"hasRole(bytes32,address)": "91d14854",
					"maxWithdrawal()": "8c0ff5b7",
					"priceFeedForToken(address)": "2e3441a9",
					"renounceRole(bytes32,address)": "36568abe",
					"revokeRole(bytes32,address)": "d547741f",
					"setPriceFeed(address,address)": "76e11286",
					"supportToken(address,address)": "92b9f8f5",
					"supportsInterface(bytes4)": "01ffc9a7",
					"totalBankCapacityUSD()": "a773a500",
					"totalDepositsUSD()": "e7d66d63",
					"unsupportToken(address)": "ee3d6866",
					"withdraw(address,uint256)": "f3fef3a3",
					"withdrawalCount(address)": "b3d8bcdc"
				}
			},
			"storageLayout": {
				"storage": [
					{
						"astId": 73,
						"contract": "src/KipuBankV2.sol:KipuBank",
						"label": "_roles",
						"offset": 0,
						"slot": "0",
						"type": "t_mapping(t_bytes32,t_struct(RoleData)68_storage)"
					},
					{
						"astId": 526,
						"contract": "src/KipuBankV2.sol:KipuBank",
						"label": "_status",
						"offset": 0,
						"slot": "1",
						"type": "t_uint256"
					},
					{
						"astId": 1250,
						"contract": "src/KipuBankV2.sol:KipuBank",
						"label": "priceFeedForToken",
						"offset": 0,
						"slot": "2",
						"type": "t_mapping(t_address,t_contract(AggregatorV3Interface)45)"
					},
					{
						"astId": 1257,
						"contract": "src/KipuBankV2.sol:KipuBank",
						"label": "vaultBalance",
						"offset": 0,
						"slot": "3",
						"type": "t_mapping(t_address,t_mapping(t_address,t_uint256))"
					},
					{
						"astId": 1262,
						"contract": "src/KipuBankV2.sol:KipuBank",
						"label": "depositCount",
						"offset": 0,
						"slot": "4",
						"type": "t_mapping(t_address,t_uint256)"
					},
					{
						"astId": 1267,
						"contract": "src/KipuBankV2.sol:KipuBank",
						"label": "withdrawalCount",
						"offset": 0,
						"slot": "5",
						"type": "t_mapping(t_address,t_uint256)"
					},
					{
						"astId": 1270,
						"contract": "src/KipuBankV2.sol:KipuBank",
						"label": "supportedTokens",
						"offset": 0,
						"slot": "6",
						"type": "t_array(t_address)dyn_storage"
					},
					{
						"astId": 1274,
						"contract": "src/KipuBankV2.sol:KipuBank",
						"label": "isTokenSupported",
						"offset": 0,
						"slot": "7",
						"type": "t_mapping(t_address,t_bool)"
					},
					{
						"astId": 1277,
						"contract": "src/KipuBankV2.sol:KipuBank",
						"label": "totalDepositsUSD",
						"offset": 0,
						"slot": "8",
						"type": "t_uint256"
					}
				],
				"types": {
					"t_address": {
						"encoding": "inplace",
						"label": "address",
						"numberOfBytes": "20"
					},
					"t_array(t_address)dyn_storage": {
						"base": "t_address",
						"encoding": "dynamic_array",
						"label": "address[]",
						"numberOfBytes": "32"
					},
					"t_bool": {
						"encoding": "inplace",
						"label": "bool",
						"numberOfBytes": "1"
					},
					"t_bytes32": {
						"encoding": "inplace",
						"label": "bytes32",
						"numberOfBytes": "32"
					},
					"t_contract(AggregatorV3Interface)45": {
						"encoding": "inplace",
						"label": "contract AggregatorV3Interface",
						"numberOfBytes": "20"
					},
					"t_mapping(t_address,t_bool)": {
						"encoding": "mapping",
						"key": "t_address",
						"label": "mapping(address => bool)",
						"numberOfBytes": "32",
						"value": "t_bool"
					},
					"t_mapping(t_address,t_contract(AggregatorV3Interface)45)": {
						"encoding": "mapping",
						"key": "t_address",
						"label": "mapping(address => contract AggregatorV3Interface)",
						"numberOfBytes": "32",
						"value": "t_contract(AggregatorV3Interface)45"
					},
					"t_mapping(t_address,t_mapping(t_address,t_uint256))": {
						"encoding": "mapping",
						"key": "t_address",
						"label": "mapping(address => mapping(address => uint256))",
						"numberOfBytes": "32",
						"value": "t_mapping(t_address,t_uint256)"
					},
					"t_mapping(t_address,t_uint256)": {
						"encoding": "mapping",
						"key": "t_address",
						"label": "mapping(address => uint256)",
						"numberOfBytes": "32",
						"value": "t_uint256"
					},
					"t_mapping(t_bytes32,t_struct(RoleData)68_storage)": {
						"encoding": "mapping",
						"key": "t_bytes32",
						"label": "mapping(bytes32 => struct AccessControl.RoleData)",
						"numberOfBytes": "32",
						"value": "t_struct(RoleData)68_storage"
					},
					"t_struct(RoleData)68_storage": {
						"encoding": "inplace",
						"label": "struct AccessControl.RoleData",
						"members": [
							{
								"astId": 65,
								"contract": "src/KipuBankV2.sol:KipuBank",
								"label": "hasRole",
								"offset": 0,
								"slot": "0",
								"type": "t_mapping(t_address,t_bool)"
							},
							{
								"astId": 67,
								"contract": "src/KipuBankV2.sol:KipuBank",
								"label": "adminRole",
								"offset": 0,
								"slot": "1",
								"type": "t_bytes32"
							}
						],
						"numberOfBytes": "64"
					},
					"t_uint256": {
						"encoding": "inplace",
						"label": "uint256",
						"numberOfBytes": "32"
					}
				}
			},
			"userdoc": {
				"errors": {
					"BankCapExceeded()": [
						{
							"notice": "It is thrown if the Bank Cap Exceeded"
						}
					],
					"DirectCallNotAllowed()": [
						{
							"notice": "It is thrown if someone calls the contract with incorrect data."
						}
					],
					"DirectTransferNotAllowed()": [
						{
							"notice": "Thrown if you try to send ETH directly to the contract."
						}
					],
					"InsufficientBalance()": [
						{
							"notice": "When a user tries to withdraw more than their balance"
						}
					],
					"InvalidAmount()": [
						{
							"notice": "It is raised when the amount sent or requested is invalid"
						}
					],
					"InvalidBankCapacity()": [
						{
							"notice": "Thrown if the bank capacity in the constructor is invalid."
						}
					],
					"InvalidOracle()": [
						{
							"notice": "It is thrown if the oracle address"
						}
					],
					"MaxWithdrawalExceeded()": [
						{
							"notice": "When a withdrawal exceeds the transaction limit."
						}
					],
					"MaximumWithdrawalInvalid()": [
						{
							"notice": "Thrown if the maxRetiro value in the constructor is invalid."
						}
					],
					"TokenNotSupported()": [
						{
							"notice": "It is thrown if the token used is not supported by the bank"
						}
					],
					"TransferFailed()": [
						{
							"notice": "Thrown if an ETH or token transfer fails"
						}
					],
					"ZeroDepositNotAllowed()": [
						{
							"notice": "When trying to deposit 0 ETH."
						}
					]
				},
				"events": {
					"DepositMade(address,address,uint256,uint256)": {
						"notice": "Emitted when a user deposits an ETh or token into the contract."
					},
					"ParamentersUpdated(uint256,uint256)": {
						"notice": "Emitted when the bank's main parameters are updated:"
					},
					"PriceFeedRemoved(address)": {
						"notice": "Emitted when the oracle associated with a token is deleted."
					},
					"PriceFeedSet(address,address)": {
						"notice": "It is issued when a new oracle is assigned to a token, used to obtain its price in USD"
					},
					"TokenSupported(address)": {
						"notice": "Emitted when an administrator (BANK_MANAGER_ROLE) adds support for a new ERC-20 token"
					},
					"TokenUnsupported(address)": {
						"notice": "Emitted when support for a previously accepted token is removed."
					},
					"WithdrawalMade(address,address,uint256,uint256)": {
						"notice": "It is issued when the user makes a successful withdrawal."
					}
				},
				"kind": "user",
				"methods": {
					"constructor": {
						"notice": "Initializes the contract with the specified limits."
					},
					"deposit(address,uint256)": {
						"notice": "Deposits ETH into the user's personal vault."
					},
					"depositCount(address)": {
						"notice": "Number of deposits made by each user."
					},
					"ethUsdFeed()": {
						"notice": "Oraculo chailink ETH/USD"
					},
					"getUserBalance(address,address)": {
						"notice": "Returns the current vault balance of a given user."
					},
					"maxWithdrawal()": {
						"notice": "Máximo permitido por transacción de retiro."
					},
					"supportToken(address,address)": {
						"notice": "Agrega soporte para un token ERC20 "
					},
					"totalBankCapacityUSD()": {
						"notice": "Capacidad total del banco en ETH."
					},
					"totalDepositsUSD()": {
						"notice": "Total actual de todos los depósitos en el contrato."
					},
					"unsupportToken(address)": {
						"notice": "The function marks a token as unsupported and can only be executed by a user with the BANK_MANAGER_ROLE role, preventing any user from disabling support for a token."
					},
					"withdraw(address,uint256)": {
						"notice": "Withdraws a specified amount of ETH from the user's vault."
					},
					"withdrawalCount(address)": {
						"notice": "Number of withdrawals made by each user."
					}
				},
				"version": 1
			}
		}
	}
}